0120230324ADQDIGITAL0766931839
020589693XXXXXXXX0000000000000 000012157502088373400000000000000016795321577262100COMPRA INT COMPRAQ  CL        0000000012 20230322214237        000000000 00000000000000000015990000000000000000000000159900DA                            D       0000000000000000000000
020589693XXXXXXXX0000000000000 000012157814088744100000000000000016795327245442100COMPRA INT COMPRAQ  CL        0000000012 20230322215204        000000000 00000000000000000015990000000000000000000000159900DA                            D       0000000000000000000000
020589693XXXXXXXX0000000000000 000012158016051144500000000000000016795331101202100COMPRA INT COMPRAQ  CL        0000000012 20230322215830        000000000 00000000000000000015990000000000000000000000159900DA                            D       0000000000000000000000
02000548742XXXXXX8610000000000 000012161893091915000000000000000016795453964662100WEB       COMPRAQUI           0000000051 20230323012316        000000000 00000000000000000015990000000000000000000000159900DA                            C       0000000000000000000000
020589693XXXXXXXX8004000000000 000012167538077834000000000000000016795795670482100COMPRA INT COMPRAQ  CL        0000000012 20230323105247        000000000 00000000000000000006990000000000000000000000069900DA                            D       0000000000000000000000
02000434560XXXXXX2995000000000 000012167694076119500000000000000016795798705472100WEB       COMPRAQUI           00000000Q5 20230323105750        000000000 00000000000000000006990000000000000000000000069900DA                            D       0000000000000000000000
02000522468XXXXXX9651000000000 000012169901094591600000000000000016795839695782100WEB       COMPRAQUI           0000000083 20230323120609        000000000 00000000000000000001990000000000000000000000019900DA                            C       0000000000000000000000
02000522468XXXXXX9651000000000 000012169982069510400000000000000016795839695782100WEB       COMPRAQUI           0000000083 20230323120609        000000000 00000000000000000001990000000000000000000000019900DA                            C       0000000000000000000000
02000548742XXXXXX3059000000000 000012177426091748500000000000000016795984163042100WEB       COMPRAQUI           0000000051 20230323160656        000000000 00000000000000000006990000000000000000000000069900DA                            C       0000000000000000000000
020589693XXXXXXXX0000000000000 000012159019052269800000000000000016795352592792100COMPRA INT COMPRAQ  CL        0000000012 20230322223419        000000000 00000000000000000015990000000000000000000000159900DA                            D       0000000000000000000000
02000456473XXXXXX0197000000000 000012159511071434300000000000000016795361438562100WEB       COMPRAQUI           0000000033 20230322224904        000000000 00000000000000000006990000000000000000000000069900DA                            C       0000000000000000000000
02000522468XXXXXX4033000000000 000012161783015358700000000000000016795443567772100WEB       COMPRAQUI           0000000068 20230323010557        000000000 00000000000000000001990000000000000000000000019900DA                            C       0000000000000000000000
02000522468XXXXXX3021000000000 000012161802018960600000000000000016795443567772100WEB       COMPRAQUI           0000000083 20230323010557        000000000 00000000000000000001990000000000000000000000019900DA                            C       0000000000000000000000
02000548742XXXXXX8610000000000 000012161886079587800000000000000016795453964662100WEB       COMPRAQUI           0000000051 20230323012316        000000000 00000000000000000015990000000000000000000000159900DA                            C       0000000000000000000000
02000548742XXXXXX1941000000000 000012161897051568800000000000000016795453964662100WEB       COMPRAQUI           0000000068 20230323012316        000000000 00000000000000000015990000000000000000000000159900DA                            C       0000000000000000000000
020589693XXXXXXXX8004000000000 000012167495022832200000000000000016795795670482100COMPRA INT COMPRAQ  CL        0000000012 20230323105247        000000000 00000000000000000006990000000000000000000000069900DA                            D       0000000000000000000000
02000434560XXXXXX2995000000000 000012167572045074000000000000000016795795670482100WEB       COMPRAQUI           00000000Q5 20230323105247        000000000 00000000000000000006990000000000000000000000069900DA                            D       0000000000000000000000
020589693XXXXXXXX8004000000000 000012167658010474800000000000000016795798705472100COMPRA INT COMPRAQ  CL        0000000012 20230323105750        000000000 00000000000000000006990000000000000000000000069900DA                            D       0000000000000000000000
020589693XXXXXXXX8004000000000 000012167955068185500000000000000016795803162052100COMPRA INT COMPRAQ  CL        0000000012 20230323110516        000000000 00000000000000000006990000000000000000000000069900DA                            D       0000000000000000000000
02000548742XXXXXX6781000000000 000012158099028102200000000000000016795332806252100WEB       COMPRAQUI           0000000000 20230322220120        000000000 00000000000000000001990000000000000000000000019900DA                            C       0000000000000000000000
02000512269XXXXXX6446000000000 000012158304021763700000000000000016795336866422100WEB       COMPRAQUI           0000000000 20230322220806        000000000 00000000000000000006990000000000000000000000069900DA                            C       0000000000000000000000
02000456473XXXXXX0197000000000 000012159595082008000000000000000016795361438562100WEB       COMPRAQUI           0000000000 20230322224904        000000000 00000000000000000006990000000000000000000000069900DA                            C       0000000000000000000000
02000548742XXXXXX8610000000000 000012161846052209800000000000000016795443567772100WEB       COMPRAQUI           0000000000 20230323010557        000000000 00000000000000000001990000000000000000000000019900DA                            C       0000000000000000000000
02000451368XXXXXX6860000000000 000012161991081276100000000000000016795462366282100WEB       COMPRAQUI           0000000000 20230323013716        000000000 00000000000000000001990000000000000000000000019900DA                            D       0000000000000000000000
02000409152XXXXXX4345000000000 000012162376078208600000000000000016795574423582100WEB       COMPRAQUI           0000000000 20230323044402        000000000 00000000000000000006990000000000000000000000069900DA                            C       0000000000000000000000
02000533187XXXXXX8206000000000 000012164966045347300000000000000016795743388762100WEB       COMPRAQUI           0000000000 20230323092538        000000000 00000000000000000001990000000000000000000000019900DA                            D       0000000000000000000000
02000434559XXXXXX8905000000000 000012165315085726500000000000000016795748902412100WEB       COMPRAQUI           0000000000 20230323093450        000000000 00000000000000000006990000000000000000000000069900DA                            D       0000000000000000000000
02000434561XXXXXX8879000000000 000012167408011474000000000000000016795794033532100WEB       COMPRAQUI           0000000000 20230323105003        000000000 00000000000000000006990000000000000000000000069900DA                            D       0000000000000000000000
02000489644XXXXXX0029000000000 000012168700026908000000000000000016795814441472100WEB       COMPRAQUI           0000000000 20230323112404        000000000 00000000000000000001990000000000000000000000019900DA                            D       0000000000000000000000
02000434561XXXXXX4788000000000 000012170021035647100000000000000016795841865662100WEB       COMPRAQUI           0000000000 20230323120947        000000000 00000000000000000006990000000000000000000000069900DA                            D       0000000000000000000000
02000475774XXXXXX6299000000000 000012171497072017200000000000000016795867599452100WEB       COMPRAQUI           0000000000 20230323125240        000000000 00000000000000000001990000000000000000000000019900DA                            D       0000000000000000000000
02000434559XXXXXX3227000000000 000012172122094484200000000000000016795876686912100WEB       COMPRAQUI           0000000000 20230323130748        000000000 00000000000000000006990000000000000000000000069900DA                            D       0000000000000000000000
02000533187XXXXXX9130000000000 000012172161042402500000000000000016795879532082100WEB       COMPRAQUI           0000000000 20230323131233        000000000 00000000000000000006990000000000000000000000069900DA                            D       0000000000000000000000
02000475774XXXXXX7193000000000 000012174528012783200000000000000016795924447562100WEB       COMPRAQUI           0000000000 20230323142725        000000000 00000000000000000006990000000000000000000000069900DA                            D       0000000000000000000000
020589710XXXXXXXX8799000000000 000012175339082615500000000000000016795939396902100WEB       COMPRAQUI           0000000000 20230323145219        000000000 00000000000000000001990000000000000000000000019900DA                            D       0000000000000000000000
02000434559XXXXXX6902000000000 000012175495048773400000000000000016795942558722100WEB       COMPRAQUI           0000000000 20230323145735        000000000 00000000000000000001990000000000000000000000019900DA                            D       0000000000000000000000
02000475776XXXXXX9008000000000 000012175646097833400000000000000016795945713592100WEB       COMPRAQUI           0000000000 20230323150251        000000000 00000000000000000006990000000000000000000000069900DA                            C       0000000000000000000000
02000475774XXXXXX9108000000000 000012175876092654100000000000000016795950982642100WEB       COMPRAQUI           0000000000 20230323151138        000000000 00000000000000000006990000000000000000000000069900DA                            D       0000000000000000000000
02000434559XXXXXX6126000000000 000012177487050887100000000000000016795984163042100WEB       COMPRAQUI           0000000000 20230323160656        000000000 00000000000000000006990000000000000000000000069900DA                            D       0000000000000000000000
02000440612XXXXXX1585000000000 000012177555051207700000000000000016795986814882100WEB       COMPRAQUI           0000000000 20230323161121        000000000 00000000000000000006990000000000000000000000069900DA                            D       0000000000000000000000
02000533187XXXXXX2753000000000 000012178257025794800000000000000016795998941932100WEB       COMPRAQUI           0000000000 20230323163134        000000000 00000000000000000001990000000000000000000000019900DA                            D       0000000000000000000000
02000440612XXXXXX1585000000000 000012178712083167500000000000000016796008808462100WEB       COMPRAQUI           0000000000 20230323164801        000000000 00000000000000000006990000000000000000000000069900DA                            D       0000000000000000000000
02000541678XXXXXX8638000000000 000012179511086266400000000000000016796023808782100WEB       COMPRAQUI           0000000000 20230323171301        000000000 00000000000000000006990000000000000000000000069900DA                            C       0000000000000000000000
02000451368XXXXXX6905000000000 000012182756075855000000000000000016796097081602100WEB       COMPRAQUI           0000000000 20230323191508        000000000 00000000000000000001990000000000000000000000019900DA                            D       0000000000000000000000
02000478688XXXXXX2454000000000 000012157564030497400000000000000016795322545182100WEB       COMPRAQUI           0000000000 20230322214414        000000000 00000000000000000006990000000000000000000000069900DA                            C       0000000000000000000000
02000543696XXXXXX0376000000000 000012157765049758300000000000000016795326312982100WEB       COMPRAQUI           0000000000 20230322215031        000000000 00000000000000000001990000000000000000000000019900DA                            C       0000000000000000000000
02000559205XXXXXX6704000000000 000012159068002538500000000000000016795353515862100WEB       COMPRAQUI           0000000000 20230322223551        000000000 00000000000000000015990000000000000000000000159900DA                            C       0000000000000000000000
02000496672XXXXXX2161000000000 000012159495049502200000000000000016795359274282100WEB       COMPRAQUI           0000000000 20230322224527        000000000 00000000000000000006990000000000000000000000069900DA                            C       0000000000000000000000
02000451368XXXXXX8046000000000 000012160816098336800000000000000016795393726502100WEB       COMPRAQUI           0000000000 20230322234252        000000000 00000000000000000006990000000000000000000000069900DA                            D       0000000000000000000000
02000548742XXXXXX4261000000000 000012161906020098600000000000000016795455334842100WEB       COMPRAQUI           0000000000 20230323012533        000000000 00000000000000000015990000000000000000000000159900DA                            C       0000000000000000000000
02000533187XXXXXX8202000000000 000012162094099434900000000000000016795480658592100WEB       COMPRAQUI           0000000000 20230323020746        000000000 00000000000000000006990000000000000000000000069900DA                            D       0000000000000000000000
02000409767XXXXXX8469000000000 000012165308022172200000000000000016795750091252100WEB       COMPRAQUI           0000000000 20230323093649        000000000 00000000000000000006990000000000000000000000069900DA                            D       0000000000000000000000
02000434559XXXXXX2723000000000 000012165590065820900000000000000016795753980132100WEB       COMPRAQUI           0000000000 20230323094318        000000000 00000000000000000006990000000000000000000000069900DA                            D       0000000000000000000000
02000450881XXXXXX0458000000000 000012166393073245600000000000000016795772789482100WEB       COMPRAQUI           0000000000 20230323101439        000000000 00000000000000000006990000000000000000000000069900DA                            C       0000000000000000000000
02000434561XXXXXX6141000000000 000012167059074948900000000000000016795787294162100WEB       COMPRAQUI           0000000000 20230323103849        000000000 00000000000000000006990000000000000000000000069900DA                            D       0000000000000000000000
02000440612XXXXXX6984000000000 000012167453045330400000000000000016795795040582100WEB       COMPRAQUI           0000000000 20230323105144        000000000 00000000000000000006990000000000000000000000069900DA                            D       0000000000000000000000
02000434560XXXXXX0708000000000 000012167545008988600000000000000016795796633432100WEB       COMPRAQUI           0000000000 20230323105423        000000000 00000000000000000006990000000000000000000000069900DA                            D       0000000000000000000000
02000434559XXXXXX9332000000000 000012168688096322200000000000000016795805910762100WEB       COMPRAQUI           0000000000 20230323110951        000000000 00000000000000000006990000000000000000000000069900DA                            D       0000000000000000000000
02000409767XXXXXX8244000000000 000012168977051019600000000000000016795822615572100WEB       COMPRAQUI           0000000000 20230323113741        000000000 00000000000000000006990000000000000000000000069900DA                            D       0000000000000000000000
02000409767XXXXXX3521000000000 000012170031013653700000000000000016795839695782100WEB       COMPRAQUI           0000000000 20230323120609        000000000 00000000000000000001990000000000000000000000019900DA                            D       0000000000000000000000
02000434560XXXXXX8217000000000 000012170605082618000000000000000016795849080422100WEB       COMPRAQUI           0000000000 20230323122148        000000000 00000000000000000006990000000000000000000000069900DA                            D       0000000000000000000000
02000533187XXXXXX7157000000000 000012171419043568000000000000000016795866444452100WEB       COMPRAQUI           0000000000 20230323125044        000000000 00000000000000000006990000000000000000000000069900DA                            D       0000000000000000000000
02000445596XXXXXX5158000000000 000012173571001193300000000000000016795907087792100WEB       COMPRAQUI           0000000000 20230323135829        000000000 00000000000000000006990000000000000000000000069900DA                            C       0000000000000000000000
02000434561XXXXXX7670000000000 000012175092074298200000000000000016795934571592100WEB       COMPRAQUI           0000000000 20230323144417        000000000 00000000000000000006990000000000000000000000069900DA                            D       0000000000000000000000
02000533187XXXXXX1467000000000 000012175152096433700000000000000016795935801262100WEB       COMPRAQUI           0000000000 20230323144620        000000000 00000000000000000006990000000000000000000000069900DA                            D       0000000000000000000000
02000456460XXXXXX4316000000000 000012176921021943900000000000000016795974136652100WEB       COMPRAQUI           0000000000 20230323155013        000000000 00000000000000000006990000000000000000000000069900DA                            C       0000000000000000000000
02000434559XXXXXX9882000000000 000012177979058099200000000000000016795994108802100WEB       COMPRAQUI           0000000000 20230323162331        000000000 00000000000000000001990000000000000000000000019900DA                            D       0000000000000000000000
02000477041XXXXXX7671000000000 000012179120027083500000000000000016796015640192100WEB       COMPRAQUI           0000000000 20230323165924        000000000 00000000000000000006990000000000000000000000069900DA                            D       0000000000000000000000
02000434561XXXXXX4838000000000 000012179669007625800000000000000016796027390592100WEB       COMPRAQUI           0000000000 20230323171859        000000000 00000000000000000001990000000000000000000000019900DA                            D       0000000000000000000000
02000434559XXXXXX4558000000000 000012181126094285700000000000000016796059723572100WEB       COMPRAQUI           0000000000 20230323181252        000000000 00000000000000000006990000000000000000000000069900DA                            D       0000000000000000000000
02000451368XXXXXX4644000000000 000012183834041642800000000000000016796124037742100WEB       COMPRAQUI           0000000000 20230323200003        000000000 00000000000000000001990000000000000000000000019900DA                            D       0000000000000000000000
02000421767XXXXXX8673000000000 000012184702075904600000000000000016796144854922100WEB       COMPRAQUI           0000000000 20230323203445        000000000 00000000000000000001990000000000000000000000019900DA                            D       0000000000000000000000
03000053000000308470000000000000000000000000530000003084700                                                                                                                                                        
