0120230324ADQDIGITAL0606010001
02000535586XXXXXX6136000000000 000012178467037557000000000000000000000069118-12100COMPRA INT SUBSECR  CL        0000000068 20230323153634        000000000 00000000000000000001650000000000000000000000016500DA                            D       0000000000000000000000
020589693XXXXXXXX9009000000000 000012180285028893500000000000000000000068787-12100COMPRA INT SUBSECR  CL        0000000012 20230323174117        000000000 00000000000000000004000000000000000000000000040000DA                            D       0000000000000000000000
020589693XXXXXXXX9009000000000 000012180340035592300000000000000000000068787-12100COMPRA INT SUBSECR  CL        0000000012 20230323174117        000000000 00000000000000000004000000000000000000000000040000DA                            D       0000000000000000000000
02000516795XXXXXX9297000000000 000012164692060466300000000000000000000069099-12100COMPRA INT SUBSECR  CL        0000000057 20230323091505        000000000 00000000000000000000750000000000000000000000007500DA                            D       0000000000000000000000
02000521892XXXXXX2944000000000 000012164887072424600000000000000000000069099-12100WEB       SUBSECRETAR         0000000079 20230323091956        000000000 00000000000000000000750000000000000000000000007500DA                            C       0000000000000000000000
02000535586XXXXXX6136000000000 000012176566069398100000000000000000000069118-12100COMPRA INT SUBSECR  CL        0000000068 20230323153634        000000000 00000000000000000001650000000000000000000000016500DA                            D       0000000000000000000000
02000475774XXXXXX1274000000000 000012164404023441200000000000000000000067568-22100WEB       SUBSECRETAR         0000000000 20230323090247        000000000 00000000000000000001792700000000002780000000017596DA                            D       0000000000000000000000
02000440698XXXXXX5277000000000 000012164485059126700000000000000000000068631-22100WEB       SUBSECRETAR         0000000000 20230323090216        000000000 00000000000000000001564800000000002430000000015359DA                            D       0000000000000000000000
02000434956XXXXXX1542000000000 000012164757016188200000000000000000000067901-22100WEB       SUBSECRETAR         0000000000 20230323091736        000000000 00000000000000000000897200000000001880000000008748DA                            C       0000000000000000000000
02000512269XXXXXX3842000000000 000012165117021448100000000000000000000069110-12100WEB       SUBSECRETAR         0000000000 20230323093016        000000000 00000000000000000000750000000000001580000000007313DA                            C       0000000000000000000000
02000475774XXXXXX7174000000000 000012165509045093600000000000000000000067384-22100WEB       SUBSECRETAR         0000000000 20230323094301        000000000 00000000000000000000672200000000001040000000006598DA                            D       0000000000000000000000
02000451134XXXXXX0072000000000 000012168213061895600000000000000000000069113-12100WEB       SUBSECRETAR         0000000000 20230323111307        000000000 00000000000000000003600000000000005580000000035336DA                            D       0000000000000000000000
02000440612XXXXXX2732000000000 000012169644033857900000000000000000000066964-22100WEB       SUBSECRETAR         0000000000 20230323115723        000000000 00000000000000000001196500000000001850000000011744DA                            D       0000000000000000000000
02000415281XXXXXX3534000000000 000012170800013997200000000000000000000068363-12100WEB       SUBSECRETAR         0000000000 20230323123421        000000000 00000000000000000000500000000000001050000000004875DA                            C       0000000000000000000000
02000475774XXXXXX1525000000000 000012174759015657900000000000000000000067636-22100WEB       SUBSECRETAR         0000000000 20230323143415        000000000 00000000000000000001295200000000002010000000012713DA                            D       0000000000000000000000
02000475774XXXXXX1525000000000 000012174894008964200000000000000000000067637-22100WEB       SUBSECRETAR         0000000000 20230323143810        000000000 00000000000000000001295200000000002010000000012713DA                            D       0000000000000000000000
02000434559XXXXXX8661000000000 000012176736083956400000000000000000000068794-12100WEB       SUBSECRETAR         0000000000 20230323154336        000000000 00000000000000000000600000000000000930000000005889DA                            D       0000000000000000000000
02000475774XXXXXX1966000000000 000012178903003923000000000000000000000069106-12100WEB       SUBSECRETAR         0000000000 20230323165330        000000000 00000000000000000011000000000000017050000000107971DA                            D       0000000000000000000000
02000475774XXXXXX1966000000000 000012179108068728100000000000000000000069108-12100WEB       SUBSECRETAR         0000000000 20230323165901        000000000 00000000000000000011000000000000017050000000107971DA                            D       0000000000000000000000
02000475774XXXXXX7841000000000 000012165314050651800000000000000000000068618-22100WEB       SUBSECRETAR         0000000000 20230323093704        000000000 00000000000000000000672200000000001040000000006598DA                            D       0000000000000000000000
02000434956XXXXXX0262000000000 000012165488061436100000000000000000000069099-12100WEB       SUBSECRETAR         0000000000 20230323094231        000000000 00000000000000000000750000000000001580000000007313DA                            C       0000000000000000000000
02000533187XXXXXX5316000000000 000012166036087644200000000000000000000069111-12100WEB       SUBSECRETAR         0000000000 20230323100141        000000000 00000000000000000000600000000000000930000000005889DA                            D       0000000000000000000000
02000440612XXXXXX1283000000000 000012169029040636300000000000000000000067317-22100WEB       SUBSECRETAR         0000000000 20230323113858        000000000 00000000000000000002175500000000003370000000021354DA                            D       0000000000000000000000
02000522468XXXXXX9556000000000 000012169740069013700000000000000000000067771-22100WEB       SUBSECRETAR         0000000000 20230323120051        000000000 00000000000000000000448600000000000940000000004374DA                            C       0000000000000000000000
02000439701XXXXXX0115000000000 000012172345011771300000000000000000000067651-22100COMPRA INT SUBSECR  CL        0000000000 20230323131945        000000000 00000000000000000000734400000000001870000000007121DA                            D       0000000000000000000000
02000434560XXXXXX7672000000000 000012172718069838600000000000000000000067323-22100WEB       SUBSECRETAR         0000000000 20230323133230        000000000 00000000000000000000126500000000000200000000001242DA                            D       0000000000000000000000
02000455788XXXXXX3182000000000 000012176375057187500000000000000000000066356-22100COMPRA INT SUBSECR  CL        0000000000 20230323152840        000000000 00000000000000000000772200000000002390000000007437DA                            C       0000000000000000000000
02000552300XXXXXX4909000000000 000012176398081677000000000000000000000069117-12100WEB       SUBSECRETAR         0000000000 20230323153049        000000000 00000000000000000003000000000000006300000000029250DA                            C       0000000000000000000000
02000537465XXXXXX5882000000000 000012178508014695600000000000000000000069118-12100COMPRA INT SUBSECR  CL        0000000000 20230323164023        000000000 00000000000000000001650000000000004210000000015999DA                            D       0000000000000000000000
03000023000000047093200000000000000000000000230000000461403                                                                                                                                                        
