0120230324ADQDIGITAL0906350009
02000456460XXXXXX8412000000000 000012166097096228300000000000000003000683827782100WEB       MOVISTAR            0000000036 20230323100042        000000000 00000000000000000002843000000000000000000000028430DA                            C       0000000000000000000000
02000434560XXXXXX2839000000000 000012166665085862900000000000000003000683843342100WEB       MOVISTAR            0000000051 20230323102601        000000000 00000000000000000006054300000000000000000000060543DA                            D       0000000000000000000000
02000548742XXXXXX9985000000000 000012167915066481000000000000000003000683867132100WEB       MOVISTAR            0000000068 20230323110153        000000000 00000000000000000004150400000000000000000000041504DA                            C       0000000000000000000000
02000548742XXXXXX6706000000000 000012167933058968400000000000000003000683867132100WEB       MOVISTAR            00000000T8 20230323110153        000000000 00000000000000000004150400000000000000000000041504DA                            C       0000000000000000000000
02000548742XXXXXX9035000000000 000012167951060475200000000000000003000683869392100WEB       MOVISTAR            0000000051 20230323110512        000000000 00000000000000000004150400000000000000000000041504DA                            C       0000000000000000000000
02000542702XXXXXX8027000000000 000012168078060997300000000000000003000683870962100COMPRA INT MOVISTA  CL        0000000068 20230323110736        000000000 00000000000000000004150400000000000000000000041504DA                            C       0000000000000000000000
02000475774XXXXXX8428000000000 000012169386038595500000000000000003000683900142100WEB       MOVISTAR            0000000051 20230323115040        000000000 00000000000000000001761600000000000000000000017616DA                            D       0000000000000000000000
02000533187XXXXXX9400000000000 000012171362006242700000000000000003000683940372100WEB       MOVISTAR            0000000083 20230323124847        000000000 00000000000000000001663400000000000000000000016634DA                            D       0000000000000000000000
020589693XXXXXXXX3059000000000 000012173711066729600000000000000003000683988462100COMPRA INT MOVISTA  CL        0000000012 20230323140329        000000000 00000000000000000006034200000000000000000000060342DA                            D       0000000000000000000000
02000513795XXXXXX7560000000000 000012173854035443500000000000000003000683990692100COMPRA INT MOVISTA  CL        0000000083 20230323140757        000000000 00000000000000000000761800000000000000000000007618DA                            C       0000000000000000000000
02000513795XXXXXX7560000000000 000012174018067110800000000000000003000683990692100COMPRA INT MOVISTA  CL        0000000079 20230323140757        000000000 00000000000000000000761800000000000000000000007618DA                            C       0000000000000000000000
02000548742XXXXXX5885000000000 000012174145049719700000000000000003000683995252100WEB       MOVISTAR            0000000068 20230323141536        000000000 00000000000000000007041200000000000000000000070412DA                            C       0000000000000000000000
02000548742XXXXXX5885000000000 000012174181026814900000000000000003000683995952100WEB       MOVISTAR            0000000068 20230323141700        000000000 00000000000000000002099000000000000000000000020990DA                            C       0000000000000000000000
020589693XXXXXXXX9003000000000 000012175141007039500000000000000003000684012372100COMPRA INT MOVISTA  CL        0000000012 20230323144548        000000000 00000000000000000009780200000000000000000000097802DA                            D       0000000000000000000000
020589693XXXXXXXX4008000000000 000012176936029301600000000000000003000684047442100COMPRA INT MOVISTA  CL        0000000012 20230323155047        000000000 00000000000000000001539300000000000000000000015393DA                            D       0000000000000000000000
02000549070XXXXXX6388000000000 000012178002096580600000000000000003000684066212100WEB       MOVISTAR            0000000057 20230323162411        000000000 00000000000000000001901900000000000000000000019019DA                            C       0000000000000000000000
02000456477XXXXXX7338000000000 000012178733039088300000000000000003000684077222100WEB       MOVISTAR            0000000036 20230323164342        000000000 00000000000000000004100900000000000000000000041009DA                            C       0000000000000000000000
020000000000000000000000000000 000012179362040041300000000000000003000684092342100          MOVISTAR            0000000001 20230323170532        000000000 00000000000000000003013000000000000000000000030130DA                                    0000000000000000000000
020000000000000000000000000000 000012179376051542200000000000000003000684092342100          MOVISTAR            0000000001 20230323170532        000000000 00000000000000000003013000000000000000000000030130DA                                    0000000000000000000000
020000000000000000000000000000 000012179645007169100000000000000003000684100112100          MOVISTAR            0000000001 20230323171639        000000000 00000000000000000007308900000000000000000000073089DA                                    0000000000000000000000
020000000000000000000000000000 000012179693013739500000000000000003000684100112100          MOVISTAR            0000000001 20230323171639        000000000 00000000000000000007308900000000000000000000073089DA                                    0000000000000000000000
02000549070XXXXXX0194000000000 000012180968026548900000000000000003000684130512100WEB       MOVISTAR            0000000057 20230323180716        000000000 00000000000000000002319100000000000000000000023191DA                            C       0000000000000000000000
02000533187XXXXXX7575000000000 000012183983089696500000000000000003000684189932100WEB       MOVISTAR            0000000079 20230323200341        000000000 00000000000000000003669000000000000000000000036690DA                            D       0000000000000000000000
020000000000000000000000000000 000012160648050546000000000000000003000683714472100          MOVISTAR            0000000001 20230322233347        000000000 00000000000000000001391900000000000000000000013919DA                                    0000000000000000000000
020000533870XXXXX7425000000000 000012161722055847100000000000000003000683736052100COMPRA INT MOVISTA  CL        0000000014 20230323005618        000000000 00000000000000000003013600000000000000000000030136DA                            D       0000000000000000000000
02000446867XXXXXX2639000000000 000012166006092309500000000000000003000683827782100WEB       MOVISTAR            0000000036 20230323100042        000000000 00000000000000000002843000000000000000000000028430DA                            C       0000000000000000000000
02000548742XXXXXX8010000000000 000012166122075574900000000000000003000683827782100WEB       MOVISTAR            0000000051 20230323100042        000000000 00000000000000000002843000000000000000000000028430DA                            C       0000000000000000000000
02000533187XXXXXX5642000000000 000012167447078862000000000000000003000683859982100WEB       MOVISTAR            0000000083 20230323105138        000000000 00000000000000000019504800000000000000000000195048DA                            D       0000000000000000000000
02000548742XXXXXX2543000000000 000012167806040353600000000000000003000683867132100WEB       MOVISTAR            0000000068 20230323110153        000000000 00000000000000000004150400000000000000000000041504DA                            C       0000000000000000000000
02000548742XXXXXX8327000000000 000012168008059616400000000000000003000683869392100WEB       MOVISTAR            00000000T8 20230323110512        000000000 00000000000000000004150400000000000000000000041504DA                            C       0000000000000000000000
02000548742XXXXXX9644000000000 000012168026044142700000000000000003000683870962100WEB       MOVISTAR            0000000068 20230323110736        000000000 00000000000000000004150400000000000000000000041504DA                            C       0000000000000000000000
02000548742XXXXXX8384000000000 000012168139018693100000000000000003000683872932100WEB       MOVISTAR            0000000068 20230323111056        000000000 00000000000000000004150400000000000000000000041504DA                            C       0000000000000000000000
02000548742XXXXXX8539000000000 000012168163088509600000000000000003000683872932100WEB       MOVISTAR            0000000051 20230323111056        000000000 00000000000000000004150400000000000000000000041504DA                            C       0000000000000000000000
02000434561XXXXXX1983000000000 000012168585071366400000000000000003000683882482100WEB       MOVISTAR            0000000002 20230323112536        000000000 00000000000000000009626100000000000000000000096261DA                            D       0000000000000000000000
020000000000000000000000000000 000012168753075221600000000000000003000683884852100          MOVISTAR            0000000001 20230323112859        000000000 00000000000000000004057100000000000000000000040571DA                                    0000000000000000000000
020000000000000000000000000000 000012168816044486100000000000000003000683884852100          MOVISTAR            0000000001 20230323112859        000000000 00000000000000000004057100000000000000000000040571DA                                    0000000000000000000000
02000451368XXXXXX5456000000000 000012168782009878300000000000000003000683883192100WEB       MOVISTAR            0000000033 20230323112641        000000000 00000000000000000001737900000000000000000000017379DA                            D       0000000000000000000000
02000434560XXXXXX3336000000000 000012169057091689700000000000000003000683892172100WEB       MOVISTAR            0000000051 20230323114008        000000000 00000000000000000004127200000000000000000000041272DA                            D       0000000000000000000000
02000434560XXXXXX3336000000000 000012169116055374600000000000000003000683892172100WEB       MOVISTAR            0000000051 20230323114008        000000000 00000000000000000004127200000000000000000000041272DA                            D       0000000000000000000000
020589693XXXXXXXX9006000000000 000012169125039341200000000000000003000683893742100COMPRA INT MOVISTA  CL        0000000012 20230323114157        000000000 00000000000000000002709000000000000000000000027090DA                            D       0000000000000000000000
02000548742XXXXXX5885000000000 000012170401006898400000000000000003000683921262100WEB       MOVISTAR            0000000083 20230323122201        000000000 00000000000000000002099000000000000000000000020990DA                            C       0000000000000000000000
02000533187XXXXXX9400000000000 000012171330079613500000000000000003000683940372100WEB       MOVISTAR            0000000083 20230323124847        000000000 00000000000000000001663400000000000000000000016634DA                            D       0000000000000000000000
02000533187XXXXXX9400000000000 000012171370056346400000000000000003000683940372100WEB       MOVISTAR            0000000083 20230323124847        000000000 00000000000000000001663400000000000000000000016634DA                            D       0000000000000000000000
02000533187XXXXXX9400000000000 000012171389086992000000000000000003000683941352100WEB       MOVISTAR            0000000083 20230323125015        000000000 00000000000000000001663400000000000000000000016634DA                            D       0000000000000000000000
020000000000000000000000000000 000012171544095000900000000000000003000683944022100          MOVISTAR            0000000001 20230323125356        000000000 00000000000000000002381100000000000000000000023811DA                                    0000000000000000000000
02000434559XXXXXX3802000000000 000012171976042197200000000000000003000683953022100WEB       MOVISTAR            00000000Q5 20230323130634        000000000 00000000000000000001408600000000000000000000014086DA                            D       0000000000000000000000
02000434561XXXXXX2392000000000 000012175392009686800000000000000003000684016492100WEB       MOVISTAR            0000000051 20230323145241        000000000 00000000000000000002409300000000000000000000024093DA                            D       0000000000000000000000
020000000000000000000000000000 000012176705024732800000000000000003000684039562100          MOVISTAR            0000000001 20230323153542        000000000 00000000000000000002859400000000000000000000028594DA                                    0000000000000000000000
020589693XXXXXXXX4008000000000 000012177005091597200000000000000003000684047442100COMPRA INT MOVISTA  CL        0000000012 20230323155047        000000000 00000000000000000001539300000000000000000000015393DA                            D       0000000000000000000000
02000434559XXXXXX9696000000000 000012177960064779500000000000000003000684065412100WEB       MOVISTAR            0000000033 20230323162256        000000000 00000000000000000000924400000000000000000000009244DA                            D       0000000000000000000000
02000456477XXXXXX7338000000000 000012178603085158900000000000000003000684077222100WEB       MOVISTAR            0000000036 20230323164342        000000000 00000000000000000004100900000000000000000000041009DA                            C       0000000000000000000000
02000456477XXXXXX7338000000000 000012178744079559000000000000000003000684077222100WEB       MOVISTAR            0000000036 20230323164342        000000000 00000000000000000004100900000000000000000000041009DA                            C       0000000000000000000000
02000548742XXXXXX4372000000000 000012180082053082500000000000000003000684110532100WEB       MOVISTAR            0000000083 20230323173320        000000000 00000000000000000002794400000000000000000000027944DA                            C       0000000000000000000000
02000548742XXXXXX4372000000000 000012180111050322500000000000000003000684110532100WEB       MOVISTAR            0000000083 20230323173320        000000000 00000000000000000002794400000000000000000000027944DA                            C       0000000000000000000000
02000549070XXXXXX0194000000000 000012181055096281900000000000000003000684130512100WEB       MOVISTAR            0000000057 20230323180716        000000000 00000000000000000002319100000000000000000000023191DA                            C       0000000000000000000000
02000529881XXXXXX8103000000000 000012181231059663300000000000000003000684135552100WEB       MOVISTAR            0000000012 20230323181615        000000000 00000000000000000003011500000000000000000000030115DA                            C       0000000000000000000000
02000434560XXXXXX1962000000000 000012183267074942800000000000000003000684176492100WEB       MOVISTAR            0000000051 20230323193437        000000000 00000000000000000010391100000000000000000000103911DA                            D       0000000000000000000000
02000533187XXXXXX7575000000000 000012183933051749100000000000000003000684189932100WEB       MOVISTAR            0000000079 20230323200341        000000000 00000000000000000003669000000000000000000000036690DA                            D       0000000000000000000000
02000434559XXXXXX8464000000000 000012156181002737600000000000000003000683620942100WEB       MOVISTAR            0000000000 20230322205550        000000000 00000000000000000002426800000000000780000000024176DA                            D       0000000000000000000000
02000456477XXXXXX6484000000000 000012156334069301500000000000000003000683624382100WEB       MOVISTAR            0000000000 20230322210047        000000000 00000000000000000013531000000000005680000000134634DA                            C       0000000000000000000000
02000434559XXXXXX9378000000000 000012156791062007800000000000000003000683633282100WEB       MOVISTAR            0000000000 20230322211533        000000000 00000000000000000001824000000000000580000000018171DA                            D       0000000000000000000000
02000533187XXXXXX3205000000000 000012156944017064600000000000000003000683638062100WEB       MOVISTAR            0000000000 20230322212335        000000000 00000000000000000001399000000000000450000000013937DA                            D       0000000000000000000000
02000522832XXXXXX1970000000000 000012156913047161300000000000000003000683637452100WEB       MOVISTAR            0000000000 20230322212243        000000000 00000000000000000001042900000000000440000000010377DA                            C       0000000000000000000000
02000512269XXXXXX5112000000000 000012157091087302000000000000000003000683641062100WEB       MOVISTAR            0000000000 20230322212802        000000000 00000000000000000000556700000000000230000000005539DA                            C       0000000000000000000000
02000456460XXXXXX7778000000000 000012158159088171300000000000000003000683665112100WEB       MOVISTAR            0000000000 20230322220326        000000000 00000000000000000002282200000000000960000000022708DA                            C       0000000000000000000000
02000496617XXXXXX9012000000000 000012158684043927400000000000000003000683677012100WEB       MOVISTAR            0000000000 20230322222156        000000000 00000000000000000002543000000000001070000000025303DA                            C       0000000000000000000000
02000475776XXXXXX7707000000000 000012158762045556000000000000000003000683678752100WEB       MOVISTAR            0000000000 20230322222428        000000000 00000000000000000002877800000000001210000000028634DA                            C       0000000000000000000000
02000434559XXXXXX1751000000000 000012158741070132000000000000000003000683678442100WEB       MOVISTAR            0000000000 20230322222400        000000000 00000000000000000001266800000000000410000000012620DA                            D       0000000000000000000000
02000434561XXXXXX2899000000000 000012158939037193800000000000000003000683682412100WEB       MOVISTAR            0000000000 20230322223028        000000000 00000000000000000001973000000000000630000000019655DA                            D       0000000000000000000000
02000522468XXXXXX7838000000000 000012159550014335400000000000000003000683692222100WEB       MOVISTAR            0000000000 20230322224523        000000000 00000000000000000000927000000000000390000000009224DA                            C       0000000000000000000000
02000434561XXXXXX6835000000000 000012159536075925800000000000000003000683694492100WEB       MOVISTAR            0000000000 20230322224941        000000000 00000000000000000003755600000000001200000000037413DA                            D       0000000000000000000000
02000434561XXXXXX9591000000000 000012159673085175000000000000000003000683697052100WEB       MOVISTAR            0000000000 20230322225419        000000000 00000000000000000000976500000000000310000000009728DA                            D       0000000000000000000000
02000434561XXXXXX9583000000000 000012159782004821000000000000000003000683698842100WEB       MOVISTAR            0000000000 20230322225745        000000000 00000000000000000001562500000000000500000000015566DA                            D       0000000000000000000000
02000434559XXXXXX6807000000000 000012160528068008400000000000000003000683712742100WEB       MOVISTAR            0000000000 20230322232920        000000000 00000000000000000003870000000000001240000000038553DA                            D       0000000000000000000000
02000533187XXXXXX7622000000000 000012160850056685800000000000000003000683718412100WEB       MOVISTAR            0000000000 20230322234433        000000000 00000000000000000004073000000000001300000000040575DA                            D       0000000000000000000000
02000450881XXXXXX9419000000000 000012160996043722900000000000000003000683721542100WEB       MOVISTAR            0000000000 20230322235300        000000000 00000000000000000000890900000000000370000000008864DA                            C       0000000000000000000000
02000533187XXXXXX8081000000000 000012161214041669300000000000000003000683726242100WEB       MOVISTAR            0000000000 20230323000735        000000000 00000000000000000002446600000000000780000000024373DA                            D       0000000000000000000000
02000533187XXXXXX7425000000000 000012161731050014000000000000000003000683736052100WEB       MOVISTAR            0000000000 20230323005618        000000000 00000000000000000003013600000000000960000000030021DA                            D       0000000000000000000000
02000434559XXXXXX2839000000000 000012162527051282200000000000000003000683750542100WEB       MOVISTAR            0000000000 20230323061004        000000000 00000000000000000000918400000000000290000000009149DA                            D       0000000000000000000000
02000434559XXXXXX4172000000000 000012162802059305500000000000000003000683756302100WEB       MOVISTAR            0000000000 20230323070302        000000000 00000000000000000000561900000000000180000000005598DA                            D       0000000000000000000000
02000451368XXXXXX7409000000000 000012163000087674000000000000000003000683759192100WEB       MOVISTAR            0000000000 20230323072000        000000000 00000000000000000009712500000000003110000000096755DA                            D       0000000000000000000000
02000451368XXXXXX0312000000000 000012162998008400400000000000000003000683760782100WEB       MOVISTAR            0000000000 20230323072811        000000000 00000000000000000009501300000000003040000000094651DA                            D       0000000000000000000000
02000434559XXXXXX2027000000000 000012163019095709400000000000000003000683761342100WEB       MOVISTAR            0000000000 20230323073049        000000000 00000000000000000000974500000000000310000000009708DA                            D       0000000000000000000000
02000434559XXXXXX8253000000000 000012163567020039000000000000000003000683773912100WEB       MOVISTAR            0000000000 20230323081616        000000000 00000000000000000003697500000000001180000000036834DA                            D       0000000000000000000000
02000548742XXXXXX0317000000000 000012164314010516700000000000000003000683791392100WEB       MOVISTAR            0000000000 20230323085751        000000000 00000000000000000000699500000000000290000000006960DA                            C       0000000000000000000000
02000434560XXXXXX7137000000000 000012164991077178600000000000000003000683804422100WEB       MOVISTAR            0000000000 20230323092056        000000000 00000000000000000000009400000000000000000000000094DA                            D       0000000000000000000000
02000456865XXXXXX0758000000000 000012165164099232600000000000000003000683810682100WEB       MOVISTAR            0000000000 20230323093150        000000000 00000000000000000004089100000000001310000000040735DA                            D       0000000000000000000000
02000434561XXXXXX7918000000000 000012165409082128900000000000000003000683815782100WEB       MOVISTAR            0000000000 20230323094002        000000000 00000000000000000010378100000000003320000000103386DA                            D       0000000000000000000000
02000412003XXXXXX8755000000000 000012165507051954400000000000000003000683817362100WEB       MOVISTAR            0000000000 20230323094257        000000000 00000000000000000003248600000000001040000000032362DA                            D       0000000000000000000000
02000434559XXXXXX8264000000000 000012165601034825200000000000000003000683818452100WEB       MOVISTAR            0000000000 20230323094437        000000000 00000000000000000002461600000000000790000000024522DA                            D       0000000000000000000000
02000434559XXXXXX0830000000000 000012165566065681200000000000000003000683818812100WEB       MOVISTAR            0000000000 20230323094516        000000000 00000000000000000001687200000000000540000000016808DA                            D       0000000000000000000000
02000412003XXXXXX8755000000000 000012165603050249100000000000000003000683819652100WEB       MOVISTAR            0000000000 20230323094633        000000000 00000000000000000004534500000000001450000000045172DA                            D       0000000000000000000000
02000434559XXXXXX3386000000000 000012165567024397000000000000000003000683818842100WEB       MOVISTAR            0000000000 20230323094518        000000000 00000000000000000000519300000000000170000000005173DA                            D       0000000000000000000000
02000434559XXXXXX2968000000000 000012165640036289800000000000000003000683819112100WEB       MOVISTAR            0000000000 20230323094550        000000000 00000000000000000002199100000000000700000000021907DA                            D       0000000000000000000000
02000434559XXXXXX4968000000000 000012165790014476000000000000000003000683822932100WEB       MOVISTAR            0000000000 20230323095232        000000000 00000000000000000002800000000000000900000000027893DA                            D       0000000000000000000000
02000533187XXXXXX3402000000000 000012166630070729800000000000000003000683842572100WEB       MOVISTAR            0000000000 20230323102433        000000000 00000000000000000001499400000000000480000000014937DA                            D       0000000000000000000000
02000450881XXXXXX6809000000000 000012166766097440800000000000000003000683845532100WEB       MOVISTAR            0000000000 20230323102926        000000000 00000000000000000009305000000000003910000000092585DA                            C       0000000000000000000000
02000434559XXXXXX8628000000000 000012166848078735800000000000000003000683847152100WEB       MOVISTAR            0000000000 20230323103156        000000000 00000000000000000005136600000000001640000000051170DA                            D       0000000000000000000000
02000533187XXXXXX0158000000000 000012166871094122100000000000000003000683847782100WEB       MOVISTAR            0000000000 20230323103238        000000000 00000000000000000004413400000000001410000000043966DA                            D       0000000000000000000000
02000551792XXXXXX3000000000000 000012167026084512000000000000000003000683851722100COMPRA INT MOVISTA  CL        0000000000 20230323103751        000000000 00000000000000000003703300000000004890000000036451DA                            D       0000000000000000000000
02000451368XXXXXX7807000000000 000012166991083163100000000000000003000683850712100WEB       MOVISTAR            0000000000 20230323103631        000000000 00000000000000000002614300000000000840000000026043DA                            D       0000000000000000000000
02000434559XXXXXX2638000000000 000012167128084331200000000000000003000683852372100WEB       MOVISTAR            0000000000 20230323103857        000000000 00000000000000000002200000000000000700000000021916DA                            D       0000000000000000000000
02000533187XXXXXX3003000000000 000012167152091603100000000000000003000683854362100WEB       MOVISTAR            0000000000 20230323104152        000000000 00000000000000000000561900000000000180000000005598DA                            D       0000000000000000000000
02000440612XXXXXX4352000000000 000012167527006438700000000000000003000683861522100WEB       MOVISTAR            0000000000 20230323105336        000000000 00000000000000000000449800000000000140000000004481DA                            D       0000000000000000000000
02000522468XXXXXX3895000000000 000012167640056622000000000000000003000683864072100WEB       MOVISTAR            0000000000 20230323105722        000000000 00000000000000000004932100000000002070000000049074DA                            C       0000000000000000000000
02000559779XXXXXX5920000000000 000012167704089985900000000000000003000683865202100WEB       MOVISTAR            0000000000 20230323105902        000000000 00000000000000000001363000000000000440000000013578DA                            D       0000000000000000000000
02000456477XXXXXX7330000000000 000012167708038040900000000000000003000683865282100WEB       MOVISTAR            0000000000 20230323105912        000000000 00000000000000000003200000000000001340000000031840DA                            C       0000000000000000000000
02000434559XXXXXX8928000000000 000012167872045673600000000000000003000683868072100WEB       MOVISTAR            0000000000 20230323110310        000000000 00000000000000000002690500000000000860000000026803DA                            D       0000000000000000000000
02000434561XXXXXX9421000000000 000012167771052266800000000000000003000683866592100WEB       MOVISTAR            0000000000 20230323110111        000000000 00000000000000000001152900000000000370000000011485DA                            D       0000000000000000000000
02000434559XXXXXX8928000000000 000012168184066324300000000000000003000683873812100WEB       MOVISTAR            0000000000 20230323111225        000000000 00000000000000000001665300000000000530000000016590DA                            D       0000000000000000000000
02000440612XXXXXX3305000000000 000012168450052775000000000000000003000683879262100WEB       MOVISTAR            0000000000 20230323112056        000000000 00000000000000000005917300000000001890000000058948DA                            D       0000000000000000000000
02000409767XXXXXX2144000000000 000012168524099516200000000000000003000683880892100WEB       MOVISTAR            0000000000 20230323112318        000000000 00000000000000000003289400000000001050000000032769DA                            D       0000000000000000000000
02000434561XXXXXX1035000000000 000012168535045743100000000000000003000683881132100WEB       MOVISTAR            0000000000 20230323112339        000000000 00000000000000000005465400000000001750000000054446DA                            D       0000000000000000000000
02000451368XXXXXX1996000000000 000012168698028873400000000000000003000683885002100WEB       MOVISTAR            0000000000 20230323112913        000000000 00000000000000000005373400000000001720000000053529DA                            D       0000000000000000000000
02000434559XXXXXX5017000000000 000012168877072213100000000000000003000683888292100WEB       MOVISTAR            0000000000 20230323113400        000000000 00000000000000000001299000000000000420000000012941DA                            D       0000000000000000000000
02000434560XXXXXX0989000000000 000012168886001915300000000000000003000683888382100WEB       MOVISTAR            0000000000 20230323113413        000000000 00000000000000000001253400000000000400000000012486DA                            D       0000000000000000000000
02000434559XXXXXX1250000000000 000012169259079390000000000000000003000683897282100WEB       MOVISTAR            0000000000 20230323114635        000000000 00000000000000000003486100000000001120000000034728DA                            D       0000000000000000000000
02000440612XXXXXX1961000000000 000012169331043049500000000000000003000683899052100WEB       MOVISTAR            0000000000 20230323114857        000000000 00000000000000000002367700000000000760000000023587DA                            D       0000000000000000000000
02000434561XXXXXX7383000000000 000012169358024505500000000000000003000683897852100WEB       MOVISTAR            0000000000 20230323114722        000000000 00000000000000000002982000000000000950000000029706DA                            D       0000000000000000000000
02000533187XXXXXX8026000000000 000012169240084120600000000000000003000683896852100WEB       MOVISTAR            0000000000 20230323114558        000000000 00000000000000000000563400000000000180000000005613DA                            D       0000000000000000000000
02000434561XXXXXX7399000000000 000012169524071347100000000000000003000683902712100WEB       MOVISTAR            0000000000 20230323115428        000000000 00000000000000000004244300000000001360000000042281DA                            D       0000000000000000000000
02000434559XXXXXX0994000000000 000012169898070665300000000000000003000683910832100WEB       MOVISTAR            0000000000 20230323120605        000000000 00000000000000000001599000000000000510000000015929DA                            D       0000000000000000000000
02000434559XXXXXX5060000000000 000012170114091475700000000000000003000683914352100WEB       MOVISTAR            0000000000 20230323121110        000000000 00000000000000000001364400000000000440000000013592DA                            D       0000000000000000000000
02000548742XXXXXX5885000000000 000012170324049713500000000000000003000683919332100WEB       MOVISTAR            0000000000 20230323121929        000000000 00000000000000000004130300000000001730000000041097DA                            C       0000000000000000000000
02000434561XXXXXX2323000000000 000012170299068616800000000000000003000683918762100WEB       MOVISTAR            0000000000 20230323121855        000000000 00000000000000000015094900000000004830000000150374DA                            D       0000000000000000000000
02000434559XXXXXX2705000000000 000012170436058770800000000000000003000683921952100WEB       MOVISTAR            0000000000 20230323122256        000000000 00000000000000000001548500000000000500000000015426DA                            D       0000000000000000000000
02000434560XXXXXX2398000000000 000012170857050186000000000000000003000683931162100WEB       MOVISTAR            0000000000 20230323123600        000000000 00000000000000000003648200000000001170000000036343DA                            D       0000000000000000000000
02000548742XXXXXX9756000000000 000012171054042744200000000000000003000683935352100WEB       MOVISTAR            0000000000 20230323124140        000000000 00000000000000000000549800000000000230000000005471DA                            C       0000000000000000000000
02000434559XXXXXX4483000000000 000012171151061109800000000000000003000683937212100WEB       MOVISTAR            0000000000 20230323124418        000000000 00000000000000000002418300000000000770000000024091DA                            D       0000000000000000000000
02000542663XXXXXX3514000000000 000012171606096246100000000000000003000683945152100WEB       MOVISTAR            0000000000 20230323125524        000000000 00000000000000000004476000000000001880000000044536DA                            C       0000000000000000000000
02000434561XXXXXX7800000000000 000012171744042496200000000000000003000683948062100WEB       MOVISTAR            0000000000 20230323125925        000000000 00000000000000000002589300000000000830000000025794DA                            D       0000000000000000000000
02000434559XXXXXX7178000000000 000012172022096506400000000000000003000683954202100WEB       MOVISTAR            0000000000 20230323130808        000000000 00000000000000000001204800000000000390000000012002DA                            D       0000000000000000000000
02000434559XXXXXX7555000000000 000012172227088968700000000000000003000683958812100WEB       MOVISTAR            0000000000 20230323131446        000000000 00000000000000000001518000000000000490000000015122DA                            D       0000000000000000000000
02000456918XXXXXX9092000000000 000012172219096225700000000000000003000683958572100WEB       MOVISTAR            0000000000 20230323131428        000000000 00000000000000000003568500000000001500000000035507DA                            C       0000000000000000000000
02000434559XXXXXX4097000000000 000012172487074303700000000000000003000683965302100WEB       MOVISTAR            0000000000 20230323132449        000000000 00000000000000000002327400000000000740000000023185DA                            D       0000000000000000000000
02000434559XXXXXX9968000000000 000012172915071023300000000000000003000683972972100WEB       MOVISTAR            0000000000 20230323133647        000000000 00000000000000000003655800000000001170000000036419DA                            D       0000000000000000000000
02000475774XXXXXX6137000000000 000012173096077623200000000000000003000683976682100WEB       MOVISTAR            0000000000 20230323134258        000000000 00000000000000000000505100000000000160000000005032DA                            D       0000000000000000000000
02000434559XXXXXX1669000000000 000012173313053592000000000000000003000683981122100WEB       MOVISTAR            0000000000 20230323134945        000000000 00000000000000000001599000000000000510000000015929DA                            D       0000000000000000000000
02000434559XXXXXX9996000000000 000012173551025342000000000000000003000683985732100WEB       MOVISTAR            0000000000 20230323135754        000000000 00000000000000000001500000000000000480000000014943DA                            D       0000000000000000000000
02000434559XXXXXX8533000000000 000012174208073259100000000000000003000683996412100WEB       MOVISTAR            0000000000 20230323141743        000000000 00000000000000000001479200000000000470000000014736DA                            D       0000000000000000000000
02000434559XXXXXX5827000000000 000012174448067773800000000000000003000684000292100WEB       MOVISTAR            0000000000 20230323142459        000000000 00000000000000000001848600000000000590000000018416DA                            D       0000000000000000000000
02000475774XXXXXX2080000000000 000012174744053489800000000000000003000684005712100WEB       MOVISTAR            0000000000 20230323143339        000000000 00000000000000000002671200000000000850000000026610DA                            D       0000000000000000000000
02000434559XXXXXX2829000000000 000012175032098791100000000000000003000684010802100WEB       MOVISTAR            0000000000 20230323144240        000000000 00000000000000000001128800000000000360000000011245DA                            D       0000000000000000000000
02000475774XXXXXX8677000000000 000012175673043617400000000000000003000684022612100WEB       MOVISTAR            0000000000 20230323150337        000000000 00000000000000000002212400000000000710000000022040DA                            D       0000000000000000000000
02000434559XXXXXX8875000000000 000012175482038425500000000000000003000684019152100WEB       MOVISTAR            0000000000 20230323145715        000000000 00000000000000000001082200000000000350000000010781DA                            D       0000000000000000000000
02000440698XXXXXX1392000000000 000012175776075912300000000000000003000684024782100WEB       MOVISTAR            0000000000 20230323150726        000000000 00000000000000000002410100000000000770000000024009DA                            D       0000000000000000000000
02000434559XXXXXX0751000000000 000012175697007614500000000000000003000684023202100WEB       MOVISTAR            0000000000 20230323150447        000000000 00000000000000000001088000000000000350000000010839DA                            D       0000000000000000000000
02000434559XXXXXX7666000000000 000012175910082117400000000000000003000684027592100WEB       MOVISTAR            0000000000 20230323151243        000000000 00000000000000000000699500000000000220000000006968DA                            D       0000000000000000000000
02000548742XXXXXX4924000000000 000012176047064903000000000000000003000684030022100WEB       MOVISTAR            0000000000 20230323151734        000000000 00000000000000000003985500000000001670000000039656DA                            C       0000000000000000000000
02000434559XXXXXX3329000000000 000012176307040855900000000000000003000684034972100WEB       MOVISTAR            0000000000 20230323152729        000000000 00000000000000000000964200000000000310000000009605DA                            D       0000000000000000000000
02000456865XXXXXX5678000000000 000012176927080248900000000000000003000684047332100WEB       MOVISTAR            0000000000 20230323155035        000000000 00000000000000000002719200000000000870000000027088DA                            D       0000000000000000000000
02000434560XXXXXX7633000000000 000012177428067923100000000000000003000684056052100WEB       MOVISTAR            0000000000 20230323160701        000000000 00000000000000000002538300000000000810000000025286DA                            D       0000000000000000000000
02000512269XXXXXX8886000000000 000012177465001273700000000000000003000684056932100WEB       MOVISTAR            0000000000 20230323160825        000000000 00000000000000000000526600000000000220000000005240DA                            C       0000000000000000000000
02000434559XXXXXX7382000000000 000012177432076865300000000000000003000684056112100WEB       MOVISTAR            0000000000 20230323160703        000000000 00000000000000000003514200000000001120000000035008DA                            D       0000000000000000000000
02000434561XXXXXX4279000000000 000012177460088154600000000000000003000684054702100WEB       MOVISTAR            0000000000 20230323160429        000000000 00000000000000000000589100000000000190000000005869DA                            D       0000000000000000000000
02000533187XXXXXX1936000000000 000012177803008803300000000000000003000684062792100WEB       MOVISTAR            0000000000 20230323161849        000000000 00000000000000000000769300000000000250000000007664DA                            D       0000000000000000000000
02000434559XXXXXX0782000000000 000012177968023934200000000000000003000684065542100WEB       MOVISTAR            0000000000 20230323162306        000000000 00000000000000000004784400000000001530000000047662DA                            D       0000000000000000000000
02000440612XXXXXX3012000000000 000012178247020599300000000000000003000684070582100WEB       MOVISTAR            0000000000 20230323163118        000000000 00000000000000000001099000000000000350000000010948DA                            D       0000000000000000000000
02000559779XXXXXX7772000000000 000012178238006991200000000000000003000684068512100WEB       MOVISTAR            0000000000 20230323162802        000000000 00000000000000000003280900000000001050000000032684DA                            D       0000000000000000000000
02000434559XXXXXX2752000000000 000012178313091083900000000000000003000684071802100WEB       MOVISTAR            0000000000 20230323163327        000000000 00000000000000000003120300000000001000000000031084DA                            D       0000000000000000000000
02000434559XXXXXX6657000000000 000012178474088846400000000000000003000684074722100WEB       MOVISTAR            0000000000 20230323163912        000000000 00000000000000000001919700000000000610000000019124DA                            D       0000000000000000000000
02000519716XXXXXX0185000000000 000012179132086476700000000000000003000684088632100WEB       MOVISTAR            0000000000 20230323165941        000000000 00000000000000000004563300000000001920000000045405DA                            C       0000000000000000000000
02000440612XXXXXX3665000000000 000012179343008588500000000000000003000684093162100WEB       MOVISTAR            0000000000 20230323170649        000000000 00000000000000000009404800000000003010000000093690DA                            D       0000000000000000000000
02000469772XXXXXX4702000000000 000012179900089305800000000000000003000684106352100WEB       MOVISTAR            0000000000 20230323172704        000000000 00000000000000000005589300000000002350000000055614DA                            C       0000000000000000000000
02000434560XXXXXX2629000000000 000012180040096780100000000000000003000684107222100WEB       MOVISTAR            0000000000 20230323172819        000000000 00000000000000000006780800000000002170000000067550DA                            D       0000000000000000000000
02000434560XXXXXX0229000000000 000012180049011409800000000000000003000684109622100WEB       MOVISTAR            0000000000 20230323173201        000000000 00000000000000000001835600000000000590000000018286DA                            D       0000000000000000000000
02000533187XXXXXX8840000000000 000012180096055117900000000000000003000684111022100WEB       MOVISTAR            0000000000 20230323173358        000000000 00000000000000000002853500000000000910000000028426DA                            D       0000000000000000000000
02000559779XXXXXX3604000000000 000012180450099577100000000000000003000684118592100WEB       MOVISTAR            0000000000 20230323174716        000000000 00000000000000000004492500000000001440000000044754DA                            D       0000000000000000000000
02000475774XXXXXX9768000000000 000012180674029091700000000000000003000684123512100WEB       MOVISTAR            0000000000 20230323175527        000000000 00000000000000000005621300000000001800000000055999DA                            D       0000000000000000000000
02000525384XXXXXX3258000000000 000012181546094697500000000000000003000684142912100WEB       MOVISTAR            0000000000 20230323182755        000000000 00000000000000000000428300000000000140000000004267DA                            D       0000000000000000000000
02000434559XXXXXX0951000000000 000012182239056437100000000000000003000684157202100WEB       MOVISTAR            0000000000 20230323185519        000000000 00000000000000000001580500000000000510000000015745DA                            D       0000000000000000000000
02000548742XXXXXX2145000000000 000012182273006599700000000000000003000684158082100WEB       MOVISTAR            0000000000 20230323185648        000000000 00000000000000000001279200000000000540000000012728DA                            C       0000000000000000000000
02000434559XXXXXX4929000000000 000012182519011518600000000000000003000684162862100WEB       MOVISTAR            0000000000 20230323190627        000000000 00000000000000000001267000000000000410000000012622DA                            D       0000000000000000000000
02000434561XXXXXX9618000000000 000012182526044795100000000000000003000684162942100WEB       MOVISTAR            0000000000 20230323190636        000000000 00000000000000000001599200000000000510000000015931DA                            D       0000000000000000000000
02000533187XXXXXX9978000000000 000012183361031464800000000000000003000684178442100WEB       MOVISTAR            0000000000 20230323193843        000000000 00000000000000000002142600000000000690000000021344DA                            D       0000000000000000000000
02000559779XXXXXX6139000000000 000012183535072386900000000000000003000684181852100WEB       MOVISTAR            0000000000 20230323194621        000000000 00000000000000000001657300000000000530000000016510DA                            D       0000000000000000000000
02000548742XXXXXX1944000000000 000012184053050969800000000000000003000684192342100WEB       MOVISTAR            0000000000 20230323200835        000000000 00000000000000000005076400000000002130000000050510DA                            C       0000000000000000000000
02000548742XXXXXX7132000000000 000012184194008446900000000000000003000684194992100WEB       MOVISTAR            0000000000 20230323201357        000000000 00000000000000000012561000000000005280000000124982DA                            C       0000000000000000000000
02000434561XXXXXX2210000000000 000012184358016972400000000000000003000684198092100WEB       MOVISTAR            0000000000 20230323202008        000000000 00000000000000000003711700000000001190000000036976DA                            D       0000000000000000000000
02000434559XXXXXX7574000000000 000012184536085209000000000000000003000684201722100WEB       MOVISTAR            0000000000 20230323202734        000000000 00000000000000000000979300000000000310000000009756DA                            D       0000000000000000000000
02000434559XXXXXX7658000000000 000012184789081978800000000000000003000684206362100WEB       MOVISTAR            0000000000 20230323203746        000000000 00000000000000000002990900000000000960000000029795DA                            D       0000000000000000000000
02000548742XXXXXX5845000000000 000012184889095203300000000000000003000684208062100WEB       MOVISTAR            0000000000 20230323204104        000000000 00000000000000000005721200000000002400000000056926DA                            C       0000000000000000000000
02000434559XXXXXX3732000000000 000012156495076608700000000000000003000683628092100WEB       MOVISTAR            0000000000 20230322210704        000000000 00000000000000000000615700000000000200000000006134DA                            D       0000000000000000000000
02000434559XXXXXX9163000000000 000012156690028504300000000000000003000683632822100WEB       MOVISTAR            0000000000 20230322211444        000000000 00000000000000000004028200000000001290000000040129DA                            D       0000000000000000000000
02000533187XXXXXX2305000000000 000012156636073000500000000000000003000683631862100WEB       MOVISTAR            0000000000 20230322211304        000000000 00000000000000000004781500000000001530000000047633DA                            D       0000000000000000000000
02000512269XXXXXX5112000000000 000012156807093878900000000000000003000683635372100WEB       MOVISTAR            0000000000 20230322211914        000000000 00000000000000000001233100000000000520000000012269DA                            C       0000000000000000000000
02000434559XXXXXX5826000000000 000012156798002719800000000000000003000683635212100WEB       MOVISTAR            0000000000 20230322211858        000000000 00000000000000000001578500000000000510000000015725DA                            D       0000000000000000000000
02000542663XXXXXX8877000000000 000012157017078325600000000000000003000683639532100WEB       MOVISTAR            0000000000 20230322212548        000000000 00000000000000000004700600000000001970000000046771DA                            C       0000000000000000000000
02000525384XXXXXX1815000000000 000012157457072219700000000000000003000683649712100WEB       MOVISTAR            0000000000 20230322214054        000000000 00000000000000000002024600000000000650000000020169DA                            D       0000000000000000000000
02000434559XXXXXX0984000000000 000012157825040889500000000000000003000683657452100WEB       MOVISTAR            0000000000 20230322215227        000000000 00000000000000000001278200000000000410000000012733DA                            D       0000000000000000000000
02000548742XXXXXX7665000000000 000012158166065997200000000000000003000683665232100WEB       MOVISTAR            0000000000 20230322220334        000000000 00000000000000000000313200000000000130000000003116DA                            C       0000000000000000000000
02000434559XXXXXX6115000000000 000012158186042986500000000000000003000683665742100WEB       MOVISTAR            0000000000 20230322220410        000000000 00000000000000000001849500000000000590000000018425DA                            D       0000000000000000000000
02000434561XXXXXX8952000000000 000012158243044004500000000000000003000683666182100WEB       MOVISTAR            0000000000 20230322220446        000000000 00000000000000000001793200000000000570000000017864DA                            D       0000000000000000000000
02000451368XXXXXX3476000000000 000012158201078619600000000000000003000683666222100WEB       MOVISTAR            0000000000 20230322220450        000000000 00000000000000000004666600000000001490000000046488DA                            D       0000000000000000000000
02000533187XXXXXX4457000000000 000012158588075316000000000000000003000683674512100WEB       MOVISTAR            0000000000 20230322221800        000000000 00000000000000000000730600000000000230000000007278DA                            D       0000000000000000000000
02000548742XXXXXX3452000000000 000012159465037031600000000000000003000683693032100WEB       MOVISTAR            0000000000 20230322224747        000000000 00000000000000000002498000000000001050000000024855DA                            C       0000000000000000000000
02000409767XXXXXX8601000000000 000012159596095366800000000000000003000683695542100WEB       MOVISTAR            0000000000 20230322225142        000000000 00000000000000000002125400000000000680000000021173DA                            D       0000000000000000000000
02000451134XXXXXX0019000000000 000012158734093247100000000000000003000683678252100WEB       MOVISTAR            0000000000 20230322222341        000000000 00000000000000000001973200000000000630000000019657DA                            D       0000000000000000000000
02000440612XXXXXX9358000000000 000012159625061940000000000000000003000683696172100WEB       MOVISTAR            0000000000 20230322225238        000000000 00000000000000000003308200000000001060000000032956DA                            D       0000000000000000000000
02000548742XXXXXX9877000000000 000012159546004928400000000000000003000683694552100WEB       MOVISTAR            0000000000 20230322225001        000000000 00000000000000000001500700000000000630000000014932DA                            C       0000000000000000000000
02000434559XXXXXX2617000000000 000012159935047563400000000000000003000683701162100WEB       MOVISTAR            0000000000 20230322230309        000000000 00000000000000000002506800000000000800000000024973DA                            D       0000000000000000000000
02000518850XXXXXX0252000000000 000012160424009156600000000000000003000683710772100WEB       MOVISTAR            0000000000 20230322232447        000000000 00000000000000000003536000000000001490000000035183DA                            C       0000000000000000000000
02000434561XXXXXX4611000000000 000012160443083267800000000000000003000683711212100WEB       MOVISTAR            0000000000 20230322232541        000000000 00000000000000000000901500000000000290000000008981DA                            D       0000000000000000000000
02000434559XXXXXX6807000000000 000012160444081766300000000000000003000683711232100WEB       MOVISTAR            0000000000 20230322232543        000000000 00000000000000000002136500000000000680000000021284DA                            D       0000000000000000000000
02000434559XXXXXX3478000000000 000012160534089683100000000000000003000683712862100WEB       MOVISTAR            0000000000 20230322232935        000000000 00000000000000000001199000000000000380000000011944DA                            D       0000000000000000000000
02000434559XXXXXX0669000000000 000012161054078285900000000000000003000683723082100WEB       MOVISTAR            0000000000 20230322235700        000000000 00000000000000000005574300000000001780000000055531DA                            D       0000000000000000000000
02000552300XXXXXX0941000000000 000012161152087570800000000000000003000683724662100WEB       MOVISTAR            0000000000 20230323000213        000000000 00000000000000000000602500000000000250000000005995DA                            C       0000000000000000000000
02000434559XXXXXX6798000000000 000012161299070931500000000000000003000683727892100WEB       MOVISTAR            0000000000 20230323001403        000000000 00000000000000000000799500000000000260000000007965DA                            D       0000000000000000000000
02000533187XXXXXX2312000000000 000012161695071138500000000000000003000683735602100WEB       MOVISTAR            0000000000 20230323005324        000000000 00000000000000000004605900000000001470000000045884DA                            D       0000000000000000000000
02000533187XXXXXX8109000000000 000012161792040986600000000000000003000683737042100WEB       MOVISTAR            0000000000 20230323010701        000000000 00000000000000000002178200000000000700000000021699DA                            D       0000000000000000000000
02000434559XXXXXX7518000000000 000012161944024912300000000000000003000683739692100WEB       MOVISTAR            0000000000 20230323012953        000000000 00000000000000000000400000000000000130000000003985DA                            D       0000000000000000000000
02000457615XXXXXX8844000000000 000012161978014171800000000000000003000683740342100WEB       MOVISTAR            0000000000 20230323013529        000000000 00000000000000000001995700000000000840000000019857DA                            C       0000000000000000000000
02000489472XXXXXX3051000000000 000012161973032797600000000000000003000683740252100WEB       MOVISTAR            0000000000 20230323013427        000000000 00000000000000000002367700000000000990000000023559DA                            C       0000000000000000000000
02000533187XXXXXX9012000000000 000012162164071260800000000000000003000683743962100WEB       MOVISTAR            0000000000 20230323023632        000000000 00000000000000000003145300000000001010000000031333DA                            D       0000000000000000000000
02000475774XXXXXX2329000000000 000012162189029126400000000000000003000683744572100WEB       MOVISTAR            0000000000 20230323024924        000000000 00000000000000000001696900000000000540000000016904DA                            D       0000000000000000000000
02000533187XXXXXX7179000000000 000012162442022922700000000000000003000683748822100WEB       MOVISTAR            0000000000 20230323053958        000000000 00000000000000000008308100000000002660000000082765DA                            D       0000000000000000000000
02000434559XXXXXX4109000000000 000012163069083188200000000000000003000683762512100WEB       MOVISTAR            0000000000 20230323073524        000000000 00000000000000000000999800000000000320000000009960DA                            D       0000000000000000000000
02000434559XXXXXX9469000000000 000012163167081407700000000000000003000683763902100WEB       MOVISTAR            0000000000 20230323074138        000000000 00000000000000000000157900000000000050000000001573DA                            D       0000000000000000000000
02000434559XXXXXX0935000000000 000012163186013038000000000000000003000683765012100WEB       MOVISTAR            0000000000 20230323074539        000000000 00000000000000000000400000000000000130000000003985DA                            D       0000000000000000000000
02000434559XXXXXX0304000000000 000012163350056072000000000000000003000683769032100WEB       MOVISTAR            0000000000 20230323080038        000000000 00000000000000000002678200000000000860000000026680DA                            D       0000000000000000000000
02000525384XXXXXX7475000000000 000012163822081028500000000000000003000683779992100WEB       MOVISTAR            0000000000 20230323083204        000000000 00000000000000000003647200000000001170000000036333DA                            D       0000000000000000000000
02000434559XXXXXX0282000000000 000012163841082939100000000000000003000683780462100WEB       MOVISTAR            0000000000 20230323083307        000000000 00000000000000000001070600000000000340000000010665DA                            D       0000000000000000000000
02000434559XXXXXX2182000000000 000012163938056867600000000000000003000683783302100WEB       MOVISTAR            0000000000 20230323083940        000000000 00000000000000000003977900000000001270000000039628DA                            D       0000000000000000000000
02000548742XXXXXX0317000000000 000012164261018318300000000000000003000683790252100WEB       MOVISTAR            0000000000 20230323085541        000000000 00000000000000000000601400000000000250000000005984DA                            C       0000000000000000000000
02000533187XXXXXX7003000000000 000012164452066099500000000000000003000683795012100WEB       MOVISTAR            0000000000 20230323090450        000000000 00000000000000000002405700000000000770000000023965DA                            D       0000000000000000000000
02000533187XXXXXX7003000000000 000012164872091008800000000000000003000683804992100WEB       MOVISTAR            0000000000 20230323092201        000000000 00000000000000000001685400000000000540000000016790DA                            D       0000000000000000000000
02000434559XXXXXX8807000000000 000012165109036177800000000000000003000683809432100WEB       MOVISTAR            0000000000 20230323092959        000000000 00000000000000000002959200000000000950000000029479DA                            D       0000000000000000000000
02000548742XXXXXX0500000000000 000012165330005836300000000000000003000683814082100WEB       MOVISTAR            0000000000 20230323093727        000000000 00000000000000000001865100000000000780000000018558DA                            C       0000000000000000000000
02000434559XXXXXX8173000000000 000012165803020029900000000000000003000683823412100WEB       MOVISTAR            0000000000 20230323095315        000000000 00000000000000000001708100000000000550000000017016DA                            D       0000000000000000000000
02000533187XXXXXX3519000000000 000012166064036236100000000000000003000683829002100WEB       MOVISTAR            0000000000 20230323100233        000000000 00000000000000000004137400000000001320000000041216DA                            D       0000000000000000000000
02000434559XXXXXX6521000000000 000012166252005339300000000000000003000683833172100WEB       MOVISTAR            0000000000 20230323100925        000000000 00000000000000000001119800000000000360000000011155DA                            D       0000000000000000000000
02000533187XXXXXX9340000000000 000012166324087827600000000000000003000683834832100WEB       MOVISTAR            0000000000 20230323101222        000000000 00000000000000000001849700000000000590000000018427DA                            D       0000000000000000000000
02000434559XXXXXX0175000000000 000012166457020458000000000000000003000683838242100WEB       MOVISTAR            0000000000 20230323101738        000000000 00000000000000000003689300000000001180000000036753DA                            D       0000000000000000000000
02000533187XXXXXX3402000000000 000012166530045996500000000000000003000683840122100WEB       MOVISTAR            0000000000 20230323102035        000000000 00000000000000000000773900000000000250000000007710DA                            D       0000000000000000000000
02000434560XXXXXX8760000000000 000012166561004876300000000000000003000683840832100WEB       MOVISTAR            0000000000 20230323102140        000000000 00000000000000000004692300000000001500000000046744DA                            D       0000000000000000000000
02000434560XXXXXX2839000000000 000012166728030594000000000000000003000683843342100WEB       MOVISTAR            0000000000 20230323102601        000000000 00000000000000000006054300000000001940000000060312DA                            D       0000000000000000000000
02000440612XXXXXX2068000000000 000012166794096614100000000000000003000683846062100WEB       MOVISTAR            0000000000 20230323103006        000000000 00000000000000000002966200000000000950000000029549DA                            D       0000000000000000000000
02000456460XXXXXX4876000000000 000012167231061701600000000000000003000683854782100WEB       MOVISTAR            0000000000 20230323104228        000000000 00000000000000000002278800000000000960000000022674DA                            C       0000000000000000000000
02000434560XXXXXX6328000000000 000012167511033099800000000000000003000683861232100WEB       MOVISTAR            0000000000 20230323105309        000000000 00000000000000000003695100000000001180000000036810DA                            D       0000000000000000000000
02000456477XXXXXX7330000000000 000012167581007462400000000000000003000683862862100WEB       MOVISTAR            0000000000 20230323105528        000000000 00000000000000000003850000000000001620000000038308DA                            C       0000000000000000000000
02000434559XXXXXX3627000000000 000012167757023324100000000000000003000683866442100WEB       MOVISTAR            0000000000 20230323110059        000000000 00000000000000000001178300000000000380000000011738DA                            D       0000000000000000000000
02000434559XXXXXX7199000000000 000012168128034468800000000000000003000683872602100WEB       MOVISTAR            0000000000 20230323111027        000000000 00000000000000000003651400000000001170000000036375DA                            D       0000000000000000000000
02000548742XXXXXX9750000000000 000012168188049646100000000000000003000683872932100WEB       MOVISTAR            0000000000 20230323111056        000000000 00000000000000000004150400000000001740000000041297DA                            C       0000000000000000000000
02000440698XXXXXX2775000000000 000012168191042533700000000000000003000683873902100WEB       MOVISTAR            0000000000 20230323111233        000000000 00000000000000000002616000000000000840000000026060DA                            D       0000000000000000000000
02000434560XXXXXX3336000000000 000012168657095131300000000000000003000683884192100WEB       MOVISTAR            0000000000 20230323112807        000000000 00000000000000000001349900000000000430000000013448DA                            D       0000000000000000000000
02000434560XXXXXX8078000000000 000012168483094896400000000000000003000683879912100WEB       MOVISTAR            0000000000 20230323112153        000000000 00000000000000000002877800000000000920000000028668DA                            D       0000000000000000000000
02000434559XXXXXX1791000000000 000012168826001924200000000000000003000683887082100WEB       MOVISTAR            0000000000 20230323113216        000000000 00000000000000000003362400000000001080000000033496DA                            D       0000000000000000000000
02000434561XXXXXX3165000000000 000012169003055976300000000000000003000683890642100WEB       MOVISTAR            0000000000 20230323113823        000000000 00000000000000000002480500000000000790000000024711DA                            D       0000000000000000000000
02000456865XXXXXX8876000000000 000012168991055238200000000000000003000683890342100WEB       MOVISTAR            0000000000 20230323113804        000000000 00000000000000000008417600000000002690000000083855DA                            D       0000000000000000000000
02000440698XXXXXX2023000000000 000012169204067299600000000000000003000683895242100WEB       MOVISTAR            0000000000 20230323114338        000000000 00000000000000000004940000000000001580000000049212DA                            D       0000000000000000000000
02000533187XXXXXX8734000000000 000012169541056683700000000000000003000683903092100WEB       MOVISTAR            0000000000 20230323115453        000000000 00000000000000000001979200000000000630000000019717DA                            D       0000000000000000000000
02000434559XXXXXX6087000000000 000012169993030562700000000000000003000683912252100WEB       MOVISTAR            0000000000 20230323120748        000000000 00000000000000000002654500000000000850000000026444DA                            D       0000000000000000000000
02000548742XXXXXX5885000000000 000012170201069524800000000000000003000683917322100WEB       MOVISTAR            0000000000 20230323121532        000000000 00000000000000000004224000000000001770000000042029DA                            C       0000000000000000000000
02000434561XXXXXX6455000000000 000012170434078684200000000000000003000683921892100WEB       MOVISTAR            0000000000 20230323122252        000000000 00000000000000000002578000000000000820000000025682DA                            D       0000000000000000000000
02000548742XXXXXX9756000000000 000012171004052609700000000000000003000683934252100WEB       MOVISTAR            0000000000 20230323124029        000000000 00000000000000000001149200000000000480000000011435DA                            C       0000000000000000000000
02000533187XXXXXX9400000000000 000012171216079375100000000000000003000683938232100WEB       MOVISTAR            0000000000 20230323124541        000000000 00000000000000000002950500000000000940000000029393DA                            D       0000000000000000000000
02000533187XXXXXX9400000000000 000012171275081667000000000000000003000683939032100WEB       MOVISTAR            0000000000 20230323124659        000000000 00000000000000000001806700000000000580000000017998DA                            D       0000000000000000000000
02000434559XXXXXX9689000000000 000012171422030217000000000000000003000683941832100WEB       MOVISTAR            0000000000 20230323125047        000000000 00000000000000000003841400000000001230000000038268DA                            D       0000000000000000000000
02000475774XXXXXX2669000000000 000012171668037671600000000000000003000683946172100WEB       MOVISTAR            0000000000 20230323125653        000000000 00000000000000000001204800000000000390000000012002DA                            D       0000000000000000000000
02000434561XXXXXX7800000000000 000012171688048213600000000000000003000683945172100WEB       MOVISTAR            0000000000 20230323125526        000000000 00000000000000000005603700000000001790000000055824DA                            D       0000000000000000000000
02000512269XXXXXX8351000000000 000012172205010107200000000000000003000683958022100WEB       MOVISTAR            0000000000 20230323131344        000000000 00000000000000000004342800000000001820000000043211DA                            C       0000000000000000000000
02000456477XXXXXX9046000000000 000012172748003690100000000000000003000683968622100WEB       MOVISTAR            0000000000 20230323132930        000000000 00000000000000000004188000000000001760000000041671DA                            C       0000000000000000000000
02000434559XXXXXX4408000000000 000012173422008622100000000000000003000683983422100WEB       MOVISTAR            0000000000 20230323135327        000000000 00000000000000000007270200000000002330000000072425DA                            D       0000000000000000000000
02000434561XXXXXX2857000000000 000012173404011061800000000000000003000683982932100WEB       MOVISTAR            0000000000 20230323135241        000000000 00000000000000000001839400000000000590000000018324DA                            D       0000000000000000000000
02000410626XXXXXX3016000000000 000012173593021237900000000000000003000683986522100COMPRA INT MOVISTA  CL        0000000000 20230323135910        000000000 00000000000000000001428700000000002030000000014046DA                            C       0000000000000000000000
02000435142XXXXXX1285000000000 000012174211011411300000000000000003000683995952100COMPRA INT MOVISTA  CL        0000000000 20230323141700        000000000 00000000000000000002099000000000002770000000020660DA                            D       0000000000000000000000
02000435142XXXXXX1285000000000 000012174269000045800000000000000003000683997422100COMPRA INT MOVISTA  CL        0000000000 20230323141921        000000000 00000000000000000007041200000000009290000000069306DA                            D       0000000000000000000000
02000548742XXXXXX7376000000000 000012175079009093700000000000000003000684011552100WEB       MOVISTAR            0000000000 20230323144403        000000000 00000000000000000002319200000000000970000000023076DA                            C       0000000000000000000000
02000434559XXXXXX2560000000000 000012175270024220400000000000000003000684015002100WEB       MOVISTAR            0000000000 20230323145017        000000000 00000000000000000003527300000000001130000000035139DA                            D       0000000000000000000000
02000434561XXXXXX2392000000000 000012175399018095800000000000000003000684016492100WEB       MOVISTAR            0000000000 20230323145241        000000000 00000000000000000002409300000000000770000000024001DA                            D       0000000000000000000000
02000434561XXXXXX3792000000000 000012175899092503900000000000000003000684027372100WEB       MOVISTAR            0000000000 20230323151223        000000000 00000000000000000001546800000000000490000000015409DA                            D       0000000000000000000000
02000434559XXXXXX4931000000000 000012175851020184900000000000000003000684026442100WEB       MOVISTAR            0000000000 20230323151037        000000000 00000000000000000002619800000000000840000000026098DA                            D       0000000000000000000000
02000434559XXXXXX5899000000000 000012176604003714000000000000000003000684040742100WEB       MOVISTAR            0000000000 20230323153758        000000000 00000000000000000000909300000000000290000000009058DA                            D       0000000000000000000000
02000434559XXXXXX4268000000000 000012177275043612500000000000000003000684053012100WEB       MOVISTAR            0000000000 20230323160131        000000000 00000000000000000001446600000000000460000000014411DA                            D       0000000000000000000000
02000434559XXXXXX5126000000000 000012177297087932800000000000000003000684050962100WEB       MOVISTAR            0000000000 20230323155731        000000000 00000000000000000000274400000000000090000000002734DA                            D       0000000000000000000000
02000475774XXXXXX1531000000000 000012177427073549400000000000000003000684056042100WEB       MOVISTAR            0000000000 20230323160659        000000000 00000000000000000000551000000000000180000000005489DA                            D       0000000000000000000000
02000434561XXXXXX4279000000000 000012177545064623500000000000000003000684058032100WEB       MOVISTAR            0000000000 20230323161053        000000000 00000000000000000002101500000000000670000000020935DA                            D       0000000000000000000000
02000434559XXXXXX6765000000000 000012177958048292500000000000000003000684065332100WEB       MOVISTAR            0000000000 20230323162250        000000000 00000000000000000000715500000000000230000000007128DA                            D       0000000000000000000000
02000434559XXXXXX9696000000000 000012178088071802300000000000000003000684065412100WEB       MOVISTAR            0000000000 20230323162256        000000000 00000000000000000000924400000000000300000000009209DA                            D       0000000000000000000000
02000434559XXXXXX0782000000000 000012178245092621900000000000000003000684070532100WEB       MOVISTAR            0000000000 20230323163113        000000000 00000000000000000002315400000000000740000000023066DA                            D       0000000000000000000000
02000434559XXXXXX2829000000000 000012178359027769500000000000000003000684071172100WEB       MOVISTAR            0000000000 20230323163217        000000000 00000000000000000012096400000000003870000000120503DA                            D       0000000000000000000000
02000484224XXXXXX9247000000000 000012178657028194500000000000000003000684078272100COMPRA INT MOVISTA  CL        0000000000 20230323164559        000000000 00000000000000000002972500000000003920000000029258DA                            D       0000000000000000000000
02000456460XXXXXX8006000000000 000012178861091561700000000000000003000684082852100WEB       MOVISTAR            0000000000 20230323165221        000000000 00000000000000000002420700000000001020000000024086DA                            C       0000000000000000000000
02000522468XXXXXX7699000000000 000012178902072365900000000000000003000684083942100WEB       MOVISTAR            0000000000 20230323165328        000000000 00000000000000000003078900000000001290000000030635DA                            C       0000000000000000000000
02000434559XXXXXX6401000000000 000012178949096620200000000000000003000684081512100WEB       MOVISTAR            0000000000 20230323165056        000000000 00000000000000000005831500000000001870000000058093DA                            D       0000000000000000000000
02000434559XXXXXX5981000000000 000012179110057912700000000000000003000684088052100WEB       MOVISTAR            0000000000 20230323165903        000000000 00000000000000000006132100000000001960000000061087DA                            D       0000000000000000000000
02000434559XXXXXX8363000000000 000012179290090576200000000000000003000684092022100WEB       MOVISTAR            0000000000 20230323170513        000000000 00000000000000000001944200000000000620000000019368DA                            D       0000000000000000000000
02000434559XXXXXX6567000000000 000012179393070886000000000000000003000684094882100WEB       MOVISTAR            0000000000 20230323170859        000000000 00000000000000000003013000000000000960000000030015DA                            D       0000000000000000000000
02000475774XXXXXX9203000000000 000012180091019935900000000000000003000684110882100WEB       MOVISTAR            0000000000 20230323173352        000000000 00000000000000000001790200000000000570000000017834DA                            D       0000000000000000000000
02000512269XXXXXX1732000000000 000012180541031993000000000000000003000684120392100WEB       MOVISTAR            0000000000 20230323175046        000000000 00000000000000000004493100000000001890000000044706DA                            C       0000000000000000000000
02000434559XXXXXX5414000000000 000012180843085427600000000000000003000684127862100WEB       MOVISTAR            0000000000 20230323180241        000000000 00000000000000000001947900000000000620000000019405DA                            D       0000000000000000000000
02000434559XXXXXX3802000000000 000012180945059216100000000000000003000684130162100WEB       MOVISTAR            0000000000 20230323180629        000000000 00000000000000000002051200000000000660000000020434DA                            D       0000000000000000000000
02000434561XXXXXX8081000000000 000012181213075011000000000000000003000684134592100WEB       MOVISTAR            0000000000 20230323181442        000000000 00000000000000000002225400000000000710000000022169DA                            D       0000000000000000000000
02000540477XXXXXX4457000000000 000012181591034239900000000000000003000684143762100WEB       MOVISTAR            0000000000 20230323182923        000000000 00000000000000000001699000000000000710000000016905DA                            C       0000000000000000000000
02000434559XXXXXX1885000000000 000012182007095071500000000000000003000684150642100WEB       MOVISTAR            0000000000 20230323184252        000000000 00000000000000000000843500000000000270000000008403DA                            D       0000000000000000000000
02000434559XXXXXX4569000000000 000012182209089047100000000000000003000684154972100WEB       MOVISTAR            0000000000 20230323185053        000000000 00000000000000000001338900000000000430000000013338DA                            D       0000000000000000000000
02000404071XXXXXX8152000000000 000012182433051191600000000000000003000684161232100COMPRA INT MOVISTA  CL        0000000000 20230323190300        000000000 00000000000000000004688300000000006660000000046091DA                            C       0000000000000000000000
02000540477XXXXXX8824000000000 000012182844091414800000000000000003000684168822100WEB       MOVISTAR            0000000000 20230323191829        000000000 00000000000000000002426400000000001020000000024143DA                            C       0000000000000000000000
02000434559XXXXXX5924000000000 000012183023038249300000000000000003000684171772100WEB       MOVISTAR            0000000000 20230323192442        000000000 00000000000000000000863800000000000280000000008605DA                            D       0000000000000000000000
02000451368XXXXXX9978000000000 000012183314051753700000000000000003000684177702100WEB       MOVISTAR            0000000000 20230323193655        000000000 00000000000000000002044300000000000650000000020365DA                            D       0000000000000000000000
02000434559XXXXXX8449000000000 000012183747035545100000000000000003000684185632100WEB       MOVISTAR            0000000000 20230323195418        000000000 00000000000000000003766100000000001210000000037518DA                            D       0000000000000000000000
02000434559XXXXXX1105000000000 000012183746015579400000000000000003000684186602100WEB       MOVISTAR            0000000000 20230323195623        000000000 00000000000000000004736100000000001520000000047181DA                            D       0000000000000000000000
02000549163XXXXXX2649000000000 000012183786058434800000000000000003000684187292100WEB       MOVISTAR            0000000000 20230323195814        000000000 00000000000000000002520900000000001060000000025083DA                            C       0000000000000000000000
02000548742XXXXXX1944000000000 000012184134070572000000000000000003000684193572100WEB       MOVISTAR            0000000000 20230323201111        000000000 00000000000000000001267600000000000530000000012613DA                            C       0000000000000000000000
02000434559XXXXXX9939000000000 000012184243055434900000000000000003000684195022100WEB       MOVISTAR            0000000000 20230323201358        000000000 00000000000000000012000200000000003840000000119545DA                            D       0000000000000000000000
02000434559XXXXXX9921000000000 000012184350034284400000000000000003000684197912100WEB       MOVISTAR            0000000000 20230323201954        000000000 00000000000000000001801300000000000580000000017944DA                            D       0000000000000000000000
02000434559XXXXXX2588000000000 000012184386006261700000000000000003000684198622100WEB       MOVISTAR            0000000000 20230323202106        000000000 00000000000000000002024600000000000650000000020169DA                            D       0000000000000000000000
02000434559XXXXXX8371000000000 000012184623062957300000000000000003000684203322100WEB       MOVISTAR            0000000000 20230323203126        000000000 00000000000000000001599000000000000510000000015929DA                            D       0000000000000000000000
02000434559XXXXXX1681000000000 000012184769010222000000000000000003000684206062100WEB       MOVISTAR            0000000000 20230323203653        000000000 00000000000000000002659900000000000850000000026498DA                            D       0000000000000000000000
03000251000000723603300000000000000000000002510000007203893                                                                                                                                                        
