0120230324ADQDIGITAL0765748798
02000522468XXXXXX6095000000000 0000121564030482700000000000MszCU2p4MA-190329142100WEB       JETSMART            0000000083 20230322210329        000000000 00000000000000000019862600000000000000000000198626DA                            C       0000000000000000000000
02000522468XXXXXX3138000000000 00001215665305211730000000004AswRcRGHg-191333712100WEB       JETSMART            0000000083 20230322211333        000000000 00000000000000000029207900000000000000000000292079DA                            C       0000000000000000000000
02000522468XXXXXX6844000000000 00001215677300237460000000004AswRcRGHg-191809062100WEB       JETSMART            0000000068 20230322211809        000000000 00000000000000000029207900000000000000000000292079DA                            C       0000000000000000000000
02000548742XXXXXX4760000000000 0000121569190226184000000000eH0wtv4Czw-192254842100WEB       JETSMART            0000000051 20230322212255        000000000 00000000000000000006171400000000000000000000061714DA                            C       0000000000000000000000
02000522468XXXXXX3138000000000 00001215714104938340000000004AswRcRGHg-192934822100WEB       JETSMART            0000000083 20230322212934        000000000 00000000000000000035490800000000000000000000354908DA                            C       0000000000000000000000
02000434559XXXXXX3691000000000 0000121571230792809000000000yWCNyHfNKA-192907562100WEB       JETSMART            0000000051 20230322212908        000000000 00000000000000000025852800000000000000000000258528DA                            D       0000000000000000000000
02000548742XXXXXX9970000000000 0000121573250916857000000000QYKyP6P5kQ-193638192100WEB       JETSMART            0000000083 20230322213638        000000000 00000000000000000051722000000000000000000000517220DA                            C       0000000000000000000000
02000456931XXXXXX9005000000000 0000121574240729001000000000Qlph02Xn0w-194009402100WEB       JETSMART            0000000055 20230322214009        000000000 00000000000000000008069400000000000000000000080694DA                            C       0000000000000000000000
02000450881XXXXXX9718000000000 00000727991804322770000000000NNzxQ0V3w-105320672120WEB       JETSMART            00000000Q5 20221124135348        000000000 00000000000000000001366800000000000000000000013668DA                            C       0000000000000000000000
02000415281XXXXXX3787000000000 0000121575220407321000000000uj3Kw8mJ9g-194303842100WEB       JETSMART            0000000033 20230322214304        000000000 00000000000000000012342800000000000000000000123428DA                            C       0000000000000000000000
02000434559XXXXXX6090000000000 000012157553089722800000000096c38bBr5g-194346562100WEB       JETSMART            0000000051 20230322214346        000000000 00000000000000000008346300000000000000000000083463DA                            D       0000000000000000000000
02000548742XXXXXX7694000000000 0000121578880295263000000000X0bTuIAWPQ-195448652100WEB       JETSMART            0000000083 20230322215449        000000000 00000000000000000018514200000000000000000000185142DA                            C       0000000000000000000000
02000447410XXXXXX4854000000000 00001215827306273930000000000vpn5tnUow-200702392100COMPRA INT JETSMAR  CL        0000000004 20230322220702        000000000 00000000000000000001849600000000000000000000018496DA                            C       0000000000000000000000
02000548742XXXXXX3814000000000 00001215837801262050000000000oWCumK4ng-201034082100WEB       JETSMART            0000000051 20230322221034        000000000 00000000000000000002985700000000000000000000029857DA                            C       0000000000000000000000
02000552252XXXXXX3568000000000 0000121587840173719000000000JleLLsGdeg-202534922100WEB       JETSMART            0000000068 20230322222535        000000000 00000000000000000003771400000000000000000000037714DA                            C       0000000000000000000000
02000475776XXXXXX2841000000000 0000121589250765297000000000AoLg5mZWxw-202956092100WEB       JETSMART            0000000004 20230322222956        000000000 00000000000000000002685700000000000000000000026857DA                            C       0000000000000000000000
02000434561XXXXXX0086000000000 0000121592020244303000000000jzHjrERFgA-204028782100WEB       JETSMART            0000000061 20230322224030        000000000 00000000000000000033242100000000000000000000332421DA                            D       0000000000000000000000
02000434559XXXXXX7639000000000 0000121592000637255000000000NqGX6sWmig-204028562100WEB       JETSMART            00000000Q5 20230322224029        000000000 00000000000000000048641300000000000000000000486413DA                            D       0000000000000000000000
02000548742XXXXXX8023000000000 0000121603550587766000000000s3FGEuXjcQ-212133902100WEB       JETSMART            0000000051 20230322232134        000000000 00000000000000000035185200000000000000000000351852DA                            C       0000000000000000000000
02000548742XXXXXX6848000000000 0000121604760449027000000000NO44ZItJTg-212711252100WEB       JETSMART            0000000051 20230322232711        000000000 00000000000000000001585700000000000000000000015857DA                            C       0000000000000000000000
02000549070XXXXXX6716000000000 00001158138108660620000000000MuSzU3a3g-175327872120WEB       JETSMART            0000000065 20230309205408        000000000 00000000000000000000695700000000000000000000006957DA                            C       0000000000000000000000
02000442174XXXXXX5992000000000 0000121605820201870000000000Aq7Yq01N6w-213140132100WEB       JETSMART            0000000055 20230322233140        000000000 00000000000000000004675700000000000000000000046757DA                            C       0000000000000000000000
02000415281XXXXXX2964000000000 0000121606080152684000000000zjJ63JLulQ-213248962100WEB       JETSMART            0000000055 20230322233249        000000000 00000000000000000002571400000000000000000000025714DA                            C       0000000000000000000000
02000434559XXXXXX6707000000000 0000121606420466624000000000Zk78qciXqQ-213426162100WEB       JETSMART            00000000Q5 20230322233426        000000000 00000000000000000060417400000000000000000000604174DA                            D       0000000000000000000000
02000559202XXXXXX5027000000000 0000121606920717592000000000OBreHJnVTA-213652842100WEB       JETSMART            0000000051 20230322233653        000000000 00000000000000000006971400000000000000000000069714DA                            C       0000000000000000000000
02000450881XXXXXX3461000000000 0000105910890440342000000000drKw59wVJw-103112842120WEB       JETSMART            00000000Q5 20230215133155        000000000 00000000000000000009411400000000000000000000094114DA                            C       0000000000000000000000
02000518497XXXXXX1319000000000 0000121612200482850000000000jdwkFACg5g-220750372100WEB       JETSMART            00000000S9 20230323000750        000000000 00000000000000000019302800000000000000000000193028DA                            C       0000000000000000000000
02000434925XXXXXX3428000000000 0000121612440573069000000000BxesXsf3GQ-221009592100COMPRA INT JETSMAR  CL        00000000Q5 20230323001009        000000000 00000000000000000009791600000000000000000000097916DA                            C       0000000000000000000000
02000475774XXXXXX5271000000000 0000121615110301669000000000s0yol0KTGA-223437812100WEB       JETSMART            0000000061 20230323003438        000000000 00000000000000000026800100000000000000000000268001DA                            D       0000000000000000000000
02000408832XXXXXX7962000000000 0000121617720746903000000000txsBsainKQ-230423942100COMPRA INT JETSMAR  CL        0000000051 20230323010424        000000000 00000000000000000008000000000000000000000000080000DA                            D       0000000000000000000000
02000450881XXXXXX4735000000000 0000121618760106792000000000Mg3C0uqkug-232126562100WEB       JETSMART            0000000055 20230323012126        000000000 00000000000000000032142400000000000000000000321424DA                            C       0000000000000000000000
02000414791XXXXXX0630000000000 0000121620420553450000000000pDKDzo8OcA-235132332100COMPRA INT JETSMAR  CL        0000000004 20230323015132        000000000 00000000000000000014916000000000000000000000149160DA                            C       0000000000000000000000
02000434559XXXXXX4852000000000 0000121622880153220000000000DryW6ZA2lg-013648592100WEB       JETSMART            00000000Q5 20230323033648        000000000 00000000000000000025785700000000000000000000257857DA                            D       0000000000000000000000
02000451775XXXXXX9687000000000 0000121632420899342000000000vTohZtifHg-055012852100COMPRA INT JETSMAR  CL        0000000004 20230323075013        000000000 00000000000000000004427300000000000000000000044273DA                            D       0000000000000000000000
02000455170XXXXXX4169000000000 000012163496098615100000000054iKj0aYnA-061129772100COMPRA INT JETSMAR  CL        00000000Q5 20230323081130        000000000 00000000000000000020265300000000000000000000202653DA                            D       0000000000000000000000
02000434561XXXXXX4787000000000 0000121635570891222000000000K1525FsySA-061603852100WEB       JETSMART            0000000051 20230323081604        000000000 00000000000000000006971400000000000000000000069714DA                            D       0000000000000000000000
02000512269XXXXXX9274000000000 0000121639190597440000000000Q8OFznSlKA-063726692100WEB       JETSMART            0000000061 20230323083727        000000000 00000000000000000002584700000000000000000000025847DA                            C       0000000000000000000000
02000550018XXXXXX8917000000000 0000121639480605765000000000IhhNYJkfjg-064017032100COMPRA INT JETSMAR  CL        0000000083 20230323084017        000000000 00000000000000000006380100000000000000000000063801DA                            C       0000000000000000000000
02000547551XXXXXX2028000000000 0000121644240617895000000000mdPZvMtHTQ-070344442100WEB       JETSMART            0000000051 20230323090345        000000000 00000000000000000021371400000000000000000000213714DA                            C       0000000000000000000000
02000549070XXXXXX6710000000000 00001158650805171710000000007XuzVPN8yA-200201632120WEB       JETSMART            0000000065 20230309230242        000000000 00000000000000000000695700000000000000000000006957DA                            C       0000000000000000000000
02000533187XXXXXX2448000000000 00001216524704626810000000002ROuX006nQ-073425812100WEB       JETSMART            0000000083 20230323093425        000000000 00000000000000000032149800000000000000000000321498DA                            D       0000000000000000000000
02000559779XXXXXX4312000000000 0000085470690184776000000000BjLCUt04iw-154159752120WEB       JETSMART            0000000068 20221226184207        000000000 00000000000000000001366800000000000000000000013668DA                            D       0000000000000000000000
02000522468XXXXXX6343000000000 0000121654830991081000000000sVuIlA1xsQ-074224802100WEB       JETSMART            0000000083 20230323094225        000000000 00000000000000000002500000000000000000000000025000DA                            C       0000000000000000000000
02000409152XXXXXX3387000000000 0000121655350568323000000000eKyL00DNMA-074406242100WEB       JETSMART            00000000Q5 20230323094406        000000000 00000000000000000049543700000000000000000000495437DA                            C       0000000000000000000000
02000455176XXXXXX0035000000000 0000121662030351702000000000BT30wVZFVA-080732192100COMPRA INT JETSMAR  CL        00000000Q5 20230323100732        000000000 00000000000000000004320000000000000000000000043200DA                            C       0000000000000000000000
02000496617XXXXXX6387000000000 0000121662170925812000000000FraCDXBn1A-080756212100WEB       JETSMART            00000000Q5 20230323100756        000000000 00000000000000000034868000000000000000000000348680DA                            C       0000000000000000000000
02000522468XXXXXX3138000000000 0000121662130828198000000000BY5oYdUQaQ-080751582100WEB       JETSMART            0000000083 20230323100751        000000000 00000000000000000026405500000000000000000000264055DA                            C       0000000000000000000000
02000533187XXXXXX0945000000000 0000121662980087019000000000dc8I0Qr1eg-081131472100WEB       JETSMART            0000000083 20230323101131        000000000 00000000000000000003585700000000000000000000035857DA                            D       0000000000000000000000
02000498811XXXXXX7042000000000 0000121669700104669000000000pVvzCrDEvw-083540012100WEB       JETSMART            0000000036 20230323103540        000000000 00000000000000000007980000000000000000000000079800DA                            C       0000000000000000000000
02000489472XXXXXX4833000000000 0000087185910743281000000000tmRxGQRujA-162728202120WEB       JETSMART            00000000Q5 20221230192735        000000000 00000000000000000006717000000000000000000000067170DA                            C       0000000000000000000000
02000403351XXXXXX1549000000000 0000121671480410134000000000BjAWPafpmQ-084142242100WEB       JETSMART            0000000051 20230323104142        000000000 00000000000000000007000000000000000000000000070000DA                            C       0000000000000000000000
02000434559XXXXXX6191000000000 00001216726708526740000000001h1ww9A9HA-084557882100WEB       JETSMART            00000000Q5 20230323104558        000000000 00000000000000000019270700000000000000000000192707DA                            D       0000000000000000000000
02000512269XXXXXX2392000000000 0000121673430209522000000000zPFwSytm1w-084820132100WEB       JETSMART            0000000083 20230323104820        000000000 00000000000000000004185700000000000000000000041857DA                            C       0000000000000000000000
02000548742XXXXXX2883000000000 0000121673920921439000000000XthVPSZSmg-084934592100WEB       JETSMART            0000000061 20230323104934        000000000 00000000000000000005142800000000000000000000051428DA                            C       0000000000000000000000
02000520079XXXXXX0130000000000 0000121674860278766000000000WGKQQy1I6A-085231412100WEB       JETSMART            0000000068 20230323105232        000000000 00000000000000000008934700000000000000000000089347DA                            C       0000000000000000000000
02000480917XXXXXX7583000000000 00001216759804390700000000002Ewf6HTr4A-085607312100WEB       JETSMART            0000000033 20230323105607        000000000 00000000000000000038000000000000000000000000380000DA                            C       0000000000000000000000
02000454851XXXXXX9721000000000 0000121677030522263000000000IcmS5GAomA-085902252100WEB       JETSMART            0000000043 20230323105902        000000000 00000000000000000005865700000000000000000000058657DA                            C       0000000000000000000000
02000455176XXXXXX0035000000000 0000121679140859795000000000BT30wVZFVA-090422322100COMPRA INT JETSMAR  CL        00000000Q5 20230323110422        000000000 00000000000000000004320000000000000000000000043200DA                            C       0000000000000000000000
02000549163XXXXXX0579000000000 0000121679070269975000000000C0gsLcf1MA-090413632100WEB       JETSMART            00000000S9 20230323110413        000000000 00000000000000000002100000000000000000000000021000DA                            C       0000000000000000000000
02000434559XXXXXX0862000000000 0000121684810689656000000000dS1n0uxhvA-092151722100WEB       JETSMART            0000000002 20230323112152        000000000 00000000000000000001885700000000000000000000018857DA                            D       0000000000000000000000
02000522468XXXXXX5552000000000 0000121688470043734000000000rKyXpa5a0w-093247112100WEB       JETSMART            0000000079 20230323113247        000000000 00000000000000000035465800000000000000000000354658DA                            C       0000000000000000000000
02000455788XXXXXX9747000000000 0000121690320961015000000000Cp9uqm5wPQ-093904002100COMPRA INT JETSMAR  CL        00000000Q5 20230323113904        000000000 00000000000000000000420200000000000000000000004202DA                            C       0000000000000000000000
02000512269XXXXXX7390000000000 0000121694480844936000000000p5XEMeQomQ-095206662100WEB       JETSMART            0000000051 20230323115206        000000000 00000000000000000042905000000000000000000000429050DA                            C       0000000000000000000000
02000554730XXXXXX1689000000000 0000121697530633847000000000skH96MABYg-100112492100COMPRA INT JETSMAR  CL        0000000068 20230323120112        000000000 00000000000000000001765900000000000000000000017659DA                            D       0000000000000000000000
02000455788XXXXXX4983000000000 0000121697340285994000000000KItAjkMZWw-100041512100COMPRA INT JETSMAR  CL        00000000Q5 20230323120041        000000000 00000000000000000009874700000000000000000000098747DA                            C       0000000000000000000000
02000548742XXXXXX7901000000000 00001217001007950780000000001mfHosltNw-100930722100WEB       JETSMART            00000000S9 20230323120930        000000000 00000000000000000008984700000000000000000000089847DA                            C       0000000000000000000000
02000411093XXXXXX3181000000000 0000121701600263628000000000fT00FW6XyA-101416242100COMPRA INT JETSMAR  CL        0000000004 20230323121416        000000000 00000000000000000010690800000000000000000000106908DA                            C       0000000000000000000000
02000558717XXXXXX5030000000000 0000121704920222033000000000ZuJoVlkStQ-102429672100COMPRA INT JETSMAR  CL        0000000051 20230323122429        000000000 00000000000000000005033000000000000000000000050330DA                            C       0000000000000000000000
02000455148XXXXXX8115000000000 0000121709090440617000000000LGg1uDv4Dw-103730732100COMPRA INT JETSMAR  CL        00000000Q5 20230323123731        000000000 00000000000000000025545600000000000000000000255456DA                            C       0000000000000000000000
02000489472XXXXXX0070000000000 0000121710560815467000000000NDk4qr08cw-104143642100WEB       JETSMART            0000000033 20230323124143        000000000 00000000000000000016583700000000000000000000165837DA                            C       0000000000000000000000
02000528209XXXXXX5186000000000 0000121716340127661000000000JQPl4wGTUQ-105607652100COMPRA INT JETSMAR  CL        0000000057 20230323125607        000000000 00000000000000000039383000000000000000000000393830DA                            C       0000000000000000000000
02000552252XXXXXX3327000000000 0000121719130525606000000000sWenqMfTFQ-110418362100WEB       JETSMART            0000000051 20230323130418        000000000 00000000000000000016815700000000000000000000168157DA                            C       0000000000000000000000
02000528209XXXXXX5186000000000 0000121722600842114000000000T0vBMyN9mw-111630222100COMPRA INT JETSMAR  CL        0000000057 20230323131630        000000000 00000000000000000039383000000000000000000000393830DA                            C       0000000000000000000000
02000434559XXXXXX0050000000000 0000121722800648486000000000IX0U7gBBAw-111723272100WEB       JETSMART            0000000002 20230323131723        000000000 00000000000000000004285700000000000000000000042857DA                            D       0000000000000000000000
02000513142XXXXXX4599000000000 0000121723600516687000000000vvk9NXbHSg-112013344200COMPRA INT JETSMAR  CL        0000000012 20230323132013        000000000 00000000000000000007549500000000000000000000075495DA                            C       0000000000000000000000
02000459311XXXXXX5695000000000 0000121726020877627000000000Ewo00xZHtA-112905402100WEB       JETSMART            0000000051 20230323132905        000000000 00000000000000000027323500000000000000000000273235DA                            C       0000000000000000000000
02000434559XXXXXX2420000000000 0000121726590868557000000000qU8EJt4cBg-113045482100WEB       JETSMART            0000000051 20230323133045        000000000 00000000000000000001885700000000000000000000018857DA                            D       0000000000000000000000
02000434559XXXXXX0050000000000 0000121728430710272000000000IX0U7gBBAw-113604022100WEB       JETSMART            0000000002 20230323133604        000000000 00000000000000000004285700000000000000000000042857DA                            D       0000000000000000000000
02000520053XXXXXX7330000000000 0000121728690504166000000000DxYAHlRKdQ-113645722100COMPRA INT JETSMAR  CL        0000000068 20230323133645        000000000 00000000000000000000761400000000000000000000007614DA                            C       0000000000000000000000
02000434559XXXXXX2420000000000 0000121729060115098000000000qU8EJt4cBg-113746512100WEB       JETSMART            0000000051 20230323133746        000000000 00000000000000000001885700000000000000000000018857DA                            D       0000000000000000000000
02000543696XXXXXX1299000000000 0000121731740785973000000000v9eBkgRnWg-114533332100WEB       JETSMART            0000000068 20230323134533        000000000 00000000000000000044692800000000000000000000446928DA                            C       0000000000000000000000
02000498811XXXXXX7042000000000 00001217344301349830000000002llsf51hVw-115420322100WEB       JETSMART            0000000036 20230323135420        000000000 00000000000000000100000000000000000000000001000000DA                            C       0000000000000000000000
02000533187XXXXXX1762000000000 0000121738240401882000000000L0hY10l7Zg-120720572100WEB       JETSMART            0000000012 20230323140720        000000000 00000000000000000004671400000000000000000000046714DA                            D       0000000000000000000000
02000525322XXXXXX9746000000000 0000121739330346375000000000tCr610NU8A-121015512100COMPRA INT JETSMAR  CL        0000000051 20230323141015        000000000 00000000000000000023674200000000000000000000236742DA                            C       0000000000000000000000
02000434956XXXXXX9081000000000 00001217421909823290000000002llsf51hVw-121757722100WEB       JETSMART            0000000033 20230323141758        000000000 00000000000000000050000000000000000000000000500000DA                            C       0000000000000000000000
02000512269XXXXXX9506000000000 0000121746350406960000000000x512tg7bJw-123004872100WEB       JETSMART            0000000079 20230323143005        000000000 00000000000000000001285700000000000000000000012857DA                            C       0000000000000000000000
02000512269XXXXXX3761000000000 0000121747950203600000000000RObFgeMk4Q-123514322100WEB       JETSMART            0000000051 20230323143515        000000000 00000000000000000003085700000000000000000000030857DA                            C       0000000000000000000000
02000522468XXXXXX3286000000000 0000121758060891612000000000LR4sVTvnbA-130842892100WEB       JETSMART            0000000083 20230323150843        000000000 00000000000000000058151200000000000000000000581512DA                            C       0000000000000000000000
02000421355XXXXXX9944000000000 0000121761730049387000000000cqPcwugsqg-132308452100COMPRA INT JETSMAR  CL        0000000051 20230323152308        000000000 00000000000000000019688400000000000000000000196884DA                            D       0000000000000000000000
02000529881XXXXXX8000000000000 0000121763130202867000000000XAlvaCXmzA-132746612100WEB       JETSMART            0000000068 20230323152747        000000000 00000000000000000005871800000000000000000000058718DA                            C       0000000000000000000000
02000454851XXXXXX9721000000000 0000121768640606591000000000NaMPXlfqZA-134807842100WEB       JETSMART            0000000043 20230323154807        000000000 00000000000000000007055700000000000000000000070557DA                            C       0000000000000000000000
02000548742XXXXXX6719000000000 0000121772330727698000000000m360zVqqUg-140015702100WEB       JETSMART            0000000083 20230323160015        000000000 00000000000000000003085700000000000000000000030857DA                            C       0000000000000000000000
02000548742XXXXXX9156000000000 0000121773260905949000000000QpBRlYwVgQ-140332522100WEB       JETSMART            0000000051 20230323160332        000000000 00000000000000000016910000000000000000000000169100DA                            C       0000000000000000000000
02000550020XXXXXX2958000000000 0000121775420355146000000000ODfe5xWOBQ-141050252100COMPRA INT JETSMAR  CL        0000000083 20230323161050        000000000 00000000000000000019293000000000000000000000192930DA                            C       0000000000000000000000
02000475776XXXXXX7027000000000 0000121776690555173000000000N158pbA50g-141501002100WEB       JETSMART            00000000Q5 20230323161501        000000000 00000000000000000003385700000000000000000000033857DA                            C       0000000000000000000000
02000481550XXXXXX9163000000000 0000121781220772473000000000Hd9DR82wDg-142740672100COMPRA INT JETSMAR  CL        0000000051 20230323162741        000000000 00000000000000000000121500000000000000000000001215DA                            D       0000000000000000000000
02000456931XXXXXX4004000000000 0000121781520525747000000000ctYnwbaX8w-142817962100WEB       JETSMART            00000000Q5 20230323162818        000000000 00000000000000000008000000000000000000000000080000DA                            C       0000000000000000000000
02000450004XXXXXX5627000000000 0000121784810996909000000000j1lQH9ol1A-143932042100COMPRA INT JETSMAR  CL        0000000036 20230323163932        000000000 00000000000000000026422800000000000000000000264228DA                            C       0000000000000000000000
02000421410XXXXXX9262000000000 0000121788480409720000000000BBAMuCP3tw-145206212100COMPRA INT JETSMAR  CL        00000000Q5 20230323165206        000000000 00000000000000000007728100000000000000000000077281DA                            D       0000000000000000000000
02000455788XXXXXX9747000000000 0000121789750871018000000000Cp9uqm5wPQ-145528942100COMPRA INT JETSMAR  CL        00000000Q5 20230323165529        000000000 00000000000000000000420200000000000000000000004202DA                            C       0000000000000000000000
02000421410XXXXXX9262000000000 0000121793800568740000000000BBAMuCP3tw-150824532100COMPRA INT JETSMAR  CL        00000000Q5 20230323170825        000000000 00000000000000000007728100000000000000000000077281DA                            D       0000000000000000000000
02000434956XXXXXX9081000000000 0000121802730303752000000000hE5ah9mTrA-154052332100WEB       JETSMART            0000000033 20230323174052        000000000 00000000000000000008019700000000000000000000080197DA                            C       0000000000000000000000
02000447410XXXXXX1293000000000 00001218039706749720000000006s0vtq0a0g-154521382100COMPRA INT JETSMAR  CL        0000000062 20230323174521        000000000 00000000000000000006330000000000000000000000063300DA                            C       0000000000000000000000
02000559800XXXXXX4020000000000 0000121804950723657000000000toWPwxGgwg-154900192100WEB       JETSMART            0000000079 20230323174900        000000000 00000000000000000002660000000000000000000000026600DA                            C       0000000000000000000000
02000548742XXXXXX2879000000000 0000121808090924493000000000G0PeLI2Tnw-160105692100WEB       JETSMART            0000000083 20230323180105        000000000 00000000000000000034558200000000000000000000345582DA                            C       0000000000000000000000
02000447410XXXXXX1293000000000 00001218085801057560000000006s0vtq0a0g-160315162100COMPRA INT JETSMAR  CL        0000000062 20230323180315        000000000 00000000000000000006330000000000000000000000063300DA                            C       0000000000000000000000
02000547551XXXXXX4805000000000 0000121809810824813000000000eLNEwDvUEA-160742342100WEB       JETSMART            0000000068 20230323180742        000000000 00000000000000000020045700000000000000000000200457DA                            C       0000000000000000000000
02000466057XXXXXX1878000000000 0000121810520024034000000000v0rFYrybYA-161015242100COMPRA INT JETSMAR  CL        0000000051 20230323181017        000000000 00000000000000000005054700000000000000000000050547DA                            C       0000000000000000000000
02000434559XXXXXX8112000000000 0000121811080303359000000000r2hwNzIwcg-161201012100WEB       JETSMART            0000000002 20230323181201        000000000 00000000000000000008171400000000000000000000081714DA                            D       0000000000000000000000
02000406663XXXXXX2013000000000 000012181511089009700000000024s09wPJDA-162633882100COMPRA INT JETSMAR  CL        0000000061 20230323182634        000000000 00000000000000000010571100000000000000000000105711DA                            D       0000000000000000000000
02000530250XXXXXX5792000000000 0000121815760960307000000000E6BEDpjgRw-162856242100WEB       JETSMART            0000000068 20230323182856        000000000 00000000000000000008064100000000000000000000080641DA                            C       0000000000000000000000
02000455176XXXXXX0035000000000 0000121815850871018000000000BT30wVZFVA-162908722100COMPRA INT JETSMAR  CL        00000000Q5 20230323182908        000000000 00000000000000000004320000000000000000000000043200DA                            C       0000000000000000000000
02000517608XXXXXX7086000000000 0000121818730033580000000000OkYBEQoaRA-164054392100WEB       JETSMART            0000000012 20230323184054        000000000 00000000000000000016071200000000000000000000160712DA                            D       0000000000000000000000
02000529206XXXXXX7368000000000 0000121824730732716000000000ifLtsiLfjg-170440122100COMPRA INT JETSMAR  CL        00000000S9 20230323190440        000000000 00000000000000000008093900000000000000000000080939DA                            C       0000000000000000000000
02000496617XXXXXX0325000000000 0000121825100500935000000000qJgo6zCsCg-170609502100WEB       JETSMART            00000000Q5 20230323190609        000000000 00000000000000000026137700000000000000000000261377DA                            C       0000000000000000000000
02000434956XXXXXX6996000000000 00001218244909586490000000009jO7gJgkOw-170336092100WEB       JETSMART            0000000051 20230323190336        000000000 00000000000000000005771400000000000000000000057714DA                            C       0000000000000000000000
02000548742XXXXXX9940000000000 0000121830970335916000000000fFIdVWjjZQ-172808872100WEB       JETSMART            00000000T8 20230323192809        000000000 00000000000000000005771400000000000000000000057714DA                            C       0000000000000000000000
02000536983XXXXXX8934000000000 0000121832700938597000000000G7bDK8WMcw-173449512100COMPRA INT JETSMAR  CL        00000000S9 20230323193449        000000000 00000000000000000006171400000000000000000000061714DA                            C       0000000000000000000000
02000455788XXXXXX0484000000000 0000121836750462467000000000ToZo0ZUJhw-175237942100COMPRA INT JETSMAR  CL        0000000051 20230323195238        000000000 00000000000000000003635500000000000000000000036355DA                            C       0000000000000000000000
02000496617XXXXXX0325000000000 0000121836810090182000000000OtJ0RvS00A-175300662100WEB       JETSMART            00000000Q5 20230323195300        000000000 00000000000000000021685700000000000000000000216857DA                            C       0000000000000000000000
02000512269XXXXXX7678000000000 00001218368403917280000000005qRefA1pfA-175306172100WEB       JETSMART            0000000083 20230323195306        000000000 00000000000000000012062400000000000000000000120624DA                            C       0000000000000000000000
02000549070XXXXXX9031000000000 0000121836590152068000000000Cg021VmbTA-175150582100WEB       JETSMART            0000000068 20230323195150        000000000 00000000000000000003884700000000000000000000038847DA                            C       0000000000000000000000
02000552273XXXXXX6041000000000 0000121837580228473000000000F8vWFRUttA-175648182100WEB       JETSMART            0000000083 20230323195648        000000000 00000000000000000006371400000000000000000000063714DA                            C       0000000000000000000000
02000553397XXXXXX4479000000000 00001218376100697040000000001lGvrdWhBw-175713722100COMPRA INT JETSMAR  CL        0000000051 20230323195713        000000000 00000000000000000005200700000000000000000000052007DA                            C       0000000000000000000000
02000475774XXXXXX2250000000000 0000121840000228406000000000KWEigfJM6g-180638762100WEB       JETSMART            0000000033 20230323200639        000000000 00000000000000000002100000000000000000000000021000DA                            D       0000000000000000000000
02000434559XXXXXX7639000000000 0000121842370269653000000000vABY65XY6Q-181533432100WEB       JETSMART            00000000Q5 20230323201533        000000000 00000000000000000048641300000000000000000000486413DA                            D       0000000000000000000000
02000434559XXXXXX6114000000000 0000121843950598220000000000Bq1EXWY11A-182145262100WEB       JETSMART            00000000Q5 20230323202145        000000000 00000000000000000042714000000000000000000000427140DA                            D       0000000000000000000000
02000475774XXXXXX3400000000000 0000121845610408658000000000YfXMwiL26Q-182836962100WEB       JETSMART            0000000051 20230323202837        000000000 00000000000000000008287600000000000000000000082876DA                            D       0000000000000000000000
02000455170XXXXXX8528000000000 00001218542801891620000000003QSbp9zMng-185751692100COMPRA INT JETSMAR  CL        0000000051 20230323205751        000000000 00000000000000000003294100000000000000000000032941DA                            D       0000000000000000000000
02000434559XXXXXX2683000000000 00001215649303743160000000008EFqH2HvNA-190702112100WEB       JETSMART            00000000Q5 20230322210702        000000000 00000000000000000042561600000000000000000000425616DA                            D       0000000000000000000000
02000522468XXXXXX6101000000000 00001215687309299770000000004AswRcRGHg-192142842100WEB       JETSMART            0000000068 20230322212143        000000000 00000000000000000029207900000000000000000000292079DA                            C       0000000000000000000000
02000456918XXXXXX8523000000000 0000121570630596990000000000mSxN4JKtuw-192707812100WEB       JETSMART            0000000033 20230322212707        000000000 00000000000000000016932600000000000000000000169326DA                            C       0000000000000000000000
02000529206XXXXXX4325000000000 0000121571830806066000000000vSlve951dQ-193058982100COMPRA INT JETSMAR  CL        0000000057 20230322213059        000000000 00000000000000000013743400000000000000000000137434DA                            C       0000000000000000000000
02000434956XXXXXX9762000000000 000012157235085623800000000042B2cDgHLg-193309942100WEB       JETSMART            00000000Q5 20230322213310        000000000 00000000000000000022071400000000000000000000220714DA                            C       0000000000000000000000
02000434559XXXXXX5805000000000 0000121573090655557000000000xhd0v86WAg-193603722100WEB       JETSMART            00000000Q5 20230322213604        000000000 00000000000000000054859200000000000000000000548592DA                            D       0000000000000000000000
02000529881XXXXXX4103000000000 0000121574790687470000000000PaoVzAiW0w-194139062100WEB       JETSMART            0000000051 20230322214139        000000000 00000000000000000010435000000000000000000000104350DA                            C       0000000000000000000000
02000522468XXXXXX6844000000000 00001215756605649550000000004AswRcRGHg-194415552100WEB       JETSMART            0000000068 20230322214415        000000000 00000000000000000035490800000000000000000000354908DA                            C       0000000000000000000000
02000548742XXXXXX6027000000000 0000121576320941648000000000yWCNyHfNKA-194613262100WEB       JETSMART            00000000T2 20230322214613        000000000 00000000000000000025852800000000000000000000258528DA                            C       0000000000000000000000
02000522468XXXXXX6844000000000 0000121578550011154000000000akOljKEkYA-195331992100WEB       JETSMART            0000000068 20230322215332        000000000 00000000000000000035490800000000000000000000354908DA                            C       0000000000000000000000
02000552252XXXXXX3568000000000 0000121578570674293000000000JleLLsGdeg-195333992100WEB       JETSMART            0000000068 20230322215334        000000000 00000000000000000003771400000000000000000000037714DA                            C       0000000000000000000000
02000427836XXXXXX9160000000000 0000121578720111414000000000lfdOFmC2PA-195407612100          JETSMART            0000000067 20230322215407        000000000 00000000000000000000842400000000000000000000008424DA                            D       0000000000000000000000
02000478688XXXXXX0741000000000 0000121578870413180000000000QYKyP6P5kQ-195444502100WEB       JETSMART            00000000Q5 20230322215444        000000000 00000000000000000051722000000000000000000000517220DA                            C       0000000000000000000000
02000549162XXXXXX6961000000000 0000121578850638554000000000I7QEnF3e5Q-195442582100WEB       JETSMART            0000000079 20230322215442        000000000 00000000000000000004865200000000000000000000048652DA                            C       0000000000000000000000
02000434956XXXXXX9762000000000 000012158125093533900000000042B2cDgHLg-200216212100WEB       JETSMART            00000000Q5 20230322220216        000000000 00000000000000000022071400000000000000000000220714DA                            C       0000000000000000000000
02000552252XXXXXX3568000000000 0000121582990074704000000000JleLLsGdeg-200803222100WEB       JETSMART            0000000068 20230322220803        000000000 00000000000000000003771400000000000000000000037714DA                            C       0000000000000000000000
02000548742XXXXXX7694000000000 0000121583310039732000000000cG0ZtPM4Tg-200859862100WEB       JETSMART            0000000083 20230322220900        000000000 00000000000000000020314200000000000000000000203142DA                            C       0000000000000000000000
02000557907XXXXXX9964000000000 00001215832808504830000000000oVUveHyCA-200856892100COMPRA INT JETSMAR  CL        0000000012 20230322220857        000000000 00000000000000000011006700000000000000000000110067DA                            D       0000000000000000000000
02000555912XXXXXX2216000000000 0000121583450727733000000000QDUltEMAsA-200933032100WEB       JETSMART            0000000012 20230322220933        000000000 00000000000000000015352200000000000000000000153522DA                            D       0000000000000000000000
02000559202XXXXXX0587000000000 0000121584020265174000000000ShQZaTtQrQ-201135092100WEB       JETSMART            0000000079 20230322221135        000000000 00000000000000000001240000000000000000000000012400DA                            C       0000000000000000000000
02000559202XXXXXX3787000000000 0000121587760823429000000000fHqViIFrIQ-202523692100WEB       JETSMART            0000000079 20230322222523        000000000 00000000000000000007759200000000000000000000077592DA                            C       0000000000000000000000
02000402701XXXXXX8526000000000 00001215920103648370000000001i0vcJ2Jtw-204028702100COMPRA INT JETSMAR  CL        00000000Q5 20230322224029        000000000 00000000000000000033360000000000000000000000333600DA                            D       0000000000000000000000
02000512269XXXXXX9274000000000 0000121593150566853000000000F03zEEuOZQ-204335472100WEB       JETSMART            0000000061 20230322224335        000000000 00000000000000000002584700000000000000000000025847DA                            C       0000000000000000000000
02000522468XXXXXX1867000000000 0000121595070820871000000000gVkcy7p9aw-204857342100WEB       JETSMART            0000000051 20230322224857        000000000 00000000000000000014135400000000000000000000141354DA                            C       0000000000000000000000
02000456865XXXXXX0576000000000 0000121599100211229000000000KQ5hBaWxmA-210202752100WEB       JETSMART            0000000051 20230322230202        000000000 00000000000000000015685700000000000000000000156857DA                            D       0000000000000000000000
02000492210XXXXXX8567000000000 0000121599520255970000000000W7FkRAZaLw-210353882100WEB       JETSMART            0000000051 20230322230354        000000000 00000000000000000025785700000000000000000000257857DA                            C       0000000000000000000000
02000544039XXXXXX8500000000000 0000121601640253303000000000B3iJwfU5kw-211314292100COMPRA INT JETSMAR  CL        00000000S9 20230322231314        000000000 00000000000000000010250500000000000000000000102505DA                            D       0000000000000000000000
02000540477XXXXXX5874000000000 00001216014003877390000000003T3Csp4l0w-211225162100WEB       JETSMART            0000000068 20230322231225        000000000 00000000000000000012051400000000000000000000120514DA                            C       0000000000000000000000
02000512269XXXXXX9849000000000 0000121605070383557000000000A8cB5gYWYQ-212813092100WEB       JETSMART            0000000083 20230322232813        000000000 00000000000000000024342800000000000000000000243428DA                            C       0000000000000000000000
02000451765XXXXXX7120000000000 0000121607590526060000000000fCvjdU0rdw-214035622100COMPRA INT JETSMAR  CL        0000000051 20230322234035        000000000 00000000000000000000380700000000000000000000003807DA                            D       0000000000000000000000
02000512269XXXXXX9849000000000 0000121608070287805000000000iMXQQxz0OQ-214216152100WEB       JETSMART            0000000083 20230322234216        000000000 00000000000000000027482800000000000000000000274828DA                            C       0000000000000000000000
02000533187XXXXXX6878000000000 0000121609270087249000000000SE159WeN8Q-214840572100WEB       JETSMART            0000000051 20230322234840        000000000 00000000000000000011288400000000000000000000112884DA                            D       0000000000000000000000
02000414791XXXXXX0630000000000 0000121619470295052000000000pDKDzo8OcA-233008442100COMPRA INT JETSMAR  CL        0000000004 20230323013008        000000000 00000000000000000014916000000000000000000000149160DA                            C       0000000000000000000000
02000483312XXXXXX2224000000000 0000121626170042027000000000jQA0TspqFw-043448332100COMPRA INT JETSMAR  CL        00000000Q5 20230323063448        000000000 00000000000000000015906400000000000000000000159064DA                            D       0000000000000000000000
02000451765XXXXXX3905000000000 00001216273603152020000000008YIqXdMBZA-045345292100COMPRA INT JETSMAR  CL        00000000Q5 20230323065345        000000000 00000000000000000005553700000000000000000000055537DA                            D       0000000000000000000000
02000522468XXXXXX7816000000000 0000121635460855719000000000atgJc6duRg-061512832100WEB       JETSMART            0000000051 20230323081513        000000000 00000000000000000019305700000000000000000000193057DA                            C       0000000000000000000000
02000404031XXXXXX4366000000000 00001216364203764920000000005nzY7L9T0A-062139302100COMPRA INT JETSMAR  CL        0000000004 20230323082139        000000000 00000000000000000003739500000000000000000000037395DA                            D       0000000000000000000000
02000476026XXXXXX4408000000000 0000121638010088606000000000GcxizqRorg-063020072100WEB       JETSMART            0000000051 20230323083020        000000000 00000000000000000022945700000000000000000000229457DA                            C       0000000000000000000000
02000450995XXXXXX5293000000000 0000121638550595298000000000DwQ01myBeQ-063409772100COMPRA INT JETSMAR  CL        00000000Q5 20230323083409        000000000 00000000000000000001765900000000000000000000017659DA                            C       0000000000000000000000
02000552252XXXXXX3568000000000 0000121638970906028000000000JleLLsGdeg-063609582100WEB       JETSMART            0000000068 20230323083609        000000000 00000000000000000003771400000000000000000000037714DA                            C       0000000000000000000000
02000421355XXXXXX0811000000000 0000121642220199299000000000czngIh6qyA-065407892100COMPRA INT JETSMAR  CL        0000000051 20230323085408        000000000 00000000000000000003222700000000000000000000032227DA                            D       0000000000000000000000
02000550018XXXXXX8917000000000 0000121646140791244000000000IhhNYJkfjg-071139262100COMPRA INT JETSMAR  CL        0000000083 20230323091139        000000000 00000000000000000006380100000000000000000000063801DA                            C       0000000000000000000000
02000547551XXXXXX1685000000000 0000121646250031715000000000fUCNnuULGQ-071205012100WEB       JETSMART            0000000051 20230323091205        000000000 00000000000000000024312200000000000000000000243122DA                            C       0000000000000000000000
02000521729XXXXXX5734000000000 0000121657950852610000000000dyV0Ol396g-075255682100COMPRA INT JETSMAR  CL        0000000051 20230323095256        000000000 00000000000000000059206000000000000000000000592060DA                            C       0000000000000000000000
02000434560XXXXXX4390000000000 0000121660720741085000000000zmiaZNRaAA-080303832100WEB       JETSMART            0000000014 20230323100303        000000000 00000000000000000000964700000000000000000000009647DA                            D       0000000000000000000000
02000522468XXXXXX2509000000000 0000121661170481496000000000M81tmUmmCw-080459362100WEB       JETSMART            0000000083 20230323100459        000000000 00000000000000000014815700000000000000000000148157DA                            C       0000000000000000000000
02000522468XXXXXX2509000000000 0000121662620591940000000000M81tmUmmCw-080947762100WEB       JETSMART            0000000083 20230323100947        000000000 00000000000000000009675700000000000000000000096757DA                            C       0000000000000000000000
02000522468XXXXXX2509000000000 0000121663420978136000000000M81tmUmmCw-081311082100WEB       JETSMART            0000000083 20230323101311        000000000 00000000000000000009675700000000000000000000096757DA                            C       0000000000000000000000
02000533187XXXXXX0945000000000 0000121665430645912000000000dc8I0Qr1eg-082106522100WEB       JETSMART            0000000083 20230323102106        000000000 00000000000000000003585700000000000000000000035857DA                            D       0000000000000000000000
02000416682XXXXXX1181000000000 0000121667740826983000000000b0d58moCsg-082931962100COMPRA INT JETSMAR  CL        0000000004 20230323102932        000000000 00000000000000000006013400000000000000000000060134DA                            D       0000000000000000000000
02000522468XXXXXX6120000000000 0000121669740155260000000000BY5oYdUQaQ-083551192100WEB       JETSMART            0000000083 20230323103551        000000000 00000000000000000007968900000000000000000000079689DA                            C       0000000000000000000000
02000559779XXXXXX0562000000000 0000073066060697297000000000K265LB1MQg-095953692120WEB       JETSMART            0000000068 20221125130021        000000000 00000000000000000000683400000000000000000000006834DA                            D       0000000000000000000000
02000510869XXXXXX1542000000000 00001216716600792940000000002YKcuo4vkA-084211822100WEB       JETSMART            0000000083 20230323104212        000000000 00000000000000000017085600000000000000000000170856DA                            D       0000000000000000000000
02000559205XXXXXX8384000000000 00001216759002268920000000000FHGMYiymQ-085550292100WEB       JETSMART            0000000057 20230323105550        000000000 00000000000000000019544700000000000000000000195447DA                            C       0000000000000000000000
02000498811XXXXXX7042000000000 0000121676690409527000000000pVvzCrDEvw-085804952100WEB       JETSMART            0000000036 20230323105805        000000000 00000000000000000007980000000000000000000000079800DA                            C       0000000000000000000000
02000455788XXXXXX9747000000000 0000121681090955890000000000Cp9uqm5wPQ-090959832100COMPRA INT JETSMAR  CL        00000000Q5 20230323111000        000000000 00000000000000000000420200000000000000000000004202DA                            C       0000000000000000000000
02000434956XXXXXX9762000000000 0000121686770985063000000000Ge8pxwpAhA-092846022100WEB       JETSMART            00000000Q5 20230323112846        000000000 00000000000000000022071400000000000000000000220714DA                            C       0000000000000000000000
02000549070XXXXXX2919000000000 0000119501420250951000000000dhZSxlWDZQ-203029732120WEB       JETSMART            0000000065 20230318223030        000000000 00000000000000000000695700000000000000000000006957DA                            C       0000000000000000000000
02000450881XXXXXX4735000000000 0000121697200308824000000000QsRGem0ZDQ-100010162100WEB       JETSMART            0000000004 20230323120010        000000000 00000000000000000032142400000000000000000000321424DA                            C       0000000000000000000000
02000455788XXXXXX9747000000000 0000121700230686763000000000Cp9uqm5wPQ-100952112100COMPRA INT JETSMAR  CL        00000000Q5 20230323120952        000000000 00000000000000000000420200000000000000000000004202DA                            C       0000000000000000000000
02000517608XXXXXX7823000000000 00001217018504930650000000000emQdaM3Zw-101507232100WEB       JETSMART            0000000051 20230323121507        000000000 00000000000000000043683600000000000000000000436836DA                            D       0000000000000000000000
02000548742XXXXXX9895000000000 0000121702680839178000000000p0w6DmHrww-101808822100WEB       JETSMART            0000000051 20230323121809        000000000 00000000000000000012342800000000000000000000123428DA                            C       0000000000000000000000
02000559779XXXXXX7921000000000 0000121702690468097000000000L87Cs8FE0w-101809972100WEB       JETSMART            0000000051 20230323121810        000000000 00000000000000000006542900000000000000000000065429DA                            D       0000000000000000000000
02000512269XXXXXX5030000000000 0000121704430667692000000000p5XEMeQomQ-102307802100WEB       JETSMART            0000000051 20230323122308        000000000 00000000000000000042905000000000000000000000429050DA                            C       0000000000000000000000
02000554730XXXXXX1689000000000 0000121707330670436000000000skH96MABYg-103240962100COMPRA INT JETSMAR  CL        0000000051 20230323123241        000000000 00000000000000000001765900000000000000000000017659DA                            D       0000000000000000000000
02000411093XXXXXX3181000000000 0000121707510738958000000000fT00FW6XyA-103306722100COMPRA INT JETSMAR  CL        0000000004 20230323123306        000000000 00000000000000000010690800000000000000000000106908DA                            C       0000000000000000000000
02000416598XXXXXX9316000000000 00000923882403540840000000006UK0lyZwfQ-134432252120COMPRA INT JETSMAR  CL        00000000S9 20230112164439        000000000 00000000000000000016482200000000000000000000164822DA                            D       0000000000000000000000
02000409767XXXXXX5102000000000 0000121709970193666000000000lwGBdyeRmA-104012232100WEB       JETSMART            00000000S9 20230323124012        000000000 00000000000000000033168200000000000000000000331682DA                            D       0000000000000000000000
02000525384XXXXXX8504000000000 0000121716180117240000000000CtK0yF7aOg-105536962100WEB       JETSMART            0000000083 20230323125537        000000000 00000000000000000004440000000000000000000000044400DA                            D       0000000000000000000000
02000548742XXXXXX2879000000000 0000121720780538480000000000lwGBdyeRmA-110927742100WEB       JETSMART            0000000083 20230323130928        000000000 00000000000000000033168200000000000000000000331682DA                            C       0000000000000000000000
02000512269XXXXXX7678000000000 00001217227207558270000000000Qm7BCIDyw-111659852100WEB       JETSMART            0000000083 20230323131659        000000000 00000000000000000011869400000000000000000000118694DA                            C       0000000000000000000000
02000454851XXXXXX3344000000000 0000121722790542789000000000qe2hj0iGdQ-111721042100WEB       JETSMART            0000000033 20230323131721        000000000 00000000000000000003875700000000000000000000038757DA                            C       0000000000000000000000
02000522468XXXXXX6129000000000 0000121723130923229000000000YIXa8Fqn3A-111826692100WEB       JETSMART            0000000079 20230323131827        000000000 00000000000000000007542800000000000000000000075428DA                            C       0000000000000000000000
02000498811XXXXXX6567000000000 0000121723160456877000000000T5dijsRxKA-111832482100WEB       JETSMART            0000000051 20230323131832        000000000 00000000000000000346023900000000000000000003460239DA                            C       0000000000000000000000
02000549070XXXXXX8243000000000 00001217235007085590000000003Mjib1Gsww-111954642100WEB       JETSMART            0000000068 20230323131954        000000000 00000000000000000008093900000000000000000000080939DA                            C       0000000000000000000000
02000409767XXXXXX5102000000000 0000121725590829879000000000lwGBdyeRmA-112719502100WEB       JETSMART            00000000S9 20230323132719        000000000 00000000000000000033168200000000000000000000331682DA                            D       0000000000000000000000
02000493719XXXXXX4828000000000 0000121730380930902000000000xd9ET3zIhw-114124392100COMPRA INT JETSMAR  CL        0000000051 20230323134124        000000000 00000000000000000001684900000000000000000000016849DA                            C       0000000000000000000000
02000498811XXXXXX7042000000000 0000121733690542946000000000pVvzCrDEvw-115113292100WEB       JETSMART            0000000036 20230323135113        000000000 00000000000000000027011400000000000000000000270114DA                            C       0000000000000000000000
02000498811XXXXXX7042000000000 00001217367108240550000000002llsf51hVw-120210062100WEB       JETSMART            0000000036 20230323140210        000000000 00000000000000000040000000000000000000000000400000DA                            C       0000000000000000000000
02000525322XXXXXX9746000000000 0000121737130570311000000000pxy1Hoi6aw-120331532100COMPRA INT JETSMAR  CL        0000000051 20230323140331        000000000 00000000000000000023674200000000000000000000236742DA                            C       0000000000000000000000
02000434559XXXXXX3392000000000 0000121737350427405000000000DvebNlC0EA-120424042100WEB       JETSMART            0000000051 20230323140424        000000000 00000000000000000002585700000000000000000000025857DA                            D       0000000000000000000000
02000421410XXXXXX9262000000000 0000121739660656999000000000gEKgAVp0xA-121054332100COMPRA INT JETSMAR  CL        00000000Q5 20230323141054        000000000 00000000000000000008513300000000000000000000085133DA                            D       0000000000000000000000
02000525322XXXXXX9746000000000 0000121741790242699000000000BdauI7Fuaw-121652562100COMPRA INT JETSMAR  CL        0000000051 20230323141652        000000000 00000000000000000023674200000000000000000000236742DA                            C       0000000000000000000000
02000434956XXXXXX3059000000000 0000121742860821290000000000VWG8YW5hlg-121957162100WEB       JETSMART            0000000004 20230323141957        000000000 00000000000000000002785700000000000000000000027857DA                            C       0000000000000000000000
02000522468XXXXXX1484000000000 0000121746510361451000000000zm0QaVOfFA-123051732100WEB       JETSMART            0000000083 20230323143051        000000000 00000000000000000016071200000000000000000000160712DA                            C       0000000000000000000000
02000548742XXXXXX3177000000000 0000121747090014277000000000c7qJ68eMYw-123243562100WEB       JETSMART            0000000083 20230323143244        000000000 00000000000000000081083400000000000000000000810834DA                            C       0000000000000000000000
02000522468XXXXXX3286000000000 0000121747750980616000000000LR4sVTvnbA-123447662100WEB       JETSMART            0000000083 20230323143447        000000000 00000000000000000058151200000000000000000000581512DA                            C       0000000000000000000000
02000455788XXXXXX6759000000000 0000121749990346334000000000HOwTLn45sA-124124492100COMPRA INT JETSMAR  CL        0000000051 20230323144124        000000000 00000000000000000006170400000000000000000000061704DA                            C       0000000000000000000000
02000529881XXXXXX8000000000000 0000121757670213615000000000XAlvaCXmzA-130656372100WEB       JETSMART            0000000068 20230323150656        000000000 00000000000000000005871800000000000000000000058718DA                            C       0000000000000000000000
02000535674XXXXXX1315000000000 00001217611702610090000000000agmtYtiKA-132108732100COMPRA INT JETSMAR  CL        0000000051 20230323152108        000000000 00000000000000000000502200000000000000000000005022DA                            D       0000000000000000000000
02000558717XXXXXX5160000000000 0000121763730180221000000000HR7pvT5HVQ-133004342100COMPRA INT JETSMAR  CL        0000000051 20230323153004        000000000 00000000000000000009730400000000000000000000097304DA                            C       0000000000000000000000
02000559202XXXXXX5243000000000 0000121766840197239000000000lR3BDa71tw-134130362100WEB       JETSMART            0000000051 20230323154130        000000000 00000000000000000027094200000000000000000000270942DA                            C       0000000000000000000000
02000529881XXXXXX8000000000000 0000121769710669573000000000XAlvaCXmzA-135200242100WEB       JETSMART            0000000068 20230323155200        000000000 00000000000000000005871800000000000000000000058718DA                            C       0000000000000000000000
02000411093XXXXXX5178000000000 00001217701000339040000000007I0ltd7VSg-135308252100COMPRA INT JETSMAR  CL        0000000004 20230323155308        000000000 00000000000000000001018400000000000000000000010184DA                            C       0000000000000000000000
02000547551XXXXXX9864000000000 0000121770860708444000000000zR0B4FCMoQ-135531762100WEB       JETSMART            0000000051 20230323155532        000000000 00000000000000000044691300000000000000000000446913DA                            C       0000000000000000000000
02000548742XXXXXX7223000000000 0000121772570060826000000000ljtIorgiQQ-140106234200WEB       JETSMART            0000000012 20230323160106        000000000 00000000000000000004185700000000000000000000041857DA                            C       0000000000000000000000
02000531663XXXXXX5648000000000 0000121779040089981000000000q5FCFa8I0A-142126452100WEB       JETSMART            0000000068 20230323162126        000000000 00000000000000000005971400000000000000000000059714DA                            C       0000000000000000000000
02000456931XXXXXX0014000000000 0000121780920508770000000000ctYnwbaX8w-142659112100WEB       JETSMART            0000000051 20230323162659        000000000 00000000000000000008000000000000000000000000080000DA                            C       0000000000000000000000
02000498811XXXXXX7042000000000 0000121783850726422000000000s67s0TRjgA-143557352100WEB       JETSMART            0000000036 20230323163557        000000000 00000000000000000050000000000000000000000000500000DA                            C       0000000000000000000000
02000450881XXXXXX7626000000000 0000121784500562223000000000FyMsEbv9Sw-143810902100WEB       JETSMART            0000000033 20230323163811        000000000 00000000000000000001585700000000000000000000015857DA                            C       0000000000000000000000
02000533187XXXXXX4902000000000 0000121784780168925000000000q5FCFa8I0A-143921362100WEB       JETSMART            0000000079 20230323163921        000000000 00000000000000000005971400000000000000000000059714DA                            D       0000000000000000000000
02000530250XXXXXX5792000000000 0000121785710495626000000000JbiWyu9rFQ-144238192100WEB       JETSMART            0000000068 20230323164238        000000000 00000000000000000008064100000000000000000000080641DA                            C       0000000000000000000000
02000434956XXXXXX9762000000000 0000121791780574131000000000cZi1AdkNkQ-150113612100WEB       JETSMART            00000000Q5 20230323170113        000000000 00000000000000000004485700000000000000000000044857DA                            C       0000000000000000000000
02000469772XXXXXX5929000000000 0000121794170412173000000000cZi1AdkNkQ-150930902100WEB       JETSMART            0000000051 20230323170931        000000000 00000000000000000004485700000000000000000000044857DA                            C       0000000000000000000000
02000434559XXXXXX8112000000000 0000121794920790701000000000r2hwNzIwcg-151221522100WEB       JETSMART            0000000002 20230323171222        000000000 00000000000000000008769400000000000000000000087694DA                            D       0000000000000000000000
02000434559XXXXXX1454000000000 0000121795760436882000000000a5FpYevEow-151506822100WEB       JETSMART            00000000Q5 20230323171507        000000000 00000000000000000057877400000000000000000000578774DA                            D       0000000000000000000000
02000530250XXXXXX5792000000000 0000121800130383854000000000E6BEDpjgRw-153048912100WEB       JETSMART            0000000068 20230323173049        000000000 00000000000000000008064100000000000000000000080641DA                            C       0000000000000000000000
02000434559XXXXXX1454000000000 0000121802460622546000000000V0jQ70MTJw-153946092100WEB       JETSMART            00000000Q5 20230323173946        000000000 00000000000000000056837300000000000000000000568373DA                            D       0000000000000000000000
02000548742XXXXXX3158000000000 0000121804040660278000000000Q12nm0GFmA-154543322100WEB       JETSMART            0000000068 20230323174543        000000000 00000000000000000033497600000000000000000000334976DA                            C       0000000000000000000000
02000483020XXXXXX0010000000000 0000121812180313468000000000vxN09mE7vA-161536582100          JETSMART            0000000067 20230323181536        000000000 00000000000000000000810000000000000000000000008100DA                            D       0000000000000000000000
02000454851XXXXXX2102000000000 0000121815340111010000000000rBGPRasN6Q-162726442100WEB       JETSMART            0000000036 20230323182726        000000000 00000000000000000005297400000000000000000000052974DA                            C       0000000000000000000000
02000516585XXXXXX5423000000000 0000121818160722066000000000SAtS40KmRA-163834812100COMPRA INT JETSMAR  CL        0000000068 20230323183835        000000000 00000000000000000001788000000000000000000000017880DA                            C       0000000000000000000000
02000536983XXXXXX8934000000000 0000121820330442082000000000oKzgv5BtQg-164647532100COMPRA INT JETSMAR  CL        00000000S9 20230323184647        000000000 00000000000000000006171400000000000000000000061714DA                            C       0000000000000000000000
02000455103XXXXXX1667000000000 0000121821660455263000000000TbIDDSfsPg-165215192100COMPRA INT JETSMAR  CL        0000000051 20230323185215        000000000 00000000000000000000188000000000000000000000001880DA                            D       0000000000000000000000
02000434956XXXXXX9081000000000 0000121822070880108000000000IPk64jMaEw-165411972100WEB       JETSMART            0000000033 20230323185412        000000000 00000000000000000010965700000000000000000000109657DA                            C       0000000000000000000000
02000451368XXXXXX8882000000000 0000092241500340421000000000mqkvi0aAiw-093036672120WEB       JETSMART            0000000014 20230112123043        000000000 00000000000000000010371400000000000000000000103714DA                            D       0000000000000000000000
02000512269XXXXXX8241000000000 0000121825830254991000000000msUoCpvZ9g-170843062100WEB       JETSMART            0000000051 20230323190843        000000000 00000000000000000005704000000000000000000000057040DA                            C       0000000000000000000000
02000447410XXXXXX4221000000000 0000121827350202543000000000imA3Mn0Yng-171351092100COMPRA INT JETSMAR  CL        0000000004 20230323191351        000000000 00000000000000000037835300000000000000000000378353DA                            C       0000000000000000000000
02000434956XXXXXX6996000000000 00001218294806037360000000009jO7gJgkOw-172205522100WEB       JETSMART            0000000051 20230323192205        000000000 00000000000000000005771400000000000000000000057714DA                            C       0000000000000000000000
02000434956XXXXXX2417000000000 0000121831910572041000000000Cg021VmbTA-173136262100WEB       JETSMART            00000000Q5 20230323193136        000000000 00000000000000000003585700000000000000000000035857DA                            C       0000000000000000000000
02000533187XXXXXX2348000000000 00001217822207706860000000000Bded4qvnw-143024182100WEB       JETSMART            0000000051 20230323163024        000000000 00000000000000000048315300000000000000000000483153DA                            D       0000000000000000000000
02000552561XXXXXX3724000000000 0000121832790102805000000000UKdGR0k6tg-173512962100WEB       JETSMART            0000000051 20230323193513        000000000 00000000000000000016898800000000000000000000168988DA                            C       0000000000000000000000
02000434956XXXXXX2417000000000 0000121834750242532000000000Cg021VmbTA-174358732100WEB       JETSMART            00000000Q5 20230323194359        000000000 00000000000000000004183700000000000000000000041837DA                            C       0000000000000000000000
02000491909XXXXXX7851000000000 000012184044081203700000000076uy92vLBw-180818362100COMPRA INT JETSMAR  CL        0000000004 20230323200818        000000000 00000000000000000010254600000000000000000000102546DA                            C       0000000000000000000000
02000552273XXXXXX6041000000000 0000121841300979823000000000ZVQRd0h9TA-181107102100WEB       JETSMART            0000000083 20230323201107        000000000 00000000000000000006371400000000000000000000063714DA                            C       0000000000000000000000
02000455103XXXXXX3382000000000 0000121843970619649000000000yUoqcNLlqw-182159032100COMPRA INT JETSMAR  CL        0000000051 20230323202159        000000000 00000000000000000005377300000000000000000000053773DA                            D       0000000000000000000000
02000447409XXXXXX1520000000000 0000121844200963959000000000Ur44zJ60vA-182301482100COMPRA INT JETSMAR  CL        0000000051 20230323202301        000000000 00000000000000000015232400000000000000000000152324DA                            C       0000000000000000000000
02000532092XXXXXX3804000000000 0000121836830583185000000000acHwJiU94g-175302202100COMPRA INT JETSMAR  CL        0000000012 20230323195302        000000000 00000000000000000009009400000000000000000000090094DA                            D       0000000000000000000000
02000533187XXXXXX0694000000000 0000121846490726759000000000SqC0JVJpVQ-183224062100WEB       JETSMART            0000000083 20230323203224        000000000 00000000000000000016187800000000000000000000161878DA                            D       0000000000000000000000
02000554001XXXXXX3010000000000 0000118608250057629000000000sX3ThOFL5g-143715982120COMPRA INT JETSMAR  CL        00000000T2 20230316163716        000000000 00000000000000000000550900000000000000000000005509DA                            C       0000000000000000000000
02000532092XXXXXX3804000000000 0000121849250854022000000000hu7okF5beA-184201912100COMPRA INT JETSMAR  CL        0000000012 20230323204202        000000000 00000000000000000009009400000000000000000000090094DA                            D       0000000000000000000000
02000533187XXXXXX0694000000000 0000121853150927184000000000SqC0JVJpVQ-185405152100WEB       JETSMART            0000000083 20230323205405        000000000 00000000000000000016187800000000000000000000161878DA                            D       0000000000000000000000
02000448165XXXXXX6463000000000 0000121562930525826000000000N496DlzIAw-185904792100WEB       JETSMART            0000000000 20230322205904        000000000 00000000000000000018302800000000034410000000178933DA                            C       0000000000000000000000
02000525322XXXXXX5709000000000 00001215636003124270000000000zk8VMkQ0w-190148622100COMPRA INT JETSMAR  CL        0000000000 20230322210149        000000000 00000000000000000004985700000000014360000000048148DA                            C       0000000000000000000000
02000434559XXXXXX2928000000000 0000121563700358850000000000GtCR2Z6d0g-190217732100WEB       JETSMART            0000000000 20230322210218        000000000 00000000000000000005471400000000004760000000054148DA                            D       0000000000000000000000
02000478688XXXXXX4003000000000 0000121563860176487000000000RTk1ySDOgQ-190253092100WEB       JETSMART            0000000000 20230322210253        000000000 00000000000000000003171400000000005960000000031004DA                            C       0000000000000000000000
02000552300XXXXXX6188000000000 0000121563900231740000000000M2AzqvSKEg-190256172100WEB       JETSMART            0000000000 20230322210256        000000000 00000000000000000001885700000000003550000000018435DA                            C       0000000000000000000000
02000548742XXXXXX6598000000000 0000121563990502452000000000UM0aftZODA-190316262100WEB       JETSMART            0000000000 20230322210316        000000000 00000000000000000002571400000000004830000000025139DA                            C       0000000000000000000000
02000559202XXXXXX7180000000000 00001215639305261890000000000wmesKA30Q-190300312100WEB       JETSMART            0000000000 20230322210300        000000000 00000000000000000006459000000000012140000000063145DA                            C       0000000000000000000000
02000440698XXXXXX8679000000000 0000121564090743953000000000rLFoQ4zJyw-190346202100WEB       JETSMART            0000000000 20230322210346        000000000 00000000000000000003185700000000002770000000031527DA                            D       0000000000000000000000
02000559800XXXXXX0554000000000 0000121564180323400000000000Hp6OxhMUCg-190401402100WEB       JETSMART            0000000000 20230322210401        000000000 00000000000000000216316800000000406680000002114774DA                            C       0000000000000000000000
02000548742XXXXXX3513000000000 0000121564580130531000000000xRlx9G19yg-190535932100WEB       JETSMART            0000000000 20230322210536        000000000 00000000000000000024790400000000046610000000242358DA                            C       0000000000000000000000
02000475775XXXXXX5319000000000 0000121564590720914000000000QFTT58hFaw-190538662100WEB       JETSMART            0000000000 20230322210538        000000000 00000000000000000004571400000000003980000000045241DA                            D       0000000000000000000000
02000455788XXXXXX8831000000000 0000121564750041230000000000ueM3RabtaA-190618312100COMPRA INT JETSMAR  CL        0000000000 20230322210618        000000000 00000000000000000003599800000000010370000000034764DA                            C       0000000000000000000000
02000451248XXXXXX2229000000000 00001215643506290940000000000XEKInU0rA-190438322100WEB       JETSMART            0000000000 20230322210438        000000000 00000000000000000009104000000000017120000000089003DA                            C       0000000000000000000000
02000542663XXXXXX2789000000000 0000121564900631345000000000ANHYcxHDCw-190657332100WEB       JETSMART            0000000000 20230322210657        000000000 00000000000000000000912300000000001720000000008919DA                            C       0000000000000000000000
02000559800XXXXXX7036000000000 0000121564980297635000000000ru7H3RdFFA-190707032100WEB       JETSMART            0000000000 20230322210707        000000000 00000000000000000015851400000000029800000000154968DA                            C       0000000000000000000000
02000522468XXXXXX3138000000000 00001215654207825860000000004AswRcRGHg-190855212100WEB       JETSMART            0000000000 20230322210855        000000000 00000000000000000029207900000000054910000000285545DA                            C       0000000000000000000000
02000448165XXXXXX7770000000000 0000121565530995997000000000fME4AOfZvQ-190926082100WEB       JETSMART            0000000000 20230322210926        000000000 00000000000000000009291400000000017470000000090835DA                            C       0000000000000000000000
02000450881XXXXXX4344000000000 0000121565550033007000000000nSSXV90TEA-190934422100WEB       JETSMART            0000000000 20230322210934        000000000 00000000000000000033665700000000063290000000329125DA                            C       0000000000000000000000
02000548742XXXXXX6192000000000 00001215661907517680000000000ppKAer0Vg-191224002100WEB       JETSMART            0000000000 20230322211224        000000000 00000000000000000009101300000000017110000000088977DA                            C       0000000000000000000000
02000517608XXXXXX7823000000000 00001215662203917290000000008HyyhQGqew-191230492100WEB       JETSMART            0000000000 20230322211230        000000000 00000000000000000001800000000000001570000000017814DA                            D       0000000000000000000000
02000446867XXXXXX1356000000000 0000121566260160834000000000m7bry9110A-191239092100WEB       JETSMART            0000000000 20230322211239        000000000 00000000000000000002285700000000004300000000022346DA                            C       0000000000000000000000
02000456918XXXXXX9193000000000 0000121566440706244000000000Wjhq5Pnwlg-191312572100WEB       JETSMART            0000000000 20230322211312        000000000 00000000000000000004760000000000008950000000046535DA                            C       0000000000000000000000
02000446867XXXXXX1117000000000 0000121566910342520000000000pAxu14EwPw-191448602100WEB       JETSMART            0000000000 20230322211448        000000000 00000000000000000004970300000000009340000000048591DA                            C       0000000000000000000000
02000515658XXXXXX3546000000000 0000121566490897341000000000qC3bfqs0kg-191329662100WEB       JETSMART            0000000000 20230322211329        000000000 00000000000000000004369400000000008210000000042716DA                            C       0000000000000000000000
02000434559XXXXXX2450000000000 0000121567230089483000000000qoC6GnFEbw-191615482100WEB       JETSMART            0000000000 20230322211616        000000000 00000000000000000002285700000000001990000000022620DA                            D       0000000000000000000000
02000456931XXXXXX7004000000000 0000121567250155507000000000guIkSSiJ6Q-191619722100WEB       JETSMART            0000000000 20230322211620        000000000 00000000000000000004885700000000009190000000047764DA                            C       0000000000000000000000
02000520079XXXXXX5115000000000 0000121566680842138000000000NaHejcUuVQ-191412082100WEB       JETSMART            0000000000 20230322211412        000000000 00000000000000000002571400000000004830000000025139DA                            C       0000000000000000000000
02000548742XXXXXX5739000000000 00001215673908683030000000001tsc3NScVw-191701852100WEB       JETSMART            0000000000 20230322211702        000000000 00000000000000000011212000000000021080000000109612DA                            C       0000000000000000000000
02000517608XXXXXX7823000000000 00001215674908234520000000008HyyhQGqew-191721652100WEB       JETSMART            0000000000 20230322211721        000000000 00000000000000000001800000000000001570000000017814DA                            D       0000000000000000000000
02000552595XXXXXX3625000000000 0000121567920977551000000000cBwJbw1vWA-191847412100WEB       JETSMART            0000000000 20230322211847        000000000 00000000000000000006084000000000011440000000059479DA                            C       0000000000000000000000
02000548742XXXXXX8732000000000 00001215679901071710000000005ABEwXaolA-191900222100WEB       JETSMART            0000000000 20230322211900        000000000 00000000000000000002185700000000004110000000021368DA                            C       0000000000000000000000
02000475774XXXXXX4825000000000 00001215682209171250000000000TMutqc0tw-191952822100WEB       JETSMART            0000000000 20230322211953        000000000 00000000000000000008901400000000007740000000088092DA                            D       0000000000000000000000
02000525322XXXXXX7415000000000 0000121568950670067000000000GsSYDkceuA-192218672100COMPRA INT JETSMAR  CL        0000000000 20230322212218        000000000 00000000000000000007871400000000022670000000076016DA                            C       0000000000000000000000
02000480293XXXXXX2173000000000 00001215686009409150000000002O3dfa08RQ-192112932100WEB       JETSMART            0000000000 20230322212114        000000000 00000000000000000018341400000000034480000000179311DA                            C       0000000000000000000000
02000522468XXXXXX4335000000000 0000121569110412732000000000MXJr1F9g9Q-192238582100WEB       JETSMART            0000000000 20230322212239        000000000 00000000000000000025882800000000048660000000253037DA                            C       0000000000000000000000
02000434559XXXXXX3166000000000 00001215681000346010000000007NBVowKieQ-191918892100WEB       JETSMART            0000000000 20230322211919        000000000 00000000000000000003605700000000003140000000035684DA                            D       0000000000000000000000
02000524101XXXXXX0189000000000 0000121569580936262000000000sXrjfZE0jQ-192356752100WEB       JETSMART            0000000000 20230322212356        000000000 00000000000000000002105600000000001830000000020838DA                            D       0000000000000000000000
02000517608XXXXXX7823000000000 00001215697505422590000000008HyyhQGqew-192433822100WEB       JETSMART            0000000000 20230322212433        000000000 00000000000000000001200000000000001040000000011876DA                            D       0000000000000000000000
02000434956XXXXXX7898000000000 00001215695309490730000000006AF5bVjonw-192346142100WEB       JETSMART            0000000000 20230322212346        000000000 00000000000000000007471400000000014050000000073042DA                            C       0000000000000000000000
02000548742XXXXXX4778000000000 0000121569810882382000000000w9PNImBTkA-192446542100WEB       JETSMART            0000000000 20230322212446        000000000 00000000000000000002985700000000005610000000029189DA                            C       0000000000000000000000
02000491931XXXXXX5670000000000 00001215699701909230000000000Ft6YGx6VA-192516772100COMPRA INT JETSMAR  CL        0000000000 20230322212516        000000000 00000000000000000002578200000000007430000000024898DA                            C       0000000000000000000000
02000434559XXXXXX6127000000000 0000121569990211720000000000p0v0nRyWDw-192520512100WEB       JETSMART            0000000000 20230322212520        000000000 00000000000000000007171900000000006240000000070976DA                            D       0000000000000000000000
02000409152XXXXXX9022000000000 0000121570130828846000000000JikHlrIubQ-192537872100WEB       JETSMART            0000000000 20230322212538        000000000 00000000000000000006006000000000011290000000058716DA                            C       0000000000000000000000
02000533187XXXXXX8360000000000 0000121570120328978000000000XvpYxSAjLg-192537282100WEB       JETSMART            0000000000 20230322212537        000000000 00000000000000000018255300000000015880000000180663DA                            D       0000000000000000000000
02000533187XXXXXX5811000000000 000012157018047702500000000023BFlrJWJg-192548722100WEB       JETSMART            0000000000 20230322212549        000000000 00000000000000000002985700000000002600000000029548DA                            D       0000000000000000000000
02000554730XXXXXX0873000000000 00001215702302277080000000000IoUNFoHNw-192553892100COMPRA INT JETSMAR  CL        0000000000 20230322212554        000000000 00000000000000000000380700000000000710000000003722DA                            D       0000000000000000000000
02000450881XXXXXX3943000000000 00001215702401647810000000007hSf51jddw-192556272100WEB       JETSMART            0000000000 20230322212556        000000000 00000000000000000008723800000000016400000000085286DA                            C       0000000000000000000000
02000450881XXXXXX4344000000000 0000121570460929026000000000nSSXV90TEA-192640922100WEB       JETSMART            0000000000 20230322212641        000000000 00000000000000000006205700000000011670000000060669DA                            C       0000000000000000000000
02000515658XXXXXX3546000000000 0000121570580073501000000000qC3bfqs0kg-192659952100WEB       JETSMART            0000000000 20230322212700        000000000 00000000000000000004369400000000008210000000042716DA                            C       0000000000000000000000
02000496617XXXXXX2568000000000 0000121570730638523000000000dzMsr2VGdg-192732702100WEB       JETSMART            0000000000 20230322212732        000000000 00000000000000000007717200000000014510000000075446DA                            C       0000000000000000000000
02000475774XXXXXX7072000000000 0000121570820170682000000000sx4uScPu8g-192742862100WEB       JETSMART            0000000000 20230322212743        000000000 00000000000000000009574800000000008330000000094757DA                            D       0000000000000000000000
02000450881XXXXXX1175000000000 00001215715203688630000000008hfH5UnVlg-192954642100WEB       JETSMART            0000000000 20230322212954        000000000 00000000000000000002685700000000005050000000026256DA                            C       0000000000000000000000
02000434956XXXXXX4977000000000 0000121572280023752000000000nnh0uwLwLA-193238722100WEB       JETSMART            0000000000 20230322213239        000000000 00000000000000000008742800000000016440000000085472DA                            C       0000000000000000000000
02000426040XXXXXX7632000000000 0000121572380317812000000000NKmD9g4cZQ-193312582100WEB       JETSMART            0000000000 20230322213312        000000000 00000000000000000035130000000000066040000000343441DA                            C       0000000000000000000000
02000448165XXXXXX1648000000000 00001215724401748800000000009XgQSEJHqQ-193324822100WEB       JETSMART            0000000000 20230322213324        000000000 00000000000000000010585700000000019900000000103489DA                            C       0000000000000000000000
02000446867XXXXXX3956000000000 0000121571980338582000000000V0FsZBHd6g-193136972100WEB       JETSMART            0000000000 20230322213137        000000000 00000000000000000014503300000000027270000000141788DA                            C       0000000000000000000000
02000414756XXXXXX1305000000000 0000121572810843287000000000KuLvl5CVQQ-193453962100WEB       JETSMART            0000000000 20230322213454        000000000 00000000000000000006368200000000011970000000062257DA                            C       0000000000000000000000
02000475776XXXXXX2367000000000 00001215728001026610000000007lxxYoQcHg-193453882100WEB       JETSMART            0000000000 20230322213454        000000000 00000000000000000003685700000000006930000000036032DA                            C       0000000000000000000000
02000440612XXXXXX8304000000000 00001215729907358580000000008tppxsl6TQ-193552222100WEB       JETSMART            0000000000 20230322213552        000000000 00000000000000000002185700000000001900000000021631DA                            D       0000000000000000000000
02000434561XXXXXX8091000000000 00001215735003250100000000005UKC186qoA-193711592100WEB       JETSMART            0000000000 20230322213712        000000000 00000000000000000004371400000000003800000000043261DA                            D       0000000000000000000000
02000456477XXXXXX2936000000000 0000121575580539272000000000A0Tg5FyF3w-194354812100WEB       JETSMART            0000000000 20230322214354        000000000 00000000000000000001000000000000001880000000009776DA                            C       0000000000000000000000
02000434559XXXXXX3302000000000 0000121575070078102000000000QV7ZxuPHeQ-194247742100WEB       JETSMART            0000000000 20230322214247        000000000 00000000000000000003285700000000002860000000032517DA                            D       0000000000000000000000
02000512269XXXXXX5719000000000 00001215758409524810000000002ARU0lh0sg-194453062100WEB       JETSMART            0000000000 20230322214453        000000000 00000000000000000020402600000000038360000000199462DA                            C       0000000000000000000000
02000517980XXXXXX3802000000000 0000121575760441747000000000ebwiTc2VHA-194443812100WEB       JETSMART            0000000000 20230322214444        000000000 00000000000000000014924700000000028060000000145908DA                            C       0000000000000000000000
02000450838XXXXXX4493000000000 0000121576620690093000000000WhE21cKZrg-194703822100WEB       JETSMART            0000000000 20230322214707        000000000 00000000000000000016462800000000030950000000160945DA                            C       0000000000000000000000
02000434956XXXXXX7676000000000 0000121577530816990000000000UmngcOrFNw-195002052100WEB       JETSMART            0000000000 20230322215002        000000000 00000000000000000005371400000000010100000000052512DA                            C       0000000000000000000000
02000559205XXXXXX1489000000000 0000121578630329898000000000sXLkEJrtHw-195352822100WEB       JETSMART            0000000000 20230322215352        000000000 00000000000000000031372000000000058980000000306701DA                            C       0000000000000000000000
02000525384XXXXXX8114000000000 00001215779406910110000000008JFDkgzevg-195123502100WEB       JETSMART            0000000000 20230322215123        000000000 00000000000000000013831400000000012030000000136882DA                            D       0000000000000000000000
02000554904XXXXXX8862000000000 00001215789304975650000000002zC7swNpgA-195454722100WEB       JETSMART            0000000000 20230322215454        000000000 00000000000000000027496800000000051690000000268816DA                            C       0000000000000000000000
02000448165XXXXXX4207000000000 0000121578610824705000000000mjpf5Sramg-195348752100WEB       JETSMART            0000000000 20230322215348        000000000 00000000000000000001885700000000003550000000018435DA                            C       0000000000000000000000
02000559202XXXXXX5288000000000 0000121579250208652000000000PaoVzAiW0w-195550072100WEB       JETSMART            0000000000 20230322215550        000000000 00000000000000000008455400000000015900000000082662DA                            C       0000000000000000000000
02000440698XXXXXX0991000000000 0000121579340933139000000000rxQP9KjOjw-195607822100WEB       JETSMART            0000000000 20230322215608        000000000 00000000000000000002385700000000002080000000023610DA                            D       0000000000000000000000
02000541678XXXXXX4686000000000 0000121579190064863000000000olTAuarmFw-195541492100WEB       JETSMART            0000000000 20230322215541        000000000 00000000000000000009571400000000017990000000093573DA                            C       0000000000000000000000
02000450881XXXXXX4541000000000 0000121579110731987000000000IP8hzcI8Tw-195534312100WEB       JETSMART            0000000000 20230322215534        000000000 00000000000000000032675800000000061430000000319448DA                            C       0000000000000000000000
02000496617XXXXXX1523000000000 0000121579470456959000000000ZlXGHw0eDw-195629992100WEB       JETSMART            0000000000 20230322215630        000000000 00000000000000000017739400000000033350000000173425DA                            C       0000000000000000000000
02000549162XXXXXX8198000000000 0000121579640525045000000000LTdAWhCKew-195654262100WEB       JETSMART            0000000000 20230322215654        000000000 00000000000000000008569400000000016110000000083777DA                            C       0000000000000000000000
02000496617XXXXXX0665000000000 0000121578950665345000000000uj3Kw8mJ9g-195458002100WEB       JETSMART            0000000000 20230322215458        000000000 00000000000000000012342800000000023200000000120667DA                            C       0000000000000000000000
02000456931XXXXXX9005000000000 0000121580540184577000000000Qlph02Xn0w-195944342100WEB       JETSMART            0000000000 20230322215944        000000000 00000000000000000008069400000000015170000000078889DA                            C       0000000000000000000000
02000415281XXXXXX1843000000000 0000121580260831784000000000Nvuv0f8D9w-195853872100WEB       JETSMART            0000000000 20230322215854        000000000 00000000000000000019342800000000036360000000189101DA                            C       0000000000000000000000
02000548742XXXXXX9352000000000 0000121580710455238000000000PaoVzAiW0w-200027982100WEB       JETSMART            0000000000 20230322220028        000000000 00000000000000000010435000000000019620000000102015DA                            C       0000000000000000000000
02000559779XXXXXX9905000000000 0000121581170465756000000000KupU7rVuZg-200159402100WEB       JETSMART            0000000000 20230322220159        000000000 00000000000000000001810000000000001570000000017913DA                            D       0000000000000000000000
02000456931XXXXXX2008000000000 0000121581440738346000000000U5lMW662yw-200301652100WEB       JETSMART            0000000000 20230322220301        000000000 00000000000000000004391400000000008260000000042932DA                            C       0000000000000000000000
02000415281XXXXXX6034000000000 0000121581630697760000000000JHCktD2Naw-200332582100WEB       JETSMART            0000000000 20230322220332        000000000 00000000000000000001885700000000003550000000018435DA                            C       0000000000000000000000
02000533187XXXXXX8235000000000 0000121581760847507000000000Ijtlt5hyBw-200350022100WEB       JETSMART            0000000000 20230322220350        000000000 00000000000000000020892300000000018180000000206760DA                            D       0000000000000000000000
02000448165XXXXXX2681000000000 0000121581220895347000000000Xb0s0FV3lQ-200209672100WEB       JETSMART            0000000000 20230322220209        000000000 00000000000000000007685700000000014450000000075138DA                            C       0000000000000000000000
02000525322XXXXXX4728000000000 0000121582080031118000000000TjA8aUIJCA-200506032100COMPRA INT JETSMAR  CL        0000000000 20230322220506        000000000 00000000000000000009243700000000026620000000089269DA                            C       0000000000000000000000
02000512269XXXXXX6796000000000 0000121582620657518000000000TFFzSbO7Aw-200637582100WEB       JETSMART            0000000000 20230322220637        000000000 00000000000000000005800900000000010910000000056711DA                            C       0000000000000000000000
02000559202XXXXXX3949000000000 0000121582600890604000000000noVTW0HD7w-200637262100WEB       JETSMART            0000000000 20230322220637        000000000 00000000000000000003725700000000007000000000036423DA                            C       0000000000000000000000
02000434561XXXXXX4774000000000 0000121582780165594000000000homtTwyaSA-200712922100WEB       JETSMART            0000000000 20230322220713        000000000 00000000000000000001285700000000001120000000012724DA                            D       0000000000000000000000
02000496617XXXXXX1523000000000 0000121582870904921000000000ZlXGHw0eDw-200744592100WEB       JETSMART            0000000000 20230322220744        000000000 00000000000000000011614300000000021830000000113545DA                            C       0000000000000000000000
02000434560XXXXXX4851000000000 0000121583070719379000000000OsKxK89H3Q-200808192100WEB       JETSMART            0000000000 20230322220808        000000000 00000000000000000042592400000000037060000000421514DA                            D       0000000000000000000000
02000469772XXXXXX6650000000000 00001215829200122230000000000EuSy5SeKA-200752822100WEB       JETSMART            0000000000 20230322220752        000000000 00000000000000000009251400000000017390000000090444DA                            C       0000000000000000000000
02000548742XXXXXX2173000000000 0000121583710716408000000000wKrxuhsrqQ-201023692100WEB       JETSMART            0000000000 20230322221023        000000000 00000000000000000002185700000000004110000000021368DA                            C       0000000000000000000000
02000451765XXXXXX2573000000000 0000121584070814698000000000KwWDbhVZlg-201143442100COMPRA INT JETSMAR  CL        0000000000 20230322221143        000000000 00000000000000000000482000000000000900000000004713DA                            D       0000000000000000000000
02000549162XXXXXX6961000000000 0000121584100123882000000000I7QEnF3e5Q-201145542100WEB       JETSMART            0000000000 20230322221145        000000000 00000000000000000004865200000000009150000000047564DA                            C       0000000000000000000000
02000469771XXXXXX5824000000000 0000121584120500493000000000z1VyRoSuww-201146102100COMPRA INT JETSMAR  CL        0000000000 20230322221146        000000000 00000000000000000000193100000000000560000000001865DA                            C       0000000000000000000000
02000529881XXXXXX9042000000000 0000121583590428308000000000LMBq02y3oQ-201002662100WEB       JETSMART            0000000000 20230322221002        000000000 00000000000000000011827400000000022240000000115628DA                            C       0000000000000000000000
02000522468XXXXXX2779000000000 0000121584350026047000000000QDiJogTWYw-201233402100WEB       JETSMART            0000000000 20230322221233        000000000 00000000000000000017031400000000032020000000166504DA                            C       0000000000000000000000
02000434559XXXXXX0600000000000 0000121584530014234000000000EzXCv00Gsg-201324332100WEB       JETSMART            0000000000 20230322221324        000000000 00000000000000000003785700000000003290000000037465DA                            D       0000000000000000000000
02000549070XXXXXX9518000000000 0000121584470895866000000000hhKdPopSCA-201311832100WEB       JETSMART            0000000000 20230322221312        000000000 00000000000000000013389500000000025170000000130900DA                            C       0000000000000000000000
02000434559XXXXXX7202000000000 0000121584820954305000000000TL3WuUxIbQ-201432872100WEB       JETSMART            0000000000 20230322221433        000000000 00000000000000000005871800000000005110000000058110DA                            D       0000000000000000000000
02000518472XXXXXX2170000000000 00001215849400884340000000006Bq2CKUS8Q-201454552100WEB       JETSMART            0000000000 20230322221454        000000000 00000000000000000001000000000000001880000000009776DA                            C       0000000000000000000000
02000434561XXXXXX0662000000000 0000121584670628839000000000qdYXsoXkOQ-201358642100WEB       JETSMART            0000000000 20230322221358        000000000 00000000000000000007332100000000006380000000072562DA                            D       0000000000000000000000
02000489321XXXXXX3493000000000 0000121585610884249000000000Ekr09SdzMQ-201706122100COMPRA INT JETSMAR  CL        0000000000 20230322221706        000000000 00000000000000000000563000000000001620000000005437DA                            C       0000000000000000000000
02000559202XXXXXX8126000000000 00001215860001539570000000002TwPFgXuqg-201833822100WEB       JETSMART            0000000000 20230322221833        000000000 00000000000000000004225700000000007940000000041312DA                            C       0000000000000000000000
02000434956XXXXXX5271000000000 0000121586120427381000000000MTJsW9v5Ww-201904512100WEB       JETSMART            0000000000 20230322221904        000000000 00000000000000000014159300000000026620000000138425DA                            C       0000000000000000000000
02000475774XXXXXX0900000000000 0000121585240325076000000000vXGFytJ2RA-201549752100WEB       JETSMART            0000000000 20230322221549        000000000 00000000000000000002785700000000002420000000027569DA                            D       0000000000000000000000
02000450881XXXXXX5305000000000 0000121586810689050000000000Emda97SVFg-202147532100WEB       JETSMART            0000000000 20230322222147        000000000 00000000000000000001000000000000001880000000009776DA                            C       0000000000000000000000
02000512269XXXXXX6308000000000 0000121587260561558000000000a6dgUcCLKQ-202331642100WEB       JETSMART            0000000000 20230322222332        000000000 00000000000000000027400400000000051510000000267874DA                            C       0000000000000000000000
02000456931XXXXXX2008000000000 0000121587330615145000000000U5lMW662yw-202340532100WEB       JETSMART            0000000000 20230322222340        000000000 00000000000000000004391400000000008260000000042932DA                            C       0000000000000000000000
02000533187XXXXXX7031000000000 0000121587800668121000000000GNzV70v8Iw-202526662100WEB       JETSMART            0000000000 20230322222526        000000000 00000000000000000005571400000000004850000000055137DA                            D       0000000000000000000000
02000434956XXXXXX7355000000000 0000121588200343443000000000c0BVUrs9Nw-202641002100WEB       JETSMART            0000000000 20230322222641        000000000 00000000000000000004677700000000008790000000045731DA                            C       0000000000000000000000
02000448796XXXXXX3447000000000 0000121588580649921000000000hAV9D0fklg-202744772100COMPRA INT JETSMAR  CL        0000000000 20230322222744        000000000 00000000000000000010709200000000020030000000104709DA                            D       0000000000000000000000
02000559202XXXXXX0587000000000 0000121588920647890000000000ShQZaTtQrQ-202856632100WEB       JETSMART            0000000000 20230322222856        000000000 00000000000000000001240000000000002330000000012123DA                            C       0000000000000000000000
