0120230324ADQDIGITAL096799250K
02000434559XXXXXX9994000000000 000012156893004854700000000000000000000362352332100WEB       CLARO               0000000051 20230322212211        000000000 00000000000000000000250000000000000000000000002500DA                            D       0000000000000000000000
02000434559XXXXXX9994000000000 000012156940035451000000000000000000000362352532100WEB       CLARO               0000000051 20230322212332        000000000 00000000000000000000200000000000000000000000002000DA                            D       0000000000000000000000
02000434559XXXXXX9994000000000 000012157265037611100000000000000000000362354092100WEB       CLARO               0000000051 20230322213417        000000000 00000000000000000000250000000000000000000000002500DA                            D       0000000000000000000000
02000434559XXXXXX9994000000000 000012157290006579300000000000000000000362354272100WEB       CLARO               0000000051 20230322213527        000000000 00000000000000000000250000000000000000000000002500DA                            D       0000000000000000000000
02000434559XXXXXX3278000000000 000012157982020616800000000000000000000362356772100WEB       CLARO               0000000051 20230322215736        000000000 00000000000000000000200000000000000000000000002000DA                            D       0000000000000000000000
020000000000000000000000000000 000012158118093440600000000000000000000362357332100          CLARO               0000000001 20230322220200        000000000 00000000000000000000075000000000000000000000000750DA                                    0000000000000000000000
020000000000000000000000000000 000012158929070668700000000000000000000362359852100          CLARO               0000000001 20230322222435        000000000 00000000000000000000700000000000000000000000007000DA                                    0000000000000000000000
02000533187XXXXXX6412000000000 000012159675036670000000000000000000000362363832100WEB       CLARO               0000000083 20230322225050        000000000 00000000000000000000500000000000000000000000005000DA                            D       0000000000000000000000
02000533187XXXXXX6412000000000 000012159825003244300000000000000000000362364672100WEB       CLARO               0000000083 20230322225911        000000000 00000000000000000000500000000000000000000000005000DA                            D       0000000000000000000000
02000533187XXXXXX6412000000000 000012159859033453500000000000000000000362364672100WEB       CLARO               0000000083 20230322225911        000000000 00000000000000000000500000000000000000000000005000DA                            D       0000000000000000000000
02000527515XXXXXX6251000000000 000012159716084452800000000000000000000362364312100COMPRA INT CLARO    CL        0000000083 20230322225535        000000000 00000000000000000000075000000000000000000000000750DA                            D       0000000000000000000000
02000533362XXXXXX3256000000000 000012160218005573000000000000000000000362366272100COMPRA INT CLARO    CL        0000000083 20230322231514        000000000 00000000000000000000075000000000000000000000000750DA                            D       0000000000000000000000
02000482408XXXXXX1139000000000 000012160257045805300000000000000000000362366452100COMPRA INT CLARO    CL        00000000Q5 20230322231636        000000000 00000000000000000001500000000000000000000000015000DA                            D       0000000000000000000000
02000533187XXXXXX5128000000000 000012160478004836000000000000000000000362367652100WEB       CLARO               0000000083 20230322232716        000000000 00000000000000000000200000000000000000000000002000DA                            D       0000000000000000000000
02000529881XXXXXX8008000000000 000012160806060206400000000000000000000362368292100WEB       CLARO               0000000012 20230322233527        000000000 00000000000000000000150000000000000000000000001500DA                            C       0000000000000000000000
02000434559XXXXXX7767000000000 000012161217045942000000000000000000000362370552100WEB       CLARO               0000000051 20230323000745        000000000 00000000000000000000150000000000000000000000001500DA                            D       0000000000000000000000
02000548742XXXXXX5549000000000 000012161501098855500000000000000000000362372212100WEB       CLARO               0000000083 20230323003317        000000000 00000000000000000000250000000000000000000000002500DA                            C       0000000000000000000000
02000548742XXXXXX5549000000000 000012161537090701200000000000000000000362372512100WEB       CLARO               0000000083 20230323003623        000000000 00000000000000000000250000000000000000000000002500DA                            C       0000000000000000000000
02000531075XXXXXX4523000000000 000012161613008930300000000000000000000362373252100COMPRA INT CLARO    CL        0000000083 20230323004504        000000000 00000000000000000000150000000000000000000000001500DA                            C       0000000000000000000000
02000434559XXXXXX2793000000000 000012162498085866400000000000000000000362380612100WEB       CLARO               0000000033 20230323055850        000000000 00000000000000000000200000000000000000000000002000DA                            D       0000000000000000000000
02000434559XXXXXX2793000000000 000012162514020901700000000000000000000362380772100WEB       CLARO               0000000033 20230323060236        000000000 00000000000000000000200000000000000000000000002000DA                            D       0000000000000000000000
02000452421XXXXXX0398000000000 000012162754040817100000000000000000000362383212100COMPRA INT CLARO    CL        00000000Q5 20230323065647        000000000 00000000000000000000150000000000000000000000001500DA                            C       0000000000000000000000
02000434559XXXXXX9350000000000 000012163321040930100000000000000000000362389232100WEB       CLARO               0000000033 20230323075538        000000000 00000000000000000000150000000000000000000000001500DA                            D       0000000000000000000000
02000434561XXXXXX4552000000000 000012163558061926900000000000000000000362391872100WEB       CLARO               0000000051 20230323081606        000000000 00000000000000000000200000000000000000000000002000DA                            D       0000000000000000000000
020000000000000000000000000000 000012163806003104300000000000000000000362394352100          CLARO               0000000001 20230323083050        000000000 00000000000000000000075000000000000000000000000750DA                                    0000000000000000000000
020000000000000000000000000000 000012163864038815900000000000000000000362395072100          CLARO               0000000001 20230323083423        000000000 00000000000000000000075000000000000000000000000750DA                                    0000000000000000000000
02000529881XXXXXX0009000000000 000012163910055252600000000000000000000362395532100WEB       CLARO               0000000012 20230323083641        000000000 00000000000000000000200000000000000000000000002000DA                            C       0000000000000000000000
02000548742XXXXXX8377000000000 000012164670046259100000000000000000000362400312100WEB       CLARO               0000000083 20230323091353        000000000 00000000000000000000075000000000000000000000000750DA                            C       0000000000000000000000
02000548742XXXXXX8377000000000 000012164686092592400000000000000000000362400312100WEB       CLARO               0000000083 20230323091353        000000000 00000000000000000000075000000000000000000000000750DA                            C       0000000000000000000000
02000548742XXXXXX8377000000000 000012164693008340500000000000000000000362400312100WEB       CLARO               0000000083 20230323091353        000000000 00000000000000000000075000000000000000000000000750DA                            C       0000000000000000000000
02000548742XXXXXX8377000000000 000012164715028146400000000000000000000362400672100WEB       CLARO               0000000083 20230323091558        000000000 00000000000000000000075000000000000000000000000750DA                            C       0000000000000000000000
02000533187XXXXXX8432000000000 000012164767029918600000000000000000000362400912100WEB       CLARO               0000000083 20230323091800        000000000 00000000000000000000200000000000000000000000002000DA                            D       0000000000000000000000
02000533187XXXXXX8432000000000 000012164795081756300000000000000000000362400912100WEB       CLARO               0000000083 20230323091800        000000000 00000000000000000000200000000000000000000000002000DA                            D       0000000000000000000000
020000000000000000000000000000 000012164858032619400000000000000000000362401372100          CLARO               0000000001 20230323092129        000000000 00000000000000000000489000000000000000000000004890DA                            C       0000000000000000000000
02000533187XXXXXX2525000000000 000012164914006740000000000000000000000362401212100WEB       CLARO               0000000083 20230323092017        000000000 00000000000000000000200000000000000000000000002000DA                            D       0000000000000000000000
02000512269XXXXXX2595000000000 000012164918072489000000000000000000000362401272100WEB       CLARO               0000000083 20230323092056        000000000 00000000000000000000200000000000000000000000002000DA                            C       0000000000000000000000
02000414720XXXXXX5970000000000 000012164924076712300000000000000000000362401892100COMPRA INT CLARO    CL        00000000Q5 20230323092359        000000000 00000000000000000000489000000000000000000000004890DA                            C       0000000000000000000000
02000533187XXXXXX8432000000000 000012165190036755300000000000000000000362400912100WEB       CLARO               0000000083 20230323091800        000000000 00000000000000000000200000000000000000000000002000DA                            D       0000000000000000000000
02000531075XXXXXX6860000000000 000012165390037796600000000000000000000362404292100COMPRA INT CLARO    CL        0000000083 20230323093925        000000000 00000000000000000000200000000000000000000000002000DA                            C       0000000000000000000000
02000531075XXXXXX6860000000000 000012165410017591900000000000000000000362404292100COMPRA INT CLARO    CL        0000000083 20230323093925        000000000 00000000000000000000200000000000000000000000002000DA                            C       0000000000000000000000
02000440698XXXXXX4153000000000 000012165502076410200000000000000000000362404212100WEB       CLARO               0000000057 20230323093858        000000000 00000000000000000000075000000000000000000000000750DA                            D       0000000000000000000000
02000409767XXXXXX3567000000000 000012165767024712100000000000000000000362406452100WEB       CLARO               00000000S9 20230323095136        000000000 00000000000000000000700000000000000000000000007000DA                            D       0000000000000000000000
02000538164XXXXXX8909000000000 000012166160072873500000000000000000000362408772100COMPRA INT CLARO    CL        0000000083 20230323100608        000000000 00000000000000000000200000000000000000000000002000DA                            C       0000000000000000000000
02000538164XXXXXX8909000000000 000012166284078412700000000000000000000362408772100COMPRA INT CLARO    CL        0000000083 20230323100608        000000000 00000000000000000000200000000000000000000000002000DA                            C       0000000000000000000000
02000409767XXXXXX2879000000000 000012167821004871200000000000000000000362415972100WEB       CLARO               00000000S9 20230323110206        000000000 00000000000000000000200000000000000000000000002000DA                            D       0000000000000000000000
02000529881XXXXXX8008000000000 000012168366030654200000000000000000000362418012100WEB       CLARO               0000000012 20230323111828        000000000 00000000000000000000150000000000000000000000001500DA                            C       0000000000000000000000
02000533187XXXXXX4869000000000 000012169586048694500000000000000000000362422572100WEB       CLARO               0000000083 20230323115542        000000000 00000000000000000000200000000000000000000000002000DA                            D       0000000000000000000000
02000559809XXXXXX2077000000000 000012169683019313500000000000000000000362422752100COMPRA INT CLARO    CL        0000000068 20230323115655        000000000 00000000000000000000489000000000000000000000004890DA                            C       0000000000000000000000
020000000000000000000000000000 000012170094004287900000000000000000000362424712100          CLARO               0000000001 20230323121208        000000000 00000000000000000000500000000000000000000000005000DA                                    0000000000000000000000
020000000000000000000000000000 000012170130003606300000000000000000000362424712100          CLARO               0000000001 20230323121208        000000000 00000000000000000000500000000000000000000000005000DA                                    0000000000000000000000
02000456931XXXXXX7004000000000 000012170469014650900000000000000000000362426552100WEB       CLARO               0000000051 20230323122348        000000000 00000000000000000000200000000000000000000000002000DA                            C       0000000000000000000000
02000531075XXXXXX5319000000000 000012170589096487700000000000000000000362427292100COMPRA INT CLARO    CL        0000000083 20230323122742        000000000 00000000000000000000680000000000000000000000006800DA                            C       0000000000000000000000
02000531075XXXXXX5319000000000 000012170689053791300000000000000000000362427292100COMPRA INT CLARO    CL        0000000083 20230323122742        000000000 00000000000000000000680000000000000000000000006800DA                            C       0000000000000000000000
02000531075XXXXXX5319000000000 000012170805094981600000000000000000000362427292100COMPRA INT CLARO    CL        0000000083 20230323122742        000000000 00000000000000000000680000000000000000000000006800DA                            C       0000000000000000000000
02000516815XXXXXX1974000000000 000012172516078937700000000000000000000362436032100COMPRA INT CLARO    CL        00000000S9 20230323132612        000000000 00000000000000000000150000000000000000000000001500DA                            D       0000000000000000000000
02000516815XXXXXX1974000000000 000012172534052819200000000000000000000362436032100COMPRA INT CLARO    CL        00000000S9 20230323132612        000000000 00000000000000000000150000000000000000000000001500DA                            D       0000000000000000000000
02000434559XXXXXX1103000000000 000012172852001100200000000000000000000362437372100WEB       CLARO               0000000051 20230323133432        000000000 00000000000000000000150000000000000000000000001500DA                            D       0000000000000000000000
02000409767XXXXXX5811000000000 000012173467034340300000000000000000000362440872100WEB       CLARO               00000000S9 20230323135331        000000000 00000000000000000000290000000000000000000000002900DA                            D       0000000000000000000000
02000482408XXXXXX0018000000000 000012173871060159600000000000000000000362442872100COMPRA INT CLARO    CL        00000000Q5 20230323140820        000000000 00000000000000000002500000000000000000000000025000DA                            D       0000000000000000000000
02000482408XXXXXX0026000000000 000012173887008027400000000000000000000362442912100COMPRA INT CLARO    CL        0000000046 20230323140845        000000000 00000000000000000002500000000000000000000000025000DA                            D       0000000000000000000000
02000482408XXXXXX0042000000000 000012173955005788500000000000000000000362443372100COMPRA INT CLARO    CL        00000000Q5 20230323141043        000000000 00000000000000000002500000000000000000000000025000DA                            D       0000000000000000000000
02000409767XXXXXX7150000000000 000012174589032223700000000000000000000362446072100WEB       CLARO               00000000S9 20230323142856        000000000 00000000000000000000150000000000000000000000001500DA                            D       0000000000000000000000
020589693XXXXXXXX4039000000000 000012175318099180900000000000000000000362449312100COMPRA INT CLARO    CL        0000000012 20230323145027        000000000 00000000000000000000200000000000000000000000002000DA                            D       0000000000000000000000
02000434559XXXXXX2447000000000 000012175603022941100000000000000000000362450752100WEB       CLARO               0000000051 20230323150107        000000000 00000000000000000000250000000000000000000000002500DA                            D       0000000000000000000000
02000482408XXXXXX0091000000000 000012175679010256100000000000000000000362451152100COMPRA INT CLARO    CL        0000000051 20230323150401        000000000 00000000000000000001000000000000000000000000010000DA                            D       0000000000000000000000
02000482408XXXXXX2559000000000 000012175742037794700000000000000000000362451372100COMPRA INT CLARO    CL        0000000036 20230323150621        000000000 00000000000000000000500000000000000000000000005000DA                            D       0000000000000000000000
02000482408XXXXXX0117000000000 000012175793043532300000000000000000000362451652100COMPRA INT CLARO    CL        00000000Q5 20230323150825        000000000 00000000000000000002500000000000000000000000025000DA                            D       0000000000000000000000
02000482408XXXXXX0125000000000 000012175810027430700000000000000000000362451692100COMPRA INT CLARO    CL        0000000043 20230323150847        000000000 00000000000000000002500000000000000000000000025000DA                            D       0000000000000000000000
02000482408XXXXXX0125000000000 000012175841083278500000000000000000000362451852100COMPRA INT CLARO    CL        00000000Q5 20230323151018        000000000 00000000000000000001500000000000000000000000015000DA                            D       0000000000000000000000
02000482408XXXXXX0133000000000 000012175913090701000000000000000000000362452152100COMPRA INT CLARO    CL        0000000014 20230323151249        000000000 00000000000000000001500000000000000000000000015000DA                            D       0000000000000000000000
02000482408XXXXXX0141000000000 000012175930058689800000000000000000000362452272100COMPRA INT CLARO    CL        0000000046 20230323151322        000000000 00000000000000000001500000000000000000000000015000DA                            D       0000000000000000000000
02000482408XXXXXX0158000000000 000012175939074028400000000000000000000362452332100COMPRA INT CLARO    CL        0000000014 20230323151348        000000000 00000000000000000001500000000000000000000000015000DA                            D       0000000000000000000000
02000482408XXXXXX0166000000000 000012176138086659100000000000000000000362453512100COMPRA INT CLARO    CL        00000000Q5 20230323152203        000000000 00000000000000000002500000000000000000000000025000DA                            D       0000000000000000000000
02000482408XXXXXX0182000000000 000012176274019541900000000000000000000362454172100COMPRA INT CLARO    CL        0000000046 20230323152624        000000000 00000000000000000001500000000000000000000000015000DA                            D       0000000000000000000000
02000482408XXXXXX0182000000000 000012176291009487100000000000000000000362454252100COMPRA INT CLARO    CL        0000000046 20230323152653        000000000 00000000000000000001500000000000000000000000015000DA                            D       0000000000000000000000
02000482408XXXXXX0117000000000 000012176380088525000000000000000000000362454832100COMPRA INT CLARO    CL        00000000Q5 20230323153014        000000000 00000000000000000002500000000000000000000000025000DA                            D       0000000000000000000000
02000482408XXXXXX0117000000000 000012176404099740600000000000000000000362455032100COMPRA INT CLARO    CL        00000000Q5 20230323153059        000000000 00000000000000000001500000000000000000000000015000DA                            D       0000000000000000000000
02000482408XXXXXX0208000000000 000012176417087368800000000000000000000362455092100COMPRA INT CLARO    CL        0000000051 20230323153119        000000000 00000000000000000001500000000000000000000000015000DA                            D       0000000000000000000000
02000482408XXXXXX0216000000000 000012176429064241300000000000000000000362455172100COMPRA INT CLARO    CL        0000000051 20230323153154        000000000 00000000000000000001500000000000000000000000015000DA                            D       0000000000000000000000
02000482408XXXXXX0232000000000 000012176494043303000000000000000000000362455452100COMPRA INT CLARO    CL        0000000046 20230323153356        000000000 00000000000000000001500000000000000000000000015000DA                            D       0000000000000000000000
02000533187XXXXXX0564000000000 000012176757075962900000000000000000000362456632100WEB       CLARO               0000000083 20230323154302        000000000 00000000000000000000400000000000000000000000004000DA                            D       0000000000000000000000
02000482408XXXXXX2724000000000 000012177126019484800000000000000000000362458172100COMPRA INT CLARO    CL        0000000051 20230323155637        000000000 00000000000000000000500000000000000000000000005000DA                            D       0000000000000000000000
02000482408XXXXXX2211000000000 000012177150094697900000000000000000000362458252100COMPRA INT CLARO    CL        0000000046 20230323155720        000000000 00000000000000000000500000000000000000000000005000DA                            D       0000000000000000000000
02000482408XXXXXX2294000000000 000012177172018051100000000000000000000362458332100COMPRA INT CLARO    CL        0000000046 20230323155810        000000000 00000000000000000000500000000000000000000000005000DA                            D       0000000000000000000000
02000482408XXXXXX2559000000000 000012177201013737100000000000000000000362458432100COMPRA INT CLARO    CL        00000000Q5 20230323155839        000000000 00000000000000000000500000000000000000000000005000DA                            D       0000000000000000000000
02000482408XXXXXX0265000000000 000012177519026428300000000000000000000362460132100COMPRA INT CLARO    CL        00000000Q5 20230323161008        000000000 00000000000000000002500000000000000000000000025000DA                            D       0000000000000000000000
02000482408XXXXXX0265000000000 000012177738089086600000000000000000000362461052100COMPRA INT CLARO    CL        00000000Q5 20230323161656        000000000 00000000000000000001500000000000000000000000015000DA                            D       0000000000000000000000
02000482408XXXXXX0273000000000 000012177749062895600000000000000000000362461092100COMPRA INT CLARO    CL        0000000051 20230323161718        000000000 00000000000000000001500000000000000000000000015000DA                            D       0000000000000000000000
02000482408XXXXXX0299000000000 000012177788037990800000000000000000000362461352100COMPRA INT CLARO    CL        0000000051 20230323161824        000000000 00000000000000000001500000000000000000000000015000DA                            D       0000000000000000000000
02000533187XXXXXX7875000000000 000012177844054614800000000000000000000362461332100WEB       CLARO               0000000083 20230323161819        000000000 00000000000000000000150000000000000000000000001500DA                            D       0000000000000000000000
02000482408XXXXXX0307000000000 000012177849046594300000000000000000000362461692100COMPRA INT CLARO    CL        00000000Q5 20230323162001        000000000 00000000000000000001500000000000000000000000015000DA                            D       0000000000000000000000
02000482408XXXXXX0315000000000 000012177929006672000000000000000000000362462052100COMPRA INT CLARO    CL        0000000046 20230323162209        000000000 00000000000000000001500000000000000000000000015000DA                            D       0000000000000000000000
02000482408XXXXXX0380000000000 000012178625090691100000000000000000000362465132100COMPRA INT CLARO    CL        0000000051 20230323164448        000000000 00000000000000000001500000000000000000000000015000DA                            D       0000000000000000000000
02000482408XXXXXX0398000000000 000012178766085587800000000000000000000362465912100COMPRA INT CLARO    CL        00000000Q5 20230323165000        000000000 00000000000000000001500000000000000000000000015000DA                            D       0000000000000000000000
020000000000000000000000000000 000012178783084291100000000000000000000362465632100          CLARO               0000000001 20230323164741        000000000 00000000000000000000100000000000000000000000001000DA                                    0000000000000000000000
02000482408XXXXXX0414000000000 000012178799061162500000000000000000000362466212100COMPRA INT CLARO    CL        0000000051 20230323165054        000000000 00000000000000000001500000000000000000000000015000DA                            D       0000000000000000000000
02000482408XXXXXX0422000000000 000012178890030909300000000000000000000362466552100COMPRA INT CLARO    CL        00000000Q5 20230323165318        000000000 00000000000000000002500000000000000000000000025000DA                            D       0000000000000000000000
02000482408XXXXXX0448000000000 000012179015094130700000000000000000000362467012100COMPRA INT CLARO    CL        0000000051 20230323165642        000000000 00000000000000000001500000000000000000000000015000DA                            D       0000000000000000000000
02000482408XXXXXX0455000000000 000012179037004604200000000000000000000362467092100COMPRA INT CLARO    CL        0000000046 20230323165718        000000000 00000000000000000001500000000000000000000000015000DA                            D       0000000000000000000000
02000482408XXXXXX0521000000000 000012179370075575000000000000000000000362468392100COMPRA INT CLARO    CL        0000000046 20230323170756        000000000 00000000000000000001500000000000000000000000015000DA                            D       0000000000000000000000
02000482408XXXXXX0562000000000 000012179480062782700000000000000000000362468792100COMPRA INT CLARO    CL        0000000051 20230323171159        000000000 00000000000000000001500000000000000000000000015000DA                            D       0000000000000000000000
02000482408XXXXXX0588000000000 000012179509029143800000000000000000000362468892100COMPRA INT CLARO    CL        0000000046 20230323171256        000000000 00000000000000000001500000000000000000000000015000DA                            D       0000000000000000000000
02000482408XXXXXX0596000000000 000012179523049513100000000000000000000362468972100COMPRA INT CLARO    CL        0000000051 20230323171326        000000000 00000000000000000001500000000000000000000000015000DA                            D       0000000000000000000000
02000482408XXXXXX0604000000000 000012179537002410300000000000000000000362468992100COMPRA INT CLARO    CL        0000000051 20230323171353        000000000 00000000000000000001500000000000000000000000015000DA                            D       0000000000000000000000
02000482408XXXXXX0620000000000 000012179584032633100000000000000000000362469092100COMPRA INT CLARO    CL        0000000036 20230323171525        000000000 00000000000000000001500000000000000000000000015000DA                            D       0000000000000000000000
02000482408XXXXXX0638000000000 000012179599005192500000000000000000000362469192100COMPRA INT CLARO    CL        0000000046 20230323171610        000000000 00000000000000000001500000000000000000000000015000DA                            D       0000000000000000000000
02000482408XXXXXX2559000000000 000012180371093362100000000000000000000362472492100COMPRA INT CLARO    CL        00000000Q5 20230323174421        000000000 00000000000000000000500000000000000000000000005000DA                            D       0000000000000000000000
02000513031XXXXXX4268000000000 000012180432055397000000000000000000000362472832100COMPRA INT CLARO    CL        0000000068 20230323174641        000000000 00000000000000000000200000000000000000000000002000DA                            C       0000000000000000000000
02000482408XXXXXX0687000000000 000012180982057405200000000000000000000362475252100COMPRA INT CLARO    CL        0000000014 20230323180744        000000000 00000000000000000001500000000000000000000000015000DA                            D       0000000000000000000000
02000482408XXXXXX0703000000000 000012181014009219300000000000000000000362475472100COMPRA INT CLARO    CL        0000000051 20230323180901        000000000 00000000000000000001500000000000000000000000015000DA                            D       0000000000000000000000
02000482408XXXXXX0786000000000 000012181533052140400000000000000000000362478132100COMPRA INT CLARO    CL        0000000051 20230323182726        000000000 00000000000000000001500000000000000000000000015000DA                            D       0000000000000000000000
02000482408XXXXXX0794000000000 000012181634011310600000000000000000000362478452100COMPRA INT CLARO    CL        0000000046 20230323183053        000000000 00000000000000000001500000000000000000000000015000DA                            D       0000000000000000000000
02000482408XXXXXX0802000000000 000012181642047263300000000000000000000362478512100COMPRA INT CLARO    CL        0000000046 20230323183130        000000000 00000000000000000001500000000000000000000000015000DA                            D       0000000000000000000000
02000482408XXXXXX0828000000000 000012181780040844900000000000000000000362479372100COMPRA INT CLARO    CL        00000000Q5 20230323183725        000000000 00000000000000000001500000000000000000000000015000DA                            D       0000000000000000000000
02000452421XXXXXX0398000000000 000012182374025038500000000000000000000362481872100COMPRA INT CLARO    CL        00000000Q5 20230323185538        000000000 00000000000000000000200000000000000000000000002000DA                            C       0000000000000000000000
02000482408XXXXXX0166000000000 000012183881028814100000000000000000000362490332100COMPRA INT CLARO    CL        0000000051 20230323200154        000000000 00000000000000000001500000000000000000000000015000DA                            D       0000000000000000000000
02000482408XXXXXX0976000000000 000012183916061156200000000000000000000362490612100COMPRA INT CLARO    CL        0000000051 20230323200258        000000000 00000000000000000001500000000000000000000000015000DA                            D       0000000000000000000000
02000482408XXXXXX0984000000000 000012183940027324700000000000000000000362490672100COMPRA INT CLARO    CL        0000000051 20230323200359        000000000 00000000000000000001500000000000000000000000015000DA                            D       0000000000000000000000
02000482408XXXXXX1008000000000 000012183964079893000000000000000000000362490852100COMPRA INT CLARO    CL        0000000046 20230323200505        000000000 00000000000000000001500000000000000000000000015000DA                            D       0000000000000000000000
02000482408XXXXXX1016000000000 000012183988071302400000000000000000000362491012100COMPRA INT CLARO    CL        0000000046 20230323200620        000000000 00000000000000000001500000000000000000000000015000DA                            D       0000000000000000000000
02000482408XXXXXX1024000000000 000012184006089270600000000000000000000362491052100COMPRA INT CLARO    CL        0000000051 20230323200650        000000000 00000000000000000001500000000000000000000000015000DA                            D       0000000000000000000000
02000482408XXXXXX1040000000000 000012184034086101600000000000000000000362491312100COMPRA INT CLARO    CL        0000000051 20230323200747        000000000 00000000000000000001500000000000000000000000015000DA                            D       0000000000000000000000
02000557910XXXXXX1377000000000 000012184072066466300000000000000000000362491032100COMPRA INT CLARO    CL        0000000012 20230323200644        000000000 00000000000000000000200000000000000000000000002000DA                            D       0000000000000000000000
02000482408XXXXXX1065000000000 000012184079083289200000000000000000000362491652100COMPRA INT CLARO    CL        0000000046 20230323200944        000000000 00000000000000000001500000000000000000000000015000DA                            D       0000000000000000000000
02000482408XXXXXX1099000000000 000012184242037339800000000000000000000362492652100COMPRA INT CLARO    CL        00000000Q5 20230323201547        000000000 00000000000000000001500000000000000000000000015000DA                            D       0000000000000000000000
020000000000000000000000000000 000012184364059458300000000000000000000362493372100          CLARO               0000000001 20230323202023        000000000 00000000000000000000075000000000000000000000000750DA                            C       0000000000000000000000
02000434559XXXXXX2892000000000 000012184410017660300000000000000000000362493692100WEB       CLARO               0000000033 20230323202240        000000000 00000000000000000000200000000000000000000000002000DA                            D       0000000000000000000000
02000548742XXXXXX4995000000000 000012185207089878800000000000000000000362496712100WEB       CLARO               0000000083 20230323204902        000000000 00000000000000000000200000000000000000000000002000DA                            C       0000000000000000000000
02000482408XXXXXX1107000000000 000012185432005292000000000000000000000362497912100COMPRA INT CLARO    CL        00000000Q5 20230323205759        000000000 00000000000000000002500000000000000000000000025000DA                            D       0000000000000000000000
02000482408XXXXXX1107000000000 000012185446067416300000000000000000000362497992100COMPRA INT CLARO    CL        00000000Q5 20230323205825        000000000 00000000000000000002500000000000000000000000025000DA                            D       0000000000000000000000
02000482408XXXXXX1115000000000 000012185454030780200000000000000000000362498012100COMPRA INT CLARO    CL        0000000014 20230323205847        000000000 00000000000000000002500000000000000000000000025000DA                            D       0000000000000000000000
02000434559XXXXXX6770000000000 000012156708059605600000000000000000000362349112100WEB       CLARO               0000000002 20230322205559        000000000 00000000000000000000550000000000000000000000005500DA                            D       0000000000000000000000
02000434559XXXXXX6770000000000 000012156755099673800000000000000000000362351832100WEB       CLARO               0000000002 20230322211729        000000000 00000000000000000000550000000000000000000000005500DA                            D       0000000000000000000000
02000533187XXXXXX2587000000000 000012157022066834700000000000000000000362352812100WEB       CLARO               0000000083 20230322212552        000000000 00000000000000000000700000000000000000000000007000DA                            D       0000000000000000000000
02000434559XXXXXX3278000000000 000012158063099241600000000000000000000362357092100WEB       CLARO               0000000051 20230322220011        000000000 00000000000000000000150000000000000000000000001500DA                            D       0000000000000000000000
02000434559XXXXXX3278000000000 000012158089033857900000000000000000000362357192100WEB       CLARO               0000000051 20230322220054        000000000 00000000000000000000100000000000000000000000001000DA                            D       0000000000000000000000
020000000000000000000000000000 000012158103055902000000000000000000000362357292100          CLARO               0000000001 20230322220125        000000000 00000000000000000000075000000000000000000000000750DA                                    0000000000000000000000
02000522468XXXXXX1564000000000 000012158738011391600000000000000000000362359272100WEB       CLARO               0000000061 20230322222021        000000000 00000000000000000000200000000000000000000000002000DA                            C       0000000000000000000000
02000512269XXXXXX8568000000000 000012159086079212700000000000000000000362361432100WEB       CLARO               0000000083 20230322223632        000000000 00000000000000000000489000000000000000000000004890DA                            C       0000000000000000000000
02000533187XXXXXX6412000000000 000012159575039234700000000000000000000362363832100WEB       CLARO               0000000083 20230322225050        000000000 00000000000000000000500000000000000000000000005000DA                            D       0000000000000000000000
02000533187XXXXXX6412000000000 000012159856008417200000000000000000000362364672100WEB       CLARO               0000000083 20230322225911        000000000 00000000000000000000500000000000000000000000005000DA                            D       0000000000000000000000
02000482408XXXXXX1139000000000 000012160230063836200000000000000000000362366332100COMPRA INT CLARO    CL        00000000Q5 20230322231555        000000000 00000000000000000001500000000000000000000000015000DA                            D       0000000000000000000000
02000482408XXXXXX0000000000000 000012160269049829700000000000000000000362366532100COMPRA INT CLARO    CL        0000000046 20230322231709        000000000 00000000000000000001500000000000000000000000015000DA                            D       0000000000000000000000
020000000000000000000000000000 000012160275040139300000000000000000000362366592100          CLARO               0000000001 20230322231731        000000000 00000000000000000000075000000000000000000000000750DA                                    0000000000000000000000
02000533187XXXXXX5128000000000 000012160519017450000000000000000000000362367652100WEB       CLARO               0000000083 20230322232716        000000000 00000000000000000000200000000000000000000000002000DA                            D       0000000000000000000000
02000533187XXXXXX5128000000000 000012160521035808400000000000000000000362367652100WEB       CLARO               0000000083 20230322232716        000000000 00000000000000000000200000000000000000000000002000DA                            D       0000000000000000000000
02000533187XXXXXX3560000000000 000012160649029560000000000000000000000362368272100WEB       CLARO               0000000083 20230322233454        000000000 00000000000000000000700000000000000000000000007000DA                            D       0000000000000000000000
02000533187XXXXXX3560000000000 000012160680007623600000000000000000000362368272100WEB       CLARO               0000000083 20230322233454        000000000 00000000000000000000700000000000000000000000007000DA                            D       0000000000000000000000
02000533187XXXXXX3560000000000 000012160688021943400000000000000000000362368272100WEB       CLARO               0000000083 20230322233454        000000000 00000000000000000000700000000000000000000000007000DA                            D       0000000000000000000000
02000529881XXXXXX8008000000000 000012160893094166500000000000000000000362369112100WEB       CLARO               0000000012 20230322234615        000000000 00000000000000000000150000000000000000000000001500DA                            C       0000000000000000000000
02000408832XXXXXX7962000000000 000012161795003330400000000000000000000362374452100COMPRA INT CLARO    CL        0000000051 20230323010712        000000000 00000000000000000002500000000000000000000000025000DA                            D       0000000000000000000000
02000446867XXXXXX7542000000000 000012162098061037600000000000000000000362376392100WEB       CLARO               00000000Q5 20230323020320        000000000 00000000000000000000500000000000000000000000005000DA                            C       0000000000000000000000
02000434559XXXXXX2793000000000 000012162516065412800000000000000000000362380772100WEB       CLARO               0000000033 20230323060236        000000000 00000000000000000000200000000000000000000000002000DA                            D       0000000000000000000000
02000434559XXXXXX2793000000000 000012162518012505300000000000000000000362380772100WEB       CLARO               0000000033 20230323060236        000000000 00000000000000000000200000000000000000000000002000DA                            D       0000000000000000000000
02000434559XXXXXX2041000000000 000012162800015192000000000000000000000362383612100WEB       CLARO               0000000051 20230323070238        000000000 00000000000000000000075000000000000000000000000750DA                            D       0000000000000000000000
02000434559XXXXXX2315000000000 000012163168051560300000000000000000000362387312100WEB       CLARO               0000000033 20230323073957        000000000 00000000000000000000500000000000000000000000005000DA                            D       0000000000000000000000
02000533187XXXXXX6899000000000 000012164478080105500000000000000000000362399152100WEB       CLARO               0000000083 20230323090543        000000000 00000000000000000000150000000000000000000000001500DA                            D       0000000000000000000000
02000533187XXXXXX3279000000000 000012164846020272500000000000000000000362401292100WEB       CLARO               0000000083 20230323092059        000000000 00000000000000000000150000000000000000000000001500DA                            D       0000000000000000000000
02000533187XXXXXX3279000000000 000012164857096553900000000000000000000362401292100WEB       CLARO               0000000083 20230323092059        000000000 00000000000000000000150000000000000000000000001500DA                            D       0000000000000000000000
02000409767XXXXXX4419000000000 000012164844040989100000000000000000000362401272100WEB       CLARO               00000000S9 20230323092056        000000000 00000000000000000000200000000000000000000000002000DA                            D       0000000000000000000000
02000414720XXXXXX5970000000000 000012164879013955500000000000000000000362401372100COMPRA INT CLARO    CL        00000000Q5 20230323092129        000000000 00000000000000000000489000000000000000000000004890DA                            C       0000000000000000000000
02000409767XXXXXX4419000000000 000012164886000590900000000000000000000362401272100WEB       CLARO               00000000S9 20230323092056        000000000 00000000000000000000200000000000000000000000002000DA                            D       0000000000000000000000
02000414720XXXXXX5970000000000 000012165048043976100000000000000000000362402652100COMPRA INT CLARO    CL        00000000Q5 20230323092801        000000000 00000000000000000000700000000000000000000000007000DA                            C       0000000000000000000000
02000548742XXXXXX8377000000000 000012165381073272200000000000000000000362404212100WEB       CLARO               0000000083 20230323093858        000000000 00000000000000000000075000000000000000000000000750DA                            C       0000000000000000000000
02000531075XXXXXX5896000000000 000012165431023731600000000000000000000362404292100COMPRA INT CLARO    CL        0000000083 20230323093925        000000000 00000000000000000000200000000000000000000000002000DA                            C       0000000000000000000000
02000548742XXXXXX8377000000000 000012165574005733400000000000000000000362405132100WEB       CLARO               0000000083 20230323094429        000000000 00000000000000000000075000000000000000000000000750DA                            C       0000000000000000000000
02000512269XXXXXX2821000000000 000012165821098256000000000000000000000362406452100WEB       CLARO               0000000083 20230323095136        000000000 00000000000000000000700000000000000000000000007000DA                            C       0000000000000000000000
02000465375XXXXXX4442000000000 000012166513001845200000000000000000000362410912100WEB       CLARO               00000000S9 20230323101954        000000000 00000000000000000000700000000000000000000000007000DA                            C       0000000000000000000000
02000465375XXXXXX4442000000000 000012166545041062100000000000000000000362410912100WEB       CLARO               00000000S9 20230323101954        000000000 00000000000000000000700000000000000000000000007000DA                            C       0000000000000000000000
02000533187XXXXXX7539000000000 000012167273094230800000000000000000000362414252100WEB       CLARO               0000000083 20230323104622        000000000 00000000000000000000500000000000000000000000005000DA                            D       0000000000000000000000
02000533187XXXXXX6899000000000 000012167314017934300000000000000000000362414452100WEB       CLARO               0000000083 20230323104735        000000000 00000000000000000000150000000000000000000000001500DA                            D       0000000000000000000000
02000533187XXXXXX6899000000000 000012167359035018600000000000000000000362414452100WEB       CLARO               0000000083 20230323104735        000000000 00000000000000000000150000000000000000000000001500DA                            D       0000000000000000000000
02000409767XXXXXX2879000000000 000012167875079723500000000000000000000362415972100WEB       CLARO               00000000S9 20230323110206        000000000 00000000000000000000200000000000000000000000002000DA                            D       0000000000000000000000
02000434559XXXXXX2964000000000 000012168947038299800000000000000000000362420112100WEB       CLARO               0000000033 20230323113628        000000000 00000000000000000000150000000000000000000000001500DA                            D       0000000000000000000000
02000465375XXXXXX4442000000000 000012169299089061100000000000000000000362421612100WEB       CLARO               00000000S9 20230323114803        000000000 00000000000000000000700000000000000000000000007000DA                            C       0000000000000000000000
02000559809XXXXXX2077000000000 000012169631038124100000000000000000000362422752100COMPRA INT CLARO    CL        0000000068 20230323115655        000000000 00000000000000000000489000000000000000000000004890DA                            C       0000000000000000000000
02000559809XXXXXX2060000000000 000012169708084074500000000000000000000362422752100COMPRA INT CLARO    CL        0000000068 20230323115655        000000000 00000000000000000000489000000000000000000000004890DA                            C       0000000000000000000000
02000520108XXXXXX8242000000000 000012169871099433300000000000000000000362423812100COMPRA INT CLARO    CL        0000000057 20230323120515        000000000 00000000000000000000500000000000000000000000005000DA                            C       0000000000000000000000
02000439649XXXXXX7625000000000 000012170644005867900000000000000000000362427552100          CLARO               0000000067 20230323122922        000000000 00000000000000000000150000000000000000000000001500DA                            D       0000000000000000000000
02000434559XXXXXX8449000000000 000012172336044234600000000000000000000362435132100WEB       CLARO               0000000051 20230323131929        000000000 00000000000000000000150000000000000000000000001500DA                            D       0000000000000000000000
02000434559XXXXXX1103000000000 000012172795039707700000000000000000000362437372100WEB       CLARO               0000000051 20230323133432        000000000 00000000000000000000150000000000000000000000001500DA                            D       0000000000000000000000
02000434559XXXXXX1103000000000 000012172837029542400000000000000000000362437372100WEB       CLARO               0000000051 20230323133432        000000000 00000000000000000000150000000000000000000000001500DA                            D       0000000000000000000000
02000412003XXXXXX8602000000000 000012172949087968200000000000000000000362438032100WEB       CLARO               00000000Q5 20230323133851        000000000 00000000000000000000100000000000000000000000001000DA                            D       0000000000000000000000
02000409767XXXXXX5811000000000 000012173425033978400000000000000000000362440872100WEB       CLARO               00000000S9 20230323135331        000000000 00000000000000000000290000000000000000000000002900DA                            D       0000000000000000000000
02000409767XXXXXX5811000000000 000012173476076506700000000000000000000362440872100WEB       CLARO               00000000S9 20230323135331        000000000 00000000000000000000290000000000000000000000002900DA                            D       0000000000000000000000
02000482408XXXXXX0034000000000 000012173903017054100000000000000000000362443032100COMPRA INT CLARO    CL        0000000014 20230323140913        000000000 00000000000000000002500000000000000000000000025000DA                            D       0000000000000000000000
02000482408XXXXXX0059000000000 000012173987048390500000000000000000000362443452100COMPRA INT CLARO    CL        0000000051 20230323141126        000000000 00000000000000000002500000000000000000000000025000DA                            D       0000000000000000000000
02000452421XXXXXX0398000000000 000012175446042109500000000000000000000362449892100COMPRA INT CLARO    CL        00000000Q5 20230323145602        000000000 00000000000000000000200000000000000000000000002000DA                            C       0000000000000000000000
02000434559XXXXXX2447000000000 000012175625046076900000000000000000000362450752100WEB       CLARO               0000000051 20230323150107        000000000 00000000000000000000250000000000000000000000002500DA                            D       0000000000000000000000
02000482408XXXXXX0067000000000 000012175634077060300000000000000000000362450892100COMPRA INT CLARO    CL        0000000051 20230323150221        000000000 00000000000000000001000000000000000000000000010000DA                            D       0000000000000000000000
02000482408XXXXXX0075000000000 000012175644034002300000000000000000000362450972100COMPRA INT CLARO    CL        0000000046 20230323150249        000000000 00000000000000000001000000000000000000000000010000DA                            D       0000000000000000000000
02000482408XXXXXX0083000000000 000012175660068585000000000000000000000362451052100COMPRA INT CLARO    CL        0000000051 20230323150317        000000000 00000000000000000001000000000000000000000000010000DA                            D       0000000000000000000000
02000482408XXXXXX0109000000000 000012175690080221500000000000000000000362451192100COMPRA INT CLARO    CL        0000000051 20230323150437        000000000 00000000000000000001000000000000000000000000010000DA                            D       0000000000000000000000
02000482408XXXXXX0117000000000 000012175887059603700000000000000000000362452072100COMPRA INT CLARO    CL        00000000Q5 20230323151156        000000000 00000000000000000001500000000000000000000000015000DA                            D       0000000000000000000000
02000482408XXXXXX0174000000000 000012176149060779600000000000000000000362453592100COMPRA INT CLARO    CL        0000000051 20230323152228        000000000 00000000000000000002500000000000000000000000025000DA                            D       0000000000000000000000
02000482408XXXXXX0166000000000 000012176262064214800000000000000000000362454112100COMPRA INT CLARO    CL        0000000051 20230323152602        000000000 00000000000000000001500000000000000000000000015000DA                            D       0000000000000000000000
02000482408XXXXXX0190000000000 000012176304074566900000000000000000000362454312100COMPRA INT CLARO    CL        0000000051 20230323152725        000000000 00000000000000000001500000000000000000000000015000DA                            D       0000000000000000000000
02000482408XXXXXX0224000000000 000012176455087536500000000000000000000362455272100COMPRA INT CLARO    CL        0000000046 20230323153235        000000000 00000000000000000001500000000000000000000000015000DA                            D       0000000000000000000000
02000434559XXXXXX9125000000000 000012176582062268300000000000000000000362456032100WEB       CLARO               0000000033 20230323153704        000000000 00000000000000000000150000000000000000000000001500DA                            D       0000000000000000000000
02000533187XXXXXX0564000000000 000012176721096079000000000000000000000362456632100WEB       CLARO               0000000083 20230323154302        000000000 00000000000000000000400000000000000000000000004000DA                            D       0000000000000000000000
02000434559XXXXXX2914000000000 000012176728043623200000000000000000000362456672100WEB       CLARO               0000000014 20230323154314        000000000 00000000000000000000075000000000000000000000000750DA                            D       0000000000000000000000
02000533187XXXXXX8452000000000 000012176786004053200000000000000000000362456672100WEB       CLARO               0000000083 20230323154314        000000000 00000000000000000000075000000000000000000000000750DA                            D       0000000000000000000000
02000482408XXXXXX2559000000000 000012176956047853200000000000000000000362457632100COMPRA INT CLARO    CL        0000000036 20230323155134        000000000 00000000000000000000100000000000000000000000001000DA                            D       0000000000000000000000
02000482408XXXXXX2211000000000 000012177162070909000000000000000000000362458252100COMPRA INT CLARO    CL        0000000046 20230323155720        000000000 00000000000000000000500000000000000000000000005000DA                            D       0000000000000000000000
02000482408XXXXXX2369000000000 000012177189093322500000000000000000000362458432100COMPRA INT CLARO    CL        0000000046 20230323155839        000000000 00000000000000000000500000000000000000000000005000DA                            D       0000000000000000000000
02000482408XXXXXX2559000000000 000012177199046408300000000000000000000362458432100COMPRA INT CLARO    CL        0000000036 20230323155839        000000000 00000000000000000000500000000000000000000000005000DA                            D       0000000000000000000000
02000482408XXXXXX0240000000000 000012177229050102000000000000000000000362458732100COMPRA INT CLARO    CL        0000000046 20230323160009        000000000 00000000000000000001500000000000000000000000015000DA                            D       0000000000000000000000
02000482408XXXXXX0257000000000 000012177252087905600000000000000000000362458872100COMPRA INT CLARO    CL        0000000046 20230323160054        000000000 00000000000000000001500000000000000000000000015000DA                            D       0000000000000000000000
020000000000000000000000000000 000012177524098167100000000000000000000362460072100          CLARO               0000000001 20230323161011        000000000 00000000000000000000150000000000000000000000001500DA                                    0000000000000000000000
02000420767XXXXXX3836000000000 000012177625046181700000000000000000000362460512100COMPRA INT CLARO    CL        0000000046 20230323161333        000000000 00000000000000000000200000000000000000000000002000DA                            C       0000000000000000000000
02000482408XXXXXX0281000000000 000012177769096449200000000000000000000362461252100COMPRA INT CLARO    CL        0000000046 20230323161754        000000000 00000000000000000001500000000000000000000000015000DA                            D       0000000000000000000000
02000533187XXXXXX7875000000000 000012177786059335000000000000000000000362461332100WEB       CLARO               0000000083 20230323161819        000000000 00000000000000000000150000000000000000000000001500DA                            D       0000000000000000000000
02000482408XXXXXX0323000000000 000012177947024937000000000000000000000362462132100COMPRA INT CLARO    CL        0000000051 20230323162238        000000000 00000000000000000001500000000000000000000000015000DA                            D       0000000000000000000000
02000482408XXXXXX0331000000000 000012177966066446200000000000000000000362462232100COMPRA INT CLARO    CL        0000000043 20230323162304        000000000 00000000000000000001500000000000000000000000015000DA                            D       0000000000000000000000
02000482408XXXXXX0349000000000 000012177986019947800000000000000000000362462392100COMPRA INT CLARO    CL        0000000051 20230323162341        000000000 00000000000000000001500000000000000000000000015000DA                            D       0000000000000000000000
02000482408XXXXXX0356000000000 000012178018097216800000000000000000000362462632100COMPRA INT CLARO    CL        0000000051 20230323162428        000000000 00000000000000000001500000000000000000000000015000DA                            D       0000000000000000000000
02000482408XXXXXX0364000000000 000012178033023517200000000000000000000362462752100COMPRA INT CLARO    CL        00000000Q5 20230323162504        000000000 00000000000000000001500000000000000000000000015000DA                            D       0000000000000000000000
020000000000000000000000000000 000012178706003254000000000000000000000362465632100          CLARO               0000000001 20230323164741        000000000 00000000000000000000100000000000000000000000001000DA                                    0000000000000000000000
02000482408XXXXXX0398000000000 000012178749038068000000000000000000000362465832100COMPRA INT CLARO    CL        00000000Q5 20230323164926        000000000 00000000000000000002500000000000000000000000025000DA                            D       0000000000000000000000
02000482408XXXXXX0406000000000 000012178778041957000000000000000000000362466092100COMPRA INT CLARO    CL        0000000014 20230323165021        000000000 00000000000000000001500000000000000000000000015000DA                            D       0000000000000000000000
02000482408XXXXXX0422000000000 000012178964057129300000000000000000000362466772100COMPRA INT CLARO    CL        0000000051 20230323165514        000000000 00000000000000000001500000000000000000000000015000DA                            D       0000000000000000000000
02000482408XXXXXX0430000000000 000012178979009894800000000000000000000362466792100COMPRA INT CLARO    CL        0000000051 20230323165535        000000000 00000000000000000001500000000000000000000000015000DA                            D       0000000000000000000000
02000482408XXXXXX0463000000000 000012179056039554000000000000000000000362467132100COMPRA INT CLARO    CL        0000000051 20230323165745        000000000 00000000000000000001500000000000000000000000015000DA                            D       0000000000000000000000
02000482408XXXXXX0471000000000 000012179188066342900000000000000000000362467592100COMPRA INT CLARO    CL        0000000051 20230323170125        000000000 00000000000000000001500000000000000000000000015000DA                            D       0000000000000000000000
02000482408XXXXXX0489000000000 000012179200066681500000000000000000000362467612100COMPRA INT CLARO    CL        0000000014 20230323170147        000000000 00000000000000000001500000000000000000000000015000DA                            D       0000000000000000000000
02000482408XXXXXX0497000000000 000012179264050499800000000000000000000362468072100COMPRA INT CLARO    CL        00000000Q5 20230323170424        000000000 00000000000000000001500000000000000000000000015000DA                            D       0000000000000000000000
02000482408XXXXXX0505000000000 000012179279007403100000000000000000000362468092100COMPRA INT CLARO    CL        0000000051 20230323170447        000000000 00000000000000000001500000000000000000000000015000DA                            D       0000000000000000000000
02000482408XXXXXX0513000000000 000012179342051184000000000000000000000362468312100COMPRA INT CLARO    CL        0000000043 20230323170647        000000000 00000000000000000001500000000000000000000000015000DA                            D       0000000000000000000000
02000482408XXXXXX0539000000000 000012179384060642300000000000000000000362468432100COMPRA INT CLARO    CL        0000000046 20230323170831        000000000 00000000000000000001500000000000000000000000015000DA                            D       0000000000000000000000
02000482408XXXXXX0547000000000 000012179395030375000000000000000000000362468492100COMPRA INT CLARO    CL        0000000046 20230323170903        000000000 00000000000000000001500000000000000000000000015000DA                            D       0000000000000000000000
02000482408XXXXXX0554000000000 000012179425079407500000000000000000000362468612100COMPRA INT CLARO    CL        0000000051 20230323170944        000000000 00000000000000000001500000000000000000000000015000DA                            D       0000000000000000000000
02000482408XXXXXX0570000000000 000012179495017572200000000000000000000362468852100COMPRA INT CLARO    CL        0000000051 20230323171226        000000000 00000000000000000001500000000000000000000000015000DA                            D       0000000000000000000000
02000482408XXXXXX0612000000000 000012179558038174600000000000000000000362469052100COMPRA INT CLARO    CL        0000000046 20230323171441        000000000 00000000000000000001500000000000000000000000015000DA                            D       0000000000000000000000
02000482408XXXXXX0646000000000 000012179618024557800000000000000000000362469272100COMPRA INT CLARO    CL        0000000051 20230323171638        000000000 00000000000000000001500000000000000000000000015000DA                            D       0000000000000000000000
02000482408XXXXXX0653000000000 000012180734035181600000000000000000000362474192100COMPRA INT CLARO    CL        0000000051 20230323175809        000000000 00000000000000000001500000000000000000000000015000DA                            D       0000000000000000000000
02000482408XXXXXX0661000000000 000012180821020859700000000000000000000362474532100COMPRA INT CLARO    CL        0000000051 20230323180141        000000000 00000000000000000001500000000000000000000000015000DA                            D       0000000000000000000000
02000482408XXXXXX0679000000000 000012180967043322200000000000000000000362475212100COMPRA INT CLARO    CL        00000000Q5 20230323180715        000000000 00000000000000000001500000000000000000000000015000DA                            D       0000000000000000000000
02000482408XXXXXX0695000000000 000012180995094320800000000000000000000362475352100COMPRA INT CLARO    CL        0000000051 20230323180810        000000000 00000000000000000001500000000000000000000000015000DA                            D       0000000000000000000000
02000482408XXXXXX0711000000000 000012181034027001500000000000000000000362475552100COMPRA INT CLARO    CL        0000000043 20230323180931        000000000 00000000000000000001500000000000000000000000015000DA                            D       0000000000000000000000
02000482408XXXXXX0729000000000 000012181140047639400000000000000000000362476132100COMPRA INT CLARO    CL        00000000Q5 20230323181319        000000000 00000000000000000001500000000000000000000000015000DA                            D       0000000000000000000000
02000482408XXXXXX0737000000000 000012181280049424200000000000000000000362476832100COMPRA INT CLARO    CL        00000000Q5 20230323181803        000000000 00000000000000000001500000000000000000000000015000DA                            D       0000000000000000000000
02000482408XXXXXX0745000000000 000012181364058913600000000000000000000362477172100COMPRA INT CLARO    CL        0000000043 20230323182104        000000000 00000000000000000001500000000000000000000000015000DA                            D       0000000000000000000000
02000482408XXXXXX0752000000000 000012181391001748700000000000000000000362477332100COMPRA INT CLARO    CL        0000000014 20230323182155        000000000 00000000000000000001500000000000000000000000015000DA                            D       0000000000000000000000
02000482408XXXXXX0760000000000 000012181488053574400000000000000000000362477892100COMPRA INT CLARO    CL        00000000Q5 20230323182541        000000000 00000000000000000001500000000000000000000000015000DA                            D       0000000000000000000000
02000482408XXXXXX0778000000000 000012181517028477500000000000000000000362478092100COMPRA INT CLARO    CL        0000000051 20230323182655        000000000 00000000000000000001500000000000000000000000015000DA                            D       0000000000000000000000
02000482408XXXXXX0810000000000 000012181659067698800000000000000000000362478592100COMPRA INT CLARO    CL        0000000014 20230323183206        000000000 00000000000000000001500000000000000000000000015000DA                            D       0000000000000000000000
02000524708XXXXXX0318000000000 000012181660007748500000000000000000000362478612100COMPRA INT CLARO    CL        0000000051 20230323183206        000000000 00000000000000000000075000000000000000000000000750DA                            D       0000000000000000000000
02000482408XXXXXX0836000000000 000012181798076151500000000000000000000362479432100COMPRA INT CLARO    CL        0000000046 20230323183751        000000000 00000000000000000001500000000000000000000000015000DA                            D       0000000000000000000000
02000482408XXXXXX0844000000000 000012181824057198900000000000000000000362479532100COMPRA INT CLARO    CL        0000000043 20230323183855        000000000 00000000000000000001500000000000000000000000015000DA                            D       0000000000000000000000
02000482408XXXXXX0851000000000 000012181847064025500000000000000000000362479772100COMPRA INT CLARO    CL        0000000046 20230323183951        000000000 00000000000000000001500000000000000000000000015000DA                            D       0000000000000000000000
02000525678XXXXXX7799000000000 000012182244042288300000000000000000000362481872100COMPRA INT CLARO    CL        0000000057 20230323185538        000000000 00000000000000000000200000000000000000000000002000DA                            D       0000000000000000000000
02000452421XXXXXX0398000000000 000012182420018291300000000000000000000362482612100COMPRA INT CLARO    CL        00000000Q5 20230323190230        000000000 00000000000000000000200000000000000000000000002000DA                            C       0000000000000000000000
02000512269XXXXXX6393000000000 000012183436067027700000000000000000000362487592100WEB       CLARO               0000000083 20230323194210        000000000 00000000000000000000200000000000000000000000002000DA                            C       0000000000000000000000
02000512269XXXXXX6393000000000 000012183503045566100000000000000000000362487592100WEB       CLARO               0000000083 20230323194210        000000000 00000000000000000000200000000000000000000000002000DA                            C       0000000000000000000000
02000533187XXXXXX7370000000000 000012183516028307500000000000000000000362488152100WEB       CLARO               0000000083 20230323194534        000000000 00000000000000000000150000000000000000000000001500DA                            D       0000000000000000000000
02000533187XXXXXX7370000000000 000012183539031210000000000000000000000362488152100WEB       CLARO               0000000083 20230323194534        000000000 00000000000000000000150000000000000000000000001500DA                            D       0000000000000000000000
02000434559XXXXXX9066000000000 000012183780011649900000000000000000000362489852100WEB       CLARO               0000000002 20230323195756        000000000 00000000000000000000150000000000000000000000001500DA                            D       0000000000000000000000
02000434559XXXXXX9066000000000 000012183807053754700000000000000000000362489852100WEB       CLARO               0000000002 20230323195756        000000000 00000000000000000000150000000000000000000000001500DA                            D       0000000000000000000000
02000482408XXXXXX0992000000000 000012183954022515700000000000000000000362490832100COMPRA INT CLARO    CL        0000000014 20230323200438        000000000 00000000000000000001500000000000000000000000015000DA                            D       0000000000000000000000
02000482408XXXXXX1032000000000 000012184018073663200000000000000000000362491212100COMPRA INT CLARO    CL        0000000051 20230323200717        000000000 00000000000000000001500000000000000000000000015000DA                            D       0000000000000000000000
02000482408XXXXXX1057000000000 000012184049089079600000000000000000000362491352100COMPRA INT CLARO    CL        0000000051 20230323200822        000000000 00000000000000000001500000000000000000000000015000DA                            D       0000000000000000000000
02000482408XXXXXX1073000000000 000012184098004049600000000000000000000362491812100COMPRA INT CLARO    CL        0000000051 20230323201020        000000000 00000000000000000001500000000000000000000000015000DA                            D       0000000000000000000000
02000482408XXXXXX1081000000000 000012184144081717100000000000000000000362492052100COMPRA INT CLARO    CL        0000000051 20230323201146        000000000 00000000000000000001500000000000000000000000015000DA                            D       0000000000000000000000
02000548742XXXXXX4995000000000 000012185199059633700000000000000000000362496712100WEB       CLARO               0000000083 20230323204902        000000000 00000000000000000000200000000000000000000000002000DA                            C       0000000000000000000000
02000548742XXXXXX5331000000000 000012185160022105000000000000000000000362496792100WEB       CLARO               0000000083 20230323204922        000000000 00000000000000000000200000000000000000000000002000DA                            C       0000000000000000000000
02000434561XXXXXX5121000000000 000012185237082033200000000000000000000362496872100WEB       CLARO               0000000051 20230323204951        000000000 00000000000000000000700000000000000000000000007000DA                            D       0000000000000000000000
02000548742XXXXXX5331000000000 000012185238043254900000000000000000000362496792100WEB       CLARO               0000000083 20230323204922        000000000 00000000000000000000200000000000000000000000002000DA                            C       0000000000000000000000
02000548742XXXXXX5331000000000 000012185244041850800000000000000000000362496792100WEB       CLARO               0000000083 20230323204922        000000000 00000000000000000000200000000000000000000000002000DA                            C       0000000000000000000000
02000524101XXXXXX8237000000000 000012185443041004900000000000000000000362497972100WEB       CLARO               0000000057 20230323205824        000000000 00000000000000000000150000000000000000000000001500DA                            D       0000000000000000000000
02000482408XXXXXX1123000000000 000012185468082273300000000000000000000362498072100COMPRA INT CLARO    CL        0000000014 20230323205915        000000000 00000000000000000002500000000000000000000000025000DA                            D       0000000000000000000000
02000482408XXXXXX1139000000000 000012156319079750000000000000000000000362349732100COMPRA INT CLARO    CL        0000000000 20230322210006        000000000 00000000000000000001500000000000003480000000014586DA                            D       0000000000000000000000
02000482408XXXXXX1139000000000 000012156363059907800000000000000000000362349852100COMPRA INT CLARO    CL        0000000000 20230322210154        000000000 00000000000000000001500000000000003480000000014586DA                            D       0000000000000000000000
02000482408XXXXXX1139000000000 000012156405077548300000000000000000000362350112100COMPRA INT CLARO    CL        0000000000 20230322210332        000000000 00000000000000000001500000000000003480000000014586DA                            D       0000000000000000000000
02000482408XXXXXX1139000000000 000012156454065465600000000000000000000362350352100COMPRA INT CLARO    CL        0000000000 20230322210524        000000000 00000000000000000001500000000000003480000000014586DA                            D       0000000000000000000000
02000482408XXXXXX1139000000000 000012156476014986600000000000000000000362350472100COMPRA INT CLARO    CL        0000000000 20230322210621        000000000 00000000000000000001500000000000003480000000014586DA                            D       0000000000000000000000
02000482408XXXXXX1139000000000 000012156500032468300000000000000000000362350632100COMPRA INT CLARO    CL        0000000000 20230322210715        000000000 00000000000000000001500000000000003480000000014586DA                            D       0000000000000000000000
02000446867XXXXXX8701000000000 000012156925068358700000000000000000000362352492100WEB       CLARO               0000000000 20230322212314        000000000 00000000000000000000500000000000001250000000004851DA                            C       0000000000000000000000
02000434559XXXXXX5545000000000 000012157622057296400000000000000000000362355472100WEB       CLARO               0000000000 20230322214601        000000000 00000000000000000000200000000000000260000000001969DA                            D       0000000000000000000000
02000434559XXXXXX3817000000000 000012158732022977600000000000000000000362359772100WEB       CLARO               0000000000 20230322222337        000000000 00000000000000000000100000000000000130000000000984DA                            D       0000000000000000000000
02000434559XXXXXX1140000000000 000012158837032413900000000000000000000362360352100WEB       CLARO               0000000000 20230322222703        000000000 00000000000000000000075000000000000100000000000738DA                            D       0000000000000000000000
02000434559XXXXXX4180000000000 000012158917065434200000000000000000000362359492100WEB       CLARO               0000000000 20230322222140        000000000 00000000000000000000190000000000000250000000001870DA                            D       0000000000000000000000
02000434559XXXXXX7365000000000 000012158868091434500000000000000000000362360432100WEB       CLARO               0000000000 20230322222804        000000000 00000000000000000000700000000000000920000000006890DA                            D       0000000000000000000000
02000559779XXXXXX8372000000000 000012159678000456700000000000000000000362363852100WEB       CLARO               0000000000 20230322225421        000000000 00000000000000000000200000000000000260000000001969DA                            D       0000000000000000000000
02000482408XXXXXX0018000000000 000012160284038989600000000000000000000362366772100COMPRA INT CLARO    CL        0000000000 20230322231819        000000000 00000000000000000001500000000000003480000000014586DA                            D       0000000000000000000000
02000559779XXXXXX8372000000000 000012160305073992500000000000000000000362366592100WEB       CLARO               0000000000 20230322231731        000000000 00000000000000000000075000000000000100000000000738DA                            D       0000000000000000000000
02000454812XXXXXX3442000000000 000012160279049946400000000000000000000362366672100WEB       CLARO               0000000000 20230322231749        000000000 00000000000000000000360000000000000900000000003493DA                            C       0000000000000000000000
02000434559XXXXXX5569000000000 000012160281095201200000000000000000000362366732100WEB       CLARO               0000000000 20230322231811        000000000 00000000000000000000500000000000000660000000004921DA                            D       0000000000000000000000
02000482408XXXXXX0018000000000 000012160363070903500000000000000000000362367152100COMPRA INT CLARO    CL        0000000000 20230322232144        000000000 00000000000000000002500000000000005800000000024310DA                            D       0000000000000000000000
02000434559XXXXXX1463000000000 000012160392018714200000000000000000000362367232100WEB       CLARO               0000000000 20230322232201        000000000 00000000000000000000075000000000000100000000000738DA                            D       0000000000000000000000
02000434559XXXXXX0786000000000 000012160601047195700000000000000000000362368112100WEB       CLARO               0000000000 20230322233235        000000000 00000000000000000000200000000000000260000000001969DA                            D       0000000000000000000000
02000434559XXXXXX5809000000000 000012160584031669800000000000000000000362368032100WEB       CLARO               0000000000 20230322233150        000000000 00000000000000000000200000000000000260000000001969DA                            D       0000000000000000000000
02000434559XXXXXX6052000000000 000012160988096756700000000000000000000362369592100WEB       CLARO               0000000000 20230322235236        000000000 00000000000000000000200000000000000260000000001969DA                            D       0000000000000000000000
02000434559XXXXXX0504000000000 000012161024044319400000000000000000000362369732100WEB       CLARO               0000000000 20230322235501        000000000 00000000000000000000150000000000000200000000001476DA                            D       0000000000000000000000
02000475774XXXXXX3042000000000 000012161162083854600000000000000000000362370252100WEB       CLARO               0000000000 20230323000304        000000000 00000000000000000000700000000000000920000000006890DA                            D       0000000000000000000000
02000434559XXXXXX2722000000000 000012161524088692300000000000000000000362372392100WEB       CLARO               0000000000 20230323003521        000000000 00000000000000000000299000000000000390000000002943DA                            D       0000000000000000000000
02000559779XXXXXX1431000000000 000012161966058793600000000000000000000362375592100WEB       CLARO               0000000000 20230323013324        000000000 00000000000000000000500000000000000660000000004921DA                            D       0000000000000000000000
02000455103XXXXXX4598000000000 000012162156052973200000000000000000000362377092100COMPRA INT CLARO    CL        0000000000 20230323023414        000000000 00000000000000000000500000000000001160000000004862DA                            D       0000000000000000000000
02000428581XXXXXX4703000000000 000012162302029245200000000000000000000362378632100COMPRA INT CLARO    CL        0000000000 20230323034918        000000000 00000000000000000000150000000000000350000000001459DA                            D       0000000000000000000000
02000434559XXXXXX1737000000000 000012162510020645600000000000000000000362380712100WEB       CLARO               0000000000 20230323060216        000000000 00000000000000000000500000000000000660000000004921DA                            D       0000000000000000000000
02000434559XXXXXX1432000000000 000012162563060503600000000000000000000362381352100WEB       CLARO               0000000000 20230323062036        000000000 00000000000000000000250000000000000330000000002461DA                            D       0000000000000000000000
02000434559XXXXXX9117000000000 000012162740021299000000000000000000000362383112100WEB       CLARO               0000000000 20230323065426        000000000 00000000000000000000200000000000000260000000001969DA                            D       0000000000000000000000
02000434559XXXXXX5226000000000 000012162746013618200000000000000000000362382972100WEB       CLARO               0000000000 20230323065207        000000000 00000000000000000000150000000000000200000000001476DA                            D       0000000000000000000000
02000555825XXXXXX1898000000000 000012162631078722800000000000000000000362381872100COMPRA INT CLARO    CL        0000000000 20230323063706        000000000 00000000000000000000200000000000000700000000001917DA                            C       0000000000000000000000
02000434559XXXXXX0949000000000 000012162824006649100000000000000000000362383892100WEB       CLARO               0000000000 20230323070803        000000000 00000000000000000000100000000000000130000000000984DA                            D       0000000000000000000000
02000434559XXXXXX9172000000000 000012163136069477100000000000000000000362387472100WEB       CLARO               0000000000 20230323074132        000000000 00000000000000000000200000000000000260000000001969DA                            D       0000000000000000000000
02000434559XXXXXX1450000000000 000012163226052286000000000000000000000362388372100WEB       CLARO               0000000000 20230323074931        000000000 00000000000000000000200000000000000260000000001969DA                            D       0000000000000000000000
02000512269XXXXXX4671000000000 000012163232006308200000000000000000000362388492100WEB       CLARO               0000000000 20230323074957        000000000 00000000000000000000500000000000001250000000004851DA                            C       0000000000000000000000
02000434559XXXXXX3956000000000 000012163394043387800000000000000000000362390332100WEB       CLARO               0000000000 20230323080425        000000000 00000000000000000000200000000000000260000000001969DA                            D       0000000000000000000000
02000434559XXXXXX5145000000000 000012163445066991500000000000000000000362390812100WEB       CLARO               0000000000 20230323080828        000000000 00000000000000000000500000000000000660000000004921DA                            D       0000000000000000000000
02000434561XXXXXX4230000000000 000012163431050690200000000000000000000362390652100WEB       CLARO               0000000000 20230323080735        000000000 00000000000000000000150000000000000200000000001476DA                            D       0000000000000000000000
02000434559XXXXXX6381000000000 000012163521058804300000000000000000000362390452100WEB       CLARO               0000000000 20230323080615        000000000 00000000000000000000200000000000000260000000001969DA                            D       0000000000000000000000
02000434559XXXXXX9940000000000 000012163526090393500000000000000000000362391232100WEB       CLARO               0000000000 20230323081125        000000000 00000000000000000000100000000000000130000000000984DA                            D       0000000000000000000000
02000434559XXXXXX0972000000000 000012163658022666100000000000000000000362392932100WEB       CLARO               0000000000 20230323082228        000000000 00000000000000000000190000000000000250000000001870DA                            D       0000000000000000000000
02000434559XXXXXX3108000000000 000012163825023916500000000000000000000362394612100WEB       CLARO               0000000000 20230323083215        000000000 00000000000000000000400000000000000530000000003937DA                            D       0000000000000000000000
02000434559XXXXXX2778000000000 000012163850029265300000000000000000000362394892100WEB       CLARO               0000000000 20230323083348        000000000 00000000000000000000100000000000000130000000000984DA                            D       0000000000000000000000
02000434559XXXXXX0402000000000 000012163991053833500000000000000000000362396212100WEB       CLARO               0000000000 20230323084247        000000000 00000000000000000000075000000000000100000000000738DA                            D       0000000000000000000000
02000434559XXXXXX1701000000000 000012164297056514300000000000000000000362398132100WEB       CLARO               0000000000 20230323085704        000000000 00000000000000000000200000000000000260000000001969DA                            D       0000000000000000000000
02000440612XXXXXX5126000000000 000012164349025498300000000000000000000362398412100WEB       CLARO               0000000000 20230323085947        000000000 00000000000000000000500000000000000660000000004921DA                            D       0000000000000000000000
02000475774XXXXXX8093000000000 000012164408099223800000000000000000000362398872100WEB       CLARO               0000000000 20230323090250        000000000 00000000000000000000150000000000000200000000001476DA                            D       0000000000000000000000
02000512437XXXXXX8934000000000 000012164356053423200000000000000000000362398512100COMPRA INT CLARO    CL        0000000000 20230323090013        000000000 00000000000000000000200000000000000700000000001917DA                            C       0000000000000000000000
02000475774XXXXXX5239000000000 000012164529063129700000000000000000000362399552100WEB       CLARO               0000000000 20230323090808        000000000 00000000000000000000200000000000000260000000001969DA                            D       0000000000000000000000
02000434559XXXXXX8667000000000 000012164696081838100000000000000000000362399912100WEB       CLARO               0000000000 20230323091030        000000000 00000000000000000000100000000000000130000000000984DA                            D       0000000000000000000000
02000434559XXXXXX4401000000000 000012164683055924600000000000000000000362400472100WEB       CLARO               0000000000 20230323091441        000000000 00000000000000000000150000000000000200000000001476DA                            D       0000000000000000000000
02000434559XXXXXX3802000000000 000012164853048280200000000000000000000362401332100WEB       CLARO               0000000000 20230323092117        000000000 00000000000000000000489000000000000650000000004813DA                            D       0000000000000000000000
02000434559XXXXXX9283000000000 000012164907033516800000000000000000000362401652100WEB       CLARO               0000000000 20230323092307        000000000 00000000000000000000150000000000000200000000001476DA                            D       0000000000000000000000
02000434559XXXXXX3802000000000 000012164922033416500000000000000000000362401872100WEB       CLARO               0000000000 20230323092358        000000000 00000000000000000000200000000000000260000000001969DA                            D       0000000000000000000000
02000434559XXXXXX1762000000000 000012164949048913100000000000000000000362402032100WEB       CLARO               0000000000 20230323092457        000000000 00000000000000000000200000000000000260000000001969DA                            D       0000000000000000000000
02000412003XXXXXX0102000000000 000012165063077703600000000000000000000362402732100WEB       CLARO               0000000000 20230323092831        000000000 00000000000000000000200000000000000260000000001969DA                            D       0000000000000000000000
02000414720XXXXXX8571000000000 000012165096015332600000000000000000000362402652100COMPRA INT CLARO    CL        0000000000 20230323092801        000000000 00000000000000000000700000000000002450000000006708DA                            C       0000000000000000000000
02000512437XXXXXX6518000000000 000012165040007440500000000000000000000362402572100COMPRA INT CLARO    CL        0000000000 20230323092749        000000000 00000000000000000000200000000000000700000000001917DA                            C       0000000000000000000000
02000434559XXXXXX4700000000000 000012165438035638400000000000000000000362404172100WEB       CLARO               0000000000 20230323093853        000000000 00000000000000000000100000000000000130000000000984DA                            D       0000000000000000000000
02000434559XXXXXX3088000000000 000012165565089321200000000000000000000362405292100WEB       CLARO               0000000000 20230323094513        000000000 00000000000000000000200000000000000260000000001969DA                            D       0000000000000000000000
02000434559XXXXXX3487000000000 000012165651030551600000000000000000000362405812100WEB       CLARO               0000000000 20230323094757        000000000 00000000000000000000500000000000000660000000004921DA                            D       0000000000000000000000
02000434559XXXXXX7950000000000 000012165813031976400000000000000000000362406812100WEB       CLARO               0000000000 20230323095339        000000000 00000000000000000000500000000000000660000000004921DA                            D       0000000000000000000000
02000550209XXXXXX1536000000000 000012165913074296600000000000000000000362407392100COMPRA INT CLARO    CL        0000000000 20230323095719        000000000 00000000000000000000200000000000000700000000001917DA                            C       0000000000000000000000
02000434559XXXXXX5116000000000 000012165933009048400000000000000000000362407512100WEB       CLARO               0000000000 20230323095752        000000000 00000000000000000000250000000000000330000000002461DA                            D       0000000000000000000000
02000475774XXXXXX8153000000000 000012166339003143300000000000000000000362409832100WEB       CLARO               0000000000 20230323101307        000000000 00000000000000000000200000000000000260000000001969DA                            D       0000000000000000000000
02000434559XXXXXX9462000000000 000012166141099239400000000000000000000362408712100WEB       CLARO               0000000000 20230323100534        000000000 00000000000000000000400000000000000530000000003937DA                            D       0000000000000000000000
02000496617XXXXXX9880000000000 000012167298033491600000000000000000000362414332100WEB       CLARO               0000000000 20230323104706        000000000 00000000000000000000400000000000001000000000003881DA                            C       0000000000000000000000
02000453826XXXXXX4029000000000 000012167706078915200000000000000000000362415692100COMPRA INT CLARO    CL        0000000000 20230323105908        000000000 00000000000000000000200000000000000700000000001917DA                            C       0000000000000000000000
02000434559XXXXXX9344000000000 000012167779005682700000000000000000000362415852100WEB       CLARO               0000000000 20230323110121        000000000 00000000000000000000200000000000000260000000001969DA                            D       0000000000000000000000
02000434559XXXXXX9853000000000 000012167844006745700000000000000000000362415872100WEB       CLARO               0000000000 20230323110128        000000000 00000000000000000000075000000000000100000000000738DA                            D       0000000000000000000000
02000434559XXXXXX1013000000000 000012167920020530300000000000000000000362416252100WEB       CLARO               0000000000 20230323110329        000000000 00000000000000000000150000000000000200000000001476DA                            D       0000000000000000000000
02000525384XXXXXX0000000000000 000012167775007536200000000000000000000362415832100WEB       CLARO               0000000000 20230323110117        000000000 00000000000000000000150000000000000200000000001476DA                            D       0000000000000000000000
02000434559XXXXXX6333000000000 000012168074033499300000000000000000000362416932100WEB       CLARO               0000000000 20230323110906        000000000 00000000000000000000150000000000000200000000001476DA                            D       0000000000000000000000
02000456460XXXXXX1029000000000 000012168111094153300000000000000000000362417052100WEB       CLARO               0000000000 20230323111002        000000000 00000000000000000000150000000000000380000000001455DA                            C       0000000000000000000000
02000434559XXXXXX3647000000000 000012168218055041100000000000000000000362417392100WEB       CLARO               0000000000 20230323111314        000000000 00000000000000000000200000000000000260000000001969DA                            D       0000000000000000000000
02000440698XXXXXX0014000000000 000012168241035286200000000000000000000362416152100WEB       CLARO               0000000000 20230323110252        000000000 00000000000000000000500000000000000660000000004921DA                            D       0000000000000000000000
02000559779XXXXXX8514000000000 000012168550045767900000000000000000000362418712100WEB       CLARO               0000000000 20230323112423        000000000 00000000000000000000500000000000000660000000004921DA                            D       0000000000000000000000
02000434559XXXXXX5513000000000 000012168835066714200000000000000000000362419712100WEB       CLARO               0000000000 20230323113228        000000000 00000000000000000000150000000000000200000000001476DA                            D       0000000000000000000000
02000434559XXXXXX6976000000000 000012168973071738700000000000000000000362420312100WEB       CLARO               0000000000 20230323113737        000000000 00000000000000000000150000000000000200000000001476DA                            D       0000000000000000000000
02000434559XXXXXX3412000000000 000012169161045165400000000000000000000362420912100WEB       CLARO               0000000000 20230323114307        000000000 00000000000000000001200000000000001580000000011812DA                            D       0000000000000000000000
02000434559XXXXXX3262000000000 000012169790058309100000000000000000000362423492100WEB       CLARO               0000000000 20230323120236        000000000 00000000000000000000200000000000000260000000001969DA                            D       0000000000000000000000
02000554904XXXXXX4424000000000 000012169979025817200000000000000000000362424232100WEB       CLARO               0000000000 20230323120850        000000000 00000000000000000000500000000000001250000000004851DA                            C       0000000000000000000000
02000416549XXXXXX7095000000000 000012170162017354700000000000000000000362424952100COMPRA INT CLARO    CL        0000000000 20230323121418        000000000 00000000000000000000500000000000001160000000004862DA                            D       0000000000000000000000
02000438108XXXXXX4771000000000 000012170095030328900000000000000000000362424732100COMPRA INT CLARO    CL        0000000000 20230323121209        000000000 00000000000000000000500000000000001160000000004862DA                            D       0000000000000000000000
02000434559XXXXXX8751000000000 000012170252070830000000000000000000000362425292100WEB       CLARO               0000000000 20230323121625        000000000 00000000000000000000500000000000000660000000004921DA                            D       0000000000000000000000
02000475774XXXXXX8081000000000 000012170274035361300000000000000000000362425612100WEB       CLARO               0000000000 20230323121813        000000000 00000000000000000000500000000000000660000000004921DA                            D       0000000000000000000000
02000434559XXXXXX6309000000000 000012170428046353300000000000000000000362426332100WEB       CLARO               0000000000 20230323122244        000000000 00000000000000000000200000000000000260000000001969DA                            D       0000000000000000000000
02000434559XXXXXX0386000000000 000012170566014172800000000000000000000362427132100WEB       CLARO               0000000000 20230323122656        000000000 00000000000000000000075000000000000100000000000738DA                            D       0000000000000000000000
02000412003XXXXXX5852000000000 000012170700070281900000000000000000000362427852100WEB       CLARO               0000000000 20230323123128        000000000 00000000000000000000500000000000000660000000004921DA                            D       0000000000000000000000
02000434559XXXXXX2625000000000 000012170734020667600000000000000000000362428032100WEB       CLARO               0000000000 20230323123242        000000000 00000000000000000000150000000000000200000000001476DA                            D       0000000000000000000000
02000434559XXXXXX5267000000000 000012170730045024600000000000000000000362427612100WEB       CLARO               0000000000 20230323122932        000000000 00000000000000000000200000000000000260000000001969DA                            D       0000000000000000000000
02000434559XXXXXX8522000000000 000012170562001996900000000000000000000362427092100WEB       CLARO               0000000000 20230323122647        000000000 00000000000000000000700000000000000920000000006890DA                            D       0000000000000000000000
02000434559XXXXXX8522000000000 000012171038057803000000000000000000000362429212100WEB       CLARO               0000000000 20230323124114        000000000 00000000000000000000700000000000000920000000006890DA                            D       0000000000000000000000
02000434559XXXXXX8522000000000 000012171188032671200000000000000000000362429872100WEB       CLARO               0000000000 20230323124505        000000000 00000000000000000000700000000000000920000000006890DA                            D       0000000000000000000000
02000559779XXXXXX0451000000000 000012171721012793800000000000000000000362431772100WEB       CLARO               0000000000 20230323125843        000000000 00000000000000000000400000000000000530000000003937DA                            D       0000000000000000000000
02000434559XXXXXX0972000000000 000012171758059108600000000000000000000362431972100WEB       CLARO               0000000000 20230323125957        000000000 00000000000000000000100000000000000130000000000984DA                            D       0000000000000000000000
02000434559XXXXXX3711000000000 000012171768013371100000000000000000000362432052100WEB       CLARO               0000000000 20230323130016        000000000 00000000000000000000150000000000000200000000001476DA                            D       0000000000000000000000
02000414791XXXXXX8948000000000 000012172066034805300000000000000000000362433592100COMPRA INT CLARO    CL        0000000000 20230323130915        000000000 00000000000000000000200000000000000700000000001917DA                            C       0000000000000000000000
02000434559XXXXXX9455000000000 000012172085046913100000000000000000000362433632100WEB       CLARO               0000000000 20230323130941        000000000 00000000000000000000200000000000000260000000001969DA                            D       0000000000000000000000
02000434559XXXXXX7213000000000 000012172435057973500000000000000000000362435492100WEB       CLARO               0000000000 20230323132311        000000000 00000000000000000000200000000000000260000000001969DA                            D       0000000000000000000000
02000434559XXXXXX8442000000000 000012172490080436800000000000000000000362435472100WEB       CLARO               0000000000 20230323132254        000000000 00000000000000000000200000000000000260000000001969DA                            D       0000000000000000000000
02000476326XXXXXX3982000000000 000012172637046251500000000000000000000362436552100COMPRA INT CLARO    CL        0000000000 20230323133010        000000000 00000000000000000000700000000000002450000000006708DA                            C       0000000000000000000000
02000434559XXXXXX2128000000000 000012172871048207800000000000000000000362437752100WEB       CLARO               0000000000 20230323133647        000000000 00000000000000000000150000000000000200000000001476DA                            D       0000000000000000000000
