0120230324ADQDIGITAL0763358372
02000434559XXXXXX5427000000000 00001215631108032120000000000000PB23032391717682100WEB       KUPOS               0000000006 20230322205940        000000000 00000000000000000001442000000000000000000000014420DA                            D       0000000000000000000000
02000478688XXXXXX2884000000000 00001215650605247070000000000000PB23032391718122100WEB       KUPOS               0000000051 20230322210733        000000000 00000000000000000001200000000000000000000000012000DA                            C       0000000000000000000000
02000529883XXXXXX4000000000000 00001215645107924840000000000000PB23032391717932100WEB       KUPOS               0000000068 20230322210518        000000000 00000000000000000000700000000000000000000000007000DA                            C       0000000000000000000000
02000529883XXXXXX4000000000000 00001215656508686900000000000000PB23032391717932100WEB       KUPOS               0000000068 20230322210518        000000000 00000000000000000000700000000000000000000000007000DA                            C       0000000000000000000000
02000559202XXXXXX6181000000000 00001215754505837160000000000000PB23032391720962100WEB       KUPOS               0000000057 20230322214334        000000000 00000000000000000003600000000000000000000000036000DA                            C       0000000000000000000000
02000548742XXXXXX3037000000000 00001215797509874230000000000000PB23032391721992100WEB       KUPOS               0000000083 20230322215715        000000000 00000000000000000009000000000000000000000000090000DA                            C       0000000000000000000000
02000533187XXXXXX1423000000000 00001215840304066850000000000000P167953372760d92100WEB       KUPOS               0000000083 20230322220848        000000000 00000000000000000000721000000000000000000000007210DA                            D       0000000000000000000000
02000434503XXXXXX7539000000000 00001215871008116650000000000000PB23032391724012100WEB       KUPOS               00000000S9 20230322222241        000000000 00000000000000000001030000000000000000000000010300DA                            D       0000000000000000000000
02000548742XXXXXX5867000000000 00001215871301478600000000000000PB23032391724032100WEB       KUPOS               0000000083 20230322222247        000000000 00000000000000000001800000000000000000000000018000DA                            C       0000000000000000000000
02000434559XXXXXX0302000000000 00001215873904736850000000000000PB23032391724082100WEB       KUPOS               0000000051 20230322222359        000000000 00000000000000000001300000000000000000000000013000DA                            D       0000000000000000000000
02000434561XXXXXX4198000000000 00001215887404792150000000000000PB23032391724472100WEB       KUPOS               0000000051 20230322222824        000000000 00000000000000000001500000000000000000000000015000DA                            D       0000000000000000000000
02000548742XXXXXX1026000000000 00001215965905309610000000000000PB23032391726552100WEB       KUPOS               0000000083 20230322225212        000000000 00000000000000000001236000000000000000000000012360DA                            C       0000000000000000000000
02000548742XXXXXX2784000000000 00001216029607992410000000000000PB23032391728992100WEB       KUPOS               0000000083 20230322231855        000000000 00000000000000000001500000000000000000000000015000DA                            C       0000000000000000000000
02000548742XXXXXX2784000000000 00001216033102460820000000000000PB23032391728992100WEB       KUPOS               0000000083 20230322231855        000000000 00000000000000000001500000000000000000000000015000DA                            C       0000000000000000000000
02000559202XXXXXX6181000000000 00001216114602403570000000000000PB23032391731512100WEB       KUPOS               0000000057 20230323000157        000000000 00000000000000000003600000000000000000000000036000DA                            C       0000000000000000000000
02000512269XXXXXX7549000000000 00001216153802628010000000000000PB23032391733182100WEB       KUPOS               0000000083 20230323003624        000000000 00000000000000000004000000000000000000000000040000DA                            C       0000000000000000000000
02000512269XXXXXX7549000000000 00001216157107173290000000000000PB23032391733182100WEB       KUPOS               0000000083 20230323003624        000000000 00000000000000000004000000000000000000000000040000DA                            C       0000000000000000000000
02000548742XXXXXX5465000000000 00001216344002677850000000000000PB23032391738302100WEB       KUPOS               0000000083 20230323080825        000000000 00000000000000000001612500000000000000000000016125DA                            C       0000000000000000000000
02000434559XXXXXX6142000000000 00001216449109019870000000000000PB23032391741252100WEB       KUPOS               0000000051 20230323090630        000000000 00000000000000000002200000000000000000000000022000DA                            D       0000000000000000000000
02000451368XXXXXX9035000000000 00001216462408823610000000000000P167957352087f62100WEB       KUPOS               0000000057 20230323091202        000000000 00000000000000000003994000000000000000000000039940DA                            D       0000000000000000000000
02000522468XXXXXX2561000000000 00001216489905699200000000000000PB23032391742442100WEB       KUPOS               0000000083 20230323092246        000000000 00000000000000000003784000000000000000000000037840DA                            C       0000000000000000000000
02000559202XXXXXX6181000000000 00001216484905987830000000000000PB23032391742312100WEB       KUPOS               0000000057 20230323092107        000000000 00000000000000000001600000000000000000000000016000DA                            C       0000000000000000000000
02000548742XXXXXX6849000000000 00001216538001667850000000000000PB23032391743662100WEB       KUPOS               0000000083 20230323093856        000000000 00000000000000000001892000000000000000000000018920DA                            C       0000000000000000000000
02000548742XXXXXX6849000000000 00001216548606505090000000000000PB23032391743662100WEB       KUPOS               0000000083 20230323093856        000000000 00000000000000000001892000000000000000000000018920DA                            C       0000000000000000000000
02000524101XXXXXX5605000000000 00001216575304690800000000000000PB23032391744302100WEB       KUPOS               0000000051 20230323094747        000000000 00000000000000000002000000000000000000000000020000DA                            D       0000000000000000000000
02000477289XXXXXX9393000000000 00001216664708700750000000000000PB23032391747282100COMPRA INT KUPOS    CL        0000000004 20230323102513        000000000 00000000000000000001400000000000000000000000014000DA                            C       0000000000000000000000
02000548742XXXXXX4505000000000 00001216665404153710000000000000PB23032391747332100WEB       KUPOS               0000000083 20230323102534        000000000 00000000000000000001100000000000000000000000011000DA                            C       0000000000000000000000
02000533187XXXXXX6518000000000 00001216677008864150000000000000PB23032391747332100WEB       KUPOS               0000000083 20230323102534        000000000 00000000000000000001100000000000000000000000011000DA                            D       0000000000000000000000
02000533187XXXXXX9655000000000 00001216729402429480000000000000PB23032391748822100WEB       KUPOS               0000000083 20230323104400        000000000 00000000000000000001957000000000000000000000019570DA                            D       0000000000000000000000
02000434559XXXXXX6216000000000 00001216737605991210000000000000PB23032391749152100WEB       KUPOS               0000000033 20230323104909        000000000 00000000000000000000618000000000000000000000006180DA                            D       0000000000000000000000
02000512269XXXXXX5509000000000 00001216738906330770000000000000PB23032391749202100WEB       KUPOS               0000000083 20230323104930        000000000 00000000000000000001400000000000000000000000014000DA                            C       0000000000000000000000
02000512269XXXXXX5509000000000 00001216756108718640000000000000PB23032391749622100WEB       KUPOS               0000000083 20230323105446        000000000 00000000000000000001400000000000000000000000014000DA                            C       0000000000000000000000
02000512269XXXXXX8634000000000 00001216955503676600000000000000PB23032391754432100WEB       KUPOS               0000000083 20230323115324        000000000 00000000000000000004290000000000000000000000042900DA                            C       0000000000000000000000
02000512269XXXXXX4965000000000 00001217098703058110000000000000PB23032391758332100WEB       KUPOS               0000000083 20230323124001        000000000 00000000000000000001400000000000000000000000014000DA                            C       0000000000000000000000
02000538759XXXXXX8069000000000 00001216289004327060000000000000PB23032391736902120WEB       KUPOS               0000000068 20230323071608        000000000 00000000000000000000640400000000000000000000006404DA                            D       0000000000000000000000
02000533187XXXXXX7790000000000 00001217131700013510000000000000PB23032391758892100WEB       KUPOS               0000000051 20230323124638        000000000 00000000000000000002575000000000000000000000025750DA                            D       0000000000000000000000
02000456931XXXXXX4005000000000 00001217185000094510000000000000PB23032391760242100WEB       KUPOS               0000000004 20230323130242        000000000 00000000000000000000690000000000000000000000006900DA                            C       0000000000000000000000
02000456931XXXXXX4005000000000 00001217189105432220000000000000PB23032391760242100WEB       KUPOS               0000000004 20230323130242        000000000 00000000000000000000690000000000000000000000006900DA                            C       0000000000000000000000
02000559202XXXXXX7903000000000 00001217257208794240000000000000PB23032391762162100WEB       KUPOS               0000000057 20230323132759        000000000 00000000000000000002060000000000000000000000020600DA                            C       0000000000000000000000
02000548742XXXXXX0763000000000 00001217321505949070000000000000PB23032391763732100WEB       KUPOS               0000000083 20230323134637        000000000 00000000000000000001391000000000000000000000013910DA                            C       0000000000000000000000
02000548742XXXXXX0763000000000 00001217328302450370000000000000PB23032391763732100WEB       KUPOS               0000000083 20230323134637        000000000 00000000000000000001391000000000000000000000013910DA                            C       0000000000000000000000
02000434559XXXXXX4004000000000 00001217380705066320000000000000PB23032391765262100WEB       KUPOS               0000000033 20230323140654        000000000 00000000000000000002150000000000000000000000021500DA                            D       0000000000000000000000
02000434559XXXXXX1439000000000 00001217493708362450000000000000PB23032391768552100WEB       KUPOS               0000000051 20230323143929        000000000 00000000000000000001100000000000000000000000011000DA                            D       0000000000000000000000
02000559205XXXXXX7565000000000 00001217516605987630000000000000PB23032391769292100WEB       KUPOS               0000000057 20230323144642        000000000 00000000000000000000618000000000000000000000006180DA                            C       0000000000000000000000
02000559205XXXXXX7565000000000 00001217524704587230000000000000PB23032391769292100WEB       KUPOS               0000000057 20230323144642        000000000 00000000000000000000618000000000000000000000006180DA                            C       0000000000000000000000
02000559205XXXXXX7565000000000 00001217532806747830000000000000PB23032391769912100WEB       KUPOS               0000000057 20230323145209        000000000 00000000000000000000618000000000000000000000006180DA                            C       0000000000000000000000
02000440612XXXXXX6388000000000 00001217539505177150000000000000PB23032391770142100WEB       KUPOS               0000000051 20230323145424        000000000 00000000000000000001957000000000000000000000019570DA                            D       0000000000000000000000
02000559202XXXXXX4345000000000 00001217585708705130000000000000PB23032391771582100WEB       KUPOS               0000000057 20230323151042        000000000 00000000000000000003296000000000000000000000032960DA                            C       0000000000000000000000
02000512269XXXXXX5842000000000 00001217693102955640000000000000PB23032491774992100WEB       KUPOS               0000000083 20230323155043        000000000 00000000000000000002380000000000000000000000023800DA                            C       0000000000000000000000
02000559202XXXXXX2306000000000 00001217695909278660000000000000P167959749639712100WEB       KUPOS               0000000057 20230323155137        000000000 00000000000000000002000000000000000000000000020000DA                            C       0000000000000000000000
02000512269XXXXXX5842000000000 00001217699304166040000000000000PB23032491774992100WEB       KUPOS               0000000083 20230323155043        000000000 00000000000000000002380000000000000000000000023800DA                            C       0000000000000000000000
02000533187XXXXXX2732000000000 00001217778308670200000000000000PB23032491777612100WEB       KUPOS               0000000079 20230323161811        000000000 00000000000000000002500000000000000000000000025000DA                            D       0000000000000000000000
02000559202XXXXXX4345000000000 00001217783607313390000000000000P1679599105fc512100WEB       KUPOS               0000000057 20230323161826        000000000 00000000000000000003296000000000000000000000032960DA                            C       0000000000000000000000
02000559202XXXXXX4345000000000 00001217785207787930000000000000P1679599105fc512100WEB       KUPOS               0000000057 20230323161826        000000000 00000000000000000003296000000000000000000000032960DA                            C       0000000000000000000000
02000559202XXXXXX3480000000000 00001217783208100800000000000000PB23032491777782100WEB       KUPOS               0000000057 20230323161936        000000000 00000000000000000001000000000000000000000000010000DA                            C       0000000000000000000000
02000559202XXXXXX4345000000000 00001217785702139640000000000000P1679599105fc512100WEB       KUPOS               0000000057 20230323161826        000000000 00000000000000000003296000000000000000000000032960DA                            C       0000000000000000000000
02000548569XXXXXX0199000000000 00001217812104901750000000000000P167959965930cc2100WEB       KUPOS               00000000S9 20230323162741        000000000 00000000000000000004000000000000000000000000040000DA                            C       0000000000000000000000
02000548569XXXXXX0199000000000 00001217817305997980000000000000P167959965930cc2100WEB       KUPOS               00000000S9 20230323162741        000000000 00000000000000000004000000000000000000000000040000DA                            C       0000000000000000000000
02000475774XXXXXX3286000000000 00001217840109051950000000000000PB23032491779442100WEB       KUPOS               0000000033 20230323163623        000000000 00000000000000000001400000000000000000000000014000DA                            D       0000000000000000000000
02000533187XXXXXX7793000000000 00001217887201626750000000000000PB23032491781152100WEB       KUPOS               0000000083 20230323165233        000000000 00000000000000000001648000000000000000000000016480DA                            D       0000000000000000000000
02000559202XXXXXX4345000000000 00001217914500581090000000000000PB23032491781842100WEB       KUPOS               0000000057 20230323170005        000000000 00000000000000000004380000000000000000000000043800DA                            C       0000000000000000000000
020000000000000000000000000000 00001217948207575910000000000000PB23032491783262100          KUPOS               0000000001 20230323171202        000000000 00000000000000000000900000000000000000000000009000DA                                    0000000000000000000000
020000000000000000000000000000 00001217977807915190000000000000PB23032491784112100          KUPOS               0000000001 20230323172139        000000000 00000000000000000004944000000000000000000000049440DA                                    0000000000000000000000
020000000000000000000000000000 00001217979006260310000000000000PB23032491784112100          KUPOS               0000000001 20230323172139        000000000 00000000000000000004944000000000000000000000049440DA                                    0000000000000000000000
020589693XXXXXXXX6020000000000 00001217980403753430000000000000PB23032491784322100COMPRA INT KUPOS    CL        0000000012 20230323172412        000000000 00000000000000000000580000000000000000000000005800DA                            D       0000000000000000000000
02000548742XXXXXX9453000000000 00001218025602428710000000000000PB23032491786132100WEB       KUPOS               0000000083 20230323174010        000000000 00000000000000000001236000000000000000000000012360DA                            C       0000000000000000000000
02000548742XXXXXX9453000000000 00001218031604981240000000000000PB23032491786132100WEB       KUPOS               0000000083 20230323174010        000000000 00000000000000000001236000000000000000000000012360DA                            C       0000000000000000000000
02000440612XXXXXX0486000000000 00001218057108850710000000000000PB23032491786962100WEB       KUPOS               0000000046 20230323174917        000000000 00000000000000000000824000000000000000000000008240DA                            D       0000000000000000000000
02000450838XXXXXX6410000000000 00001218063504698610000000000000P16796048278dcd2100WEB       KUPOS               0000000051 20230323175353        000000000 00000000000000000001670000000000000000000000016700DA                            C       0000000000000000000000
02000434503XXXXXX2028000000000 00001218077005529000000000000000PB23032491787732100WEB       KUPOS               00000000S9 20230323175737        000000000 00000000000000000002140000000000000000000000021400DA                            D       0000000000000000000000
02000434503XXXXXX2028000000000 00001218090604990690000000000000PB23032491787732100WEB       KUPOS               00000000S9 20230323175737        000000000 00000000000000000002140000000000000000000000021400DA                            D       0000000000000000000000
02000548742XXXXXX2784000000000 00001218096901719810000000000000PB23032491788682100WEB       KUPOS               0000000083 20230323180717        000000000 00000000000000000001648000000000000000000000016480DA                            C       0000000000000000000000
02000548742XXXXXX2784000000000 00001218101908367930000000000000PB23032491788682100WEB       KUPOS               0000000083 20230323180717        000000000 00000000000000000001648000000000000000000000016480DA                            C       0000000000000000000000
02000559202XXXXXX3744000000000 00001218134901482940000000000000PB23032491790102100WEB       KUPOS               0000000057 20230323182034        000000000 00000000000000000003120000000000000000000000031200DA                            C       0000000000000000000000
02000559202XXXXXX1249000000000 00001218184200654010000000000000PB23032491791692100WEB       KUPOS               0000000057 20230323183600        000000000 00000000000000000004400000000000000000000000044000DA                            C       0000000000000000000000
02000559202XXXXXX0544000000000 00001218234608772820000000000000PB23032491793902100WEB       KUPOS               0000000057 20230323185948        000000000 00000000000000000004000000000000000000000000040000DA                            C       0000000000000000000000
02000434503XXXXXX8846000000000 00001218241208211070000000000000P16796080540d7b2100WEB       KUPOS               00000000S9 20230323184746        000000000 00000000000000000001648000000000000000000000016480DA                            D       0000000000000000000000
02000559202XXXXXX0544000000000 00001218241908178210000000000000PB23032491793902100WEB       KUPOS               0000000057 20230323185948        000000000 00000000000000000004000000000000000000000000040000DA                            C       0000000000000000000000
02000559202XXXXXX4644000000000 00001218359901190950000000000000PB23032491798192100WEB       KUPOS               0000000057 20230323194728        000000000 00000000000000000001442000000000000000000000014420DA                            C       0000000000000000000000
02000559202XXXXXX4644000000000 00001218363203122440000000000000PB23032491798192100WEB       KUPOS               0000000057 20230323194728        000000000 00000000000000000001442000000000000000000000014420DA                            C       0000000000000000000000
02000559202XXXXXX4644000000000 00001218364403807410000000000000PB23032491798192100WEB       KUPOS               0000000057 20230323194728        000000000 00000000000000000001442000000000000000000000014420DA                            C       0000000000000000000000
02000559202XXXXXX4644000000000 00001218368203552440000000000000PB23032491798772100WEB       KUPOS               0000000057 20230323195301        000000000 00000000000000000001442000000000000000000000014420DA                            C       0000000000000000000000
02000533187XXXXXX3235000000000 00001218418903677430000000000000PB23032491800402100WEB       KUPOS               0000000083 20230323200938        000000000 00000000000000000008000000000000000000000000080000DA                            D       0000000000000000000000
02000512269XXXXXX7400000000000 00001218468709621300000000000000PB23032491802592100WEB       KUPOS               0000000083 20230323203424        000000000 00000000000000000002460000000000000000000000024600DA                            C       0000000000000000000000
02000548742XXXXXX4440000000000 00001218478708450540000000000000PB23032491802662100WEB       KUPOS               0000000083 20230323203442        000000000 00000000000000000001500000000000000000000000015000DA                            C       0000000000000000000000
02000533187XXXXXX0187000000000 00001218503906565640000000000000PB23032491804052100WEB       KUPOS               0000000083 20230323204532        000000000 00000000000000000002100000000000000000000000021000DA                            D       0000000000000000000000
02000522468XXXXXX9794000000000 00001218517408787690000000000000P167961515388662100WEB       KUPOS               0000000083 20230323204554        000000000 00000000000000000003679000000000000000000000036790DA                            C       0000000000000000000000
02000512269XXXXXX3653000000000 00001218522108169650000000000000PB23032491804452100WEB       KUPOS               0000000083 20230323204912        000000000 00000000000000000007500000000000000000000000075000DA                            C       0000000000000000000000
02000533187XXXXXX6857000000000 00001218526902945000000000000000PB23032491804562100WEB       KUPOS               0000000083 20230323205003        000000000 00000000000000000000600000000000000000000000006000DA                            D       0000000000000000000000
02000533187XXXXXX6857000000000 00001218537505359370000000000000PB23032491804562100WEB       KUPOS               0000000083 20230323205003        000000000 00000000000000000000600000000000000000000000006000DA                            D       0000000000000000000000
02000465375XXXXXX1361000000000 00001218542507226830000000000000PB23032491805512100WEB       KUPOS               00000000S9 20230323205741        000000000 00000000000000000000900000000000000000000000009000DA                            C       0000000000000000000000
02000522468XXXXXX7521000000000 00001218544807604380000000000000PB23032491805632100WEB       KUPOS               0000000083 20230323205828        000000000 00000000000000000007358000000000000000000000073580DA                            C       0000000000000000000000
02000522468XXXXXX8840000000000 00001215659209437470000000000000PB23032391718402100WEB       KUPOS               0000000083 20230322211123        000000000 00000000000000000004120000000000000000000000041200DA                            C       0000000000000000000000
02000434559XXXXXX3825000000000 00001215692604425250000000000000PB23032391719132100WEB       KUPOS               0000000051 20230322212316        000000000 00000000000000000001800000000000000000000000018000DA                            D       0000000000000000000000
02000548742XXXXXX3037000000000 00001215743600249810000000000000PB23032391720602100WEB       KUPOS               0000000083 20230322214023        000000000 00000000000000000009000000000000000000000000090000DA                            C       0000000000000000000000
020000000000000000000000000000 00001215789002799040000000000000PB23032391721612100          KUPOS               0000000001 20230322215127        000000000 00000000000000000002800000000000000000000000028000DA                                    0000000000000000000000
02000434559XXXXXX7370000000000 00001215806400011630000000000000PB23032391722202100WEB       KUPOS               0000000051 20230322220014        000000000 00000000000000000004490000000000000000000000044900DA                            D       0000000000000000000000
02000434561XXXXXX4198000000000 00001215877706788510000000000000PB23032391724202100WEB       KUPOS               0000000051 20230322222524        000000000 00000000000000000001500000000000000000000000015000DA                            D       0000000000000000000000
02000434559XXXXXX0302000000000 00001215888702402240000000000000PB23032391724392100WEB       KUPOS               0000000051 20230322222721        000000000 00000000000000000001300000000000000000000000013000DA                            D       0000000000000000000000
02000548742XXXXXX1026000000000 00001215961608745750000000000000PB23032391726552100WEB       KUPOS               0000000083 20230322225212        000000000 00000000000000000001236000000000000000000000012360DA                            C       0000000000000000000000
02000409767XXXXXX5863000000000 00001215970200485800000000000000PB23032391726792100WEB       KUPOS               00000000S9 20230322225508        000000000 00000000000000000003400000000000000000000000034000DA                            D       0000000000000000000000
02000409767XXXXXX5863000000000 00001215974907955350000000000000PB23032391726792100WEB       KUPOS               00000000S9 20230322225508        000000000 00000000000000000003400000000000000000000000034000DA                            D       0000000000000000000000
02000559202XXXXXX6181000000000 00001216117705901370000000000000PB23032391731512100WEB       KUPOS               0000000057 20230323000157        000000000 00000000000000000003600000000000000000000000036000DA                            C       0000000000000000000000
02000559202XXXXXX6181000000000 00001216134102923630000000000000PB23032391732232100WEB       KUPOS               0000000057 20230323001656        000000000 00000000000000000001600000000000000000000000016000DA                            C       0000000000000000000000
02000548742XXXXXX5465000000000 00001216278800032300000000000000PB23032391736572100WEB       KUPOS               0000000083 20230323070059        000000000 00000000000000000001612500000000000000000000016125DA                            C       0000000000000000000000
02000522468XXXXXX5952000000000 00001216345404698270000000000000PB23032391738142100WEB       KUPOS               0000000083 20230323080420        000000000 00000000000000000003000000000000000000000000030000DA                            C       0000000000000000000000
02000548742XXXXXX7267000000000 00001216410901824590000000000000PB23032391740122100WEB       KUPOS               00000000S9 20230323084929        000000000 00000000000000000002000000000000000000000000020000DA                            C       0000000000000000000000
02000548742XXXXXX7267000000000 00001216415103830830000000000000PB23032391740122100WEB       KUPOS               0000000083 20230323084929        000000000 00000000000000000002000000000000000000000000020000DA                            C       0000000000000000000000
020000000000000000000000000000 00001216428000183140000000000000PB23032391740372100          KUPOS               0000000001 20230323085411        000000000 00000000000000000001100000000000000000000000011000DA                                    0000000000000000000000
02000559202XXXXXX6181000000000 00001216502906284190000000000000PB23032391742722100WEB       KUPOS               0000000057 20230323092732        000000000 00000000000000000001600000000000000000000000016000DA                            C       0000000000000000000000
02000559202XXXXXX2225000000000 00001216682701856470000000000000PB23032391747542100WEB       KUPOS               0000000057 20230323102722        000000000 00000000000000000001236000000000000000000000012360DA                            C       0000000000000000000000
02000559202XXXXXX2225000000000 00001216685007635500000000000000PB23032391747542100WEB       KUPOS               0000000057 20230323102722        000000000 00000000000000000001236000000000000000000000012360DA                            C       0000000000000000000000
02000465375XXXXXX8129000000000 00001216699308068270000000000000PB23032391748082100WEB       KUPOS               00000000S9 20230323103404        000000000 00000000000000000001133000000000000000000000011330DA                            C       0000000000000000000000
02000533187XXXXXX9655000000000 00001216722704727870000000000000PB23032391748822100WEB       KUPOS               0000000083 20230323104400        000000000 00000000000000000001957000000000000000000000019570DA                            D       0000000000000000000000
02000533187XXXXXX6518000000000 00001216736206681730000000000000PB23032391747332100WEB       KUPOS               0000000083 20230323102534        000000000 00000000000000000001100000000000000000000000011000DA                            D       0000000000000000000000
02000522468XXXXXX5844000000000 00001216900704822410000000000000PB23032391753212100WEB       KUPOS               0000000083 20230323113828        000000000 00000000000000000001800000000000000000000000018000DA                            C       0000000000000000000000
02000465375XXXXXX8129000000000 00001216917902957130000000000000PB23032391753212100WEB       KUPOS               00000000Q5 20230323113828        000000000 00000000000000000001800000000000000000000000018000DA                            C       0000000000000000000000
02000559202XXXXXX7001000000000 00001216931801000810000000000000PB23032391753982100WEB       KUPOS               0000000057 20230323114831        000000000 00000000000000000003000000000000000000000000030000DA                            C       0000000000000000000000
02000559202XXXXXX7001000000000 00001216934300614840000000000000PB23032391753982100WEB       KUPOS               0000000057 20230323114831        000000000 00000000000000000003000000000000000000000000030000DA                            C       0000000000000000000000
02000512269XXXXXX8634000000000 00001216959204666660000000000000PB23032391754432100WEB       KUPOS               0000000083 20230323115324        000000000 00000000000000000004290000000000000000000000042900DA                            C       0000000000000000000000
020000000000000000000000000000 00001217060104553770000000000000P16795852976f342100          KUPOS               0000000001 20230323122818        000000000 00000000000000000001236000000000000000000000012360DA                                    0000000000000000000000
02000533187XXXXXX7790000000000 00001217125805424170000000000000PB23032391758892100WEB       KUPOS               0000000083 20230323124638        000000000 00000000000000000002575000000000000000000000025750DA                            D       0000000000000000000000
02000533187XXXXXX7790000000000 00001217129401422790000000000000PB23032391758892100WEB       KUPOS               0000000083 20230323124638        000000000 00000000000000000002575000000000000000000000025750DA                            D       0000000000000000000000
02000456931XXXXXX4005000000000 00001217187502889900000000000000PB23032391760242100WEB       KUPOS               0000000004 20230323130242        000000000 00000000000000000000690000000000000000000000006900DA                            C       0000000000000000000000
02000522468XXXXXX3993000000000 00001217277005915430000000000000PB23032391762692100WEB       KUPOS               0000000083 20230323133350        000000000 00000000000000000003994000000000000000000000039940DA                            C       0000000000000000000000
02000440612XXXXXX9592000000000 00001217299207223790000000000000PB23032391763162100WEB       KUPOS               00000000Q5 20230323134000        000000000 00000000000000000002900000000000000000000000029000DA                            D       0000000000000000000000
02000496617XXXXXX5364000000000 00001217407108629540000000000000PB23032391766062100WEB       KUPOS               0000000051 20230323141342        000000000 00000000000000000002060000000000000000000000020600DA                            C       0000000000000000000000
02000450881XXXXXX6760000000000 00001217422708103040000000000000P167959133428802100          KUPOS               0000000001 20230323140855        000000000 00000000000000000004500000000000000000000000045000DA                                    0000000000000000000000
02000434559XXXXXX8276000000000 00001217419509016740000000000000PB23032391766422100WEB       KUPOS               0000000033 20230323141721        000000000 00000000000000000000900000000000000000000000009000DA                            D       0000000000000000000000
02000434559XXXXXX8276000000000 00001217431605465670000000000000PB23032391766422100WEB       KUPOS               0000000033 20230323141721        000000000 00000000000000000000900000000000000000000000009000DA                            D       0000000000000000000000
02000559202XXXXXX2401000000000 00001217515704713190000000000000PB23032391769262100WEB       KUPOS               0000000057 20230323144628        000000000 00000000000000000020000000000000000000000000200000DA                            C       0000000000000000000000
02000559205XXXXXX7565000000000 00001217521904374600000000000000PB23032391769292100WEB       KUPOS               0000000057 20230323144642        000000000 00000000000000000000618000000000000000000000006180DA                            C       0000000000000000000000
02000559202XXXXXX2401000000000 00001217539709371850000000000000PB23032391769262100WEB       KUPOS               0000000057 20230323144628        000000000 00000000000000000020000000000000000000000000200000DA                            C       0000000000000000000000
02000559202XXXXXX4345000000000 00001217588906354370000000000000PB23032391771582100WEB       KUPOS               0000000057 20230323151042        000000000 00000000000000000003296000000000000000000000032960DA                            C       0000000000000000000000
02000412003XXXXXX7196000000000 00001217668700402850000000000000PB23032491774152100WEB       KUPOS               00000000Q5 20230323154142        000000000 00000000000000000003500000000000000000000000035000DA                            D       0000000000000000000000
02000512269XXXXXX5842000000000 00001217703403198030000000000000PB23032491774992100WEB       KUPOS               0000000083 20230323155043        000000000 00000000000000000002380000000000000000000000023800DA                            C       0000000000000000000000
02000559202XXXXXX4345000000000 00001217778908865300000000000000P1679599105fc512100WEB       KUPOS               0000000057 20230323161826        000000000 00000000000000000003296000000000000000000000032960DA                            C       0000000000000000000000
02000548742XXXXXX3900000000000 00001217785007837380000000000000PB23032491777802100WEB       KUPOS               0000000083 20230323162001        000000000 00000000000000000004500000000000000000000000045000DA                            C       0000000000000000000000
02000548742XXXXXX3900000000000 00001217797403913680000000000000PB23032491777802100WEB       KUPOS               0000000083 20230323162001        000000000 00000000000000000004500000000000000000000000045000DA                            C       0000000000000000000000
02000548742XXXXXX3900000000000 00001217820802987910000000000000PB23032491778752100WEB       KUPOS               0000000083 20230323163001        000000000 00000000000000000004635000000000000000000000046350DA                            C       0000000000000000000000
02000416538XXXXXX6546000000000 00001217819205326510000000000000PB23032491778682100          KUPOS               0000000067 20230323162936        000000000 00000000000000000000400000000000000000000000004000DA                            D       0000000000000000000000
02000559809XXXXXX6151000000000 00001217837103164030000000000000PB23032491779342100COMPRA INT KUPOS    CL        0000000068 20230323163529        000000000 00000000000000000000400000000000000000000000004000DA                            C       0000000000000000000000
020000000000000000000000000000 00001217948406548640000000000000PB23032491783232100          KUPOS               0000000001 20230323171205        000000000 00000000000000000001030000000000000000000000010300DA                            C       0000000000000000000000
02000522468XXXXXX8152000000000 00001217951301729450000000000000PB23032491783042100WEB       KUPOS               0000000083 20230323171008        000000000 00000000000000000000700000000000000000000000007000DA                            C       0000000000000000000000
02000522468XXXXXX8152000000000 00001217954804116910000000000000PB23032491783042100WEB       KUPOS               0000000083 20230323171008        000000000 00000000000000000000700000000000000000000000007000DA                            C       0000000000000000000000
02000412003XXXXXX5596000000000 00001217956201103040000000000000PB23032491783522100WEB       KUPOS               00000000Q5 20230323171448        000000000 00000000000000000001819000000000000000000000018190DA                            D       0000000000000000000000
02000512269XXXXXX3111000000000 00001217970706509670000000000000P1679602793e0812100WEB       KUPOS               0000000051 20230323171958        000000000 00000000000000000007470000000000000000000000074700DA                            C       0000000000000000000000
020589693XXXXXXXX6020000000000 00001217983903620570000000000000PB23032491784322100COMPRA INT KUPOS    CL        0000000012 20230323172412        000000000 00000000000000000000580000000000000000000000005800DA                            D       0000000000000000000000
02000548742XXXXXX9988000000000 00001217986205669160000000000000PB23032491784322100WEB       KUPOS               0000000083 20230323172412        000000000 00000000000000000000580000000000000000000000005800DA                            C       0000000000000000000000
02000434559XXXXXX9538000000000 00001218014605785830000000000000PB23032491785702100WEB       KUPOS               00000000Q5 20230323173601        000000000 00000000000000000004200000000000000000000000042000DA                            D       0000000000000000000000
02000548742XXXXXX9453000000000 00001218039806092410000000000000PB23032491786612100WEB       KUPOS               0000000083 20230323174523        000000000 00000000000000000001236000000000000000000000012360DA                            C       0000000000000000000000
02000529881XXXXXX2008000000000 00001218040505063510000000000000PB23032491786482100WEB       KUPOS               0000000051 20230323174334        000000000 00000000000000000002575000000000000000000000025750DA                            C       0000000000000000000000
02000548742XXXXXX9453000000000 00001218045203466830000000000000PB23032491786612100WEB       KUPOS               0000000083 20230323174523        000000000 00000000000000000001236000000000000000000000012360DA                            C       0000000000000000000000
02000440612XXXXXX0486000000000 00001218050202546980000000000000PB23032491786962100WEB       KUPOS               0000000046 20230323174917        000000000 00000000000000000000824000000000000000000000008240DA                            D       0000000000000000000000
02000440612XXXXXX0486000000000 00001218056009899470000000000000PB23032491786962100WEB       KUPOS               0000000046 20230323174917        000000000 00000000000000000000824000000000000000000000008240DA                            D       0000000000000000000000
02000434503XXXXXX2028000000000 00001218072202442490000000000000PB23032491787732100WEB       KUPOS               00000000S9 20230323175737        000000000 00000000000000000002140000000000000000000000021400DA                            D       0000000000000000000000
02000548742XXXXXX3232000000000 00001218087602784140000000000000PB23032491788342100WEB       KUPOS               0000000083 20230323180354        000000000 00000000000000000003632000000000000000000000036320DA                            C       0000000000000000000000
02000548742XXXXXX3232000000000 00001218094401522220000000000000PB23032491788342100WEB       KUPOS               0000000083 20230323180354        000000000 00000000000000000003632000000000000000000000036320DA                            C       0000000000000000000000
02000559202XXXXXX3224000000000 00001218099205878160000000000000PB23032491788342100WEB       KUPOS               0000000014 20230323180354        000000000 00000000000000000003632000000000000000000000036320DA                            C       0000000000000000000000
02000548742XXXXXX2784000000000 00001218100609775600000000000000PB23032491788682100WEB       KUPOS               0000000083 20230323180717        000000000 00000000000000000001648000000000000000000000016480DA                            C       0000000000000000000000
02000559202XXXXXX3744000000000 00001218139406559970000000000000PB23032491790102100WEB       KUPOS               0000000057 20230323182034        000000000 00000000000000000003120000000000000000000000031200DA                            C       0000000000000000000000
02000559202XXXXXX3744000000000 00001218146708713670000000000000PB23032491790592100WEB       KUPOS               0000000057 20230323182457        000000000 00000000000000000003120000000000000000000000031200DA                            C       0000000000000000000000
02000421102XXXXXX0001000000000 00001218172106512090000000000000PB23032491791582100COMPRA INT KUPOS    CL        0000000083 20230323183456        000000000 00000000000000000001340000000000000000000000013400DA                            D       0000000000000000000000
02000559202XXXXXX1249000000000 00001218194808829080000000000000PB23032491791692100WEB       KUPOS               0000000057 20230323183600        000000000 00000000000000000004400000000000000000000000044000DA                            C       0000000000000000000000
02000548742XXXXXX2965000000000 00001218228300880940000000000000PB23032491793582100WEB       KUPOS               0000000083 20230323185709        000000000 00000000000000000001060000000000000000000000010600DA                            C       0000000000000000000000
02000548742XXXXXX2965000000000 00001218234007561680000000000000PB23032491793582100WEB       KUPOS               0000000083 20230323185709        000000000 00000000000000000001060000000000000000000000010600DA                            C       0000000000000000000000
02000548742XXXXXX2965000000000 00001218236901548050000000000000PB23032491793582100WEB       KUPOS               0000000083 20230323185709        000000000 00000000000000000001060000000000000000000000010600DA                            C       0000000000000000000000
02000559202XXXXXX0544000000000 00001218241305021210000000000000PB23032491793902100WEB       KUPOS               0000000057 20230323185948        000000000 00000000000000000004000000000000000000000000040000DA                            C       0000000000000000000000
02000533187XXXXXX2197000000000 00001218247004847280000000000000PB23032491794302100WEB       KUPOS               0000000083 20230323190432        000000000 00000000000000000000700000000000000000000000007000DA                            D       0000000000000000000000
02000533187XXXXXX2197000000000 00001218253103301830000000000000PB23032491794302100WEB       KUPOS               0000000083 20230323190432        000000000 00000000000000000000700000000000000000000000007000DA                            D       0000000000000000000000
02000409767XXXXXX4354000000000 00001218269908669760000000000000PB23032491794912100WEB       KUPOS               00000000S9 20230323191246        000000000 00000000000000000003580000000000000000000000035800DA                            D       0000000000000000000000
02000533187XXXXXX3235000000000 00001218407107950520000000000000PB23032491800402100WEB       KUPOS               0000000083 20230323200938        000000000 00000000000000000008000000000000000000000000080000DA                            D       0000000000000000000000
02000522468XXXXXX6720000000000 00001218436102632210000000000000PB23032491801442100WEB       KUPOS               0000000083 20230323202011        000000000 00000000000000000013132000000000000000000000131320DA                            C       0000000000000000000000
02000434559XXXXXX8077000000000 00001218428009542000000000000000PB23032491800402100WEB       KUPOS               0000000033 20230323200938        000000000 00000000000000000008000000000000000000000000080000DA                            D       0000000000000000000000
02000548742XXXXXX4440000000000 00001218469905143880000000000000PB23032491802662100WEB       KUPOS               0000000083 20230323203442        000000000 00000000000000000001500000000000000000000000015000DA                            C       0000000000000000000000
02000548742XXXXXX4440000000000 00001218477001511990000000000000PB23032491802662100WEB       KUPOS               0000000083 20230323203442        000000000 00000000000000000001500000000000000000000000015000DA                            C       0000000000000000000000
02000522468XXXXXX9794000000000 00001218505404000400000000000000P167961515388662100WEB       KUPOS               0000000083 20230323204554        000000000 00000000000000000003679000000000000000000000036790DA                            C       0000000000000000000000
02000512269XXXXXX3653000000000 00001218515507575630000000000000PB23032491804452100WEB       KUPOS               0000000083 20230323204912        000000000 00000000000000000007500000000000000000000000075000DA                            C       0000000000000000000000
02000533187XXXXXX6857000000000 00001218518208896040000000000000PB23032491804562100WEB       KUPOS               0000000083 20230323205003        000000000 00000000000000000000600000000000000000000000006000DA                            D       0000000000000000000000
02000512269XXXXXX3653000000000 00001218527007759710000000000000PB23032491804452100WEB       KUPOS               0000000083 20230323204912        000000000 00000000000000000007500000000000000000000000075000DA                            C       0000000000000000000000
02000475776XXXXXX6951000000000 00001215631507416880000000000000PB23032391717692100WEB       KUPOS               0000000000 20230322210000        000000000 00000000000000000001648000000000002310000000016205DA                            C       0000000000000000000000
02000434559XXXXXX7475000000000 00001215686708047870000000000000PB23032391719002100WEB       KUPOS               0000000000 20230322212136        000000000 00000000000000000001260000000000001510000000012420DA                            D       0000000000000000000000
02000559779XXXXXX9783000000000 00001215699404503950000000000000PB23032391719392100WEB       KUPOS               0000000000 20230322212511        000000000 00000000000000000000824000000000000990000000008122DA                            D       0000000000000000000000
02000559779XXXXXX9783000000000 00001215699404541900000000000000PB23032391719394200WEB       KUPOS               0000000000 20230322212511        000000000 00000000000000000000824000000000000990000000008122DA                            D       0000000000000000000000
02000434559XXXXXX5996000000000 00001215751009225770000000000000PB23032391720872100WEB       KUPOS               0000000000 20230322214248        000000000 00000000000000000000824000000000000990000000008122DA                            D       0000000000000000000000
02000475774XXXXXX7157000000000 00001215783206660700000000000000PB23032391721684200WEB       KUPOS               0000000000 20230322215245        000000000 00000000000000000001800000000000002160000000017743DA                            D       0000000000000000000000
02000475774XXXXXX4662000000000 00001215785207794870000000000000PB23032391721722100WEB       KUPOS               0000000000 20230322215327        000000000 00000000000000000003296000000000003960000000032489DA                            D       0000000000000000000000
02000475774XXXXXX7157000000000 00001215794206790270000000000000PB23032391721942100WEB       KUPOS               0000000000 20230322215627        000000000 00000000000000000001800000000000002160000000017743DA                            D       0000000000000000000000
02000475774XXXXXX7157000000000 00001215841509053770000000000000P1679533830ff362100WEB       KUPOS               0000000000 20230322221031        000000000 00000000000000000001800000000000002160000000017743DA                            D       0000000000000000000000
02000475774XXXXXX7157000000000 00001215837701866770000000000000P1679533830ff364200WEB       KUPOS               0000000000 20230322221031        000000000 00000000000000000001800000000000002160000000017743DA                            D       0000000000000000000000
02000475774XXXXXX8378000000000 00001215843903719320000000000000PB23032391723222100WEB       KUPOS               0000000000 20230322221246        000000000 00000000000000000002000000000000002400000000019714DA                            D       0000000000000000000000
02000434559XXXXXX5307000000000 00001215879107949360000000000000PB23032391724282100WEB       KUPOS               0000000000 20230322222549        000000000 00000000000000000001800000000000002160000000017743DA                            D       0000000000000000000000
02000434559XXXXXX5250000000000 00001215888804435860000000000000PB23032391724502100WEB       KUPOS               0000000000 20230322222845        000000000 00000000000000000001500000000000001800000000014786DA                            D       0000000000000000000000
02000434561XXXXXX4198000000000 00001215897705051890000000000000PB23032391724902100WEB       KUPOS               0000000000 20230322223233        000000000 00000000000000000001500000000000001800000000014786DA                            D       0000000000000000000000
02000533187XXXXXX2504000000000 00001215900409613910000000000000PB23032391725012100WEB       KUPOS               0000000000 20230322223335        000000000 00000000000000000001236000000000001480000000012183DA                            D       0000000000000000000000
02000434561XXXXXX4198000000000 00001215897704930780000000000000PB23032391724904200WEB       KUPOS               0000000000 20230322223233        000000000 00000000000000000001500000000000001800000000014786DA                            D       0000000000000000000000
02000434559XXXXXX6023000000000 00001215956105632960000000000000PB23032391726192100WEB       KUPOS               0000000000 20230322224833        000000000 00000000000000000001900000000000002280000000018729DA                            D       0000000000000000000000
02000475774XXXXXX1471000000000 00001215971208764510000000000000PB23032391726822100WEB       KUPOS               0000000000 20230322225527        000000000 00000000000000000003210000000000003850000000031642DA                            D       0000000000000000000000
02000440612XXXXXX3623000000000 00001215981902254560000000000000PB23032391727242100WEB       KUPOS               0000000000 20230322225859        000000000 00000000000000000001100000000000001320000000010843DA                            D       0000000000000000000000
02000434559XXXXXX1759000000000 00001216005206729940000000000000PB23032391728092100WEB       KUPOS               0000000000 20230322230813        000000000 00000000000000000003600000000000004320000000035486DA                            D       0000000000000000000000
02000434956XXXXXX6390000000000 00001216012509169230000000000000PB23032391728452100WEB       KUPOS               0000000000 20230322231140        000000000 00000000000000000004600000000000006440000000045234DA                            C       0000000000000000000000
02000434559XXXXXX6421000000000 00001216035302038650000000000000PB23032391728992100WEB       KUPOS               0000000000 20230322231855        000000000 00000000000000000001500000000000001800000000014786DA                            D       0000000000000000000000
02000475774XXXXXX4757000000000 00001216045805398450000000000000PB23032391729482100WEB       KUPOS               0000000000 20230322232633        000000000 00000000000000000001290000000000001550000000012716DA                            D       0000000000000000000000
02000456460XXXXXX7991000000000 00001216045100053810000000000000PB23032391729462100WEB       KUPOS               0000000000 20230322232616        000000000 00000000000000000000700000000000000980000000006883DA                            C       0000000000000000000000
02000558727XXXXXX7970000000000 00001216051703074150000000000000PB23032391729622100WEB       KUPOS               0000000000 20230322232841        000000000 00000000000000000001400000000000001960000000013767DA                            C       0000000000000000000000
02000475775XXXXXX7598000000000 00001216071207308720000000000000P167953906338132100WEB       KUPOS               0000000000 20230322233747        000000000 00000000000000000001100000000000001320000000010843DA                            D       0000000000000000000000
02000434559XXXXXX9219000000000 00001216102103915660000000000000PB23032391731172100WEB       KUPOS               0000000000 20230322235455        000000000 00000000000000000002500000000000003000000000024643DA                            D       0000000000000000000000
02000525384XXXXXX5139000000000 00001216131801249290000000000000PB23032391732122100WEB       KUPOS               0000000000 20230323001515        000000000 00000000000000000000824000000000000990000000008122DA                            D       0000000000000000000000
02000434559XXXXXX3623000000000 00001216143807083130000000000000PB23032391732672100WEB       KUPOS               0000000000 20230323002513        000000000 00000000000000000003000000000000003600000000029572DA                            D       0000000000000000000000
02000434559XXXXXX2454000000000 00001216165108966900000000000000PB23032391733542100WEB       KUPOS               0000000000 20230323004710        000000000 00000000000000000000500000000000000600000000004929DA                            D       0000000000000000000000
02000434559XXXXXX0314000000000 00001216191507104800000000000000PB23032391734202100WEB       KUPOS               0000000000 20230323012612        000000000 00000000000000000004120000000000004940000000040612DA                            D       0000000000000000000000
02000533187XXXXXX1066000000000 00001216266507287380000000000000PB23032391736292100WEB       KUPOS               0000000000 20230323064242        000000000 00000000000000000001133000000000001360000000011168DA                            D       0000000000000000000000
02000533187XXXXXX6562000000000 00001216283501063380000000000000PB23032391736772100WEB       KUPOS               0000000000 20230323070956        000000000 00000000000000000003811000000000004570000000037566DA                            D       0000000000000000000000
02000538759XXXXXX8069000000000 00001216289000132400000000000000PB23032391736902100WEB       KUPOS               0000000000 20230323071608        000000000 00000000000000000000824000000000000990000000008122DA                            D       0000000000000000000000
02000434559XXXXXX5548000000000 00001216336100453120000000000000PB23032391738042100WEB       KUPOS               0000000000 20230323080157        000000000 00000000000000000002400000000000002880000000023657DA                            D       0000000000000000000000
02000434559XXXXXX7712000000000 00001216337504261810000000000000PB23032391738092100WEB       KUPOS               0000000000 20230323080310        000000000 00000000000000000002300000000000002760000000022672DA                            D       0000000000000000000000
02000434559XXXXXX7796000000000 00001216341600480850000000000000PB23032391738242100WEB       KUPOS               0000000000 20230323080638        000000000 00000000000000000000630000000000000760000000006210DA                            D       0000000000000000000000
02000559800XXXXXX9591000000000 00001216357704182040000000000000PB23032391738642100WEB       KUPOS               0000000000 20230323081653        000000000 00000000000000000001100000000000001540000000010817DA                            C       0000000000000000000000
02000434559XXXXXX1782000000000 00001216364304829670000000000000PB23032391738942100WEB       KUPOS               0000000000 20230323082140        000000000 00000000000000000001500000000000001800000000014786DA                            D       0000000000000000000000
02000524101XXXXXX0330000000000 00001216367801701390000000000000PB23032391739022100WEB       KUPOS               0000000000 20230323082312        000000000 00000000000000000005768000000000006920000000056856DA                            D       0000000000000000000000
02000434559XXXXXX5318000000000 00001216393603450120000000000000PB23032391739672100WEB       KUPOS               0000000000 20230323083937        000000000 00000000000000000004204000000000005040000000041440DA                            D       0000000000000000000000
02000434559XXXXXX7666000000000 00001216399704556400000000000000PB23032391739822100WEB       KUPOS               0000000000 20230323084301        000000000 00000000000000000000824000000000000990000000008122DA                            D       0000000000000000000000
02000451368XXXXXX9545000000000 00001216402108244050000000000000PB23032391739642100WEB       KUPOS               0000000000 20230323083833        000000000 00000000000000000002060000000000002470000000020306DA                            D       0000000000000000000000
02000475774XXXXXX4965000000000 00001216401201212220000000000000PB23032391739852100WEB       KUPOS               0000000000 20230323084334        000000000 00000000000000000000721000000000000870000000007107DA                            D       0000000000000000000000
02000451368XXXXXX4406000000000 00001216429502092660000000000000PB23032391740372100WEB       KUPOS               0000000000 20230323085411        000000000 00000000000000000001100000000000001320000000010843DA                            D       0000000000000000000000
02000434561XXXXXX6299000000000 00001216457206848690000000000000PB23032391741462100WEB       KUPOS               0000000000 20230323091004        000000000 00000000000000000023500000000000028200000000231644DA                            D       0000000000000000000000
02000434559XXXXXX5741000000000 00001216464503539090000000000000PB23032391741592100WEB       KUPOS               0000000000 20230323091235        000000000 00000000000000000002400000000000002880000000023657DA                            D       0000000000000000000000
02000440612XXXXXX9596000000000 00001216466904631950000000000000PB23032391741652100WEB       KUPOS               0000000000 20230323091352        000000000 00000000000000000000824000000000000990000000008122DA                            D       0000000000000000000000
02000434559XXXXXX2962000000000 00001216507105483090000000000000PB23032391742862100WEB       KUPOS               0000000000 20230323092845        000000000 00000000000000000001790000000000002150000000017644DA                            D       0000000000000000000000
02000434559XXXXXX0774000000000 00001216533108912940000000000000PB23032391743552100WEB       KUPOS               0000000000 20230323093732        000000000 00000000000000000001300000000000001560000000012814DA                            D       0000000000000000000000
02000554926XXXXXX0454000000000 00001216545605056880000000000000PB23032391743972100WEB       KUPOS               0000000000 20230323094143        000000000 00000000000000000002575000000000003610000000025321DA                            C       0000000000000000000000
02000533187XXXXXX9498000000000 00001216565608602850000000000000P16795756784b162100WEB       KUPOS               0000000000 20230323094810        000000000 00000000000000000021520000000000025820000000212127DA                            D       0000000000000000000000
02000446867XXXXXX0519000000000 00001216585401937460000000000000PB23032391744512100WEB       KUPOS               0000000000 20230323095021        000000000 00000000000000000000900000000000001260000000008850DA                            C       0000000000000000000000
02000434559XXXXXX6162000000000 00001216642707434220000000000000PB23032391746612100WEB       KUPOS               0000000000 20230323101625        000000000 00000000000000000001600000000000001920000000015772DA                            D       0000000000000000000000
02000475776XXXXXX6624000000000 00001216643706508660000000000000PB23032391746632100WEB       KUPOS               0000000000 20230323101646        000000000 00000000000000000001600000000000002240000000015733DA                            C       0000000000000000000000
02000434559XXXXXX3255000000000 00001216654904120460000000000000PB23032391747022100WEB       KUPOS               0000000000 20230323102123        000000000 00000000000000000001800000000000002160000000017743DA                            D       0000000000000000000000
02000529883XXXXXX8004000000000 00001216657304043970000000000000PB23032391747052100WEB       KUPOS               0000000000 20230323102203        000000000 00000000000000000001180000000000001650000000011603DA                            C       0000000000000000000000
02000477289XXXXXX9393000000000 00001216668801958030000000000000PB23032391747282100COMPRA INT KUPOS    CL        0000000000 20230323102513        000000000 00000000000000000001400000000000003360000000013600DA                            C       0000000000000000000000
02000522468XXXXXX8975000000000 00001216686709296720000000000000PB23032391747542100WEB       KUPOS               0000000000 20230323102722        000000000 00000000000000000001236000000000001730000000012154DA                            C       0000000000000000000000
02000554926XXXXXX0454000000000 00001216695801082280000000000000PB23032391748232100WEB       KUPOS               0000000000 20230323103513        000000000 00000000000000000002575000000000003610000000025321DA                            C       0000000000000000000000
02000475774XXXXXX9725000000000 00001216691501572320000000000000PB23032391747742100WEB       KUPOS               0000000000 20230323102935        000000000 00000000000000000003000000000000003600000000029572DA                            D       0000000000000000000000
02000434559XXXXXX9571000000000 00001216701801274150000000000000PB23032391748352100WEB       KUPOS               0000000000 20230323103732        000000000 00000000000000000001500000000000001800000000014786DA                            D       0000000000000000000000
02000434559XXXXXX0505000000000 00001216718505119120000000000000PB23032391748732100WEB       KUPOS               0000000000 20230323104244        000000000 00000000000000000001648000000000001980000000016245DA                            D       0000000000000000000000
02000434559XXXXXX6216000000000 00001216741306055620000000000000PB23032391749152100WEB       KUPOS               0000000000 20230323104909        000000000 00000000000000000000618000000000000740000000006092DA                            D       0000000000000000000000
02000549162XXXXXX7017000000000 00001216742304668060000000000000PB23032391749172100WEB       KUPOS               0000000000 20230323104914        000000000 00000000000000000001200000000000001680000000011800DA                            C       0000000000000000000000
02000434559XXXXXX5996000000000 00001216780008640300000000000000PB23032391750192100WEB       KUPOS               0000000000 20230323110147        000000000 00000000000000000000824000000000000990000000008122DA                            D       0000000000000000000000
02000434925XXXXXX2015000000000 00001216790200484300000000000000PB23032391750382100COMPRA INT KUPOS    CL        0000000000 20230323110405        000000000 00000000000000000003000000000000007200000000029143DA                            C       0000000000000000000000
02000549162XXXXXX7017000000000 00001216792406295250000000000000PB23032391750492100WEB       KUPOS               0000000000 20230323110439        000000000 00000000000000000001500000000000002100000000014750DA                            C       0000000000000000000000
02000434559XXXXXX9489000000000 00001216808007305520000000000000PB23032391750792100WEB       KUPOS               0000000000 20230323110915        000000000 00000000000000000001605000000000001930000000015821DA                            D       0000000000000000000000
02000434559XXXXXX7209000000000 00001216806204898690000000000000PB23032391750332100WEB       KUPOS               0000000000 20230323110341        000000000 00000000000000000001892000000000002270000000018650DA                            D       0000000000000000000000
02000434561XXXXXX4086000000000 00001216831703897120000000000000PB23032391751332100WEB       KUPOS               0000000000 20230323111623        000000000 00000000000000000001250000000000001500000000012322DA                            D       0000000000000000000000
02000456918XXXXXX3189000000000 00001216878005425260000000000000PB23032391752572100WEB       KUPOS               0000000000 20230323113107        000000000 00000000000000000001600000000000002240000000015733DA                            C       0000000000000000000000
02000434559XXXXXX7609000000000 00001216874005819570000000000000PB23032391752512100WEB       KUPOS               0000000000 20230323113023        000000000 00000000000000000001854000000000002600000000018231DA                            C       0000000000000000000000
02000409152XXXXXX3346000000000 00001216891808250550000000000000PB23032391752992100WEB       KUPOS               0000000000 20230323113528        000000000 00000000000000000000900000000000001260000000008850DA                            C       0000000000000000000000
02000475774XXXXXX8378000000000 00001216904803277750000000000000PB23032391753292100WEB       KUPOS               0000000000 20230323113945        000000000 00000000000000000003296000000000003960000000032489DA                            D       0000000000000000000000
02000434925XXXXXX2015000000000 00001216923702928510000000000000PB23032391753742100COMPRA INT KUPOS    CL        0000000000 20230323114554        000000000 00000000000000000025235000000000060560000000245143DA                            C       0000000000000000000000
02000533187XXXXXX2732000000000 00001216947208515960000000000000PB23032391754392100WEB       KUPOS               0000000000 20230323115258        000000000 00000000000000000003000000000000003600000000029572DA                            D       0000000000000000000000
02000434559XXXXXX0161000000000 00001216973209862440000000000000PB23032391754842100WEB       KUPOS               0000000000 20230323115714        000000000 00000000000000000004120000000000004940000000040612DA                            D       0000000000000000000000
02000440612XXXXXX7006000000000 00001216985208322780000000000000PB23032391755462100WEB       KUPOS               0000000000 20230323120441        000000000 00000000000000000003800000000000004560000000037457DA                            D       0000000000000000000000
02000434559XXXXXX6421000000000 00001216035303440670000000000000PB23032391728992120WEB       KUPOS               0000000000 20230322231855        000000000 00000000000000000001215000000000001460000000011976DA                            D       0000000000000000000000
02000434559XXXXXX8065000000000 00001217033503127200000000000000PB23032391756582100WEB       KUPOS               0000000000 20230323122000        000000000 00000000000000000000618000000000000740000000006092DA                            D       0000000000000000000000
02000434559XXXXXX0931000000000 00001217054607663640000000000000PB23032391757182100WEB       KUPOS               0000000000 20230323122611        000000000 00000000000000000002060000000000002470000000020306DA                            D       0000000000000000000000
02000529883XXXXXX1017000000000 00001217063606675970000000000000PB23032391757362100WEB       KUPOS               0000000000 20230323122904        000000000 00000000000000000001990000000000002790000000019568DA                            C       0000000000000000000000
02000440612XXXXXX1383000000000 00001217077503198100000000000000PB23032391757882100WEB       KUPOS               0000000000 20230323123346        000000000 00000000000000000004326000000000005190000000042642DA                            D       0000000000000000000000
02000434560XXXXXX4937000000000 00001217085503714870000000000000PB23032391758032100WEB       KUPOS               0000000000 20230323123559        000000000 00000000000000000003600000000000004320000000035486DA                            D       0000000000000000000000
02000512269XXXXXX4965000000000 00001217107206667900000000000000PB23032391758332100WEB       KUPOS               0000000000 20230323124001        000000000 00000000000000000001400000000000001960000000013767DA                            C       0000000000000000000000
02000533187XXXXXX7790000000000 00001217131209782680000000000000PB23032391758892100WEB       KUPOS               0000000000 20230323124638        000000000 00000000000000000002575000000000003090000000025382DA                            D       0000000000000000000000
02000434559XXXXXX2596000000000 00001217185105404030000000000000PB23032391760272100WEB       KUPOS               0000000000 20230323130243        000000000 00000000000000000001800000000000002160000000017743DA                            D       0000000000000000000000
02000451368XXXXXX7808000000000 00001217186808287350000000000000PB23032391760292100WEB       KUPOS               0000000000 20230323130306        000000000 00000000000000000000800000000000000960000000007886DA                            D       0000000000000000000000
02000533187XXXXXX8004000000000 00001217193809583680000000000000PB23032391760462100WEB       KUPOS               0000000000 20230323130507        000000000 00000000000000000001391000000000001670000000013711DA                            D       0000000000000000000000
02000475774XXXXXX0098000000000 00001217206103925840000000000000PB23032391760762100WEB       KUPOS               0000000000 20230323130910        000000000 00000000000000000000610000000000000730000000006013DA                            D       0000000000000000000000
02000525384XXXXXX8641000000000 00001217203403440200000000000000P1679587703581b2100WEB       KUPOS               0000000000 20230323130825        000000000 00000000000000000001799000000000002160000000017733DA                            D       0000000000000000000000
02000434559XXXXXX9294000000000 00001217203301239630000000000000PB23032391760642100WEB       KUPOS               0000000000 20230323130821        000000000 00000000000000000000690000000000000830000000006801DA                            D       0000000000000000000000
02000412003XXXXXX6858000000000 00001217216607652290000000000000PB23032391760772100WEB       KUPOS               0000000000 20230323130913        000000000 00000000000000000001080000000000001300000000010646DA                            D       0000000000000000000000
02000434559XXXXXX1639000000000 00001217224808619310000000000000PB23032391761242100WEB       KUPOS               0000000000 20230323131557        000000000 00000000000000000001800000000000002160000000017743DA                            D       0000000000000000000000
02000434559XXXXXX0677000000000 00001217227303862700000000000000PB23032391761332100WEB       KUPOS               0000000000 20230323131701        000000000 00000000000000000000630000000000000760000000006210DA                            D       0000000000000000000000
02000440612XXXXXX1383000000000 00001217238402799860000000000000PB23032391761572100WEB       KUPOS               0000000000 20230323132057        000000000 00000000000000000001000000000000001200000000009857DA                            D       0000000000000000000000
02000475774XXXXXX5811000000000 00001217236809864750000000000000PB23032391761532100WEB       KUPOS               0000000000 20230323132023        000000000 00000000000000000000392000000000000470000000003864DA                            D       0000000000000000000000
02000440612XXXXXX9349000000000 00001217247102916760000000000000PB23032391761772100WEB       KUPOS               0000000000 20230323132427        000000000 00000000000000000001400000000000001680000000013800DA                            D       0000000000000000000000
02000529881XXXXXX6006000000000 00001217275404839430000000000000PB23032391762652100WEB       KUPOS               0000000000 20230323133321        000000000 00000000000000000004050000000000005670000000039825DA                            C       0000000000000000000000
02000434559XXXXXX6678000000000 00001217277906175200000000000000PB23032391762702100WEB       KUPOS               0000000000 20230323133408        000000000 00000000000000000001500000000000001800000000014786DA                            D       0000000000000000000000
02000434559XXXXXX5819000000000 00001217308208588780000000000000PB23032391763152100WEB       KUPOS               0000000000 20230323133953        000000000 00000000000000000004420000000000005300000000043569DA                            D       0000000000000000000000
02000524101XXXXXX5586000000000 00001217307906053130000000000000PB23032391763392100WEB       KUPOS               0000000000 20230323134241        000000000 00000000000000000000950000000000001140000000009364DA                            D       0000000000000000000000
02000434956XXXXXX5986000000000 00001217312404163920000000000000PB23032391763522100WEB       KUPOS               0000000000 20230323134402        000000000 00000000000000000002800000000000003920000000027534DA                            C       0000000000000000000000
02000434559XXXXXX8663000000000 00001217319405949810000000000000PB23032391763702100WEB       KUPOS               0000000000 20230323134611        000000000 00000000000000000001000000000000001200000000009857DA                            D       0000000000000000000000
02000533187XXXXXX2732000000000 00001217340507048480000000000000PB23032391764132100WEB       KUPOS               0000000000 20230323135201        000000000 00000000000000000000927000000000001110000000009138DA                            D       0000000000000000000000
02000409767XXXXXX2787000000000 00001217341603272110000000000000P167959039481152100WEB       KUPOS               0000000000 20230323135316        000000000 00000000000000000002472000000000002970000000024367DA                            D       0000000000000000000000
02000434559XXXXXX4631000000000 00001217360005101980000000000000PB23032391764652100WEB       KUPOS               0000000000 20230323135925        000000000 00000000000000000005562000000000006670000000054826DA                            D       0000000000000000000000
02000450881XXXXXX6760000000000 00001217369606456790000000000000PB23032391764992100WEB       KUPOS               0000000000 20230323140252        000000000 00000000000000000003000000000000004200000000029500DA                            C       0000000000000000000000
02000434559XXXXXX0048000000000 00001217390807935800000000000000PB23032391765562100WEB       KUPOS               0000000000 20230323140924        000000000 00000000000000000002060000000000002470000000020306DA                            D       0000000000000000000000
02000434559XXXXXX2322000000000 00001217402202132210000000000000PB23032391765922100WEB       KUPOS               0000000000 20230323141228        000000000 00000000000000000000900000000000001080000000008871DA                            D       0000000000000000000000
02000434559XXXXXX2213000000000 00001217418508104710000000000000PB23032391766392100WEB       KUPOS               0000000000 20230323141709        000000000 00000000000000000000560000000000000670000000005520DA                            D       0000000000000000000000
02000434559XXXXXX5916000000000 00001217409105535290000000000000PB23032391766102100WEB       KUPOS               0000000000 20230323141413        000000000 00000000000000000001133000000000001360000000011168DA                            D       0000000000000000000000
02000448165XXXXXX1643000000000 00001217412408008790000000000000PB23032391765892100WEB       KUPOS               0000000000 20230323141214        000000000 00000000000000000003090000000000004330000000030385DA                            C       0000000000000000000000
02000434559XXXXXX9265000000000 00001217423503948830000000000000PB23032391766532100WEB       KUPOS               0000000000 20230323141823        000000000 00000000000000000000618000000000000740000000006092DA                            D       0000000000000000000000
02000475774XXXXXX9736000000000 00001217431104631240000000000000PB23032391766712100WEB       KUPOS               0000000000 20230323142022        000000000 00000000000000000001500000000000001800000000014786DA                            D       0000000000000000000000
02000434559XXXXXX2289000000000 00001217431401015360000000000000PB23032391766722100WEB       KUPOS               0000000000 20230323142023        000000000 00000000000000000000700000000000000840000000006900DA                            D       0000000000000000000000
02000434559XXXXXX1211000000000 00001217438401922630000000000000PB23032391766932100WEB       KUPOS               0000000000 20230323142253        000000000 00000000000000000002800000000000003360000000027600DA                            D       0000000000000000000000
02000475774XXXXXX6358000000000 00001217435101871440000000000000PB23032391766812100WEB       KUPOS               0000000000 20230323142153        000000000 00000000000000000004204000000000005040000000041440DA                            D       0000000000000000000000
02000496617XXXXXX6069000000000 00001217456705273670000000000000PB23032391767402100WEB       KUPOS               0000000000 20230323142816        000000000 00000000000000000000900000000000001260000000008850DA                            C       0000000000000000000000
02000533187XXXXXX2485000000000 00001217467509323470000000000000P167959270246262100WEB       KUPOS               0000000000 20230323143144        000000000 00000000000000000003990000000000004790000000039330DA                            D       0000000000000000000000
02000434559XXXXXX5764000000000 00001217466107952090000000000000PB23032391765932100WEB       KUPOS               0000000000 20230323141232        000000000 00000000000000000003000000000000003600000000029572DA                            D       0000000000000000000000
02000533187XXXXXX2119000000000 00001217478806676970000000000000PB23032391767982100WEB       KUPOS               0000000000 20230323143504        000000000 00000000000000000003990000000000004790000000039330DA                            D       0000000000000000000000
02000434559XXXXXX0027000000000 00001217479407850330000000000000PB23032391768022100WEB       KUPOS               0000000000 20230323143513        000000000 00000000000000000000900000000000001080000000008871DA                            D       0000000000000000000000
02000451368XXXXXX6601000000000 00001217485405688570000000000000PB23032391768292100WEB       KUPOS               0000000000 20230323143658        000000000 00000000000000000001854000000000002220000000018275DA                            D       0000000000000000000000
02000434559XXXXXX5450000000000 00001217502905265650000000000000PB23032391768822100WEB       KUPOS               0000000000 20230323144227        000000000 00000000000000000001612500000000001940000000015895DA                            D       0000000000000000000000
02000434559XXXXXX8482000000000 00001217510209514830000000000000PB23032391769102100WEB       KUPOS               0000000000 20230323144444        000000000 00000000000000000000824000000000000990000000008122DA                            D       0000000000000000000000
02000434559XXXXXX5285000000000 00001217506904166630000000000000PB23032391769002100WEB       KUPOS               0000000000 20230323144341        000000000 00000000000000000000860000000000001030000000008477DA                            D       0000000000000000000000
02000549070XXXXXX4329000000000 00001217521600377200000000000000PB23032391769542100WEB       KUPOS               0000000000 20230323144851        000000000 00000000000000000000309000000000000430000000003039DA                            C       0000000000000000000000
02000548569XXXXXX0199000000000 00001217535003477330000000000000PB23032391769852100WEB       KUPOS               0000000000 20230323145135        000000000 00000000000000000001854000000000002220000000018275DA                            D       0000000000000000000000
02000521892XXXXXX8393000000000 00001217552500177260000000000000PB23032391770522100WEB       KUPOS               0000000000 20230323145848        000000000 00000000000000000001030000000000001440000000010128DA                            C       0000000000000000000000
02000548742XXXXXX7373000000000 00001217555202481430000000000000PB23032391770622100WEB       KUPOS               0000000000 20230323145932        000000000 00000000000000000002000000000000002800000000019667DA                            C       0000000000000000000000
02000434559XXXXXX4250000000000 00001217570801273710000000000000PB23032391770902100WEB       KUPOS               0000000000 20230323150316        000000000 00000000000000000000618000000000000740000000006092DA                            D       0000000000000000000000
02000456460XXXXXX2814000000000 00001217596909399820000000000000PB23032391771962100WEB       KUPOS               0000000000 20230323151451        000000000 00000000000000000005045000000000007060000000049610DA                            C       0000000000000000000000
02000559779XXXXXX3420000000000 00001217621409304220000000000000PB23032391772722100WEB       KUPOS               0000000000 20230323152419        000000000 00000000000000000002980000000000003580000000029374DA                            D       0000000000000000000000
02000434559XXXXXX1964000000000 00001217642001595010000000000000PB23032391769872100WEB       KUPOS               0000000000 20230323145144        000000000 00000000000000000001030000000000001240000000010153DA                            D       0000000000000000000000
02000434561XXXXXX9975000000000 00001217667102306110000000000000PB23032491774092100WEB       KUPOS               0000000000 20230323154056        000000000 00000000000000000000800000000000000960000000007886DA                            D       0000000000000000000000
02000412003XXXXXX6174000000000 00001217688002866280000000000000PB23032491774762100WEB       KUPOS               0000000000 20230323154848        000000000 00000000000000000002360000000000002830000000023263DA                            D       0000000000000000000000
02000456477XXXXXX5279000000000 00001217695708426770000000000000PB23032491775052100WEB       KUPOS               0000000000 20230323155136        000000000 00000000000000000004399500000000006160000000043262DA                            C       0000000000000000000000
02000450881XXXXXX6760000000000 00001217741806563500000000000000PB23032491776492100WEB       KUPOS               0000000000 20230323160649        000000000 00000000000000000007200000000000010080000000070800DA                            C       0000000000000000000000
02000533187XXXXXX2732000000000 00001217756800818110000000000000PB23032491776992100WEB       KUPOS               0000000000 20230323161139        000000000 00000000000000000002500000000000003000000000024643DA                            D       0000000000000000000000
02000450881XXXXXX6760000000000 00001217756403261710000000000000PB23032491776982100WEB       KUPOS               0000000000 20230323161135        000000000 00000000000000000001800000000000002520000000017700DA                            C       0000000000000000000000
02000434559XXXXXX3880000000000 00001217763408332270000000000000PB23032491777242100WEB       KUPOS               0000000000 20230323161401        000000000 00000000000000000000515000000000000620000000005076DA                            D       0000000000000000000000
02000533187XXXXXX2732000000000 00001217821406983390000000000000PB23032491778772100WEB       KUPOS               0000000000 20230323163009        000000000 00000000000000000003790000000000004550000000037359DA                            D       0000000000000000000000
02000434559XXXXXX7633000000000 00001217829704875980000000000000PB23032491777342100WEB       KUPOS               0000000000 20230323161515        000000000 00000000000000000000800000000000000960000000007886DA                            D       0000000000000000000000
02000434559XXXXXX0646000000000 00001217836403032110000000000000PB23032491778982100WEB       KUPOS               0000000000 20230323163244        000000000 00000000000000000000900000000000001080000000008871DA                            D       0000000000000000000000
02000456865XXXXXX4473000000000 00001217837704588320000000000000PB23032491779362100WEB       KUPOS               0000000000 20230323163541        000000000 00000000000000000002575000000000003090000000025382DA                            D       0000000000000000000000
02000440698XXXXXX2728000000000 00001217845906509630000000000000PB23032491779422100WEB       KUPOS               0000000000 20230323163613        000000000 00000000000000000001200000000000001440000000011829DA                            D       0000000000000000000000
02000434559XXXXXX6379000000000 00001217844808220970000000000000PB23032491779592100WEB       KUPOS               0000000000 20230323163805        000000000 00000000000000000001200000000000001440000000011829DA                            D       0000000000000000000000
02000456354XXXXXX9634000000000 00001217846809484030000000000000PB23032491779732100COMPRA INT KUPOS    CL        0000000000 20230323163856        000000000 00000000000000000003000000000000007200000000029143DA                            C       0000000000000000000000
02000434559XXXXXX0767000000000 00001217857902258960000000000000PB23032491780102100WEB       KUPOS               0000000000 20230323164256        000000000 00000000000000000001030000000000001240000000010153DA                            D       0000000000000000000000
02000456865XXXXXX4473000000000 00001217885305233190000000000000PB23032491780952100WEB       KUPOS               0000000000 20230323165041        000000000 00000000000000000002575000000000003090000000025382DA                            D       0000000000000000000000
02000434559XXXXXX0632000000000 00001217925501905680000000000000PB23032491782042100WEB       KUPOS               0000000000 20230323170130        000000000 00000000000000000000900000000000001080000000008871DA                            D       0000000000000000000000
02000477041XXXXXX1836000000000 00001217925705630910000000000000PB23032491782362100WEB       KUPOS               0000000000 20230323170401        000000000 00000000000000000002266000000000002720000000022336DA                            D       0000000000000000000000
02000533187XXXXXX2732000000000 00001217929603309150000000000000PB23032491782482100WEB       KUPOS               0000000000 20230323170518        000000000 00000000000000000003679000000000004410000000036265DA                            D       0000000000000000000000
02000522832XXXXXX0701000000000 00001217932201877420000000000000PB23032491782552100WEB       KUPOS               0000000000 20230323170611        000000000 00000000000000000000824000000000001150000000008103DA                            C       0000000000000000000000
02000434559XXXXXX7909000000000 00001217952006863790000000000000PB23032491783392100WEB       KUPOS               0000000000 20230323171320        000000000 00000000000000000001612500000000001940000000015895DA                            D       0000000000000000000000
02000434560XXXXXX5228000000000 00001217952606577980000000000000PB23032491783422100WEB       KUPOS               0000000000 20230323171331        000000000 00000000000000000014832000000000017800000000146202DA                            D       0000000000000000000000
02000559779XXXXXX6539000000000 00001217987601073940000000000000PB23032491784652100WEB       KUPOS               0000000000 20230323172629        000000000 00000000000000000003638000000000004370000000035860DA                            D       0000000000000000000000
02000456918XXXXXX6174000000000 00001218009201502980000000000000PB23032491785452100WEB       KUPOS               0000000000 20230323173353        000000000 00000000000000000004944000000000006920000000048616DA                            C       0000000000000000000000
02000533187XXXXXX2732000000000 00001218029605850090000000000000PB23032491786262100WEB       KUPOS               0000000000 20230323174132        000000000 00000000000000000003679000000000004410000000036265DA                            D       0000000000000000000000
02000540477XXXXXX3710000000000 00001218054901863490000000000000PB23032491787092100WEB       KUPOS               0000000000 20230323175104        000000000 00000000000000000000390000000000000550000000003835DA                            C       0000000000000000000000
02000535456XXXXXX7773000000000 00001218063306485820000000000000PB23032491787432100COMPRA INT KUPOS    CL        0000000000 20230323175347        000000000 00000000000000000007380000000000016240000000071868DA                            D       0000000000000000000000
02000415281XXXXXX5275000000000 00001218083207068480000000000000PB23032491788172100WEB       KUPOS               0000000000 20230323180211        000000000 00000000000000000001290000000000001810000000012685DA                            C       0000000000000000000000
02000434559XXXXXX9171000000000 00001218087006904830000000000000PB23032491788142100WEB       KUPOS               0000000000 20230323180142        000000000 00000000000000000000900000000000001080000000008871DA                            D       0000000000000000000000
02000533187XXXXXX2732000000000 00001218088408302420000000000000PB23032491788392100WEB       KUPOS               0000000000 20230323180413        000000000 00000000000000000003679000000000004410000000036265DA                            D       0000000000000000000000
02000434561XXXXXX0486000000000 00001218098509545920000000000000PB23032491788712100WEB       KUPOS               0000000000 20230323180747        000000000 00000000000000000003000000000000003600000000029572DA                            D       0000000000000000000000
02000434559XXXXXX4252000000000 00001218109308438900000000000000PB23032491789192100WEB       KUPOS               0000000000 20230323181136        000000000 00000000000000000000630000000000000760000000006210DA                            D       0000000000000000000000
02000478688XXXXXX1122000000000 00001218114701784140000000000000PB23032491789402100WEB       KUPOS               0000000000 20230323181341        000000000 00000000000000000020000000000000028000000000196668DA                            C       0000000000000000000000
02000533187XXXXXX2593000000000 00001218119908641240000000000000PB23032491789562100WEB       KUPOS               0000000000 20230323181501        000000000 00000000000000000003354000000000004020000000033061DA                            D       0000000000000000000000
02000533187XXXXXX7491000000000 00001218136800480430000000000000PB23032491790212100WEB       KUPOS               0000000000 20230323182115        000000000 00000000000000000002490000000000002990000000024544DA                            D       0000000000000000000000
02000434559XXXXXX1550000000000 00001218161601312260000000000000PB23032491791142100WEB       KUPOS               0000000000 20230323183018        000000000 00000000000000000001100000000000001320000000010843DA                            D       0000000000000000000000
02000434561XXXXXX1943000000000 00001218167803685340000000000000PB23032491791432100WEB       KUPOS               0000000000 20230323183303        000000000 00000000000000000000824000000000000990000000008122DA                            D       0000000000000000000000
02000434559XXXXXX4173000000000 00001218176607034550000000000000PB23032491791822100WEB       KUPOS               0000000000 20230323183643        000000000 00000000000000000001600000000000001920000000015772DA                            D       0000000000000000000000
02000434559XXXXXX5011000000000 00001218180503436980000000000000PB23032491791972100WEB       KUPOS               0000000000 20230323183807        000000000 00000000000000000003000000000000003600000000029572DA                            D       0000000000000000000000
02000434559XXXXXX1494000000000 00001218184809087300000000000000PB23032491792162100WEB       KUPOS               0000000000 20230323183951        000000000 00000000000000000001442000000000001730000000014214DA                            D       0000000000000000000000
02000434559XXXXXX1166000000000 00001218188106547710000000000000PB23032491792332100WEB       KUPOS               0000000000 20230323184118        000000000 00000000000000000003000000000000003600000000029572DA                            D       0000000000000000000000
02000434559XXXXXX3281000000000 00001218191804233810000000000000PB23032491792412100WEB       KUPOS               0000000000 20230323184231        000000000 00000000000000000001930000000000002320000000019024DA                            D       0000000000000000000000
02000434559XXXXXX1201000000000 00001218227908443690000000000000PB23032491793492100WEB       KUPOS               0000000000 20230323185518        000000000 00000000000000000001260000000000001510000000012420DA                            D       0000000000000000000000
02000434560XXXXXX0184000000000 00001218222103409560000000000000PB23032491793442100WEB       KUPOS               0000000000 20230323185449        000000000 00000000000000000002980000000000003580000000029374DA                            D       0000000000000000000000
02000434559XXXXXX7634000000000 00001218257303287690000000000000PB23032491794582100WEB       KUPOS               0000000000 20230323190816        000000000 00000000000000000001200000000000001440000000011829DA                            D       0000000000000000000000
02000529881XXXXXX7000000000000 00001218263904804990000000000000PB23032491794722100WEB       KUPOS               0000000000 20230323191018        000000000 00000000000000000004000000000000005600000000039334DA                            C       0000000000000000000000
02000456931XXXXXX5008000000000 00001218268206426930000000000000PB23032491794802100WEB       KUPOS               0000000000 20230323191214        000000000 00000000000000000000824000000000001150000000008103DA                            C       0000000000000000000000
02000434559XXXXXX7401000000000 00001218279907048110000000000000PB23032491795342100WEB       KUPOS               0000000000 20230323191655        000000000 00000000000000000000630000000000000760000000006210DA                            D       0000000000000000000000
02000529881XXXXXX7000000000000 00001218289209947620000000000000PB23032491795652100WEB       KUPOS               0000000000 20230323191957        000000000 00000000000000000002140000000000003000000000021043DA                            C       0000000000000000000000
02000549070XXXXXX1789000000000 00001218299605736570000000000000PB23032491796002100WEB       KUPOS               0000000000 20230323192347        000000000 00000000000000000008240000000000011540000000081027DA                            C       0000000000000000000000
02000434559XXXXXX5924000000000 00001218326906586960000000000000P167961076950e72100WEB       KUPOS               0000000000 20230323193259        000000000 00000000000000000000927000000000001110000000009138DA                            D       0000000000000000000000
02000434559XXXXXX7158000000000 00001218340003436170000000000000PB23032491797352100WEB       KUPOS               0000000000 20230323193814        000000000 00000000000000000004140000000000004970000000040809DA                            D       0000000000000000000000
02000434559XXXXXX6780000000000 00001218338305418440000000000000PB23032491797442100WEB       KUPOS               0000000000 20230323193940        000000000 00000000000000000000824000000000000990000000008122DA                            D       0000000000000000000000
02000519716XXXXXX1367000000000 00001218354608465200000000000000PB23032491798102100WEB       KUPOS               0000000000 20230323194646        000000000 00000000000000000000500000000000000700000000004917DA                            C       0000000000000000000000
02000434559XXXXXX4440000000000 00001218351105224080000000000000PB23032491797992100WEB       KUPOS               0000000000 20230323194521        000000000 00000000000000000006490000000000007790000000063973DA                            D       0000000000000000000000
02000434561XXXXXX5766000000000 00001218361601154570000000000000PB23032491798422100WEB       KUPOS               0000000000 20230323194954        000000000 00000000000000000001400000000000001680000000013800DA                            D       0000000000000000000000
02000434559XXXXXX7892000000000 00001218379100236410000000000000PB23032491799282100WEB       KUPOS               0000000000 20230323195820        000000000 00000000000000000000900000000000001080000000008871DA                            D       0000000000000000000000
02000434559XXXXXX9146000000000 00001218382305524190000000000000PB23032491799512100WEB       KUPOS               0000000000 20230323195940        000000000 00000000000000000001500000000000001800000000014786DA                            D       0000000000000000000000
02000409152XXXXXX7918000000000 00001218400301203010000000000000PB23032491800112100WEB       KUPOS               0000000000 20230323200644        000000000 00000000000000000003900000000000005460000000038350DA                            C       0000000000000000000000
