0120230324ADQDIGITAL096799250K
02000434559XXXXXX2035000000000 000012157759090614000000000006795326080734572322100WEB       CLARO               0000000051 20230322215013        000000000 00000000000000000001900100000000000000000000019001DA                            D       0000000000000000000000
02000434559XXXXXX1586000000000 000012165045085053100000000006795744390734646952100WEB       CLARO               0000000051 20230323092757        000000000 00000000000000000001421200000000000000000000014212DA                            D       0000000000000000000000
02000434559XXXXXX7163000000000 000012170081025210900000000006795843010734700942100WEB       CLARO               0000000051 20230323121150        000000000 00000000000000000000999600000000000000000000009996DA                            D       0000000000000000000000
02000434559XXXXXX9663000000000 000012173307090790900000000006795901620734739382100WEB       CLARO               0000000051 20230323134932        000000000 00000000000000000000880600000000000000000000008806DA                            D       0000000000000000000000
02000434559XXXXXX5272000000000 000012183075009975100000000006796104350734838712100WEB       CLARO               0000000002 20230323192719        000000000 00000000000000000000899600000000000000000000008996DA                            D       0000000000000000000000
02000434559XXXXXX3208000000000 000012183241033751500000000006796108060734840452100WEB       CLARO               0000000002 20230323193330        000000000 00000000000000000001304700000000000000000000013047DA                            D       0000000000000000000000
02000456477XXXXXX2453000000000 000012185150064311600000000006796153390734861002100WEB       CLARO               0000000004 20230323204904        000000000 00000000000000000001471200000000000000000000014712DA                            C       0000000000000000000000
02000456477XXXXXX2453000000000 000012185345012469500000000006796156950734863162100WEB       CLARO               0000000004 20230323205459        000000000 00000000000000000001471200000000000000000000014712DA                            C       0000000000000000000000
02000456477XXXXXX2453000000000 000012185406026003800000000006796158230734863852100WEB       CLARO               0000000004 20230323205710        000000000 00000000000000000001471200000000000000000000014712DA                            C       0000000000000000000000
02000434559XXXXXX2035000000000 000012157802081033300000000006795326990734572732100WEB       CLARO               0000000051 20230322215142        000000000 00000000000000000001900100000000000000000000019001DA                            D       0000000000000000000000
02000434561XXXXXX0108000000000 000012170424019862400000000006795849410734704392100WEB       CLARO               0000000051 20230323122239        000000000 00000000000000000001757500000000000000000000017575DA                            D       0000000000000000000000
02000434561XXXXXX0108000000000 000012173205011463100000000006795899830734738462100WEB       CLARO               0000000051 20230323134627        000000000 00000000000000000001757500000000000000000000017575DA                            D       0000000000000000000000
02000434559XXXXXX5272000000000 000012182975042730200000000006796101990734837752100WEB       CLARO               0000000002 20230323192322        000000000 00000000000000000000899600000000000000000000008996DA                            D       0000000000000000000000
02000434559XXXXXX5272000000000 000012183145093844000000000006796105860734839462100WEB       CLARO               0000000002 20230323192949        000000000 00000000000000000000899600000000000000000000008996DA                            D       0000000000000000000000
02000434559XXXXXX5272000000000 000012183795003807500000000006796122880734846692100WEB       CLARO               0000000002 20230323195827        000000000 00000000000000000000899600000000000000000000008996DA                            D       0000000000000000000000
02000434559XXXXXX3751000000000 000012184493051254500000000006796137920734853242100WEB       CLARO               00000000Q5 20230323202321        000000000 00000000000000000001695700000000000000000000016957DA                            D       0000000000000000000000
02000456477XXXXXX2453000000000 000012185024049016500000000006796150780734859582100WEB       CLARO               0000000004 20230323204505        000000000 00000000000000000001471200000000000000000000014712DA                            C       0000000000000000000000
02000456477XXXXXX2453000000000 000012185252059008300000000006796155080734862122100WEB       CLARO               0000000004 20230323205157        000000000 00000000000000000001471200000000000000000000014712DA                            C       0000000000000000000000
02000434559XXXXXX3134000000000 000012156441056109400000000006795296460734557502100WEB       CLARO               0000000000 20230322210104        000000000 00000000000000000001779600000000000690000000017713DA                            D       0000000000000000000000
02000434559XXXXXX2458000000000 000012156419076196300000000006795298290734558402100WEB       CLARO               0000000000 20230322210402        000000000 00000000000000000001958600000000000760000000019495DA                            D       0000000000000000000000
02000434559XXXXXX9221000000000 000012156699085545000000000006795305020734561622100WEB       CLARO               0000000000 20230322211507        000000000 00000000000000000002962000000000001160000000029483DA                            D       0000000000000000000000
02000434559XXXXXX1149000000000 000012154455006875300000000006795250620734538822100WEB       CLARO               0000000000 20230322194438        000000000 00000000000000000001134100000000000440000000011288DA                            D       0000000000000000000000
02000434559XXXXXX3884000000000 000012157111094025800000000006795312130734565162100WEB       CLARO               0000000000 20230322212658        000000000 00000000000000000000902600000000000350000000008984DA                            D       0000000000000000000000
02000434559XXXXXX5303000000000 000012157107058547400000000006795313100734565692100WEB       CLARO               0000000000 20230322212835        000000000 00000000000000000001600600000000000620000000015932DA                            D       0000000000000000000000
02000434561XXXXXX5192000000000 000012157435003185100000000006795320180734569172100WEB       CLARO               0000000000 20230322214022        000000000 00000000000000000002400200000000000940000000023891DA                            D       0000000000000000000000
02000434559XXXXXX9416000000000 000012157259007665300000000006795316390734567282100WEB       CLARO               0000000000 20230322213403        000000000 00000000000000000001499000000000000580000000014920DA                            D       0000000000000000000000
02000434560XXXXXX9627000000000 000012158300081408300000000006795336570734577462100WEB       CLARO               0000000000 20230322220803        000000000 00000000000000000001237500000000000480000000012318DA                            D       0000000000000000000000
02000434561XXXXXX3328000000000 000012159059052023700000000006795353190734584812100WEB       CLARO               0000000000 20230322223535        000000000 00000000000000000002299000000000000900000000022883DA                            D       0000000000000000000000
02000434559XXXXXX4694000000000 000012159262054845800000000006795357180734586922100WEB       CLARO               0000000000 20230322224203        000000000 00000000000000000001504600000000000590000000014976DA                            D       0000000000000000000000
02000434559XXXXXX7573000000000 000012159599033560300000000006795362500734590162100WEB       CLARO               0000000000 20230322225053        000000000 00000000000000000001019500000000000400000000010148DA                            D       0000000000000000000000
02000434559XXXXXX0189000000000 000012159752021518200000000006795365990734591882100WEB       CLARO               0000000000 20230322225651        000000000 00000000000000000004286400000000001670000000042665DA                            D       0000000000000000000000
02000434559XXXXXX3991000000000 000012160356066471900000000006795380900734597202100WEB       CLARO               0000000000 20230322232135        000000000 00000000000000000001870500000000000730000000018618DA                            D       0000000000000000000000
02000434559XXXXXX2787000000000 000012160409089916500000000006795382250734597742100WEB       CLARO               0000000000 20230322232349        000000000 00000000000000000000838800000000000330000000008349DA                            D       0000000000000000000000
02000434559XXXXXX1736000000000 000012160745074474000000000006795391870734600732100WEB       CLARO               0000000000 20230322233952        000000000 00000000000000000001644600000000000640000000016370DA                            D       0000000000000000000000
02000434559XXXXXX8372000000000 000012160788050183500000000006795392870734601042100WEB       CLARO               0000000000 20230322234134        000000000 00000000000000000002215000000000000860000000022047DA                            D       0000000000000000000000
02000434559XXXXXX5323000000000 000012160990054105100000000006795399520734602802100WEB       CLARO               0000000000 20230322235239        000000000 00000000000000000000781500000000000300000000007779DA                            D       0000000000000000000000
02000434559XXXXXX5659000000000 000012162134052714000000000006795488280734613092100WEB       CLARO               0000000000 20230323022031        000000000 00000000000000000001199000000000000470000000011934DA                            D       0000000000000000000000
02000434559XXXXXX3987000000000 000012162182026502400000000006795502450734613712100WEB       CLARO               0000000000 20230323024655        000000000 00000000000000000002763800000000001080000000027510DA                            D       0000000000000000000000
02000434559XXXXXX5637000000000 000012162624079662900000000006795641730734618542100WEB       CLARO               0000000000 20230323063618        000000000 00000000000000000001906200000000000740000000018974DA                            D       0000000000000000000000
02000434559XXXXXX0119000000000 000012162973020444700000000006795670510734622802100WEB       CLARO               0000000000 20230323072414        000000000 00000000000000000003445200000000001340000000034292DA                            D       0000000000000000000000
02000434559XXXXXX0717000000000 000012163482059944100000000006795698280734629642100WEB       CLARO               0000000000 20230323081049        000000000 00000000000000000000681300000000000270000000006781DA                            D       0000000000000000000000
02000434559XXXXXX8852000000000 000012163680043081900000000006795704330734631432100WEB       CLARO               0000000000 20230323082040        000000000 00000000000000000001904300000000000740000000018955DA                            D       0000000000000000000000
02000434559XXXXXX1355000000000 000012163913047726600000000006795714140734634262100WEB       CLARO               0000000000 20230323083704        000000000 00000000000000000006080800000000002370000000060526DA                            D       0000000000000000000000
02000434559XXXXXX5706000000000 000012164305001838800000000006795726460734638372100WEB       CLARO               0000000000 20230323085731        000000000 00000000000000000001917700000000000750000000019088DA                            D       0000000000000000000000
02000434559XXXXXX3795000000000 000012164279080597100000000006795725740734638172100WEB       CLARO               0000000000 20230323085620        000000000 00000000000000000001651300000000000640000000016436DA                            D       0000000000000000000000
02000434559XXXXXX9189000000000 000012164678004711100000000006795736380734642922100WEB       CLARO               0000000000 20230323091413        000000000 00000000000000000000599500000000000230000000005967DA                            D       0000000000000000000000
02000434559XXXXXX7426000000000 000012164712005208400000000006795737410734643362100WEB       CLARO               0000000000 20230323091552        000000000 00000000000000000002474000000000000960000000024625DA                            D       0000000000000000000000
02000434559XXXXXX4662000000000 000012164733045228200000000006795737960734643672100WEB       CLARO               0000000000 20230323091643        000000000 00000000000000000002598600000000001010000000025865DA                            D       0000000000000000000000
02000434559XXXXXX1856000000000 000012164965095832400000000006795743320734646322100WEB       CLARO               0000000000 20230323092537        000000000 00000000000000000000717800000000000280000000007145DA                            D       0000000000000000000000
02000434559XXXXXX0664000000000 000012165070096730500000000006795745180734647362100WEB       CLARO               0000000000 20230323092843        000000000 00000000000000000000853400000000000330000000008494DA                            D       0000000000000000000000
02000434559XXXXXX1586000000000 000012165135078723200000000006795746480734648122100WEB       CLARO               0000000000 20230323093055        000000000 00000000000000000001421200000000000550000000014146DA                            D       0000000000000000000000
02000434559XXXXXX8336000000000 000012166878080080100000000006795783540734667032100WEB       CLARO               0000000000 20230323103249        000000000 00000000000000000005592400000000002180000000055664DA                            D       0000000000000000000000
02000434559XXXXXX8538000000000 000012167295027741800000000006795792140734671472100WEB       CLARO               0000000000 20230323104700        000000000 00000000000000000000704000000000000270000000007007DA                            D       0000000000000000000000
02000434559XXXXXX1940000000000 000012167594071320900000000006795797560734674542100WEB       CLARO               0000000000 20230323105600        000000000 00000000000000000002538900000000000990000000025271DA                            D       0000000000000000000000
02000434561XXXXXX8213000000000 000012168324012380100000000006795809860734682302100WEB       CLARO               0000000000 20230323111636        000000000 00000000000000000000832300000000000320000000008284DA                            D       0000000000000000000000
02000434559XXXXXX6642000000000 000012168411098389300000000006795811930734683582100WEB       CLARO               0000000000 20230323111957        000000000 00000000000000000003422400000000001330000000034065DA                            D       0000000000000000000000
02000434561XXXXXX6826000000000 000012168511063251100000000006795813670734684562100WEB       CLARO               0000000000 20230323112252        000000000 00000000000000000001187000000000000460000000011815DA                            D       0000000000000000000000
02000434559XXXXXX3903000000000 000012169128065970600000000006795825190734690832100WEB       CLARO               0000000000 20230323114207        000000000 00000000000000000000535000000000000210000000005325DA                            D       0000000000000000000000
02000434560XXXXXX7943000000000 000012169854086919800000000006795838840734698392100WEB       CLARO               0000000000 20230323120447        000000000 00000000000000000000755800000000000290000000007523DA                            D       0000000000000000000000
02000434561XXXXXX8263000000000 000012169882070795000000000006795839300734698682100WEB       CLARO               0000000000 20230323120535        000000000 00000000000000000001009700000000000390000000010050DA                            D       0000000000000000000000
02000434559XXXXXX5835000000000 000012169965053259800000000006795840800734699642100WEB       CLARO               0000000000 20230323120814        000000000 00000000000000000001739100000000000680000000017310DA                            D       0000000000000000000000
02000434559XXXXXX9307000000000 000012170049013991700000000006795842530734700592100WEB       CLARO               0000000000 20230323121057        000000000 00000000000000000002340900000000000910000000023300DA                            D       0000000000000000000000
02000434559XXXXXX2200000000000 000012170243017531100000000006795845960734702772100WEB       CLARO               0000000000 20230323121642        000000000 00000000000000000000593500000000000230000000005907DA                            D       0000000000000000000000
02000434559XXXXXX4355000000000 000012170624049459700000000006795852570734706382100WEB       CLARO               0000000000 20230323122843        000000000 00000000000000000002651800000000001030000000026395DA                            D       0000000000000000000000
02000434559XXXXXX9215000000000 000012171089025162700000000006795861500734712152100WEB       CLARO               0000000000 20230323124233        000000000 00000000000000000000857500000000000330000000008535DA                            D       0000000000000000000000
02000434559XXXXXX2801000000000 000012172001090174200000000006795876210734723602100WEB       CLARO               0000000000 20230323130707        000000000 00000000000000000001223800000000000480000000012181DA                            D       0000000000000000000000
02000434559XXXXXX9415000000000 000012172179030920400000000006795879820734725892100WEB       CLARO               0000000000 20230323131307        000000000 00000000000000000002587700000000001010000000025757DA                            D       0000000000000000000000
02000434559XXXXXX7277000000000 000012172358059078000000000006795883970734728302100WEB       CLARO               0000000000 20230323132009        000000000 00000000000000000001233100000000000480000000012274DA                            D       0000000000000000000000
02000434559XXXXXX7999000000000 000012172893094876200000000006795894350734735112100WEB       CLARO               0000000000 20230323133718        000000000 00000000000000000001704000000000000660000000016961DA                            D       0000000000000000000000
02000434559XXXXXX0197000000000 000012173198075687400000000006795899670734738352100WEB       CLARO               0000000000 20230323134616        000000000 00000000000000000003814900000000001490000000037972DA                            D       0000000000000000000000
02000434559XXXXXX4609000000000 000012173688047262800000000006795909480734743842100WEB       CLARO               0000000000 20230323140232        000000000 00000000000000000001399000000000000550000000013925DA                            D       0000000000000000000000
02000434559XXXXXX6820000000000 000012174043033199100000000006795915260734747352100WEB       CLARO               0000000000 20230323141251        000000000 00000000000000000001727500000000000670000000017195DA                            D       0000000000000000000000
02000434559XXXXXX0175000000000 000012174161021279400000000006795917820734748832100WEB       CLARO               0000000000 20230323141626        000000000 00000000000000000000955300000000000370000000009509DA                            D       0000000000000000000000
02000434559XXXXXX0020000000000 000012174546097239200000000006795924570734752832100WEB       CLARO               0000000000 20230323142750        000000000 00000000000000000004840500000000001890000000048180DA                            D       0000000000000000000000
02000434559XXXXXX4428000000000 000012174988085642200000000006795932550734757412100WEB       CLARO               0000000000 20230323144059        000000000 00000000000000000001300600000000000510000000012946DA                            D       0000000000000000000000
02000434559XXXXXX6644000000000 000012175630090607500000000006795944610734763822100WEB       CLARO               0000000000 20230323150107        000000000 00000000000000000002133000000000000830000000021231DA                            D       0000000000000000000000
02000434559XXXXXX1612000000000 000012175743036763800000000006795947790734765072100WEB       CLARO               0000000000 20230323150622        000000000 00000000000000000002303000000000000900000000022923DA                            D       0000000000000000000000
02000434559XXXXXX1128000000000 000012175762042080700000000006795948080734765212100WEB       CLARO               0000000000 20230323150653        000000000 00000000000000000001330400000000000520000000013242DA                            D       0000000000000000000000
02000434559XXXXXX0077000000000 000012176209031000100000000006795958480734770212100WEB       CLARO               0000000000 20230323152412        000000000 00000000000000000001690100000000000660000000016823DA                            D       0000000000000000000000
02000434559XXXXXX9085000000000 000012176263032929100000000006795959560734770852100WEB       CLARO               0000000000 20230323152603        000000000 00000000000000000000922500000000000360000000009182DA                            D       0000000000000000000000
02000434559XXXXXX0873000000000 000012176475044500700000000006795963910734772982100WEB       CLARO               0000000000 20230323153316        000000000 00000000000000000000899100000000000350000000008949DA                            D       0000000000000000000000
02000434559XXXXXX4571000000000 000012176657040519800000000006795968150734774842100WEB       CLARO               0000000000 20230323154018        000000000 00000000000000000003003100000000001170000000029892DA                            D       0000000000000000000000
02000434559XXXXXX8067000000000 000012176846064152800000000006795972390734776592100WEB       CLARO               0000000000 20230323154725        000000000 00000000000000000000593500000000000230000000005907DA                            D       0000000000000000000000
02000434559XXXXXX0917000000000 000012177806021764400000000006795991320734785672100WEB       CLARO               0000000000 20230323161855        000000000 00000000000000000000699500000000000270000000006963DA                            D       0000000000000000000000
02000434559XXXXXX5202000000000 000012178589049138000000000006796005880734792942100WEB       CLARO               0000000000 20230323164315        000000000 00000000000000000001265200000000000490000000012593DA                            D       0000000000000000000000
02000434559XXXXXX6821000000000 000012179088067077700000000006796015090734798032100WEB       CLARO               0000000000 20230323165835        000000000 00000000000000000002447500000000000950000000024361DA                            D       0000000000000000000000
02000434559XXXXXX2737000000000 000012179682039651700000000006796027610734803792100WEB       CLARO               0000000000 20230323171924        000000000 00000000000000000003679400000000001430000000036623DA                            D       0000000000000000000000
02000434559XXXXXX8753000000000 000012179674099217900000000006796027390734803692100WEB       CLARO               0000000000 20230323171903        000000000 00000000000000000002399200000000000940000000023881DA                            D       0000000000000000000000
02000434559XXXXXX0233000000000 000012179989011187200000000006796033970734807242100WEB       CLARO               0000000000 20230323173004        000000000 00000000000000000003622300000000001410000000036055DA                            D       0000000000000000000000
02000434559XXXXXX2631000000000 000012180098060020400000000006796036410734808492100WEB       CLARO               0000000000 20230323173405        000000000 00000000000000000002834500000000001110000000028213DA                            D       0000000000000000000000
02000434559XXXXXX1221000000000 000012180186007367800000000006796037920734809272100WEB       CLARO               0000000000 20230323173744        000000000 00000000000000000002044000000000000800000000020345DA                            D       0000000000000000000000
02000434559XXXXXX2984000000000 000012180708093196600000000006796050190734815152100WEB       CLARO               0000000000 20230323175702        000000000 00000000000000000000467900000000000180000000004657DA                            D       0000000000000000000000
02000434561XXXXXX5459000000000 000012180930042189400000000006796055390734817252100WEB       CLARO               0000000000 20230323180557        000000000 00000000000000000001876400000000000730000000018677DA                            D       0000000000000000000000
02000434561XXXXXX5192000000000 000012182265017658800000000006796085760734830762100WEB       CLARO               0000000000 20230323185620        000000000 00000000000000000000445000000000000170000000004429DA                            D       0000000000000000000000
02000434559XXXXXX4445000000000 000012182392091655800000000006796088780734831912100WEB       CLARO               0000000000 20230323190123        000000000 00000000000000000001010200000000000390000000010055DA                            D       0000000000000000000000
02000434559XXXXXX3088000000000 000012183155054984600000000006796106040734839492100WEB       CLARO               0000000000 20230323193009        000000000 00000000000000000000699100000000000270000000006959DA                            D       0000000000000000000000
02000434559XXXXXX0820000000000 000012183203020367700000000006796107220734840042100WEB       CLARO               0000000000 20230323193209        000000000 00000000000000000000419600000000000160000000004177DA                            D       0000000000000000000000
02000434559XXXXXX5167000000000 000012183368002254200000000006796108890734840862100WEB       CLARO               0000000000 20230323193459        000000000 00000000000000000001256600000000000490000000012508DA                            D       0000000000000000000000
02000434559XXXXXX3269000000000 000012184198039629500000000006796132410734851072100WEB       CLARO               0000000000 20230323201408        000000000 00000000000000000000599200000000000230000000005964DA                            D       0000000000000000000000
02000434559XXXXXX2979000000000 000012184299052109600000000006796134620734851952100WEB       CLARO               0000000000 20230323201748        000000000 00000000000000000004769700000000001860000000047476DA                            D       0000000000000000000000
02000434559XXXXXX7004000000000 000012185009098014500000000006796150720734859542100WEB       CLARO               0000000000 20230323204435        000000000 00000000000000000002532800000000000990000000025210DA                            D       0000000000000000000000
02000434561XXXXXX4016000000000 000012185080075622700000000006796152020734860322100WEB       CLARO               0000000000 20230323204646        000000000 00000000000000000002768300000000001080000000027555DA                            D       0000000000000000000000
02000434559XXXXXX4719000000000 000012156149063659000000000006795292710734555642100WEB       CLARO               0000000000 20230322205435        000000000 00000000000000000002300500000000000900000000022898DA                            D       0000000000000000000000
02000434559XXXXXX5345000000000 000012156598062052600000000006795302800734560552100WEB       CLARO               0000000000 20230322211127        000000000 00000000000000000002798100000000001090000000027851DA                            D       0000000000000000000000
02000434559XXXXXX3208000000000 000012156740046210500000000006795306060734561952100WEB       CLARO               0000000000 20230322211702        000000000 00000000000000000003766500000000001470000000037490DA                            D       0000000000000000000000
02000434561XXXXXX5192000000000 000012157211099171900000000006795315080734566592100WEB       CLARO               0000000000 20230322213153        000000000 00000000000000000001146000000000000450000000011407DA                            D       0000000000000000000000
02000434559XXXXXX8358000000000 000012157253078341600000000006795315510734566802100WEB       CLARO               0000000000 20230322213349        000000000 00000000000000000001367100000000000530000000013608DA                            D       0000000000000000000000
02000434561XXXXXX5192000000000 000012157320001687100000000006795317880734567962100WEB       CLARO               0000000000 20230322213631        000000000 00000000000000000002201200000000000860000000021910DA                            D       0000000000000000000000
02000434559XXXXXX3359000000000 000012157592054649100000000006795322980734570772100WEB       CLARO               0000000000 20230322214504        000000000 00000000000000000000744200000000000290000000007407DA                            D       0000000000000000000000
02000434560XXXXXX5714000000000 000012157674093239400000000006795324490734571512100WEB       CLARO               0000000000 20230322214734        000000000 00000000000000000007634400000000002980000000075990DA                            D       0000000000000000000000
02000434561XXXXXX9189000000000 000012157704003069000000000006795325050734571742100WEB       CLARO               0000000000 20230322214828        000000000 00000000000000000001786200000000000700000000017779DA                            D       0000000000000000000000
02000434559XXXXXX6027000000000 000012157931062349400000000006795327110734572782100WEB       CLARO               0000000000 20230322215157        000000000 00000000000000000001844800000000000720000000018362DA                            D       0000000000000000000000
02000434561XXXXXX7061000000000 000012158187066867400000000006795334420734576502100WEB       CLARO               0000000000 20230322220413        000000000 00000000000000000003722800000000001450000000037055DA                            D       0000000000000000000000
02000434559XXXXXX0211000000000 000012159422064435100000000006795359740734588462100WEB       CLARO               0000000000 20230322224619        000000000 00000000000000000002244000000000000880000000022336DA                            D       0000000000000000000000
02000434559XXXXXX8365000000000 000012159447059904300000000006795360310734588842100WEB       CLARO               0000000000 20230322224715        000000000 00000000000000000002243300000000000870000000022329DA                            D       0000000000000000000000
02000434559XXXXXX8044000000000 000012159939067414800000000006795369980734593502100WEB       CLARO               0000000000 20230322230322        000000000 00000000000000000001097200000000000430000000010921DA                            D       0000000000000000000000
02000434561XXXXXX3700000000000 000012160552038603300000000006795386100734599012100WEB       CLARO               0000000000 20230322233014        000000000 00000000000000000000999000000000000390000000009944DA                            D       0000000000000000000000
02000542663XXXXXX1856000000000 000012160832099989800000000006795394180734601542100WEB       CLARO               0000000000 20230322234350        000000000 00000000000000000002202700000000001320000000021870DA                            C       0000000000000000000000
02000434559XXXXXX2572000000000 000012160936091458000000000006795397440734602352100WEB       CLARO               0000000000 20230322234908        000000000 00000000000000000000839300000000000330000000008354DA                            D       0000000000000000000000
02000434559XXXXXX6133000000000 000012160970013807500000000006795398620734602552100WEB       CLARO               0000000000 20230322235108        000000000 00000000000000000003178000000000001240000000031633DA                            D       0000000000000000000000
02000434559XXXXXX9917000000000 000012161281031177900000000006795411450734605402100WEB       CLARO               0000000000 20230323001232        000000000 00000000000000000003067300000000001200000000030531DA                            D       0000000000000000000000
02000434559XXXXXX7256000000000 000012161868090471000000000006795451360734610852100WEB       CLARO               0000000000 20230323011901        000000000 00000000000000000002060100000000000800000000020505DA                            D       0000000000000000000000
02000434559XXXXXX2333000000000 000012161913076524100000000006795455470734611172100WEB       CLARO               0000000000 20230323012558        000000000 00000000000000000001377900000000000540000000013715DA                            D       0000000000000000000000
02000434559XXXXXX2731000000000 000012163016082471400000000006795670480734622782100WEB       CLARO               0000000000 20230323072412        000000000 00000000000000000002564400000000001000000000025525DA                            D       0000000000000000000000
02000434559XXXXXX9812000000000 000012163382026019600000000006795694100734628302100WEB       CLARO               0000000000 20230323080334        000000000 00000000000000000000230100000000000090000000002290DA                            D       0000000000000000000000
02000434559XXXXXX7844000000000 000012163346036209900000000006795692080734627822100WEB       CLARO               0000000000 20230323080012        000000000 00000000000000000001471600000000000570000000014648DA                            D       0000000000000000000000
02000434559XXXXXX8203000000000 000012163527020365000000000006795700190734630112100WEB       CLARO               0000000000 20230323081343        000000000 00000000000000000000445000000000000170000000004429DA                            D       0000000000000000000000
02000434559XXXXXX5463000000000 000012163601041991400000000006795703300734630932100WEB       CLARO               0000000000 20230323081854        000000000 00000000000000000000769500000000000300000000007659DA                            D       0000000000000000000000
02000434559XXXXXX1304000000000 000012164016021138300000000006795718190734635542100WEB       CLARO               0000000000 20230323084344        000000000 00000000000000000002695500000000001050000000026830DA                            D       0000000000000000000000
02000434559XXXXXX4129000000000 000012164048007713200000000006795719110734635872100WEB       CLARO               0000000000 20230323084516        000000000 00000000000000000003544300000000001380000000035279DA                            D       0000000000000000000000
02000434559XXXXXX1660000000000 000012164231039879200000000006795724620734637762100WEB       CLARO               0000000000 20230323085429        000000000 00000000000000000001625800000000000630000000016183DA                            D       0000000000000000000000
02000434560XXXXXX6794000000000 000012164438059258200000000006795730530734639792100WEB       CLARO               0000000000 20230323090417        000000000 00000000000000000000998900000000000390000000009943DA                            D       0000000000000000000000
02000434559XXXXXX9647000000000 000012164889050120900000000006795741410734645482100WEB       CLARO               0000000000 20230323092233        000000000 00000000000000000002283900000000000890000000022733DA                            D       0000000000000000000000
02000434560XXXXXX8566000000000 000012165002042800400000000006795743830734646712100WEB       CLARO               0000000000 20230323092632        000000000 00000000000000000001055500000000000410000000010506DA                            D       0000000000000000000000
02000434561XXXXXX2470000000000 000012164974038008000000000006795743390734646422100WEB       CLARO               0000000000 20230323092545        000000000 00000000000000000001812000000000000710000000018036DA                            D       0000000000000000000000
02000434560XXXXXX1558000000000 000012165134025208000000000006795746480734648112100WEB       CLARO               0000000000 20230323093055        000000000 00000000000000000000805900000000000310000000008022DA                            D       0000000000000000000000
02000434559XXXXXX3477000000000 000012165157044252100000000006795746880734648302100WEB       CLARO               0000000000 20230323093133        000000000 00000000000000000006513100000000002540000000064829DA                            D       0000000000000000000000
02000434561XXXXXX4248000000000 000012165179012898100000000006795745940734647772100WEB       CLARO               0000000000 20230323093000        000000000 00000000000000000001343000000000000520000000013368DA                            D       0000000000000000000000
02000434559XXXXXX7182000000000 000012165814083610900000000006795760110734655222100WEB       CLARO               0000000000 20230323095343        000000000 00000000000000000007773800000000003030000000077377DA                            D       0000000000000000000000
02000434559XXXXXX7288000000000 000012165875024520200000000006795761490734655922100WEB       CLARO               0000000000 20230323095553        000000000 00000000000000000002126400000000000830000000021165DA                            D       0000000000000000000000
02000456460XXXXXX4876000000000 000012166435047650600000000006795773940734662052100WEB       CLARO               0000000000 20230323101643        000000000 00000000000000000001375900000000000830000000013661DA                            C       0000000000000000000000
02000434559XXXXXX8792000000000 000012166826035982600000000006795780660734665442100WEB       CLARO               0000000000 20230323102754        000000000 00000000000000000000706900000000000280000000007036DA                            D       0000000000000000000000
02000456460XXXXXX4876000000000 000012166947052325100000000006795784890734667682100WEB       CLARO               0000000000 20230323103453        000000000 00000000000000000000744100000000000450000000007388DA                            C       0000000000000000000000
02000434559XXXXXX1892000000000 000012167193045725900000000006795787890734669252100WEB       CLARO               0000000000 20230323103957        000000000 00000000000000000002470100000000000960000000024586DA                            D       0000000000000000000000
02000434559XXXXXX0724000000000 000012167169028388400000000006795789310734670082100WEB       CLARO               0000000000 20230323104218        000000000 00000000000000000001291300000000000500000000012853DA                            D       0000000000000000000000
02000434559XXXXXX2397000000000 000012167331013548900000000006795792720734671952100WEB       CLARO               0000000000 20230323104800        000000000 00000000000000000001526100000000000600000000015190DA                            D       0000000000000000000000
02000434559XXXXXX6613000000000 000012167643045004200000000006795798380734675132100WEB       CLARO               0000000000 20230323105724        000000000 00000000000000000002525700000000000990000000025140DA                            D       0000000000000000000000
02000434561XXXXXX7756000000000 000012168051049269100000000006795804970734679462100WEB       CLARO               0000000000 20230323110828        000000000 00000000000000000005642400000000002200000000056162DA                            D       0000000000000000000000
02000434559XXXXXX6646000000000 000012168036044438400000000006795804680734679252100WEB       CLARO               0000000000 20230323110754        000000000 00000000000000000001848600000000000720000000018400DA                            D       0000000000000000000000
02000434559XXXXXX4103000000000 000012168583070140500000000006795815230734685512100WEB       CLARO               0000000000 20230323112528        000000000 00000000000000000006250100000000002440000000062211DA                            D       0000000000000000000000
02000434560XXXXXX5828000000000 000012168674056796300000000006795817140734686492100WEB       CLARO               0000000000 20230323112843        000000000 00000000000000000002508600000000000980000000024970DA                            D       0000000000000000000000
02000434559XXXXXX7583000000000 000012168667048126900000000006795816990734686392100WEB       CLARO               0000000000 20230323112823        000000000 00000000000000000003704300000000001440000000036871DA                            D       0000000000000000000000
02000434559XXXXXX3753000000000 000012168771007756900000000006795818340734687212100WEB       CLARO               0000000000 20230323113057        000000000 00000000000000000000699300000000000270000000006961DA                            D       0000000000000000000000
02000434559XXXXXX8402000000000 000012168818031241600000000006795819210734687802100WEB       CLARO               0000000000 20230323113206        000000000 00000000000000000000713500000000000280000000007102DA                            D       0000000000000000000000
02000434559XXXXXX7972000000000 000012168854067924200000000006795819510734687992100WEB       CLARO               0000000000 20230323113302        000000000 00000000000000000002490200000000000970000000024786DA                            D       0000000000000000000000
02000541678XXXXXX6993000000000 000012169149068766400000000006795825340734690872100WEB       CLARO               0000000000 20230323114248        000000000 00000000000000000001377500000000000830000000013677DA                            C       0000000000000000000000
02000434559XXXXXX6420000000000 000012169180073347900000000006795826250734691192100WEB       CLARO               0000000000 20230323114350        000000000 00000000000000000004529300000000001770000000045083DA                            D       0000000000000000000000
02000434561XXXXXX5879000000000 000012170004003532800000000006795840330734699242100WEB       CLARO               0000000000 20230323120721        000000000 00000000000000000000026900000000000010000000000268DA                            D       0000000000000000000000
02000434559XXXXXX7163000000000 000012170192078741400000000006795845190734702232100WEB       CLARO               0000000000 20230323121521        000000000 00000000000000000000999600000000000390000000009950DA                            D       0000000000000000000000
02000434559XXXXXX3257000000000 000012170251036372000000000006795846250734702852100WEB       CLARO               0000000000 20230323121719        000000000 00000000000000000001104400000000000430000000010993DA                            D       0000000000000000000000
02000434559XXXXXX4741000000000 000012170184016860500000000006795844990734702132100WEB       CLARO               0000000000 20230323121506        000000000 00000000000000000001351500000000000530000000013452DA                            D       0000000000000000000000
02000434559XXXXXX0032000000000 000012170635001685200000000006795851790734705972100WEB       CLARO               0000000000 20230323122904        000000000 00000000000000000000045100000000000020000000000449DA                            D       0000000000000000000000
02000434559XXXXXX9877000000000 000012170703049251300000000006795854840734707552100WEB       CLARO               0000000000 20230323123134        000000000 00000000000000000004918200000000001920000000048954DA                            D       0000000000000000000000
02000434559XXXXXX7914000000000 000012170885017209600000000006795858100734709272100WEB       CLARO               0000000000 20230323123657        000000000 00000000000000000002873000000000001120000000028597DA                            D       0000000000000000000000
02000456460XXXXXX6699000000000 000012171003000465900000000006795860080734710812100WEB       CLARO               0000000000 20230323124027        000000000 00000000000000000003317400000000001990000000032937DA                            C       0000000000000000000000
02000434559XXXXXX5584000000000 000012171396058959000000000006795862670734713162100WEB       CLARO               0000000000 20230323124434        000000000 00000000000000000002698600000000001050000000026861DA                            D       0000000000000000000000
02000434559XXXXXX5747000000000 000012171428080405500000000006795866460734716972100WEB       CLARO               0000000000 20230323125051        000000000 00000000000000000001010000000000000390000000010053DA                            D       0000000000000000000000
02000434559XXXXXX9175000000000 000012171384032030600000000006795866000734716552100WEB       CLARO               0000000000 20230323125004        000000000 00000000000000000001570100000000000610000000015628DA                            D       0000000000000000000000
02000434559XXXXXX9455000000000 000012172624006209300000000006795888330734731012100WEB       CLARO               0000000000 20230323132944        000000000 00000000000000000001530100000000000600000000015230DA                            D       0000000000000000000000
02000434559XXXXXX6584000000000 000012172679064626300000000006795890700734732642100WEB       CLARO               0000000000 20230323133113        000000000 00000000000000000000899100000000000350000000008949DA                            D       0000000000000000000000
02000434559XXXXXX3374000000000 000012173761007625100000000006795911130734744662100WEB       CLARO               0000000000 20230323140516        000000000 00000000000000000002162300000000000840000000021523DA                            D       0000000000000000000000
02000434560XXXXXX2372000000000 000012174441091613500000000006795920040734750252100WEB       CLARO               0000000000 20230323142011        000000000 00000000000000000000946000000000000370000000009416DA                            D       0000000000000000000000
02000434559XXXXXX6470000000000 000012174542039225000000000006795924600734752862100WEB       CLARO               0000000000 20230323142745        000000000 00000000000000000002098400000000000820000000020887DA                            D       0000000000000000000000
02000434559XXXXXX4497000000000 000012174530020886000000000006795924410734752662100WEB       CLARO               0000000000 20230323142727        000000000 00000000000000000001879000000000000730000000018703DA                            D       0000000000000000000000
02000434559XXXXXX0757000000000 000012175072053040500000000006795934190734758142100WEB       CLARO               0000000000 20230323144344        000000000 00000000000000000002999000000000001170000000029851DA                            D       0000000000000000000000
02000434559XXXXXX6954000000000 000012175080037832700000000006795934370734758232100WEB       CLARO               0000000000 20230323144404        000000000 00000000000000000001098900000000000430000000010938DA                            D       0000000000000000000000
02000434559XXXXXX7153000000000 000012175130075270700000000006795935330734758792100WEB       CLARO               0000000000 20230323144540        000000000 00000000000000000000853400000000000330000000008494DA                            D       0000000000000000000000
02000434559XXXXXX4287000000000 000012175267062916400000000006795936960734759752100WEB       CLARO               0000000000 20230323144827        000000000 00000000000000000000785800000000000310000000007822DA                            D       0000000000000000000000
02000434559XXXXXX7349000000000 000012176071029502700000000006795954930734768802100WEB       CLARO               0000000000 20230323151822        000000000 00000000000000000000722500000000000280000000007191DA                            D       0000000000000000000000
02000434559XXXXXX4929000000000 000012176432083903700000000006795963120734772622100WEB       CLARO               0000000000 20230323153200        000000000 00000000000000000002558800000000001000000000025469DA                            D       0000000000000000000000
02000434560XXXXXX5659000000000 000012176583054944100000000006795966120734774082100WEB       CLARO               0000000000 20230323153708        000000000 00000000000000000002641000000000001030000000026287DA                            D       0000000000000000000000
02000434559XXXXXX2386000000000 000012178433096752400000000006796002330734791322100WEB       CLARO               0000000000 20230323163727        000000000 00000000000000000005223200000000002040000000051990DA                            D       0000000000000000000000
02000434559XXXXXX9798000000000 000012179631062321400000000006796021290734801102100WEB       CLARO               0000000000 20230323170903        000000000 00000000000000000000658500000000000260000000006554DA                            D       0000000000000000000000
02000434559XXXXXX2716000000000 000012179793077564700000000006796028670734804202100WEB       CLARO               0000000000 20230323172114        000000000 00000000000000000001352900000000000530000000013466DA                            D       0000000000000000000000
02000434560XXXXXX1844000000000 000012179891009382800000000006796032120734806172100WEB       CLARO               0000000000 20230323172655        000000000 00000000000000000001375900000000000540000000013695DA                            D       0000000000000000000000
02000434559XXXXXX4179000000000 000012181337009044400000000006796063940734821632100WEB       CLARO               0000000000 20230323181957        000000000 00000000000000000001364400000000000530000000013581DA                            D       0000000000000000000000
02000434559XXXXXX2706000000000 000012181555048371400000000006796068810734823842100WEB       CLARO               0000000000 20230323182811        000000000 00000000000000000001788500000000000700000000017802DA                            D       0000000000000000000000
02000434559XXXXXX6696000000000 000012181922001454600000000006796076710734827272100WEB       CLARO               0000000000 20230323184248        000000000 00000000000000000003284500000000001280000000032693DA                            D       0000000000000000000000
02000434559XXXXXX1443000000000 000012181939081723600000000006796073110734825642100WEB       CLARO               0000000000 20230323184325        000000000 00000000000000000003477100000000001360000000034610DA                            D       0000000000000000000000
02000434559XXXXXX1171000000000 000012182737034914900000000006796094050734834282100WEB       CLARO               0000000000 20230323191008        000000000 00000000000000000001286000000000000500000000012800DA                            D       0000000000000000000000
02000434561XXXXXX1887000000000 000012182732071810700000000006796096100734835122100WEB       CLARO               0000000000 20230323191341        000000000 00000000000000000001809200000000000710000000018008DA                            D       0000000000000000000000
02000434559XXXXXX1030000000000 000012183005089043000000000006796102180734837842100WEB       CLARO               0000000000 20230323192413        000000000 00000000000000000001046300000000000410000000010414DA                            D       0000000000000000000000
02000434559XXXXXX0518000000000 000012183470078065500000000006796114150734843072100WEB       CLARO               0000000000 20230323194340        000000000 00000000000000000000896600000000000350000000008924DA                            D       0000000000000000000000
02000434559XXXXXX4307000000000 000012183847093096500000000006796124220734847332100WEB       CLARO               0000000000 20230323200053        000000000 00000000000000000001778200000000000690000000017699DA                            D       0000000000000000000000
02000434559XXXXXX6277000000000 000012184297056835000000000006796133170734851352100WEB       CLARO               0000000000 20230323201524        000000000 00000000000000000000995500000000000390000000009909DA                            D       0000000000000000000000
02000434559XXXXXX4615000000000 000012184793085731500000000006796146650734857302100WEB       CLARO               0000000000 20230323203748        000000000 00000000000000000001277900000000000500000000012720DA                            D       0000000000000000000000
02000434559XXXXXX0141000000000 000012185052062205500000000006796148580734858332100WEB       CLARO               0000000000 20230323204108        000000000 00000000000000000001008900000000000390000000010042DA                            D       0000000000000000000000
03000179000000353201900000000000000000000001790000003515401                                                                                                                                                        
