0120230324ADQDIGITAL0970300007
02000529881XXXXXX7004000000000 00001215657305284740000000000000000816A225AEDAD2100WEB       PAGAQUI             0000000083 20230322211028        000000000 00000000000000000113999000000000000000000001139990DA                            C       0000000000000000000000
02000529881XXXXXX4037000000000 0000121566270968903000000000000000029BC450C7DED2100WEB       PAGAQUI             0000000083 20230322211239        000000000 00000000000000000113999000000000000000000001139990DA                            C       0000000000000000000000
02000482408XXXXXX5031000000000 00001217037209698150000000000000000D88FC8FADE1C2100          PAGAQUI             0000000067 20230323122058        000000000 00000000000000000003590000000000000000000000035900DA                            C       0000000000000000000000
02000517980XXXXXX6646000000000 00001218029801938640000000000000000F5E7D7AE56A72100WEB       PAGAQUI             0000000051 20230323174136        000000000 00000000000000000530100000000000000000000005301000DA                            C       0000000000000000000000
02000529881XXXXXX9130000000000 000012156387082276500000000000000002BBD28A6B4252100WEB       PAGAQUI             0000000083 20230322205838        000000000 00000000000000000113999000000000000000000001139990DA                            C       0000000000000000000000
02000542991XXXXXX5817000000000 00001217211806864630000000000000000ED0905A360DF2100COMPRA INT PAGAQUI  CL        0000000057 20230323131053        000000000 00000000000000000037011800000000000000000000370118DA                            C       0000000000000000000000
02000440698XXXXXX6693000000000 00001217301109373180000000000000000F87AF28AD82D2100WEB       PAGAQUI             0000000051 20230323134038        000000000 00000000000000000031240000000000000000000000312400DA                            D       0000000000000000000000
02000451368XXXXXX3515000000000 00001218042105240670000000000000000F5E7D7AE56A72100WEB       PAGAQUI             0000000061 20230323174136        000000000 00000000000000000530100000000000000000000005301000DA                            D       0000000000000000000000
02000517980XXXXXX6646000000000 00001218074405515320000000000000000B1FABD6A8FE72100WEB       PAGAQUI             0000000051 20230323175827        000000000 00000000000000000478050000000000000000000004780500DA                            C       0000000000000000000000
02000451368XXXXXX3515000000000 000012181064090176900000000000000008A1FC67062952100WEB       PAGAQUI             0000000061 20230323181038        000000000 00000000000000000478050000000000000000000004780500DA                            D       0000000000000000000000
02000475774XXXXXX2573000000000 00001215648109780340000000000000000CCCC9006C10E2100WEB       PAGAQUI             0000000000 20230322210627        000000000 00000000000000000002970000000000000000000000029700DA                            D       0000000000000000000000
02000451368XXXXXX5058000000000 00001215696209314660000000000000000FC61E410C6312100WEB       PAGAQUI             0000000000 20230322212404        000000000 00000000000000000009500000000000000000000000095000DA                            D       0000000000000000000000
02000446867XXXXXX2047000000000 00001215780600753390000000000000000E4C4BFA72AF42100WEB       PAGAQUI             0000000000 20230322215146        000000000 00000000000000000010790000000000000000000000107900DA                            C       0000000000000000000000
02000434559XXXXXX5328000000000 0000121636530533041000000000000000070374287EFEE2100WEB       PAGAQUI             0000000000 20230323082215        000000000 00000000000000000002900000000000000000000000029000DA                            D       0000000000000000000000
02000456460XXXXXX1912000000000 000012166155026431800000000000000000690DDB77DB52100WEB       PAGAQUI             0000000000 20230323100552        000000000 00000000000000000019010000000000000000000000190100DA                            C       0000000000000000000000
02000475774XXXXXX9014000000000 00001216756203957400000000000000000D812D5A977AD2100WEB       PAGAQUI             0000000000 20230323105245        000000000 00000000000000000004171000000000000000000000041710DA                            D       0000000000000000000000
02000475774XXXXXX9014000000000 00001216756201368690000000000000000D812D5A977AD4200WEB       PAGAQUI             0000000000 20230323105245        000000000 00000000000000000004171000000000000000000000041710DA                            D       0000000000000000000000
02000434559XXXXXX2165000000000 000012172960043747500000000000000003B680CBA62064200WEB       PAGAQUI             0000000000 20230323133552        000000000 00000000000000000002055300000000000000000000020553DA                            D       0000000000000000000000
02000434560XXXXXX5591000000000 0000121736500134699000000000000000095547079E4572100WEB       PAGAQUI             0000000000 20230323135958        000000000 00000000000000000000140000000000000000000000001400DA                            C       0000000000000000000000
02000517980XXXXXX6646000000000 0000121806900109430000000000000000055C0E3536EE52100WEB       PAGAQUI             0000000000 20230323175607        000000000 00000000000000000000140000000000000000000000001400DA                            C       0000000000000000000000
02000434559XXXXXX8559000000000 000012181850055438800000000000000002B8E06A050D52100WEB       PAGAQUI             0000000000 20230323183841        000000000 00000000000000000012630000000000000000000000126300DA                            D       0000000000000000000000
02000451368XXXXXX2494000000000 0000121572640219589000000000000000052C7783AA15A2100WEB       PAGAQUI             0000000000 20230322213417        000000000 00000000000000000005850000000000000000000000058500DA                            D       0000000000000000000000
02000434559XXXXXX6696000000000 00001216410507924800000000000000000D3AF3CD225C32100WEB       PAGAQUI             0000000000 20230323084906        000000000 00000000000000000003100000000000000000000000031000DA                            D       0000000000000000000000
02000475774XXXXXX9014000000000 00001216761607253080000000000000000E535A7B6263F2100WEB       PAGAQUI             0000000000 20230323105641        000000000 00000000000000000004171000000000000000000000041710DA                            D       0000000000000000000000
02000475774XXXXXX9014000000000 00001216761609263520000000000000000E535A7B6263F4200WEB       PAGAQUI             0000000000 20230323105641        000000000 00000000000000000004171000000000000000000000041710DA                            D       0000000000000000000000
02000434559XXXXXX2165000000000 000012172960079402700000000000000003B680CBA62062100WEB       PAGAQUI             0000000000 20230323133552        000000000 00000000000000000002055300000000000000000000020553DA                            D       0000000000000000000000
02000442174XXXXXX0089000000000 00001217598105866780000000000000000A6E1D8F0AEAA2100WEB       PAGAQUI             0000000000 20230323151459        000000000 00000000000000000019000000000000000000000000190000DA                            C       0000000000000000000000
02000451368XXXXXX7380000000000 000012177374032013100000000000000007D78FDDFD0B62100WEB       PAGAQUI             0000000000 20230323160023        000000000 00000000000000000005340000000000000000000000053400DA                            D       0000000000000000000000
02000517980XXXXXX6646000000000 000012180619007150100000000000000009CF241D41ADE2100WEB       PAGAQUI             0000000000 20230323175304        000000000 00000000000000000051910000000000000000000000519100DA                            C       0000000000000000000000
02000451368XXXXXX3221000000000 00001218406906469760000000000000000D12252642C642100WEB       PAGAQUI             0000000000 20230323200934        000000000 00000000000000000000904000000000000000000000009040DA                            D       0000000000000000000000
03000017000000154581300000300000001039730000140000001441840                                                                                                                                                        
