0120230324ADQDIGITAL0906350009
02000533187XXXXXX1969000000000 000012157777037744000000000000000001000479062952100WEB       MOVISTAR RE         0000000068 20230322215048        000000000 00000000000000000000500000000000000000000000005000DA                            D       0000000000000000000000
02000533187XXXXXX3098000000000 000012158370081672200000000000000001000479064782100WEB       MOVISTAR RE         0000000079 20230322221022        000000000 00000000000000000000300000000000000000000000003000DA                            D       0000000000000000000000
02000533187XXXXXX3098000000000 000012158509093673700000000000000001000479065132100WEB       MOVISTAR RE         0000000079 20230322221518        000000000 00000000000000000000300000000000000000000000003000DA                            D       0000000000000000000000
02000533187XXXXXX2286000000000 000012159779057944800000000000000001000479068232100WEB       MOVISTAR RE         0000000051 20230322225642        000000000 00000000000000000000500000000000000000000000005000DA                            D       0000000000000000000000
02000535831XXXXXX0958000000000 000012159835040527700000000000000001000479068392100COMPRA INT MOVISTA  CL        0000000083 20230322225928        000000000 00000000000000000000200000000000000000000000002000DA                            C       0000000000000000000000
02000474119XXXXXX3075000000000 000012159841006344900000000000000001000479068232100COMPRA INT MOVISTA  CL        0000000051 20230322225642        000000000 00000000000000000000500000000000000000000000005000DA                            C       0000000000000000000000
02000482408XXXXXX0026000000000 000012160872067215300000000000000001000479071242100COMPRA INT MOVISTA  CL        00000000Q5 20230322234523        000000000 00000000000000000000100000000000000000000000001000DA                            D       0000000000000000000000
02000533187XXXXXX8416000000000 000012161591075788000000000000000001000479073512100WEB       MOVISTAR RE         0000000051 20230323004215        000000000 00000000000000000000200000000000000000000000002000DA                            D       0000000000000000000000
02000474503XXXXXX3246000000000 000012174191033572300000000000000001000479122472100          MOVISTAR RE         0000000067 20230323141717        000000000 00000000000000000000500000000000000000000000005000DA                            D       0000000000000000000000
02000403236XXXXXX8758000000000 000012176148095604900000000000000001000479129662100COMPRA INT MOVISTA  CL        0000000004 20230323152126        000000000 00000000000000000000499000000000000000000000004990DA                            C       0000000000000000000000
02000403236XXXXXX6838000000000 000012176453080670700000000000000001000479130882100COMPRA INT MOVISTA  CL        0000000004 20230323153231        000000000 00000000000000000000300000000000000000000000003000DA                            C       0000000000000000000000
02000403236XXXXXX0820000000000 000012176559052583500000000000000001000479130812100COMPRA INT MOVISTA  CL        0000000004 20230323153211        000000000 00000000000000000000300000000000000000000000003000DA                            C       0000000000000000000000
02000434559XXXXXX7812000000000 000012176892028063400000000000000001000479132752100WEB       MOVISTAR RE         0000000033 20230323154901        000000000 00000000000000000000300000000000000000000000003000DA                            D       0000000000000000000000
02000533187XXXXXX3098000000000 000012158401048831300000000000000001000479064902100WEB       MOVISTAR RE         0000000079 20230322221127        000000000 00000000000000000000300000000000000000000000003000DA                            D       0000000000000000000000
02000533187XXXXXX3098000000000 000012158893030131400000000000000001000479066182100WEB       MOVISTAR RE         0000000079 20230322222859        000000000 00000000000000000000300000000000000000000000003000DA                            D       0000000000000000000000
02000412003XXXXXX9930000000000 000012159750094800400000000000000001000479068232100WEB       MOVISTAR RE         0000000046 20230322225642        000000000 00000000000000000000500000000000000000000000005000DA                            D       0000000000000000000000
02000527515XXXXXX6269000000000 000012160030045368400000000000000001000479068842100COMPRA INT MOVISTA  CL        0000000051 20230322230711        000000000 00000000000000000000100000000000000000000000001000DA                            D       0000000000000000000000
02000527515XXXXXX6269000000000 000012160186080576300000000000000001000479068842100COMPRA INT MOVISTA  CL        0000000051 20230322230711        000000000 00000000000000000000100000000000000000000000001000DA                            D       0000000000000000000000
02000482408XXXXXX0018000000000 000012160858070940400000000000000001000479071212100COMPRA INT MOVISTA  CL        00000000Q5 20230322234452        000000000 00000000000000000000100000000000000000000000001000DA                            D       0000000000000000000000
020000000000000000000000000000 000012164903095371100000000000000001000479087092100          MOVISTAR RE         0000000001 20230323092205        000000000 00000000000000000000100000000000000000000000001000DA                                    0000000000000000000000
02000416683XXXXXX6730000000000 000012170139093510300000000000000001000479106702100COMPRA INT MOVISTA  CL        0000000004 20230323121338        000000000 00000000000000000000500000000000000000000000005000DA                            D       0000000000000000000000
02000403236XXXXXX8758000000000 000012176128065650700000000000000001000479129662100COMPRA INT MOVISTA  CL        0000000004 20230323152126        000000000 00000000000000000000499000000000000000000000004990DA                            C       0000000000000000000000
02000403236XXXXXX0820000000000 000012176438096776900000000000000001000479130812100COMPRA INT MOVISTA  CL        0000000004 20230323153211        000000000 00000000000000000000300000000000000000000000003000DA                            C       0000000000000000000000
02000403236XXXXXX6838000000000 000012176553097687500000000000000001000479130882100COMPRA INT MOVISTA  CL        0000000004 20230323153231        000000000 00000000000000000000300000000000000000000000003000DA                            C       0000000000000000000000
02000403236XXXXXX0820000000000 000012176557051870500000000000000001000479130812100COMPRA INT MOVISTA  CL        0000000004 20230323153211        000000000 00000000000000000000300000000000000000000000003000DA                            C       0000000000000000000000
02000464691XXXXXX9627000000000 000012156716042236000000000000000001000479059712100COMPRA INT MOVISTA  CL        0000000000 20230322211555        000000000 00000000000000000001000000000000003500000000009584DA                            C       0000000000000000000000
02000533187XXXXXX3098000000000 000012158903028701300000000000000001000479066232100WEB       MOVISTAR RE         0000000000 20230322222916        000000000 00000000000000000000300000000000000400000000002953DA                            D       0000000000000000000000
02000434559XXXXXX7592000000000 000012158931017857000000000000000001000479066342100WEB       MOVISTAR RE         0000000000 20230322223013        000000000 00000000000000000000100000000000000130000000000984DA                            D       0000000000000000000000
02000434559XXXXXX9934000000000 000012162614032537900000000000000001000479077022100WEB       MOVISTAR RE         0000000000 20230323063439        000000000 00000000000000000000400000000000000530000000003937DA                            D       0000000000000000000000
02000456931XXXXXX1001000000000 000012167789096325400000000000000001000479097972100WEB       MOVISTAR RE         0000000000 20230323110137        000000000 00000000000000000000500000000000001250000000004851DA                            C       0000000000000000000000
02000512269XXXXXX1827000000000 000012173826035460500000000000000001000479121232100WEB       MOVISTAR RE         0000000000 20230323140722        000000000 00000000000000000000330000000000000830000000003202DA                            C       0000000000000000000000
02000494611XXXXXX8007000000000 000012173996016553500000000000000001000479121792100WEB       MOVISTAR RE         0000000000 20230323141142        000000000 00000000000000000000200000000000000500000000001941DA                            C       0000000000000000000000
02000434559XXXXXX1444000000000 000012174529007261000000000000000001000479123482100WEB       MOVISTAR RE         0000000000 20230323142726        000000000 00000000000000000000400000000000000530000000003937DA                            D       0000000000000000000000
02000434559XXXXXX1593000000000 000012178365065925700000000000000001000479137542100WEB       MOVISTAR RE         0000000000 20230323163520        000000000 00000000000000000000200000000000000260000000001969DA                            D       0000000000000000000000
02000450881XXXXXX4611000000000 000012179577055765800000000000000001000479142092100WEB       MOVISTAR RE         0000000000 20230323171512        000000000 00000000000000000000500000000000001250000000004851DA                            C       0000000000000000000000
02000512646XXXXXX5074000000000 000012180505089893400000000000000001000479145882100COMPRA INT MOVISTA  CL        0000000000 20230323174921        000000000 00000000000000000000500000000000001750000000004792DA                            C       0000000000000000000000
02000517608XXXXXX0858000000000 000012181224096622800000000000000001000479148552100WEB       MOVISTAR RE         0000000000 20230323181556        000000000 00000000000000000000070000000000000090000000000689DA                            D       0000000000000000000000
02000559779XXXXXX5415000000000 000012182093076201600000000000000001000479151522100WEB       MOVISTAR RE         0000000000 20230323184920        000000000 00000000000000000000700000000000000920000000006890DA                            D       0000000000000000000000
02000434559XXXXXX2659000000000 000012182931057165800000000000000001000479155082100WEB       MOVISTAR RE         0000000000 20230323192121        000000000 00000000000000000000500000000000000660000000004921DA                            D       0000000000000000000000
02000434559XXXXXX9439000000000 000012183745084563300000000000000001000479157792100WEB       MOVISTAR RE         0000000000 20230323195611        000000000 00000000000000000000200000000000000260000000001969DA                            D       0000000000000000000000
02000533187XXXXXX8383000000000 000012185392065268100000000000000001000479163552100WEB       MOVISTAR RE         0000000000 20230323205651        000000000 00000000000000000000200000000000000260000000001969DA                            D       0000000000000000000000
02000434559XXXXXX9304000000000 000012158594002182900000000000000001000479065432100WEB       MOVISTAR RE         0000000000 20230322221811        000000000 00000000000000000000050000000000000070000000000492DA                            D       0000000000000000000000
02000434559XXXXXX4411000000000 000012161091013650900000000000000001000479071852100WEB       MOVISTAR RE         0000000000 20230322235724        000000000 00000000000000000000100000000000000130000000000984DA                            D       0000000000000000000000
02000478688XXXXXX7308000000000 000012161327026101900000000000000001000479072692100WEB       MOVISTAR RE         0000000000 20230323001559        000000000 00000000000000000000500000000000001250000000004851DA                            C       0000000000000000000000
02000559779XXXXXX8692000000000 000012162128096708800000000000000001000479075412100WEB       MOVISTAR RE         0000000000 20230323021736        000000000 00000000000000000000400000000000000530000000003937DA                            D       0000000000000000000000
02000434559XXXXXX7737000000000 000012163225096035500000000000000001000479080472100WEB       MOVISTAR RE         0000000000 20230323074925        000000000 00000000000000000000100000000000000130000000000984DA                            D       0000000000000000000000
02000516292XXXXXX9898000000000 000012163252013641500000000000000001000479080622100COMPRA INT MOVISTA  CL        0000000000 20230323075121        000000000 00000000000000000000500000000000001750000000004792DA                            C       0000000000000000000000
02000434559XXXXXX0458000000000 000012164772093425500000000000000001000479086582100WEB       MOVISTAR RE         0000000000 20230323091646        000000000 00000000000000000000100000000000000130000000000984DA                            D       0000000000000000000000
02000434559XXXXXX6489000000000 000012164910083940500000000000000001000479087092100WEB       MOVISTAR RE         0000000000 20230323092205        000000000 00000000000000000000100000000000000130000000000984DA                            D       0000000000000000000000
02000434559XXXXXX9189000000000 000012166016082501100000000000000001000479091082100WEB       MOVISTAR RE         0000000000 20230323100105        000000000 00000000000000000000200000000000000260000000001969DA                            D       0000000000000000000000
02000459954XXXXXX8281000000000 000012167100068110100000000000000001000479095572100COMPRA INT MOVISTA  CL        0000000000 20230323104003        000000000 00000000000000000001000000000000002320000000009724DA                            D       0000000000000000000000
02000475774XXXXXX2975000000000 000012168725070789500000000000000001000479101042100WEB       MOVISTAR RE         0000000000 20230323113009        000000000 00000000000000000000060000000000000080000000000591DA                            D       0000000000000000000000
02000434559XXXXXX5513000000000 000012169974065605700000000000000001000479106012100WEB       MOVISTAR RE         0000000000 20230323120838        000000000 00000000000000000000150000000000000200000000001476DA                            D       0000000000000000000000
02000453352XXXXXX6993000000000 000012173093086563100000000000000001000479118182100COMPRA INT MOVISTA  CL        0000000000 20230323134256        000000000 00000000000000000001000000000000002320000000009724DA                            D       0000000000000000000000
02000434559XXXXXX0555000000000 000012175564061681200000000000000001000479126712100WEB       MOVISTAR RE         0000000000 20230323145745        000000000 00000000000000000000060000000000000080000000000591DA                            D       0000000000000000000000
02000434559XXXXXX4345000000000 000012175819043795100000000000000001000479127912100WEB       MOVISTAR RE         0000000000 20230323150903        000000000 00000000000000000000200000000000000260000000001969DA                            D       0000000000000000000000
02000434559XXXXXX0955000000000 000012177102039514100000000000000001000479133502100WEB       MOVISTAR RE         0000000000 20230323155434        000000000 00000000000000000000100000000000000130000000000984DA                            D       0000000000000000000000
02000434559XXXXXX7812000000000 000012177084071085600000000000000001000479133652100WEB       MOVISTAR RE         0000000000 20230323155528        000000000 00000000000000000000300000000000000400000000002953DA                            D       0000000000000000000000
020589710XXXXXXXX5898000000000 000012177495006704300000000000000001000479134722100WEB       MOVISTAR RE         0000000000 20230323160741        000000000 00000000000000000000500000000000000660000000004921DA                            D       0000000000000000000000
02000434559XXXXXX4475000000000 000012177855064092600000000000000001000479135992100WEB       MOVISTAR RE         0000000000 20230323162008        000000000 00000000000000000000500000000000000660000000004921DA                            D       0000000000000000000000
02000434559XXXXXX1886000000000 000012178953016368700000000000000001000479139532100WEB       MOVISTAR RE         0000000000 20230323165233        000000000 00000000000000000000200000000000000260000000001969DA                            D       0000000000000000000000
02000434559XXXXXX1167000000000 000012181416052531700000000000000001000479149222100WEB       MOVISTAR RE         0000000000 20230323182248        000000000 00000000000000000000100000000000000130000000000984DA                            D       0000000000000000000000
02000474476XXXXXX7130000000000 000012182646081639000000000000000001000479153912100COMPRA INT MOVISTA  CL        0000000000 20230323191031        000000000 00000000000000000001000000000000003500000000009584DA                            C       0000000000000000000000
02000451368XXXXXX6235000000000 000012183943024710400000000000000001000479158442100WEB       MOVISTAR RE         0000000000 20230323200407        000000000 00000000000000000000100000000000000130000000000984DA                            D       0000000000000000000000
02000415299XXXXXX5313000000000 000012184338035165200000000000000001000479159842100COMPRA INT MOVISTA  CL        0000000000 20230323201927        000000000 00000000000000000000300000000000001050000000002875DA                            C       0000000000000000000000
02000533187XXXXXX8416000000000 000012184444044129900000000000000001000479160252100WEB       MOVISTAR RE         0000000000 20230323202344        000000000 00000000000000000000200000000000000260000000001969DA                            D       0000000000000000000000
02000533187XXXXXX8416000000000 000012184475003887300000000000000001000479160252100WEB       MOVISTAR RE         0000000000 20230323202344        000000000 00000000000000000000200000000000000260000000001969DA                            D       0000000000000000000000
03000042000000014120000000000000000000000000420000000137604                                                                                                                                                        
