0120230324ADQDIGITAL0765748798
02000434559XXXXXX9561000000000 0000121606100163538000000000gjNRyGrgNA-213300472100WEB       JETSMART            00000000Q5 20230322233300        000000000 00000000000000000044724400000000000000000000447244DA                            D       0000000000000000000000
02000434559XXXXXX3110000000000 0000121607730552841000000000Lxubnk6AxA-214103652100WEB       JETSMART            00000000Q5 20230322234103        000000000 00000000000000000041005000000000000000000000410050DA                            D       0000000000000000000000
02000434559XXXXXX2893000000000 0000121609020477307000000000SFvcvbnUQA-214642482100WEB       JETSMART            0000000002 20230322234642        000000000 00000000000000000001500000000000000000000000015000DA                            D       0000000000000000000000
02000434559XXXXXX8289000000000 00001216139602865300000000007IvclcZAUg-222142322100WEB       JETSMART            00000000Q5 20230323002142        000000000 00000000000000000057563600000000000000000000575636DA                            D       0000000000000000000000
02000456477XXXXXX3276000000000 0000121616800106363000000000ncGwrJ1T9g-225157272100WEB       JETSMART            0000000051 20230323005157        000000000 00000000000000000026685600000000000000000000266856DA                            C       0000000000000000000000
02000456460XXXXXX5890000000000 00001216173500895790000000007IvclcZAUg-225818762100WEB       JETSMART            0000000043 20230323005818        000000000 00000000000000000057812000000000000000000000578120DA                            C       0000000000000000000000
02000434559XXXXXX4562000000000 0000121656110860961000000000L97iwFNB0Q-074643832100WEB       JETSMART            00000000Q5 20230323094644        000000000 00000000000000000076056200000000000000000000760562DA                            D       0000000000000000000000
02000434559XXXXXX4562000000000 0000121660930809903000000000L97iwFNB0Q-080350962100WEB       JETSMART            00000000Q5 20230323100351        000000000 00000000000000000076056200000000000000000000760562DA                            D       0000000000000000000000
02000456477XXXXXX3276000000000 00001216617304146670000000001LMmBDGBIg-080631002100WEB       JETSMART            0000000051 20230323100631        000000000 00000000000000000029485600000000000000000000294856DA                            C       0000000000000000000000
02000456477XXXXXX3647000000000 0000121671350462370000000000rWuG7k9NWQ-084115292100WEB       JETSMART            0000000033 20230323104115        000000000 00000000000000000019927400000000000000000000199274DA                            C       0000000000000000000000
02000434559XXXXXX1153000000000 0000121692010128802000000000ukXWJcjGYg-094442122100WEB       JETSMART            0000000051 20230323114442        000000000 00000000000000000005565700000000000000000000055657DA                            D       0000000000000000000000
02000434559XXXXXX1746000000000 00001217132401127800000000005FngoE4iig-104837372100WEB       JETSMART            0000000051 20230323124837        000000000 00000000000000000025929200000000000000000000259292DA                            D       0000000000000000000000
02000456477XXXXXX6442000000000 0000121720860076871000000000nKvK401nWQ-110941302100WEB       JETSMART            00000000Q5 20230323130941        000000000 00000000000000000006885700000000000000000000068857DA                            C       0000000000000000000000
02000434559XXXXXX5946000000000 0000121723320845511000000000w3NAMuVisA-111919302100WEB       JETSMART            0000000033 20230323131919        000000000 00000000000000000004771400000000000000000000047714DA                            D       0000000000000000000000
02000434559XXXXXX5225000000000 0000121729300866385000000000tsZ0bIrTKg-113821852100WEB       JETSMART            0000000002 20230323133822        000000000 00000000000000000003685700000000000000000000036857DA                            D       0000000000000000000000
02000434559XXXXXX9664000000000 0000121749560674096000000000sVHoQL5gTQ-124000742100WEB       JETSMART            0000000014 20230323144000        000000000 00000000000000000000503200000000000000000000005032DA                            D       0000000000000000000000
02000434559XXXXXX1618000000000 0000121773060147182000000000L0ElJfTcZw-140242152100WEB       JETSMART            0000000002 20230323160242        000000000 00000000000000000001285700000000000000000000012857DA                            D       0000000000000000000000
02000434559XXXXXX0439000000000 0000121805210153028000000000adLL4O8PzQ-154954602100WEB       JETSMART            0000000002 20230323174954        000000000 00000000000000000019942800000000000000000000199428DA                            D       0000000000000000000000
02000434559XXXXXX0439000000000 0000121848690891774000000000Hu0pmv0eow-184013392100WEB       JETSMART            0000000002 20230323204013        000000000 00000000000000000020342800000000000000000000203428DA                            D       0000000000000000000000
02000434559XXXXXX6163000000000 000012185175029778300000000028mD7bnmxA-184951512100WEB       JETSMART            0000000002 20230323204951        000000000 00000000000000000011662800000000000000000000116628DA                            D       0000000000000000000000
02000434560XXXXXX8348000000000 0000121570300901316000000000HKgg1yietw-192607722100WEB       JETSMART            0000000033 20230322212607        000000000 00000000000000000031708000000000000000000000317080DA                            D       0000000000000000000000
02000434559XXXXXX3113000000000 00001215717804074750000000003nZEwBNULA-193045972100WEB       JETSMART            00000000Q5 20230322213046        000000000 00000000000000000046464500000000000000000000464645DA                            D       0000000000000000000000
02000434559XXXXXX3113000000000 00001215763701101500000000007VLtxZrvpQ-194621442100WEB       JETSMART            00000000Q5 20230322214621        000000000 00000000000000000046464500000000000000000000464645DA                            D       0000000000000000000000
02000456460XXXXXX9357000000000 0000121597230525475000000000LcMZWkEX5g-205547162100WEB       JETSMART            0000000036 20230322225547        000000000 00000000000000000002585700000000000000000000025857DA                            C       0000000000000000000000
02000456477XXXXXX3276000000000 0000121610940159488000000000oiuRhJdynQ-215846502100WEB       JETSMART            0000000051 20230322235846        000000000 00000000000000000027485600000000000000000000274856DA                            C       0000000000000000000000
02000456477XXXXXX3276000000000 00001216195002357320000000001LMmBDGBIg-233044182100WEB       JETSMART            0000000051 20230323013044        000000000 00000000000000000027485600000000000000000000274856DA                            C       0000000000000000000000
02000456477XXXXXX6442000000000 0000121658810999453000000000pjNiMkG32Q-075603282100WEB       JETSMART            00000000Q5 20230323095603        000000000 00000000000000000006885700000000000000000000068857DA                            C       0000000000000000000000
02000456477XXXXXX6442000000000 0000121664030325692000000000pjNiMkG32Q-081522652100WEB       JETSMART            00000000Q5 20230323101522        000000000 00000000000000000006885700000000000000000000068857DA                            C       0000000000000000000000
02000456477XXXXXX6442000000000 0000121671910453759000000000WFwcRFvaKQ-084257002100WEB       JETSMART            00000000Q5 20230323104257        000000000 00000000000000000006885700000000000000000000068857DA                            C       0000000000000000000000
02000456477XXXXXX6442000000000 0000121686050758146000000000NMso050ViA-092631352100WEB       JETSMART            00000000Q5 20230323112632        000000000 00000000000000000006885700000000000000000000068857DA                            C       0000000000000000000000
02000434559XXXXXX1249000000000 0000121705160159406000000000qBhl85V0bw-102506452100WEB       JETSMART            00000000Q5 20230323122506        000000000 00000000000000000004684700000000000000000000046847DA                            D       0000000000000000000000
02000456477XXXXXX3276000000000 0000121707410905195000000000MwHU0kq8dg-103255682100WEB       JETSMART            0000000051 20230323123255        000000000 00000000000000000028285600000000000000000000282856DA                            C       0000000000000000000000
02000434560XXXXXX0510000000000 0000121713430039038000000000MJLDwEByRA-104859822100WEB       JETSMART            0000000033 20230323124900        000000000 00000000000000000010277400000000000000000000102774DA                            D       0000000000000000000000
02000554926XXXXXX4542000000000 0000121718760189164000000000xs8A5ooMNg-110320602100WEB       JETSMART            0000000083 20230323130320        000000000 00000000000000000006385700000000000000000000063857DA                            C       0000000000000000000000
02000434559XXXXXX9664000000000 0000121739340761835000000000sVHoQL5gTQ-121016872100WEB       JETSMART            0000000014 20230323141018        000000000 00000000000000000000503200000000000000000000005032DA                            D       0000000000000000000000
02000434559XXXXXX4968000000000 0000121751720791100000000000oiumjxxFsQ-124658862100WEB       JETSMART            00000000Q5 20230323144659        000000000 00000000000000000013514200000000000000000000135142DA                            D       0000000000000000000000
02000456460XXXXXX6047000000000 00001217566605248620000000002XLNKPTfrA-130324672100WEB       JETSMART            0000000051 20230323150324        000000000 00000000000000000013519400000000000000000000135194DA                            C       0000000000000000000000
02000434559XXXXXX1618000000000 0000121761440716808000000000L0ElJfTcZw-132220302100WEB       JETSMART            0000000002 20230323152220        000000000 00000000000000000016055200000000000000000000160552DA                            D       0000000000000000000000
02000434559XXXXXX2660000000000 0000121775220704485000000000SOI7l8JtPw-141010272100WEB       JETSMART            0000000051 20230323161010        000000000 00000000000000000029485600000000000000000000294856DA                            D       0000000000000000000000
02000456460XXXXXX8407000000000 0000121776520139110000000000wPto9aCBKg-141436522100WEB       JETSMART            0000000051 20230323161436        000000000 00000000000000000002571400000000000000000000025714DA                            C       0000000000000000000000
02000434559XXXXXX7559000000000 0000121797940470528000000000ynQ2QTpQNg-152344452100WEB       JETSMART            0000000051 20230323172344        000000000 00000000000000000003071400000000000000000000030714DA                            D       0000000000000000000000
02000434559XXXXXX9820000000000 0000121810050341238000000000cMwK0xrz9w-160838132100WEB       JETSMART            0000000051 20230323180838        000000000 00000000000000000003185700000000000000000000031857DA                            D       0000000000000000000000
02000434559XXXXXX5320000000000 0000121815590343193000000000miTleaYaAA-162827652100WEB       JETSMART            0000000033 20230323182828        000000000 00000000000000000003771400000000000000000000037714DA                            D       0000000000000000000000
02000456460XXXXXX4795000000000 0000121839600188612000000000Cv6d1mtYcA-180451812100WEB       JETSMART            0000000033 20230323200452        000000000 00000000000000000003371400000000000000000000033714DA                            C       0000000000000000000000
02000456477XXXXXX2746000000000 0000121840460058838000000000VtpxPWr4Sg-180819722100WEB       JETSMART            0000000033 20230323200819        000000000 00000000000000000010642800000000000000000000106428DA                            C       0000000000000000000000
02000434559XXXXXX6163000000000 000012184149018193600000000028mD7bnmxA-181157702100WEB       JETSMART            0000000002 20230323201157        000000000 00000000000000000011142800000000000000000000111428DA                            D       0000000000000000000000
02000434559XXXXXX1817000000000 0000121843170806568000000000kG3pQuCRiQ-181830912100WEB       JETSMART            00000000Q5 20230323201831        000000000 00000000000000000027555400000000000000000000275554DA                            D       0000000000000000000000
02000434559XXXXXX3843000000000 0000121563130781133000000000H5VQkD4g4w-185958372100WEB       JETSMART            0000000000 20230322205958        000000000 00000000000000000003271400000000002850000000032375DA                            D       0000000000000000000000
02000434559XXXXXX0222000000000 0000121564220709798000000000pLGYsFSJSw-190405902100WEB       JETSMART            0000000000 20230322210406        000000000 00000000000000000011914600000000010370000000117912DA                            D       0000000000000000000000
02000541678XXXXXX4690000000000 00001215641506099260000000008gCN3Y9vgA-190357402100WEB       JETSMART            0000000000 20230322210357        000000000 00000000000000000003385700000000006370000000033100DA                            C       0000000000000000000000
02000434559XXXXXX4385000000000 0000121565050117059000000000E0JIaBbNmw-190732732100WEB       JETSMART            0000000000 20230322210732        000000000 00000000000000000004771400000000004150000000047220DA                            D       0000000000000000000000
02000541678XXXXXX9890000000000 00001215657504793590000000001lHKBNpZVQ-191041642100WEB       JETSMART            0000000000 20230322211042        000000000 00000000000000000001885700000000003550000000018435DA                            C       0000000000000000000000
02000434559XXXXXX6250000000000 0000081695470337927000000000vT0lTSqYzg-125930252120WEB       JETSMART            0000000000 20221216155932        000000000 00000000000000000003636800000000003160000000035991DA                            D       0000000000000000000000
02000434559XXXXXX4653000000000 0000121566710838904000000000yzBgxx5KJw-191416472100WEB       JETSMART            0000000000 20230322211416        000000000 00000000000000000024935200000000021690000000246770DA                            D       0000000000000000000000
02000434559XXXXXX9464000000000 0000121567680969081000000000gO0PeE9bAg-191754252100WEB       JETSMART            0000000000 20230322211754        000000000 00000000000000000008671400000000007540000000085816DA                            D       0000000000000000000000
02000434559XXXXXX4448000000000 0000121568160708271000000000seNDf8LYsQ-191938232100WEB       JETSMART            0000000000 20230322211938        000000000 00000000000000000002463700000000002140000000024382DA                            D       0000000000000000000000
02000434559XXXXXX9464000000000 0000121568690107884000000000gO0PeE9bAg-192136742100WEB       JETSMART            0000000000 20230322212136        000000000 00000000000000000002085700000000001810000000020641DA                            D       0000000000000000000000
02000434559XXXXXX9464000000000 0000121569720400388000000000gO0PeE9bAg-192426512100WEB       JETSMART            0000000000 20230322212426        000000000 00000000000000000003085700000000002680000000030538DA                            D       0000000000000000000000
02000456460XXXXXX2453000000000 0000121569780960933000000000QYW7iw3LDg-192442312100WEB       JETSMART            0000000000 20230322212442        000000000 00000000000000000000820000000000001540000000008017DA                            C       0000000000000000000000
02000456460XXXXXX8776000000000 00001215723005104860000000001E1as2Bg9g-193241692100WEB       JETSMART            0000000000 20230322213242        000000000 00000000000000000035857600000000067410000000350554DA                            C       0000000000000000000000
02000434559XXXXXX3894000000000 0000121572480595273000000000dRt71BiaRQ-193330452100WEB       JETSMART            0000000000 20230322213330        000000000 00000000000000000004285700000000003730000000042413DA                            D       0000000000000000000000
02000434560XXXXXX2147000000000 0000121572360861368000000000qZfx03tXuA-193310032100WEB       JETSMART            0000000000 20230322213310        000000000 00000000000000000016942800000000014740000000167674DA                            D       0000000000000000000000
02000434559XXXXXX9044000000000 0000121572730623858000000000WPMBMFl5PQ-193429722100WEB       JETSMART            0000000000 20230322213429        000000000 00000000000000000001000000000000000870000000009896DA                            D       0000000000000000000000
02000434561XXXXXX4873000000000 0000121574620515626000000000Z4IMFiTfDg-194104622100WEB       JETSMART            0000000000 20230322214104        000000000 00000000000000000005390700000000004690000000053349DA                            D       0000000000000000000000
02000434559XXXXXX2359000000000 0000121575610674098000000000xaWSNaD1fQ-194401842100WEB       JETSMART            0000000000 20230322214402        000000000 00000000000000000002485700000000002160000000024600DA                            D       0000000000000000000000
02000434559XXXXXX8665000000000 00001215786006600400000000001UQ0IUWdRQ-195346242100WEB       JETSMART            0000000000 20230322215346        000000000 00000000000000000010748000000000009350000000106367DA                            D       0000000000000000000000
02000434559XXXXXX8983000000000 0000121579990572247000000000w3I8TMuzOw-195756782100WEB       JETSMART            0000000000 20230322215756        000000000 00000000000000000003171400000000002760000000031386DA                            D       0000000000000000000000
02000434560XXXXXX0510000000000 00001215794004781830000000005PvRPCcpuQ-195622562100WEB       JETSMART            0000000000 20230322215622        000000000 00000000000000000015342800000000013350000000151840DA                            D       0000000000000000000000
02000456460XXXXXX6783000000000 0000121581160356782000000000sJXJGA9nWg-200149842100WEB       JETSMART            0000000000 20230322220150        000000000 00000000000000000008071400000000015170000000078908DA                            C       0000000000000000000000
02000456460XXXXXX5296000000000 0000121581550575401000000000K5nrOLvu9g-200323812100WEB       JETSMART            0000000000 20230322220323        000000000 00000000000000000001391400000000002620000000013603DA                            C       0000000000000000000000
02000434559XXXXXX0131000000000 0000121582070742702000000000uMvpZ5CvzQ-200500592100WEB       JETSMART            0000000000 20230322220500        000000000 00000000000000000006042800000000005260000000059802DA                            D       0000000000000000000000
02000434559XXXXXX7931000000000 0000121582630553088000000000e77u07B54g-200637832100WEB       JETSMART            0000000000 20230322220638        000000000 00000000000000000007960900000000006930000000078785DA                            D       0000000000000000000000
02000434559XXXXXX1775000000000 00001215841302433720000000008WYKc01qtQ-201147552100WEB       JETSMART            0000000000 20230322221148        000000000 00000000000000000001000000000000000870000000009896DA                            D       0000000000000000000000
02000434559XXXXXX3321000000000 00001215845902402510000000003Nhafz6xiA-201342882100WEB       JETSMART            0000000000 20230322221343        000000000 00000000000000000013987400000000012170000000138426DA                            D       0000000000000000000000
02000434559XXXXXX8832000000000 0000121586100247614000000000l0D7emMQhw-201859422100WEB       JETSMART            0000000000 20230322221859        000000000 00000000000000000007171400000000006240000000070972DA                            D       0000000000000000000000
02000456477XXXXXX0115000000000 000012158652060525900000000022VP3aLq9g-202028772100WEB       JETSMART            0000000000 20230322222028        000000000 00000000000000000053097800000000099820000000519099DA                            C       0000000000000000000000
02000541678XXXXXX0902000000000 0000121587000377164000000000iIFCfwMi2w-202225172100WEB       JETSMART            0000000000 20230322222225        000000000 00000000000000000006171400000000011600000000060333DA                            C       0000000000000000000000
02000456460XXXXXX3440000000000 0000121587440331118000000000bd3xNCWctA-202403442100WEB       JETSMART            0000000000 20230322222403        000000000 00000000000000000013221400000000024860000000129256DA                            C       0000000000000000000000
02000456460XXXXXX5735000000000 00001215918904279180000000009PttDUOt7w-204015352100WEB       JETSMART            0000000000 20230322224015        000000000 00000000000000000057385300000000107880000000561015DA                            C       0000000000000000000000
02000434559XXXXXX7508000000000 0000121592880647620000000000e57nPKztuQ-204246922100WEB       JETSMART            0000000000 20230322224247        000000000 00000000000000000004171400000000003630000000041282DA                            D       0000000000000000000000
02000434559XXXXXX8051000000000 000012159238015494700000000036AsNngTZg-204132622100WEB       JETSMART            0000000000 20230322224133        000000000 00000000000000000011431400000000009950000000113131DA                            D       0000000000000000000000
02000434559XXXXXX8834000000000 00001215938509955400000000007PgdFlQT1A-204514472100WEB       JETSMART            0000000000 20230322224514        000000000 00000000000000000006171400000000005370000000061075DA                            D       0000000000000000000000
02000434559XXXXXX8063000000000 0000121595280715949000000000vKtUNSWDaw-204924942100WEB       JETSMART            0000000000 20230322224925        000000000 00000000000000000009468800000000008240000000093708DA                            D       0000000000000000000000
02000434560XXXXXX0657000000000 0000121596080164969000000000Lwr7w0dUDA-205203522100WEB       JETSMART            0000000000 20230322225203        000000000 00000000000000000002885700000000002510000000028558DA                            D       0000000000000000000000
02000456460XXXXXX5735000000000 0000121598000117623000000000y6F8iwb04A-205816542100WEB       JETSMART            0000000000 20230322225816        000000000 00000000000000000002540000000000004780000000024832DA                            C       0000000000000000000000
02000456477XXXXXX6787000000000 00001215982003905350000000004C24vI7TFw-205900592100WEB       JETSMART            0000000000 20230322225900        000000000 00000000000000000007185700000000013510000000070249DA                            C       0000000000000000000000
02000541678XXXXXX9890000000000 00001215987503722870000000001ddOORkB7Q-210051932100WEB       JETSMART            0000000000 20230322230052        000000000 00000000000000000001885700000000003550000000018435DA                            C       0000000000000000000000
02000434559XXXXXX3582000000000 0000084533070441858000000000SEanwg8N1Q-125426832120WEB       JETSMART            0000000000 20221222155436        000000000 00000000000000000021873600000000019030000000216471DA                            D       0000000000000000000000
02000541678XXXXXX9890000000000 00001216008200905570000000001ddOORkB7Q-210943062100WEB       JETSMART            0000000000 20230322230943        000000000 00000000000000000001885700000000003550000000018435DA                            C       0000000000000000000000
02000434559XXXXXX2786000000000 0000121602940855605000000000TQA2NhFeeQ-211846322100WEB       JETSMART            0000000000 20230322231846        000000000 00000000000000000003671400000000003190000000036334DA                            D       0000000000000000000000
02000434561XXXXXX9974000000000 0000121604560931363000000000j6P50MDPBQ-212629832100WEB       JETSMART            0000000000 20230322232630        000000000 00000000000000000007271400000000006330000000071961DA                            D       0000000000000000000000
02000434559XXXXXX1578000000000 0000121604480216908000000000aDsCfha0EA-212603122100WEB       JETSMART            0000000000 20230322232603        000000000 00000000000000000008205700000000007140000000081207DA                            D       0000000000000000000000
02000434559XXXXXX1696000000000 0000121604890496459000000000EspJHoTeng-212745772100WEB       JETSMART            0000000000 20230322232745        000000000 00000000000000000005271400000000004590000000052168DA                            D       0000000000000000000000
02000456460XXXXXX2445000000000 0000121604450860415000000000r4lbkhD76Q-212549132100WEB       JETSMART            0000000000 20230322232549        000000000 00000000000000000006963400000000013090000000068076DA                            C       0000000000000000000000
02000434559XXXXXX8203000000000 0000121605260595707000000000PSWNQBPT0w-212918022100WEB       JETSMART            0000000000 20230322232918        000000000 00000000000000000016398800000000014270000000162290DA                            D       0000000000000000000000
02000434559XXXXXX5646000000000 0000121605940454400000000000DFpC0Sc2VA-213223432100WEB       JETSMART            0000000000 20230322233223        000000000 00000000000000000015930800000000013860000000157659DA                            D       0000000000000000000000
02000434559XXXXXX4056000000000 000012160645082857500000000019A4oyHR6A-213441152100WEB       JETSMART            0000000000 20230322233441        000000000 00000000000000000006467400000000005630000000064004DA                            D       0000000000000000000000
02000541678XXXXXX8465000000000 00001216068409058780000000000NCtNhbRLA-213625872100WEB       JETSMART            0000000000 20230322233626        000000000 00000000000000000031324000000000058890000000306232DA                            C       0000000000000000000000
02000434559XXXXXX2139000000000 0000121607080944596000000000wq07yInHSQ-213739742100WEB       JETSMART            0000000000 20230322233740        000000000 00000000000000000002000000000000001740000000019793DA                            D       0000000000000000000000
02000456460XXXXXX1677000000000 0000121606760185261000000000GfmFgepzWA-213603522100WEB       JETSMART            0000000000 20230322233603        000000000 00000000000000000011001400000000020680000000107553DA                            C       0000000000000000000000
02000434559XXXXXX2222000000000 0000121607530075035000000000jdUHvFgDaw-214022102100WEB       JETSMART            0000000000 20230322234022        000000000 00000000000000000001200000000000001040000000011876DA                            D       0000000000000000000000
02000456460XXXXXX6821000000000 0000121607960912292000000000xgGbXJidNw-214147492100WEB       JETSMART            0000000000 20230322234147        000000000 00000000000000000002100000000000003950000000020530DA                            C       0000000000000000000000
02000456460XXXXXX5287000000000 000012160979031619000000000050YE5IuQ0Q-215134282100WEB       JETSMART            0000000000 20230322235134        000000000 00000000000000000009071400000000017050000000088685DA                            C       0000000000000000000000
02000434559XXXXXX5717000000000 0000121610090870367000000000DCNmAyoSZQ-215407472100WEB       JETSMART            0000000000 20230322235408        000000000 00000000000000000002885700000000002510000000028558DA                            D       0000000000000000000000
02000434559XXXXXX2125000000000 000012161050030749300000000000dVPKUzQg-215642932100WEB       JETSMART            0000000000 20230322235643        000000000 00000000000000000003685700000000003210000000036475DA                            D       0000000000000000000000
02000476832XXXXXX9303000000000 0000121611310105031000000000PiwoVx6Npw-220059462100WEB       JETSMART            0000000000 20230323000059        000000000 00000000000000000011538800000000021690000000112807DA                            C       0000000000000000000000
02000434559XXXXXX4519000000000 0000121610320449728000000000ejYo10i4rw-215535182100WEB       JETSMART            0000000000 20230322235535        000000000 00000000000000000000500000000000000440000000004948DA                            D       0000000000000000000000
02000541678XXXXXX5152000000000 0000121611560628468000000000ZGTf49kU8g-220248472100WEB       JETSMART            0000000000 20230323000248        000000000 00000000000000000015238200000000028650000000148973DA                            C       0000000000000000000000
02000434560XXXXXX3560000000000 0000121611530600483000000000KvHWkEZElw-220222312100WEB       JETSMART            0000000000 20230323000222        000000000 00000000000000000017771400000000015460000000175874DA                            D       0000000000000000000000
02000456460XXXXXX5735000000000 0000121613150959717000000000ziTXK5cPfw-221456802100WEB       JETSMART            0000000000 20230323001457        000000000 00000000000000000053385300000000100360000000521910DA                            C       0000000000000000000000
02000554926XXXXXX3313000000000 0000121613510385743000000000luBNLlyWpw-221741712100WEB       JETSMART            0000000000 20230323001741        000000000 00000000000000000007471400000000014050000000073042DA                            C       0000000000000000000000
02000434559XXXXXX7844000000000 0000121614020383178000000000z02mxbSfXw-222223152100WEB       JETSMART            0000000000 20230323002223        000000000 00000000000000000003185700000000002770000000031527DA                            D       0000000000000000000000
02000434560XXXXXX0586000000000 0000121614750453635000000000Is7FgE7mhA-222927422100WEB       JETSMART            0000000000 20230323002928        000000000 00000000000000000001785700000000001550000000017672DA                            D       0000000000000000000000
02000434559XXXXXX6510000000000 0000121615030330359000000000dA2TXoR96A-223333812100WEB       JETSMART            0000000000 20230323003334        000000000 00000000000000000001500000000000001310000000014845DA                            D       0000000000000000000000
02000456460XXXXXX3410000000000 0000121615580247383000000000lkxC0ySXOg-223750462100WEB       JETSMART            0000000000 20230323003750        000000000 00000000000000000003536500000000006650000000034574DA                            C       0000000000000000000000
02000456460XXXXXX7519000000000 0000104071840129291000000000EB6AOvsRmw-154003392120WEB       JETSMART            0000000000 20230210184041        000000000 00000000000000000000695700000000001310000000006801DA                            C       0000000000000000000000
02000434559XXXXXX5512000000000 0000121615730974008000000000c00VUv0JNg-223958892100WEB       JETSMART            0000000000 20230323003959        000000000 00000000000000000002285700000000001990000000022620DA                            D       0000000000000000000000
02000456460XXXXXX3410000000000 0000121616300860570000000000lkxC0ySXOg-224619442100WEB       JETSMART            0000000000 20230323004620        000000000 00000000000000000008093900000000015220000000079128DA                            C       0000000000000000000000
02000434559XXXXXX4064000000000 0000121617060329956000000000z7NpFJ5HLA-225410522100WEB       JETSMART            0000000000 20230323005410        000000000 00000000000000000008045000000000007000000000079617DA                            D       0000000000000000000000
02000434559XXXXXX8689000000000 0000121618190279479000000000ODHzoPP7EQ-231109192100WEB       JETSMART            0000000000 20230323011109        000000000 00000000000000000002071400000000001800000000020500DA                            D       0000000000000000000000
02000434559XXXXXX4358000000000 00001216195802314310000000001tqrY4Kmjg-233235992100WEB       JETSMART            0000000000 20230323013236        000000000 00000000000000000035465800000000030860000000350986DA                            D       0000000000000000000000
02000434560XXXXXX7080000000000 00001216198805138580000000001LMmBDGBIg-233701442100WEB       JETSMART            0000000000 20230323013702        000000000 00000000000000000001600000000000001390000000015834DA                            D       0000000000000000000000
02000434559XXXXXX6382000000000 0000121619960017630000000000T8e4qMEm3Q-233800892100WEB       JETSMART            0000000000 20230323013801        000000000 00000000000000000002485700000000002160000000024600DA                            D       0000000000000000000000
02000541678XXXXXX2452000000000 0000113486780336377000000000yy4UPr0q8A-185535012120WEB       JETSMART            0000000000 20230304215622        000000000 00000000000000000000695700000000001310000000006801DA                            C       0000000000000000000000
02000434559XXXXXX4804000000000 0000121620830693141000000000Rc7RM3phSg-000329562100WEB       JETSMART            0000000000 20230323020329        000000000 00000000000000000003790300000000003300000000037511DA                            D       0000000000000000000000
02000434559XXXXXX8289000000000 00001216208606195500000000009Nl6gOY00Q-000412852100WEB       JETSMART            0000000000 20230323020412        000000000 00000000000000000021091400000000018350000000208730DA                            D       0000000000000000000000
02000456473XXXXXX2905000000000 0000121640510951661000000000iP8jxkQxJQ-064523482100WEB       JETSMART            0000000000 20230323084523        000000000 00000000000000000011185700000000021030000000109355DA                            C       0000000000000000000000
02000434560XXXXXX8629000000000 0000121643250927141000000000wRdg1UlV0g-065826452100WEB       JETSMART            0000000000 20230323085826        000000000 00000000000000000001000000000000000870000000009896DA                            D       0000000000000000000000
02000434559XXXXXX7133000000000 00001216438104229070000000009YVPJUMWRA-070127832100WEB       JETSMART            0000000000 20230323090128        000000000 00000000000000000002985700000000002600000000029548DA                            D       0000000000000000000000
02000434560XXXXXX8629000000000 0000121646130549045000000000sGR0KRUDmg-071133292100WEB       JETSMART            0000000000 20230323091133        000000000 00000000000000000001000000000000000870000000009896DA                            D       0000000000000000000000
02000434561XXXXXX4492000000000 0000121647550846851000000000s8NsWquvMw-071730022100WEB       JETSMART            0000000000 20230323091730        000000000 00000000000000000001200000000000001040000000011876DA                            D       0000000000000000000000
02000434559XXXXXX1100000000000 0000121650090058218000000000tPAmAx8r0A-072645922100WEB       JETSMART            0000000000 20230323092646        000000000 00000000000000000005985700000000005210000000059237DA                            D       0000000000000000000000
02000434559XXXXXX4952000000000 0000121649890586643000000000iDxZljRERw-072612792100WEB       JETSMART            0000000000 20230323092613        000000000 00000000000000000007471400000000006500000000073940DA                            D       0000000000000000000000
02000434559XXXXXX6686000000000 0000121650740208384000000000ZuW3FNxrlg-072844342100WEB       JETSMART            0000000000 20230323092851        000000000 00000000000000000009371400000000008150000000092744DA                            D       0000000000000000000000
02000434560XXXXXX8879000000000 0000121651880645637000000000Z9pSRbJF7w-073241292100WEB       JETSMART            0000000000 20230323093241        000000000 00000000000000000002820000000000002450000000027908DA                            D       0000000000000000000000
02000434559XXXXXX1724000000000 0000121652650865638000000000C36KhVrw7w-073512052100WEB       JETSMART            0000000000 20230323093512        000000000 00000000000000000003885700000000003380000000038455DA                            D       0000000000000000000000
02000434559XXXXXX2709000000000 00001216537305356370000000002qtQ88fsvg-073851302100WEB       JETSMART            0000000000 20230323093851        000000000 00000000000000000006465400000000005620000000063985DA                            D       0000000000000000000000
02000434559XXXXXX5818000000000 0000121654570972424000000000zXpaGmv72g-074144212100WEB       JETSMART            0000000000 20230323094144        000000000 00000000000000000004585700000000003990000000045382DA                            D       0000000000000000000000
02000456477XXXXXX8118000000000 0000121657010214705000000000K3AnLQArXQ-074927012100WEB       JETSMART            0000000000 20230323094927        000000000 00000000000000000003085700000000005800000000030167DA                            C       0000000000000000000000
02000434561XXXXXX1634000000000 0000121659850294712000000000bn0iBvbnYQ-080001302100WEB       JETSMART            0000000000 20230323100001        000000000 00000000000000000005942800000000005170000000058813DA                            D       0000000000000000000000
02000434559XXXXXX3140000000000 0000121660420093644000000000crPpBBo0SQ-080145182100WEB       JETSMART            0000000000 20230323100145        000000000 00000000000000000007641400000000006650000000075623DA                            D       0000000000000000000000
02000456460XXXXXX3594000000000 00001216605402117420000000002T0J7pXlbA-080208522100WEB       JETSMART            0000000000 20230323100208        000000000 00000000000000000002400000000000004510000000023463DA                            C       0000000000000000000000
02000456477XXXXXX8118000000000 0000121661570114714000000000K3AnLQArXQ-080558342100WEB       JETSMART            0000000000 20230323100558        000000000 00000000000000000010185700000000019150000000099578DA                            C       0000000000000000000000
02000434559XXXXXX0491000000000 0000121661960170088000000000vyfFBdMzOQ-080715042100WEB       JETSMART            0000000000 20230323100715        000000000 00000000000000000000830000000000000720000000008214DA                            D       0000000000000000000000
02000434559XXXXXX3161000000000 0000121667420170161000000000TuMA0jJlcQ-082843452100WEB       JETSMART            0000000000 20230323102843        000000000 00000000000000000004471400000000003890000000044251DA                            D       0000000000000000000000
02000456477XXXXXX6706000000000 0000121673150898618000000000WHM5qHCSVA-084735802100WEB       JETSMART            0000000000 20230323104735        000000000 00000000000000000005371400000000010100000000052512DA                            C       0000000000000000000000
02000434559XXXXXX3359000000000 0000121676390396898000000000kEMegG1cvw-085718732100WEB       JETSMART            0000000000 20230323105719        000000000 00000000000000000001985700000000001730000000019651DA                            D       0000000000000000000000
02000434559XXXXXX3762000000000 00001206422303061840000000005C26kkpgmQ-182621172120WEB       JETSMART            0000000000 20230320202621        000000000 00000000000000000001391400000000001210000000013770DA                            D       0000000000000000000000
02000456477XXXXXX7272000000000 0000121687860573294000000000FT5qgl8WDQ-093117392100WEB       JETSMART            0000000000 20230323113117        000000000 00000000000000000005430100000000010210000000053086DA                            C       0000000000000000000000
02000434559XXXXXX7016000000000 0000121688910548519000000000007Iqpf4qA-093426382100WEB       JETSMART            0000000000 20230323113426        000000000 00000000000000000000400000000000000350000000003959DA                            D       0000000000000000000000
02000434559XXXXXX1249000000000 0000121689530860862000000000qBhl85V0bw-093655712100WEB       JETSMART            0000000000 20230323113655        000000000 00000000000000000010484700000000009120000000103762DA                            D       0000000000000000000000
02000434560XXXXXX4494000000000 0000121696090089371000000000KqgBKz2eaA-095617162100WEB       JETSMART            0000000000 20230323115617        000000000 00000000000000000016818800000000014630000000166447DA                            D       0000000000000000000000
02000434559XXXXXX1153000000000 0000121696770093270000000000q0dqLlgAlA-095830912100WEB       JETSMART            0000000000 20230323115831        000000000 00000000000000000005565700000000004840000000055081DA                            D       0000000000000000000000
02000434559XXXXXX1249000000000 0000121698420967718000000000qBhl85V0bw-100421982100WEB       JETSMART            0000000000 20230323120422        000000000 00000000000000000006684700000000005820000000066155DA                            D       0000000000000000000000
02000434559XXXXXX4934000000000 0000121698450291427000000000KhfEmkr8Lg-100423642100WEB       JETSMART            0000000000 20230323120423        000000000 00000000000000000001220000000000001060000000012074DA                            D       0000000000000000000000
02000434559XXXXXX8052000000000 0000120907720410808000000000iLyj0v8g1w-221608262120WEB       JETSMART            0000000000 20230321001608        000000000 00000000000000000000940700000000000820000000009310DA                            D       0000000000000000000000
02000434559XXXXXX0365000000000 0000121700700457920000000000PCXECiT5Uw-101124722100WEB       JETSMART            0000000000 20230323121125        000000000 00000000000000000017414200000000015150000000172339DA                            D       0000000000000000000000
02000434559XXXXXX8608000000000 0000121702530428185000000000bsAMeFbFRA-101724762100WEB       JETSMART            0000000000 20230323121725        000000000 00000000000000000003185700000000002770000000031527DA                            D       0000000000000000000000
02000434559XXXXXX1011000000000 0000121707490147433000000000ohq7zzphbA-103303112100WEB       JETSMART            0000000000 20230323123303        000000000 00000000000000000003271400000000002850000000032375DA                            D       0000000000000000000000
02000434560XXXXXX1115000000000 0000121707900858963000000000cViphT0GOw-103405122100WEB       JETSMART            0000000000 20230323123405        000000000 00000000000000000005942800000000005170000000058813DA                            D       0000000000000000000000
02000456477XXXXXX6506000000000 0000121709340661754000000000EuuVwOf7nQ-103818702100WEB       JETSMART            0000000000 20230323123818        000000000 00000000000000000002685700000000005050000000026256DA                            C       0000000000000000000000
02000434559XXXXXX1318000000000 0000121709390981808000000000T3b0ayu8jg-103833562100WEB       JETSMART            0000000000 20230323123833        000000000 00000000000000000015219500000000013240000000150619DA                            D       0000000000000000000000
02000434559XXXXXX0925000000000 00001217109208942810000000006T9z0YlfZA-104235082100WEB       JETSMART            0000000000 20230323124235        000000000 00000000000000000012689800000000011040000000125584DA                            D       0000000000000000000000
02000434559XXXXXX0762000000000 0000121711910082314000000000b1t0ZPXmOw-104506942100WEB       JETSMART            0000000000 20230323124508        000000000 00000000000000000009371400000000008150000000092744DA                            D       0000000000000000000000
02000434559XXXXXX3363000000000 0000121714390482944000000000fCuKO54l7w-105108562100WEB       JETSMART            0000000000 20230323125108        000000000 00000000000000000003271400000000002850000000032375DA                            D       0000000000000000000000
02000434559XXXXXX2771000000000 0000121718830205071000000000OeWuYsV6nA-110331942100WEB       JETSMART            0000000000 20230323130332        000000000 00000000000000000002885700000000002510000000028558DA                            D       0000000000000000000000
02000434560XXXXXX1988000000000 0000121724600829664000000000xs8A5ooMNg-112407462100WEB       JETSMART            0000000000 20230323132407        000000000 00000000000000000006385700000000005560000000063196DA                            D       0000000000000000000000
02000434559XXXXXX5946000000000 0000121725500612680000000000w3NAMuVisA-112657992100WEB       JETSMART            0000000000 20230323132658        000000000 00000000000000000005271400000000004590000000052168DA                            D       0000000000000000000000
02000434559XXXXXX1260000000000 0000121726740618129000000000jVZPwOKuxA-113107452100WEB       JETSMART            0000000000 20230323133107        000000000 00000000000000000014642800000000012740000000144912DA                            D       0000000000000000000000
02000456477XXXXXX2372000000000 00001217284209887730000000004DuWdkB9jw-113603732100WEB       JETSMART            0000000000 20230323133603        000000000 00000000000000000012371400000000023260000000120946DA                            C       0000000000000000000000
02000456460XXXXXX5306000000000 0000121730890026713000000000MhPH0vup9A-114253272100WEB       JETSMART            0000000000 20230323134253        000000000 00000000000000000011171400000000021000000000109215DA                            C       0000000000000000000000
02000541678XXXXXX1635000000000 0000121731600729655000000000jnl5acm8Hg-114509162100WEB       JETSMART            0000000000 20230323134509        000000000 00000000000000000003771400000000007090000000036870DA                            C       0000000000000000000000
02000456460XXXXXX9669000000000 0000121734890366199000000000tsZ0bIrTKg-115606012100WEB       JETSMART            0000000000 20230323135606        000000000 00000000000000000003685700000000006930000000036032DA                            C       0000000000000000000000
02000456477XXXXXX7357000000000 0000121737260102242000000000hWnjVFD0vg-120403072100WEB       JETSMART            0000000000 20230323140403        000000000 00000000000000000029497600000000055460000000288377DA                            C       0000000000000000000000
02000554926XXXXXX6809000000000 0000121741440711113000000000yKdlENxG3g-121534852100WEB       JETSMART            0000000000 20230323141534        000000000 00000000000000000033396900000000062790000000326497DA                            C       0000000000000000000000
02000456460XXXXXX7240000000000 00001217421704509840000000006bvvSwVGIg-121754752100WEB       JETSMART            0000000000 20230323141754        000000000 00000000000000000028685600000000053930000000280438DA                            C       0000000000000000000000
02000434559XXXXXX1754000000000 0000121744670394521000000000YGitBS2mZA-122518882100WEB       JETSMART            0000000000 20230323142519        000000000 00000000000000000006884700000000005990000000068134DA                            D       0000000000000000000000
02000434559XXXXXX2317000000000 00001217475400016230000000000QPF08YOig-123400862100WEB       JETSMART            0000000000 20230323143401        000000000 00000000000000000014042800000000012220000000138974DA                            D       0000000000000000000000
02000434559XXXXXX3329000000000 0000121748240181207000000000raatEQSi0A-123557962100WEB       JETSMART            0000000000 20230323143558        000000000 00000000000000000003800000000000003310000000037607DA                            D       0000000000000000000000
02000434559XXXXXX8711000000000 0000121748820412890000000000GaCTKTtRxA-123746972100WEB       JETSMART            0000000000 20230323143747        000000000 00000000000000000001485700000000001290000000014703DA                            D       0000000000000000000000
02000456477XXXXXX2379000000000 0000121753150815563000000000nyyHMNtfEA-125143692100WEB       JETSMART            0000000000 20230323145143        000000000 00000000000000000005171400000000009720000000050557DA                            C       0000000000000000000000
02000542663XXXXXX9763000000000 0000121753120991044000000000sk4Yp40xLQ-125140722100WEB       JETSMART            0000000000 20230323145140        000000000 00000000000000000002085700000000003920000000020390DA                            C       0000000000000000000000
02000434560XXXXXX4931000000000 0000121754520611070000000000b9bg08X1IQ-125627132100WEB       JETSMART            0000000000 20230323145627        000000000 00000000000000000002485700000000002160000000024600DA                            D       0000000000000000000000
02000434559XXXXXX1146000000000 0000121756990636145000000000gQ4TaCGyTA-130451202100WEB       JETSMART            0000000000 20230323150451        000000000 00000000000000000011884300000000010340000000117613DA                            D       0000000000000000000000
02000434560XXXXXX1766000000000 0000121758030073178000000000AIF9mnul2g-130838732100WEB       JETSMART            0000000000 20230323150839        000000000 00000000000000000006871400000000005980000000068003DA                            D       0000000000000000000000
02000434559XXXXXX1935000000000 0000121758370799008000000000Juzs6DDcOQ-131004502100WEB       JETSMART            0000000000 20230323151004        000000000 00000000000000000014690800000000012780000000145387DA                            D       0000000000000000000000
02000434560XXXXXX9962000000000 0000121762810268752000000000Puc9SXT50w-132635142100WEB       JETSMART            0000000000 20230323152635        000000000 00000000000000000005771400000000005020000000057116DA                            D       0000000000000000000000
02000434559XXXXXX5404000000000 0000121762870612699000000000lwFMUVcQZQ-132645112100WEB       JETSMART            0000000000 20230323152645        000000000 00000000000000000003484700000000003030000000034486DA                            D       0000000000000000000000
02000541678XXXXXX6479000000000 0000121762240565632000000000W0fS6R0rgQ-132437012100WEB       JETSMART            0000000000 20230323152437        000000000 00000000000000000005206000000000009790000000050895DA                            C       0000000000000000000000
02000434559XXXXXX3185000000000 0000120263080161702000000000K770P2K3DA-130815622120WEB       JETSMART            0000000000 20230320150815        000000000 00000000000000000000695700000000000610000000006885DA                            D       0000000000000000000000
02000456477XXXXXX7955000000000 0000121767160291221000000000GnXLUYzthg-134252882100WEB       JETSMART            0000000000 20230323154253        000000000 00000000000000000004385700000000008250000000042876DA                            C       0000000000000000000000
02000434559XXXXXX8444000000000 0000121772070273730000000000t0BjSzvLZA-135928432100WEB       JETSMART            0000000000 20230323155928        000000000 00000000000000000025614700000000022280000000253495DA                            D       0000000000000000000000
02000434559XXXXXX6177000000000 0000121786170527412000000000ZhpeQW6jXw-144423352100WEB       JETSMART            0000000000 20230323164423        000000000 00000000000000000007506700000000006530000000074290DA                            D       0000000000000000000000
02000434559XXXXXX1712000000000 00001217874501693730000000005cArwhtHfA-144918482100WEB       JETSMART            0000000000 20230323164918        000000000 00000000000000000004171400000000003630000000041282DA                            D       0000000000000000000000
02000456477XXXXXX1214000000000 0000121786850198634000000000UVTNtkaRyw-144655222100WEB       JETSMART            0000000000 20230323164655        000000000 00000000000000000000695700000000001310000000006801DA                            C       0000000000000000000000
02000434559XXXXXX0515000000000 0000121792080099718000000000u32xGlxFZA-150205062100WEB       JETSMART            0000000000 20230323170205        000000000 00000000000000000008571400000000007460000000084827DA                            D       0000000000000000000000
02000434559XXXXXX4204000000000 0000121792670493168000000000v9s12wZRcw-150433192100WEB       JETSMART            0000000000 20230323170433        000000000 00000000000000000029433000000000025610000000291283DA                            D       0000000000000000000000
02000456477XXXXXX6368000000000 0000121796860933241000000000g5210S0hhg-151931402100WEB       JETSMART            0000000000 20230323171931        000000000 00000000000000000003485700000000006550000000034077DA                            C       0000000000000000000000
02000456477XXXXXX9988000000000 00001217999708210710000000000p4OoH2G2Q-153015702100WEB       JETSMART            0000000000 20230323173015        000000000 00000000000000000002782800000000005230000000027205DA                            C       0000000000000000000000
02000456477XXXXXX1993000000000 0000121800640662141000000000Hp55jNNiZg-153227842100WEB       JETSMART            0000000000 20230323173228        000000000 00000000000000000002571400000000004830000000025139DA                            C       0000000000000000000000
02000434559XXXXXX2979000000000 0000121808730079201000000000M87gcZE9WA-160351112100WEB       JETSMART            0000000000 20230323180351        000000000 00000000000000000001885700000000001640000000018662DA                            D       0000000000000000000000
02000434559XXXXXX3357000000000 0000121811090622321000000000HomTfT0mXw-161208542100WEB       JETSMART            0000000000 20230323181208        000000000 00000000000000000001500000000000001310000000014845DA                            D       0000000000000000000000
02000542663XXXXXX0685000000000 00001218126401178950000000006dlm6LdJ2w-161738282100WEB       JETSMART            0000000000 20230323181738        000000000 00000000000000000017635700000000033160000000172412DA                            C       0000000000000000000000
02000434559XXXXXX0362000000000 0000121816690048255000000000rsoUOOizzw-163228822100WEB       JETSMART            0000000000 20230323183228        000000000 00000000000000000016930000000000014730000000167547DA                            D       0000000000000000000000
02000456477XXXXXX6421000000000 0000121816990902040000000000ecBBlzQj8Q-163351142100WEB       JETSMART            0000000000 20230323183351        000000000 00000000000000000001391400000000002620000000013603DA                            C       0000000000000000000000
02000434559XXXXXX1859000000000 0000112070900665774000000000fEzOEM4Tiw-175819962120WEB       JETSMART            0000000000 20230301205911        000000000 00000000000000000000695700000000000610000000006885DA                            D       0000000000000000000000
02000456477XXXXXX0303000000000 0000121819120413708000000000GjWMu1HoiQ-164218162100WEB       JETSMART            0000000000 20230323184218        000000000 00000000000000000003208700000000006030000000031369DA                            C       0000000000000000000000
02000434559XXXXXX8911000000000 0000121819150904870000000000Mo6yIhpcbQ-164222072100WEB       JETSMART            0000000000 20230323184222        000000000 00000000000000000004171400000000003630000000041282DA                            D       0000000000000000000000
02000456460XXXXXX1670000000000 0000121821450368827000000000Ekm7tmCgxQ-165103992100WEB       JETSMART            0000000000 20230323185104        000000000 00000000000000000002326700000000004370000000022746DA                            C       0000000000000000000000
02000434559XXXXXX6733000000000 000012182187089828700000000003Ky1qC0Vw-165315752100WEB       JETSMART            0000000000 20230323185315        000000000 00000000000000000002000000000000001740000000019793DA                            D       0000000000000000000000
02000456477XXXXXX4542000000000 0000121822490884774000000000yHxw04Qxvw-165551332100WEB       JETSMART            0000000000 20230323185551        000000000 00000000000000000013443300000000025270000000131425DA                            C       0000000000000000000000
02000456460XXXXXX7795000000000 0000121823970175780000000000eBHlBi4V7A-170134662100WEB       JETSMART            0000000000 20230323190134        000000000 00000000000000000018641600000000035050000000182246DA                            C       0000000000000000000000
02000434559XXXXXX8854000000000 00001218277909353350000000001xZI0ORiVg-171557152100WEB       JETSMART            0000000000 20230323191557        000000000 00000000000000000002800000000000002440000000027710DA                            D       0000000000000000000000
02000434559XXXXXX6298000000000 0000121830350920552000000000oaVTfYyuHA-172511412100WEB       JETSMART            0000000000 20230323192511        000000000 00000000000000000011346600000000009870000000112291DA                            D       0000000000000000000000
02000434560XXXXXX0383000000000 0000121830980064995000000000JdhK0FSz5w-172812932100WEB       JETSMART            0000000000 20230323192813        000000000 00000000000000000002385700000000002080000000023610DA                            D       0000000000000000000000
02000456477XXXXXX1015000000000 0000121831220265345000000000TaaRwJB4mA-172855382100WEB       JETSMART            0000000000 20230323192855        000000000 00000000000000000003260000000000006130000000031871DA                            C       0000000000000000000000
02000456477XXXXXX9066000000000 0000121833600699636000000000G5yggvoZCQ-173842942100WEB       JETSMART            0000000000 20230323193843        000000000 00000000000000000004771400000000008970000000046647DA                            C       0000000000000000000000
02000456460XXXXXX9343000000000 0000121833660762211000000000k8T0g2q39g-173848942100WEB       JETSMART            0000000000 20230323193849        000000000 00000000000000000043563300000000081900000000425887DA                            C       0000000000000000000000
02000434559XXXXXX5802000000000 0000113817310198422000000000556rgM8TxQ-192128492120WEB       JETSMART            0000000000 20230305222214        000000000 00000000000000000000695700000000000610000000006885DA                            D       0000000000000000000000
02000456460XXXXXX2432000000000 00001218419709715150000000004opXxxFXcg-181358532100WEB       JETSMART            0000000000 20230323201358        000000000 00000000000000000001358600000000002550000000013282DA                            C       0000000000000000000000
02000434559XXXXXX0767000000000 0000121842190206599000000000aFfEBoW0Jg-181447392100WEB       JETSMART            0000000000 20230323201447        000000000 00000000000000000008971400000000007810000000088785DA                            D       0000000000000000000000
02000434560XXXXXX5190000000000 0000121847660340646000000000CoK4F5Cbew-183645832100WEB       JETSMART            0000000000 20230323203645        000000000 00000000000000000002585700000000002250000000025589DA                            D       0000000000000000000000
02000434559XXXXXX5967000000000 00001218506507572920000000009CQsPfOp1Q-184621042100WEB       JETSMART            0000000000 20230323204621        000000000 00000000000000000007751400000000006740000000076711DA                            D       0000000000000000000000
02000434560XXXXXX6223000000000 0000121851360655819000000000SwfnYlbEEA-184839922100WEB       JETSMART            0000000000 20230323204840        000000000 00000000000000000010285700000000008950000000101792DA                            D       0000000000000000000000
02000434559XXXXXX8437000000000 0000121563070281087000000000M4aAwEcxEA-185938062100WEB       JETSMART            0000000000 20230322205938        000000000 00000000000000000014199400000000012350000000140524DA                            D       0000000000000000000000
02000456477XXXXXX5869000000000 0000121566040423208000000000MZgMik00lA-191136702100WEB       JETSMART            0000000000 20230322211136        000000000 00000000000000000013571400000000025510000000132678DA                            C       0000000000000000000000
02000434559XXXXXX9950000000000 0000100772890233335000000000Z4IMFiTfDg-212020382120WEB       JETSMART            0000000000 20230203002048        000000000 00000000000000000000695700000000000610000000006885DA                            D       0000000000000000000000
02000456460XXXXXX0416000000000 0000121568280350761000000000bWsM514yzw-191957322100WEB       JETSMART            0000000000 20230322211957        000000000 00000000000000000050015000000000094030000000488961DA                            C       0000000000000000000000
02000434559XXXXXX3894000000000 0000121569640324483000000000dRt71BiaRQ-192405902100WEB       JETSMART            0000000000 20230322212406        000000000 00000000000000000001000000000000000870000000009896DA                            D       0000000000000000000000
02000476832XXXXXX2505000000000 0000121570450148387000000000hI9fLMHe4g-192640422100WEB       JETSMART            0000000000 20230322212640        000000000 00000000000000000004371400000000008220000000042736DA                            C       0000000000000000000000
02000434559XXXXXX8149000000000 0000121571240544430000000000RJ0A0TQCgw-192908742100WEB       JETSMART            0000000000 20230322212908        000000000 00000000000000000020018300000000017420000000198111DA                            D       0000000000000000000000
02000456477XXXXXX7938000000000 0000121571350537577000000000pwe0UI36oA-192928182100WEB       JETSMART            0000000000 20230322212928        000000000 00000000000000000004751400000000008930000000046451DA                            C       0000000000000000000000
02000434559XXXXXX9464000000000 0000121571620656792000000000gO0PeE9bAg-193026012100WEB       JETSMART            0000000000 20230322213026        000000000 00000000000000000003085700000000002680000000030538DA                            D       0000000000000000000000
02000434559XXXXXX5553000000000 00001215722402737300000000009YpZ7FVI0w-193227742100WEB       JETSMART            0000000000 20230322213228        000000000 00000000000000000006871400000000005980000000068003DA                            D       0000000000000000000000
02000456473XXXXXX9232000000000 0000121573410504640000000000Xq2HJGULcg-193658902100WEB       JETSMART            0000000000 20230322213659        000000000 00000000000000000013976000000000026270000000136633DA                            C       0000000000000000000000
02000554926XXXXXX4879000000000 0000121573940190350000000000LPv04IMyEw-193845212100WEB       JETSMART            0000000000 20230322213845        000000000 00000000000000000033151400000000062320000000324097DA                            C       0000000000000000000000
02000434559XXXXXX9044000000000 0000121574850245882000000000WPMBMFl5PQ-194157562100WEB       JETSMART            0000000000 20230322214157        000000000 00000000000000000022066800000000019200000000218383DA                            D       0000000000000000000000
02000456477XXXXXX5794000000000 0000121575260175597000000000vWRrTz7KXg-194310622100WEB       JETSMART            0000000000 20230322214310        000000000 00000000000000000005185700000000009750000000050697DA                            C       0000000000000000000000
02000434559XXXXXX8983000000000 0000121576280776244000000000w3I8TMuzOw-194607832100WEB       JETSMART            0000000000 20230322214607        000000000 00000000000000000003171400000000002760000000031386DA                            D       0000000000000000000000
02000434560XXXXXX2487000000000 0000121576030138415000000000KJYjFgDbGQ-194521042100WEB       JETSMART            0000000000 20230322214521        000000000 00000000000000000005671400000000004930000000056127DA                            D       0000000000000000000000
02000434559XXXXXX0014000000000 0000121577000218810000000000vZyE1CXwlw-194824152100WEB       JETSMART            0000000000 20230322214824        000000000 00000000000000000003685700000000003210000000036475DA                            D       0000000000000000000000
02000434560XXXXXX5217000000000 0000121576910762647000000000lkZWdxJiPQ-194803092100WEB       JETSMART            0000000000 20230322214803        000000000 00000000000000000002071400000000001800000000020500DA                            D       0000000000000000000000
02000434559XXXXXX7901000000000 00001105037904885490000000000IUR50s7Dw-214915422120WEB       JETSMART            0000000000 20230227005009        000000000 00000000000000000000530300000000000460000000005248DA                            D       0000000000000000000000
02000434559XXXXXX4588000000000 0000121577760529396000000000z1tIDxA3pw-195045942100WEB       JETSMART            0000000000 20230322215046        000000000 00000000000000000004903700000000004270000000048529DA                            D       0000000000000000000000
02000434561XXXXXX5655000000000 000012157843029005600000000009M3o8KeWg-195305352100WEB       JETSMART            0000000000 20230322215305        000000000 00000000000000000007042800000000006130000000069699DA                            D       0000000000000000000000
02000434559XXXXXX6014000000000 0000121577990824772000000000ce0gTyQdCw-195129642100WEB       JETSMART            0000000000 20230322215129        000000000 00000000000000000010488600000000009130000000103800DA                            D       0000000000000000000000
02000456473XXXXXX5034000000000 0000121581770519097000000000nUBv0RZ4cw-200351542100WEB       JETSMART            0000000000 20230322220351        000000000 00000000000000000002000000000000003760000000019553DA                            C       0000000000000000000000
02000434559XXXXXX1083000000000 0000121583410632622000000000M0DfNW3wzQ-200925952100WEB       JETSMART            0000000000 20230322220926        000000000 00000000000000000000820000000000000710000000008115DA                            D       0000000000000000000000
02000434559XXXXXX9152000000000 0000121583430076922000000000pSk8kCedeg-200926882100WEB       JETSMART            0000000000 20230322220927        000000000 00000000000000000001500000000000001310000000014845DA                            D       0000000000000000000000
02000434559XXXXXX1122000000000 0000121583500095723000000000RTXCv2IlJQ-200944272100WEB       JETSMART            0000000000 20230322220944        000000000 00000000000000000004771400000000004150000000047220DA                            D       0000000000000000000000
02000434559XXXXXX6730000000000 0000121583940162178000000000uaYROJmbVA-201111132100WEB       JETSMART            0000000000 20230322221111        000000000 00000000000000000001856200000000001610000000018370DA                            D       0000000000000000000000
02000434559XXXXXX8983000000000 0000121583930867559000000000w3I8TMuzOw-201110492100WEB       JETSMART            0000000000 20230322221111        000000000 00000000000000000003171400000000002760000000031386DA                            D       0000000000000000000000
02000434559XXXXXX8375000000000 0000121584460052539000000000i8vz4lLhvg-201309182100WEB       JETSMART            0000000000 20230322221309        000000000 00000000000000000003185700000000002770000000031527DA                            D       0000000000000000000000
02000542663XXXXXX3241000000000 00001215856803897060000000001JFdrQ6ECw-201719802100WEB       JETSMART            0000000000 20230322221719        000000000 00000000000000000007298000000000013720000000071347DA                            C       0000000000000000000000
02000434561XXXXXX5582000000000 0000121587610912764000000000AexWSfM1nA-202427372100WEB       JETSMART            0000000000 20230322222427        000000000 00000000000000000009942800000000008650000000098399DA                            D       0000000000000000000000
02000434559XXXXXX6477000000000 0000121588360697259000000000QhfrgNLdIA-202702482100WEB       JETSMART            0000000000 20230322222702        000000000 00000000000000000006071400000000005280000000060085DA                            D       0000000000000000000000
02000434559XXXXXX9059000000000 0000114344690846941000000000cDuKlo9Xag-163603392120WEB       JETSMART            0000000000 20230306193648        000000000 00000000000000000005730900000000004990000000056716DA                            D       0000000000000000000000
02000434561XXXXXX4572000000000 0000121588800613808000000000adBD76pdXQ-202828252100WEB       JETSMART            0000000000 20230322222828        000000000 00000000000000000003771400000000003280000000037324DA                            D       0000000000000000000000
02000456477XXXXXX3568000000000 0000121588380922792000000000ygdbQjn9qg-202704062100WEB       JETSMART            0000000000 20230322222704        000000000 00000000000000000007371400000000013860000000072065DA                            C       0000000000000000000000
02000434559XXXXXX4473000000000 00001215887302641740000000002DwLqosMKA-202816502100WEB       JETSMART            0000000000 20230322222816        000000000 00000000000000000002571400000000002240000000025448DA                            D       0000000000000000000000
02000434560XXXXXX6538000000000 0000121593870988698000000000evXDVdPpoQ-204517232100WEB       JETSMART            0000000000 20230322224517        000000000 00000000000000000019512200000000016980000000193102DA                            D       0000000000000000000000
02000434559XXXXXX6771000000000 00001215940408001220000000004O4ZtcVR5g-204536622100WEB       JETSMART            0000000000 20230322224536        000000000 00000000000000000008771400000000007630000000086806DA                            D       0000000000000000000000
02000434559XXXXXX3466000000000 0000121594310954602000000000uCox3SaUQA-204637192100WEB       JETSMART            0000000000 20230322224637        000000000 00000000000000000001000000000000000870000000009896DA                            D       0000000000000000000000
02000434559XXXXXX3601000000000 00001215945208411000000000001CeljuChXw-204728582100WEB       JETSMART            0000000000 20230322224728        000000000 00000000000000000002540000000000002210000000025137DA                            D       0000000000000000000000
02000554926XXXXXX3313000000000 0000121596280068899000000000luBNLlyWpw-205243292100WEB       JETSMART            0000000000 20230322225243        000000000 00000000000000000007771400000000014610000000075975DA                            C       0000000000000000000000
02000434561XXXXXX8252000000000 0000121597050119012000000000N6EzaX19kA-205516422100WEB       JETSMART            0000000000 20230322225516        000000000 00000000000000000001000000000000000870000000009896DA                            D       0000000000000000000000
02000456477XXXXXX8064000000000 0000121597870836440000000000q2KASOKv5Q-205757542100WEB       JETSMART            0000000000 20230322225757        000000000 00000000000000000004185700000000007870000000040921DA                            C       0000000000000000000000
02000554926XXXXXX3313000000000 0000121598180441813000000000luBNLlyWpw-205859382100WEB       JETSMART            0000000000 20230322225859        000000000 00000000000000000005671400000000010660000000055445DA                            C       0000000000000000000000
02000554926XXXXXX3313000000000 0000121599700764825000000000luBNLlyWpw-210433002100WEB       JETSMART            0000000000 20230322230433        000000000 00000000000000000007771400000000014610000000075975DA                            C       0000000000000000000000
02000434559XXXXXX5614000000000 0000121599710896632000000000CnOjjULxRw-210438912100WEB       JETSMART            0000000000 20230322230439        000000000 00000000000000000022464800000000019540000000222322DA                            D       0000000000000000000000
02000554926XXXXXX3313000000000 0000121600590719697000000000luBNLlyWpw-210846102100WEB       JETSMART            0000000000 20230322230846        000000000 00000000000000000007971400000000014990000000077931DA                            C       0000000000000000000000
02000456477XXXXXX0249000000000 0000121600440256210000000000IYz9Ep0blA-210742932100WEB       JETSMART            0000000000 20230322230743        000000000 00000000000000000004072700000000007660000000039816DA                            C       0000000000000000000000
02000434559XXXXXX7979000000000 0000121600860411054000000000SMWzBaTKRA-210954882100WEB       JETSMART            0000000000 20230322230955        000000000 00000000000000000002785700000000002420000000027569DA                            D       0000000000000000000000
02000434561XXXXXX4391000000000 0000121601680742988000000000WiAtfcepxg-211320162100WEB       JETSMART            0000000000 20230322231320        000000000 00000000000000000005887400000000005120000000058264DA                            D       0000000000000000000000
02000554926XXXXXX3313000000000 0000121601710916321000000000luBNLlyWpw-211324242100WEB       JETSMART            0000000000 20230322231324        000000000 00000000000000000008571400000000016110000000083796DA                            C       0000000000000000000000
02000456460XXXXXX0391000000000 0000121602130800214000000000HY3qY0nsVA-211503402100WEB       JETSMART            0000000000 20230322231503        000000000 00000000000000000002571400000000004830000000025139DA                            C       0000000000000000000000
02000434559XXXXXX7442000000000 00001216028905287780000000009Qj2h0xbNQ-211833392100WEB       JETSMART            0000000000 20230322231833        000000000 00000000000000000008871400000000007720000000087796DA                            D       0000000000000000000000
02000434559XXXXXX0312000000000 0000121603380400290000000000KPeUfTQSWA-212038292100WEB       JETSMART            0000000000 20230322232038        000000000 00000000000000000010779800000000009380000000106682DA                            D       0000000000000000000000
02000434559XXXXXX2496000000000 0000121603900874153000000000gUMF1Aj4kA-212244532100WEB       JETSMART            0000000000 20230322232244        000000000 00000000000000000002485700000000002160000000024600DA                            D       0000000000000000000000
02000434559XXXXXX8059000000000 0000121604660159163000000000efETPzgOrQ-212650672100WEB       JETSMART            0000000000 20230322232650        000000000 00000000000000000004200000000000003650000000041565DA                            D       0000000000000000000000
02000456477XXXXXX6787000000000 00001216051103444200000000004C24vI7TFw-212818832100WEB       JETSMART            0000000000 20230322232818        000000000 00000000000000000005185700000000009750000000050697DA                            C       0000000000000000000000
02000434559XXXXXX3148000000000 0000121605560440488000000000EJ2nPB3KBg-213027252100WEB       JETSMART            0000000000 20230322233027        000000000 00000000000000000005271400000000004590000000052168DA                            D       0000000000000000000000
02000456477XXXXXX6787000000000 00001216067307339680000000004C24vI7TFw-213555482100WEB       JETSMART            0000000000 20230322233555        000000000 00000000000000000006385700000000012010000000062428DA                            C       0000000000000000000000
02000434559XXXXXX2858000000000 0000121606380013796000000000mKuRtQyuDA-213415072100WEB       JETSMART            0000000000 20230322233415        000000000 00000000000000000004071400000000003540000000040292DA                            D       0000000000000000000000
02000456477XXXXXX3038000000000 0000121607190146996000000000EL8JAhMW1w-213829112100WEB       JETSMART            0000000000 20230322233829        000000000 00000000000000000026785200000000050360000000261860DA                            C       0000000000000000000000
02000434560XXXXXX6214000000000 0000121607170649491000000000O0G8raCrwg-213805302100WEB       JETSMART            0000000000 20230322233805        000000000 00000000000000000008342800000000007260000000082564DA                            D       0000000000000000000000
02000434561XXXXXX9974000000000 0000121607900710227000000000SWjTKFKW2A-214136482100WEB       JETSMART            0000000000 20230322234136        000000000 00000000000000000010931400000000009510000000108182DA                            D       0000000000000000000000
02000456477XXXXXX6442000000000 0000121608220405514000000000V4fx1FpzCw-214318552100WEB       JETSMART            0000000000 20230322234318        000000000 00000000000000000003385700000000006370000000033100DA                            C       0000000000000000000000
02000434559XXXXXX2125000000000 000012160925058663900000000000dVPKUzQg-214836352100WEB       JETSMART            0000000000 20230322234837        000000000 00000000000000000002571400000000002240000000025448DA                            D       0000000000000000000000
02000434559XXXXXX3634000000000 0000121609450408016000000000oLplLAEG1Q-214933582100WEB       JETSMART            0000000000 20230322234933        000000000 00000000000000000006271400000000005460000000062065DA                            D       0000000000000000000000
02000434559XXXXXX4127000000000 0000121610710624620000000000K5gVWbDx1w-215747642100WEB       JETSMART            0000000000 20230322235747        000000000 00000000000000000003085700000000002680000000030538DA                            D       0000000000000000000000
02000434559XXXXXX7114000000000 0000121610830835799000000000IyGyGpRWqA-215813422100WEB       JETSMART            0000000000 20230322235813        000000000 00000000000000000020527700000000017860000000203152DA                            D       0000000000000000000000
02000434559XXXXXX0565000000000 0000121611010068514000000000Jp2qP5DwQg-215914982100WEB       JETSMART            0000000000 20230322235915        000000000 00000000000000000003471400000000003020000000034355DA                            D       0000000000000000000000
02000434559XXXXXX5717000000000 0000121611110922406000000000DCNmAyoSZQ-215940782100WEB       JETSMART            0000000000 20230322235940        000000000 00000000000000000002385700000000002080000000023610DA                            D       0000000000000000000000
02000434559XXXXXX7844000000000 0000121611270171122000000000z02mxbSfXw-220040362100WEB       JETSMART            0000000000 20230323000040        000000000 00000000000000000002384700000000002070000000023600DA                            D       0000000000000000000000
02000434559XXXXXX2626000000000 00001216116704911030000000000uhnqCqmNQ-220323572100WEB       JETSMART            0000000000 20230323000323        000000000 00000000000000000026272100000000022860000000260001DA                            D       0000000000000000000000
02000434559XXXXXX3882000000000 0000121612190574272000000000VhCkI5ytBQ-220749102100WEB       JETSMART            0000000000 20230323000749        000000000 00000000000000000002485700000000002160000000024600DA                            D       0000000000000000000000
02000434559XXXXXX3538000000000 0000121612770109622000000000IiS0qzEHWw-221221752100WEB       JETSMART            0000000000 20230323001222        000000000 00000000000000000003285700000000002860000000032517DA                            D       0000000000000000000000
02000456460XXXXXX0198000000000 0000121613560952528000000000tEFCmABVGA-221810002100WEB       JETSMART            0000000000 20230323001810        000000000 00000000000000000002384700000000004480000000023313DA                            C       0000000000000000000000
02000434560XXXXXX2005000000000 0000121617660459802000000000aD4hbyXQBg-230318752100WEB       JETSMART            0000000000 20230323010318        000000000 00000000000000000010171400000000008850000000100661DA                            D       0000000000000000000000
02000434559XXXXXX4409000000000 0000121617900503343000000000OLyVrLOpXA-230646392100WEB       JETSMART            0000000000 20230323010646        000000000 00000000000000000006342800000000005520000000062771DA                            D       0000000000000000000000
02000434559XXXXXX2055000000000 0000121617990882713000000000NQ10Q0K5HA-230742692100WEB       JETSMART            0000000000 20230323010742        000000000 00000000000000000004371400000000003800000000043261DA                            D       0000000000000000000000
02000456477XXXXXX5331000000000 0000121618110507934000000000sBtfXtDogg-231015022100WEB       JETSMART            0000000000 20230323011016        000000000 00000000000000000000695700000000001310000000006801DA                            C       0000000000000000000000
02000434559XXXXXX2900000000000 0000121623330810525000000000im3RyK6Pjw-021423892100WEB       JETSMART            0000000000 20230323041424        000000000 00000000000000000026985600000000023480000000267062DA                            D       0000000000000000000000
02000434559XXXXXX4269000000000 0000121626490354091000000000MZ9pqPenUw-043944242100WEB       JETSMART            0000000000 20230323063944        000000000 00000000000000000002385700000000002080000000023610DA                            D       0000000000000000000000
02000434559XXXXXX8251000000000 0000121627120937672000000000iq04GgcmHw-045003442100WEB       JETSMART            0000000000 20230323065003        000000000 00000000000000000002971400000000002590000000029406DA                            D       0000000000000000000000
02000456477XXXXXX1634000000000 0000121636830974566000000000sV7CANoHtA-062333852100WEB       JETSMART            0000000000 20230323082334        000000000 00000000000000000012542800000000023580000000122622DA                            C       0000000000000000000000
02000456460XXXXXX7990000000000 0000121637670101902000000000gSGp9asy1w-062806112100WEB       JETSMART            0000000000 20230323082806        000000000 00000000000000000000010000000000000020000000000098DA                            C       0000000000000000000000
02000434561XXXXXX4866000000000 0000121638270805265000000000gGKCcyUl5g-063219812100WEB       JETSMART            0000000000 20230323083220        000000000 00000000000000000006300400000000005480000000062352DA                            D       0000000000000000000000
02000434561XXXXXX9337000000000 0000121638790671697000000000NRL2bbXFKA-063517162100WEB       JETSMART            0000000000 20230323083517        000000000 00000000000000000003171400000000002760000000031386DA                            D       0000000000000000000000
02000456473XXXXXX2905000000000 0000121644110318506000000000iP8jxkQxJQ-070252212100WEB       JETSMART            0000000000 20230323090252        000000000 00000000000000000003185700000000005990000000031144DA                            C       0000000000000000000000
02000456477XXXXXX2174000000000 0000121643200973557000000000uetw0GNNmQ-065801962100WEB       JETSMART            0000000000 20230323085802        000000000 00000000000000000002785700000000005240000000027234DA                            C       0000000000000000000000
02000434559XXXXXX4962000000000 0000121644250700468000000000NAkSpI4KWw-070346332100WEB       JETSMART            0000000000 20230323090346        000000000 00000000000000000000400000000000000350000000003959DA                            D       0000000000000000000000
02000434561XXXXXX9347000000000 0000121648930323711000000000lCstxlY4qA-072238032100WEB       JETSMART            0000000000 20230323092238        000000000 00000000000000000005745700000000005000000000056862DA                            D       0000000000000000000000
02000434559XXXXXX7112000000000 0000121652840681885000000000lTd4vbab0w-073604482100WEB       JETSMART            0000000000 20230323093604        000000000 00000000000000000000500000000000000440000000004948DA                            D       0000000000000000000000
02000434559XXXXXX1938000000000 00001216530707509670000000003WZNxEgQUA-073648702100WEB       JETSMART            0000000000 20230323093648        000000000 00000000000000000005190000000000004520000000051363DA                            D       0000000000000000000000
02000434560XXXXXX2198000000000 0000121655240228331000000000I10N8dy11w-074339332100WEB       JETSMART            0000000000 20230323094339        000000000 00000000000000000004171400000000003630000000041282DA                            D       0000000000000000000000
02000434559XXXXXX0522000000000 0000084316880884196000000000xb5agDPwcA-180357352120WEB       JETSMART            0000000000 20221221210406        000000000 00000000000000000003597800000000003130000000035606DA                            D       0000000000000000000000
02000434560XXXXXX9859000000000 0000121659790865199000000000LL5JGch0LA-075938762100WEB       JETSMART            0000000000 20230323095939        000000000 00000000000000000003285700000000002860000000032517DA                            D       0000000000000000000000
02000456477XXXXXX8118000000000 0000121663400445945000000000K3AnLQArXQ-081308262100WEB       JETSMART            0000000000 20230323101308        000000000 00000000000000000007185700000000013510000000070249DA                            C       0000000000000000000000
02000434559XXXXXX2780000000000 0000121664950056201000000000RotaHnYIeg-081919472100WEB       JETSMART            0000000000 20230323101919        000000000 00000000000000000001885700000000001640000000018662DA                            D       0000000000000000000000
02000554926XXXXXX9331000000000 0000121665180942261000000000nAlltb7tlw-082009062100WEB       JETSMART            0000000000 20230323102009        000000000 00000000000000000046935200000000088240000000458852DA                            C       0000000000000000000000
02000456477XXXXXX7359000000000 0000121664960972268000000000MWigmpLoIg-081921572100WEB       JETSMART            0000000000 20230323101921        000000000 00000000000000000012772000000000024010000000124863DA                            C       0000000000000000000000
02000434559XXXXXX9004000000000 0000112455000510089000000000BdaxSBuCRA-122412312120WEB       JETSMART            0000000000 20230302152502        000000000 00000000000000000000695700000000000610000000006885DA                            D       0000000000000000000000
02000434559XXXXXX6830000000000 0000121672130177583000000000ukcmwNzFXg-084332902100WEB       JETSMART            0000000000 20230323104333        000000000 00000000000000000002071400000000001800000000020500DA                            D       0000000000000000000000
02000434559XXXXXX5430000000000 0000121677010219209000000000XB9Puauy2Q-085859842100WEB       JETSMART            0000000000 20230323105900        000000000 00000000000000000021706300000000018880000000214816DA                            D       0000000000000000000000
02000456477XXXXXX3647000000000 0000121677230231944000000000rWuG7k9NWQ-085940252100WEB       JETSMART            0000000000 20230323105940        000000000 00000000000000000019927400000000037460000000194816DA                            C       0000000000000000000000
02000456460XXXXXX5159000000000 0000121677130319797000000000XcstZLbN4g-085917832100WEB       JETSMART            0000000000 20230323105918        000000000 00000000000000000003485700000000006550000000034077DA                            C       0000000000000000000000
02000434559XXXXXX8786000000000 0000121677930050785000000000oI0OOXovkQ-090141462100WEB       JETSMART            0000000000 20230323110141        000000000 00000000000000000000910000000000000790000000009006DA                            D       0000000000000000000000
02000434559XXXXXX7125000000000 0000121681730831940000000000yVaRvjHFVA-091159512100WEB       JETSMART            0000000000 20230323111200        000000000 00000000000000000011942800000000010390000000118192DA                            D       0000000000000000000000
02000456460XXXXXX7338000000000 0000121682670798651000000000MvIXwrop0w-091511422100WEB       JETSMART            0000000000 20230323111511        000000000 00000000000000000059031300000000110980000000577107DA                            C       0000000000000000000000
02000434560XXXXXX6228000000000 0000121683230647624000000000KZZE2Zo3lQ-091634502100WEB       JETSMART            0000000000 20230323111634        000000000 00000000000000000005759700000000005010000000057001DA                            D       0000000000000000000000
02000434559XXXXXX5848000000000 0000121686330596337000000000kHlOQYHt6A-092722272100WEB       JETSMART            0000000000 20230323112722        000000000 00000000000000000003385700000000002950000000033506DA                            D       0000000000000000000000
02000434559XXXXXX5111000000000 0000121686270849485000000000hWq3dU2vcA-092712652100WEB       JETSMART            0000000000 20230323112712        000000000 00000000000000000004906000000000004270000000048552DA                            D       0000000000000000000000
02000434559XXXXXX6053000000000 0000121687030563040000000000Gvxnw0Qrrw-092925262100WEB       JETSMART            0000000000 20230323112925        000000000 00000000000000000005850000000000005090000000057894DA                            D       0000000000000000000000
02000456477XXXXXX8690000000000 0000121686700354957000000000kHhINhbHZQ-092826092100WEB       JETSMART            0000000000 20230323112826        000000000 00000000000000000030371400000000057100000000296919DA                            C       0000000000000000000000
02000434559XXXXXX0014000000000 00001216891709433930000000000H0E8zbJUA-093528242100WEB       JETSMART            0000000000 20230323113528        000000000 00000000000000000008220500000000007150000000081354DA                            D       0000000000000000000000
02000434559XXXXXX4755000000000 0000112293130576089000000000M8ogEgcHyA-073303452120WEB       JETSMART            0000000000 20230302103354        000000000 00000000000000000000695700000000000610000000006885DA                            D       0000000000000000000000
02000434559XXXXXX6651000000000 0000081074390078798000000000FAZjv6z0dw-072237762120WEB       JETSMART            0000000000 20221215102239        000000000 00000000000000000000683400000000000590000000006763DA                            D       0000000000000000000000
02000434559XXXXXX1249000000000 0000121694020607586000000000qBhl85V0bw-095104232100WEB       JETSMART            0000000000 20230323115104        000000000 00000000000000000005884700000000005120000000058238DA                            D       0000000000000000000000
02000434559XXXXXX1249000000000 0000121696160426669000000000qBhl85V0bw-095628782100WEB       JETSMART            0000000000 20230323115628        000000000 00000000000000000009484700000000008250000000093865DA                            D       0000000000000000000000
02000434559XXXXXX1249000000000 0000121702950886323000000000qBhl85V0bw-101847232100WEB       JETSMART            0000000000 20230323121847        000000000 00000000000000000004985700000000004340000000049341DA                            D       0000000000000000000000
02000541678XXXXXX0168000000000 0000121704450538484000000000jgGTRnnQGw-102315042100WEB       JETSMART            0000000000 20230323122315        000000000 00000000000000000001585700000000002980000000015502DA                            C       0000000000000000000000
02000476832XXXXXX6297000000000 00001217068703176530000000002ylQThob0Q-103104812100WEB       JETSMART            0000000000 20230323123104        000000000 00000000000000000001885700000000003550000000018435DA                            C       0000000000000000000000
02000434559XXXXXX0365000000000 0000121706880454835000000000PCXECiT5Uw-103106602100WEB       JETSMART            0000000000 20230323123106        000000000 00000000000000000002971400000000002590000000029406DA                            D       0000000000000000000000
02000541678XXXXXX8089000000000 0000121707800169783000000000V4ook70XEg-103355842100WEB       JETSMART            0000000000 20230323123355        000000000 00000000000000000001285700000000002420000000012569DA                            C       0000000000000000000000
02000456460XXXXXX0093000000000 0000121707880362076000000000GciHGGgRwA-103400282100WEB       JETSMART            0000000000 20230323123400        000000000 00000000000000000005785700000000010880000000056563DA                            C       0000000000000000000000
02000434559XXXXXX7198000000000 00001217083206145410000000001BOe4Ifv0Q-103518402100WEB       JETSMART            0000000000 20230323123518        000000000 00000000000000000012771400000000011110000000126392DA                            D       0000000000000000000000
02000434560XXXXXX7080000000000 0000113625960264730000000000oiuRhJdynQ-102545502120WEB       JETSMART            0000000000 20230305132632        000000000 00000000000000000002782800000000002420000000027540DA                            D       0000000000000000000000
02000434560XXXXXX8299000000000 00001217085800655530000000000kG2jack7w-103602912100WEB       JETSMART            0000000000 20230323123603        000000000 00000000000000000010314200000000008970000000102074DA                            D       0000000000000000000000
02000434559XXXXXX8745000000000 0000121711340798811000000000BhwJ0gIa8A-104345622100WEB       JETSMART            0000000000 20230323124345        000000000 00000000000000000001000000000000000870000000009896DA                            D       0000000000000000000000
02000434560XXXXXX3539000000000 0000121711640999145000000000Banq9mVUWA-104438572100WEB       JETSMART            0000000000 20230323124438        000000000 00000000000000000007642000000000006650000000075629DA                            D       0000000000000000000000
02000456477XXXXXX3150000000000 0000121713150650719000000000txB00UHsqQ-104822862100WEB       JETSMART            0000000000 20230323124823        000000000 00000000000000000007605700000000014300000000074355DA                            C       0000000000000000000000
02000434559XXXXXX8403000000000 0000121715590992821000000000RdN2IaxxqQ-105419622100WEB       JETSMART            0000000000 20230323125419        000000000 00000000000000000011598400000000010090000000114783DA                            D       0000000000000000000000
02000434559XXXXXX0964000000000 0000121716100114552000000000yEkUA7txVQ-105529412100WEB       JETSMART            0000000000 20230323125529        000000000 00000000000000000003985700000000003470000000039444DA                            D       0000000000000000000000
02000434559XXXXXX2458000000000 0000121715720381404000000000DSQUCUhoJg-105436982100WEB       JETSMART            0000000000 20230323125437        000000000 00000000000000000014414200000000012540000000142650DA                            D       0000000000000000000000
02000434559XXXXXX2651000000000 0000070706500127512000000000UskgRYsg1g-080103052120WEB       JETSMART            0000000000 20221119110127        000000000 00000000000000000007039200000000006120000000069663DA                            D       0000000000000000000000
02000434559XXXXXX1192000000000 0000121733320212632000000000kJjxvX720A-115014892100WEB       JETSMART            0000000000 20230323135015        000000000 00000000000000000002585700000000002250000000025589DA                            D       0000000000000000000000
02000456460XXXXXX4836000000000 0000084356240804639000000000OrwJpr74mg-201659702120WEB       JETSMART            0000000000 20221221231708        000000000 00000000000000000000683400000000001280000000006681DA                            C       0000000000000000000000
02000434559XXXXXX8917000000000 0000121736520623254000000000krb9Y5ifGQ-120136352100WEB       JETSMART            0000000000 20230323140136        000000000 00000000000000000001090500000000000950000000010792DA                            D       0000000000000000000000
02000434559XXXXXX1754000000000 0000121738960150538000000000YGitBS2mZA-120904872100WEB       JETSMART            0000000000 20230323140905        000000000 00000000000000000004884700000000004250000000048341DA                            D       0000000000000000000000
02000434561XXXXXX4799000000000 0000121740400005257000000000phs05rr01w-121246362100WEB       JETSMART            0000000000 20230323141246        000000000 00000000000000000005231700000000004550000000051775DA                            D       0000000000000000000000
02000434560XXXXXX9962000000000 0000121742580490873000000000Puc9SXT50w-121900382100WEB       JETSMART            0000000000 20230323141900        000000000 00000000000000000001196000000000001040000000011836DA                            D       0000000000000000000000
02000434560XXXXXX5433000000000 0000121746100714527000000000d65iV6Ckjw-122930622100WEB       JETSMART            0000000000 20230323142930        000000000 00000000000000000002340000000000002040000000023158DA                            D       0000000000000000000000
02000456477XXXXXX8597000000000 0000121748110832055000000000bB4Thqv0xQ-123535242100WEB       JETSMART            0000000000 20230323143535        000000000 00000000000000000000695700000000001310000000006801DA                            C       0000000000000000000000
02000434560XXXXXX9962000000000 0000121748760947932000000000Puc9SXT50w-123741852100WEB       JETSMART            0000000000 20230323143741        000000000 00000000000000000003171400000000002760000000031386DA                            D       0000000000000000000000
02000434559XXXXXX6243000000000 0000121754660686967000000000iGgaU5DrUw-125648542100WEB       JETSMART            0000000000 20230323145648        000000000 00000000000000000002585700000000002250000000025589DA                            D       0000000000000000000000
02000456460XXXXXX1910000000000 0000121755260015337000000000Ywh6C0CJ0w-125849462100WEB       JETSMART            0000000000 20230323145849        000000000 00000000000000000001509600000000002840000000014758DA                            C       0000000000000000000000
02000434560XXXXXX9962000000000 0000121756290338757000000000Puc9SXT50w-130213642100WEB       JETSMART            0000000000 20230323150213        000000000 00000000000000000004971400000000004330000000049199DA                            D       0000000000000000000000
02000434559XXXXXX1471000000000 000011085755017556100000000052PCSS0vcw-193852262120WEB       JETSMART            0000000000 20230227223945        000000000 00000000000000000001391400000000001210000000013770DA                            D       0000000000000000000000
02000434559XXXXXX8175000000000 0000121758770684892000000000QgQOihiY0w-131140412100WEB       JETSMART            0000000000 20230323151140        000000000 00000000000000000002885700000000002510000000028558DA                            D       0000000000000000000000
02000434559XXXXXX0295000000000 0000121760610152249000000000IRv24g86jA-131810912100WEB       JETSMART            0000000000 20230323151811        000000000 00000000000000000004706000000000004090000000046573DA                            D       0000000000000000000000
02000434559XXXXXX2596000000000 0000121760740963391000000000UX98Pgx8TQ-131828862100WEB       JETSMART            0000000000 20230323151829        000000000 00000000000000000001985700000000001730000000019651DA                            D       0000000000000000000000
02000434560XXXXXX9962000000000 0000121761310759292000000000Puc9SXT50w-132136552100WEB       JETSMART            0000000000 20230323152136        000000000 00000000000000000005771400000000005020000000057116DA                            D       0000000000000000000000
02000541678XXXXXX1345000000000 0000121765760471871000000000A15D6FgvHA-133658552100WEB       JETSMART            0000000000 20230323153658        000000000 00000000000000000002985700000000005610000000029189DA                            C       0000000000000000000000
