0120230324ADQDIGITAL0711337008
020589693XXXXXXXX4006000000000 000012182501054471600000000000000000000000213942100COMPRA INT UNIVERS  CL        0000000012 20230323190543        000000000 00000000000000000014500000000000000000000000145000DA                            D       0000000000000000000000
020589693XXXXXXXX4006000000000 000012182547028259600000000000000000000000213942100COMPRA INT UNIVERS  CL        0000000012 20230323190543        000000000 00000000000000000014500000000000000000000000145000DA                            D       0000000000000000000000
02000475774XXXXXX5750000000000 000012165987062138300000000000000000000000213852100WEB       UNIVERSIDAD         0000000000 20230323100006        000000000 00000000000000000014500000000000011170000000143671DA                            D       0000000000000000000000
02000440612XXXXXX6791000000000 000012158781025354900000000000000000000000212902100WEB       UNIVERSIDAD         0000000000 20230322222528        000000000 00000000000000000014500000000000011170000000143671DA                            D       0000000000000000000000
02000409767XXXXXX0022000000000 000012160488086253100000000000000000000000213452100WEB       UNIVERSIDAD         0000000000 20230322232742        000000000 00000000000000000014500000000000011170000000143671DA                            D       0000000000000000000000
02000475774XXXXXX5854000000000 000012160778013099500000000000000000000000211772100WEB       UNIVERSIDAD         0000000000 20230322234119        000000000 00000000000000000014500000000000011170000000143671DA                            D       0000000000000000000000
02000554904XXXXXX3705000000000 000012182584082306200000000000000000000000213942100WEB       UNIVERSIDAD         0000000000 20230323190843        000000000 00000000000000000014500000000000013630000000143378DA                            C       0000000000000000000000
03000005000000072500000000000000000000000000050000000718062                                                                                                                                                        
