0120230324ADQDIGITAL0966216409
02000589693XXXXXX4999000000000 000012159085084453100000000021196872303222235502100COMPRA INT AIEP     CL        0000000082 20230322223627        000000000 00000000000000000016608300000000000000000000166083DA                            D       0000000000000000000000
02000548742XXXXXX2292000000000 000012159414012759700000000017103612303222245182100WEB       AIEP                0000000051 20230322224557        000000000 00000000000000000016529000000000000000000000165290DA                            C       0000000000000000000000
02000548742XXXXXX2292000000000 000012159478074488300000000017103612303222245182100WEB       AIEP                0000000051 20230322224557        000000000 00000000000000000016529000000000000000000000165290DA                            C       0000000000000000000000
02000451368XXXXXX4875000000000 000012159565006684700000000017103612303222248512100WEB       AIEP                0000000051 20230322224853        000000000 00000000000000000008264500000000000000000000082645DA                            D       0000000000000000000000
02000434559XXXXXX8910000000000 000012159697086033200000000021458222303222254472100WEB       AIEP                00000000Q5 20230322225500        000000000 00000000000000000047798000000000000000000000477980DA                            D       0000000000000000000000
02000448165XXXXXX0764000000000 000012166174009123200000000021273032303230953082100WEB       AIEP                0000000036 20230323095326        000000000 00000000000000000252300000000000000000000002523000DA                            C       0000000000000000000000
02000512269XXXXXX9171000000000 000012166940008325400000000021273032303231034302100WEB       AIEP                0000000079 20230323103439        000000000 00000000000000000252300000000000000000000002523000DA                            C       0000000000000000000000
02000512269XXXXXX9171000000000 000012166985082950200000000021273032303231034302100WEB       AIEP                0000000083 20230323103439        000000000 00000000000000000252300000000000000000000002523000DA                            C       0000000000000000000000
02000512269XXXXXX8126000000000 000012167296002890700000000017847292303231046432100WEB       AIEP                0000000079 20230323104704        000000000 00000000000000000012258300000000000000000000122583DA                            C       0000000000000000000000
02000559202XXXXXX5002000000000 000012167566026109700000000018289042303231054392100WEB       AIEP                0000000083 20230323105454        000000000 00000000000000000016680000000000000000000000166800DA                            C       0000000000000000000000
02000434559XXXXXX4629000000000 000012168104045845800000000021491172303231109332100WEB       AIEP                00000000Q5 20230323110953        000000000 00000000000000000051938400000000000000000000519384DA                            D       0000000000000000000000
02000434559XXXXXX2573000000000 000012168311076203200000000021770232303231113532100WEB       AIEP                0000000051 20230323111433        000000000 00000000000000000017133300000000000000000000171333DA                            D       0000000000000000000000
020589710XXXXXXXX1030000000000 000012171223068957200000000015704292303231239312100WEB       AIEP                0000000012 20230323123944        000000000 00000000000000000016635900000000000000000000166359DA                            D       0000000000000000000000
02000434559XXXXXX2782000000000 000012172289097851300000000020734122303231316202100WEB       AIEP                00000000Q5 20230323131634        000000000 00000000000000000047215400000000000000000000472154DA                            D       0000000000000000000000
02000533187XXXXXX2530000000000 000012172448001118000000000019939362303231322112100WEB       AIEP                0000000083 20230323132343        000000000 00000000000000000016475900000000000000000000164759DA                            D       0000000000000000000000
02000533187XXXXXX2530000000000 000012172485087161800000000019939362303231322112100WEB       AIEP                0000000083 20230323132343        000000000 00000000000000000016475900000000000000000000164759DA                            D       0000000000000000000000
02000548742XXXXXX3422000000000 000012177914083479700000000021168632303231619312100WEB       AIEP                0000000083 20230323161953        000000000 00000000000000000020637500000000000000000000206375DA                            C       0000000000000000000000
02000548652XXXXXX2226000000000 000012179316037165400000000016882552303231705222100WEB       AIEP                0000000068 20230323170556        000000000 00000000000000000040400000000000000000000000404000DA                            C       0000000000000000000000
02000548652XXXXXX2226000000000 000012179557042048100000000016882552303231714332100WEB       AIEP                0000000068 20230323171438        000000000 00000000000000000040400000000000000000000000404000DA                            C       0000000000000000000000
02000548652XXXXXX2226000000000 000012179652027627200000000016882552303231714332100WEB       AIEP                0000000068 20230323171438        000000000 00000000000000000040400000000000000000000000404000DA                            C       0000000000000000000000
02000434559XXXXXX0257000000000 000012182461003161200000000019713522303231903582100WEB       AIEP                0000000002 20230323190416        000000000 00000000000000000010916600000000000000000000109166DA                            D       0000000000000000000000
02000434559XXXXXX8088000000000 000012182745091570100000000020471362303231908322100WEB       AIEP                00000000Q5 20230323191020        000000000 00000000000000000044797200000000000000000000447972DA                            D       0000000000000000000000
02000440698XXXXXX4761000000000 000012184535017549700000000020210552303232026002100WEB       AIEP                0000000057 20230323202733        000000000 00000000000000000029179100000000000000000000291791DA                            D       0000000000000000000000
02000475774XXXXXX9003000000000 000012157130051495400000000021332792303222128572100WEB       AIEP                0000000061 20230322212916        000000000 00000000000000000023354100000000000000000000233541DA                            D       0000000000000000000000
02000434559XXXXXX8718000000000 000012157471000401600000000019332612303222140582100WEB       AIEP                00000000Q5 20230322214125        000000000 00000000000000000039100000000000000000000000391000DA                            D       0000000000000000000000
02000529883XXXXXX8004000000000 000012158333036942500000000020930312303222203462100WEB       AIEP                0000000051 20230322220909        000000000 00000000000000000013252500000000000000000000132525DA                            C       0000000000000000000000
02000533187XXXXXX3153000000000 000012158317002663600000000014202382303222207592100WEB       AIEP                0000000051 20230322220835        000000000 00000000000000000020485100000000000000000000204851DA                            D       0000000000000000000000
020589693XXXXXXXX3005000000000 000012158990010611300000000021196872303222231532100COMPRA INT AIEP     CL        0000000012 20230322223305        000000000 00000000000000000016608300000000000000000000166083DA                            D       0000000000000000000000
02000548742XXXXXX2292000000000 000012159502068709500000000017103612303222248512100WEB       AIEP                0000000051 20230322224853        000000000 00000000000000000008264500000000000000000000082645DA                            C       0000000000000000000000
02000559202XXXXXX8346000000000 000012159718016616300000000017103612303222255022100WEB       AIEP                0000000051 20230322225536        000000000 00000000000000000008264500000000000000000000082645DA                            C       0000000000000000000000
02000559202XXXXXX8346000000000 000012159740045068200000000017103612303222255022100WEB       AIEP                0000000051 20230322225536        000000000 00000000000000000008264500000000000000000000082645DA                            C       0000000000000000000000
02000434559XXXXXX0305000000000 000012160163086097600000000021797072303222311152100WEB       AIEP                0000000002 20230322231134        000000000 00000000000000000017162500000000000000000000171625DA                            D       0000000000000000000000
02000434559XXXXXX9306000000000 000012160195001648400000000019691042303222313332100WEB       AIEP                00000000Q5 20230322231417        000000000 00000000000000000046336800000000000000000000463368DA                            D       0000000000000000000000
02000434559XXXXXX8602000000000 000012160335013757300000000020061462303222318102100WEB       AIEP                00000000Q5 20230322231825        000000000 00000000000000000016669100000000000000000000166691DA                            D       0000000000000000000000
02000559202XXXXXX5002000000000 000012167707077605800000000018289042303231054392100WEB       AIEP                0000000083 20230323105454        000000000 00000000000000000016680000000000000000000000166800DA                            C       0000000000000000000000
02000559779XXXXXX4041000000000 000012168186032508500000000021491172303231109332100WEB       AIEP                0000000061 20230323110953        000000000 00000000000000000051938400000000000000000000519384DA                            D       0000000000000000000000
02000533187XXXXXX9238000000000 000012169281001008000000000014081912303231147032100WEB       AIEP                0000000051 20230323114723        000000000 00000000000000000014395800000000000000000000143958DA                            D       0000000000000000000000
020589710XXXXXXXX1030000000000 000012170979048117100000000015704292303231239312100WEB       AIEP                0000000012 20230323123944        000000000 00000000000000000016635900000000000000000000166359DA                            D       0000000000000000000000
020589710XXXXXXXX1030000000000 000012171117055608500000000015704292303231239312100WEB       AIEP                0000000012 20230323123944        000000000 00000000000000000016635900000000000000000000166359DA                            D       0000000000000000000000
02000434559XXXXXX6423000000000 000012171514048099500000000021799002303231250572100WEB       AIEP                00000000Q5 20230323125301        000000000 00000000000000000098150000000000000000000000981500DA                            D       0000000000000000000000
02000434559XXXXXX6423000000000 000012171645048812400000000021799002303231250572100WEB       AIEP                00000000Q5 20230323125301        000000000 00000000000000000098150000000000000000000000981500DA                            D       0000000000000000000000
02000434559XXXXXX6093000000000 000012175566041120800000000012937762303231453494200WEB       AIEP                0000000012 20230323145402        000000000 00000000000000000027623200000000000000000000276232DA                            D       0000000000000000000000
02000451368XXXXXX7231000000000 000012177579081352100000000020259272303231555362100WEB       AIEP                0000000061 20230323161017        000000000 00000000000000000192600000000000000000000001926000DA                            D       0000000000000000000000
02000548742XXXXXX3422000000000 000012177847075797900000000021168632303231619312100WEB       AIEP                0000000083 20230323161953        000000000 00000000000000000020637500000000000000000000206375DA                            C       0000000000000000000000
020000548652XXXXX6226000000000 000012179137025811500000000016882552303231634002100WEB       AIEP                0000000014 20230323163414        000000000 00000000000000000040400000000000000000000000404000DA                            C       0000000000000000000000
02000533187XXXXXX2872000000000 000012180167097385100000000020618932303231736202100WEB       AIEP                0000000051 20230323173657        000000000 00000000000000000017900900000000000000000000179009DA                            D       0000000000000000000000
02000434559XXXXXX3765000000000 000012180784037751800000000018729762303231759502100WEB       AIEP                00000000Q5 20230323180008        000000000 00000000000000000051059400000000000000000000510594DA                            D       0000000000000000000000
02000412003XXXXXX5773000000000 000012182464013890000000000021758632303231903072100WEB       AIEP                0000000014 20230323190319        000000000 00000000000000000021466600000000000000000000214666DA                            D       0000000000000000000000
02000434559XXXXXX8088000000000 000012182814081761100000000020471362303231908322100WEB       AIEP                00000000Q5 20230323191020        000000000 00000000000000000044797200000000000000000000447972DA                            D       0000000000000000000000
02000434559XXXXXX8088000000000 000012183234007767800000000020471362303231933012100WEB       AIEP                00000000Q5 20230323193316        000000000 00000000000000000044797200000000000000000000447972DA                            D       0000000000000000000000
02000451368XXXXXX3606000000000 000012156344004166000000000020693222303222100562100WEB       AIEP                0000000000 20230322210122        000000000 00000000000000000009586600000000005750000000095182DA                            D       0000000000000000000000
02000434559XXXXXX1582000000000 000012156411076641200000000020883252303222057452100WEB       AIEP                0000000000 20230322205829        000000000 00000000000000000025383300000000015230000000252021DA                            D       0000000000000000000000
02000434559XXXXXX9377000000000 000012156876011185400000000021713332303222119572100WEB       AIEP                0000000000 20230322212016        000000000 00000000000000000019466600000000011680000000193276DA                            D       0000000000000000000000
02000434561XXXXXX5826000000000 000012156955078000300000000021861302303222119422100WEB       AIEP                0000000000 20230322212008        000000000 00000000000000000025216600000000015130000000250366DA                            D       0000000000000000000000
02000451368XXXXXX9802000000000 000012156976088155900000000021408472303222124182100WEB       AIEP                0000000000 20230322212438        000000000 00000000000000000017183000000000010310000000170603DA                            D       0000000000000000000000
02000434559XXXXXX6101000000000 000012157081019628900000000021248592303222123422100WEB       AIEP                0000000000 20230322212412        000000000 00000000000000000029765800000000017860000000295533DA                            D       0000000000000000000000
02000456473XXXXXX0988000000000 000012157144034871900000000018267142303222127042100WEB       AIEP                0000000000 20230322212942        000000000 00000000000000000010522900000000007680000000104315DA                            C       0000000000000000000000
02000434559XXXXXX4230000000000 000012157345008717300000000021586442303222136422100WEB       AIEP                0000000000 20230322213706        000000000 00000000000000000017136000000000010280000000170136DA                            D       0000000000000000000000
02000440698XXXXXX5185000000000 000012158061086685900000000020514162303222159512100WEB       AIEP                0000000000 20230322220002        000000000 00000000000000000031200000000000018720000000309772DA                            D       0000000000000000000000
02000496617XXXXXX4685000000000 000012158489047351700000000021261172303222211172100WEB       AIEP                0000000000 20230322221156        000000000 00000000000000000019379100000000014150000000192108DA                            C       0000000000000000000000
02000434559XXXXXX4533000000000 000012158551018142200000000021497442303222215472100WEB       AIEP                0000000000 20230322221636        000000000 00000000000000000020716600000000012430000000205687DA                            D       0000000000000000000000
02000533187XXXXXX6941000000000 000012158645098279300000000017812702303222220112100WEB       AIEP                0000000000 20230322222020        000000000 00000000000000000072413800000000043450000000718968DA                            D       0000000000000000000000
02000524101XXXXXX1830000000000 000012158747012902200000000026356562303222223442100WEB       AIEP                0000000000 20230322222406        000000000 00000000000000000021922000000000013150000000217655DA                            D       0000000000000000000000
02000412003XXXXXX9434000000000 000012159518020288400000000019651302303222248552100WEB       AIEP                0000000000 20230322224915        000000000 00000000000000000019099600000000011460000000189632DA                            D       0000000000000000000000
02000434559XXXXXX6236000000000 000012159526029497300000000021722992303222246292100WEB       AIEP                0000000000 20230322224645        000000000 00000000000000000022633300000000013580000000224717DA                            D       0000000000000000000000
02000559202XXXXXX8346000000000 000012159677096161200000000017103612303222248512100WEB       AIEP                0000000000 20230322224853        000000000 00000000000000000008264500000000006030000000081927DA                            C       0000000000000000000000
02000434559XXXXXX4405000000000 000012159781088405800000000020804222303222252572100WEB       AIEP                0000000000 20230322225318        000000000 00000000000000000017954100000000010770000000178259DA                            D       0000000000000000000000
02000434559XXXXXX9114000000000 000012159834068187900000000021761562303222258562100WEB       AIEP                0000000000 20230322225924        000000000 00000000000000000025383300000000015230000000252021DA                            D       0000000000000000000000
02000434559XXXXXX3658000000000 000012159913024266600000000020067812303222301362100WEB       AIEP                0000000000 20230322230207        000000000 00000000000000000014820800000000008890000000147150DA                            D       0000000000000000000000
02000434559XXXXXX1708000000000 000012160297095830000000000018369872303222315342100WEB       AIEP                0000000000 20230322231539        000000000 00000000000000000032633400000000019580000000324004DA                            D       0000000000000000000000
02000440612XXXXXX0420000000000 000012160302039486200000000027228032303222315542100WEB       AIEP                0000000000 20230322231620        000000000 00000000000000000021883700000000013130000000217275DA                            D       0000000000000000000000
02000434559XXXXXX9803000000000 000012160845016424200000000018682282303222341092100WEB       AIEP                0000000000 20230322234127        000000000 00000000000000000016800000000000010080000000166800DA                            D       0000000000000000000000
02000434503XXXXXX9625000000000 000012160919031801400000000018026632303222347562100WEB       AIEP                0000000000 20230322234812        000000000 00000000000000000019387400000000011630000000192490DA                            D       0000000000000000000000
02000434561XXXXXX1789000000000 000012161004033087600000000020994942303222353302100WEB       AIEP                0000000000 20230322235344        000000000 00000000000000000019382000000000011630000000192436DA                            D       0000000000000000000000
02000475774XXXXXX8515000000000 000012161445020801200000000021306262303230025422100WEB       AIEP                0000000000 20230323002550        000000000 00000000000000000022893900000000013740000000227304DA                            D       0000000000000000000000
02000434559XXXXXX6452000000000 000012161984089619300000000020150352303230136052100WEB       AIEP                0000000000 20230323013623        000000000 00000000000000000019041000000000011420000000189050DA                            D       0000000000000000000000
02000533187XXXXXX9342000000000 000012162967047799400000000018814512303230723052100WEB       AIEP                0000000000 20230323072331        000000000 00000000000000000017133300000000010280000000170110DA                            D       0000000000000000000000
02000440612XXXXXX1189000000000 000012163307076265000000000017008182303230756582100WEB       AIEP                0000000000 20230323075714        000000000 00000000000000000026147200000000015690000000259605DA                            D       0000000000000000000000
02000440698XXXXXX1668000000000 000012163783099443000000000016964002303230828282100WEB       AIEP                0000000000 20230323082901        000000000 00000000000000000016050000000000009630000000159354DA                            D       0000000000000000000000
02000434561XXXXXX9276000000000 000012163877073899300000000021304252303230834282100WEB       AIEP                0000000000 20230323083512        000000000 00000000000000000017390900000000010430000000172667DA                            D       0000000000000000000000
02000412003XXXXXX7014000000000 000012164194045932100000000016371042303230853032100WEB       AIEP                0000000000 20230323085319        000000000 00000000000000000018563000000000011140000000184305DA                            D       0000000000000000000000
02000434559XXXXXX1536000000000 000012164367093431400000000013182972303230900142100WEB       AIEP                0000000000 20230323090055        000000000 00000000000000000019154100000000011490000000190173DA                            D       0000000000000000000000
02000434559XXXXXX4075000000000 000012164502061123200000000015326612303230906412100WEB       AIEP                0000000000 20230323090700        000000000 00000000000000000017550000000000010530000000174247DA                            D       0000000000000000000000
02000434559XXXXXX5742000000000 000012164900029745400000000021390872303230916512100WEB       AIEP                0000000000 20230323091744        000000000 00000000000000000016550000000000009930000000164318DA                            D       0000000000000000000000
02000524101XXXXXX7022000000000 000012164954037776800000000020708262303230924432100WEB       AIEP                0000000000 20230323092505        000000000 00000000000000000019205000000000011520000000190679DA                            D       0000000000000000000000
02000434559XXXXXX1737000000000 000012164926059734600000000019982602303230923592100WEB       AIEP                0000000000 20230323092403        000000000 00000000000000000021231000000000012740000000210794DA                            D       0000000000000000000000
02000434561XXXXXX3801000000000 000012165032043668200000000012570992303230927192100WEB       AIEP                0000000000 20230323092738        000000000 00000000000000000013489100000000008090000000133928DA                            D       0000000000000000000000
02000434559XXXXXX9195000000000 000012165301067663000000000019896042303230936282100WEB       AIEP                0000000000 20230323093641        000000000 00000000000000000012166600000000007300000000120797DA                            D       0000000000000000000000
02000434559XXXXXX3492000000000 000012165287065280100000000021084762303230935532100WEB       AIEP                0000000000 20230323093611        000000000 00000000000000000017780000000000010670000000176531DA                            D       0000000000000000000000
02000434559XXXXXX6034000000000 000012166267069053000000000019488252303231008012100WEB       AIEP                0000000000 20230323100821        000000000 00000000000000000021460000000000012880000000213068DA                            D       0000000000000000000000
02000475774XXXXXX8716000000000 000012166436093521500000000019514952303231013522100WEB       AIEP                0000000000 20230323101418        000000000 00000000000000000016800000000000010080000000166800DA                            D       0000000000000000000000
02000434559XXXXXX8578000000000 000012166547028718800000000020878962303231021022100WEB       AIEP                0000000000 20230323102113        000000000 00000000000000000015061200000000009040000000149537DA                            D       0000000000000000000000
02000512269XXXXXX6999000000000 000012166865076030600000000025938752303231031592100WEB       AIEP                0000000000 20230323103225        000000000 00000000000000000024128000000000017610000000239184DA                            C       0000000000000000000000
02000434559XXXXXX9929000000000 000012166840000875200000000017015792303231027242100WEB       AIEP                0000000000 20230323102810        000000000 00000000000000000018747000000000011250000000186131DA                            D       0000000000000000000000
02000512269XXXXXX9171000000000 000012167022042970100000000021273032303231034302100WEB       AIEP                0000000000 20230323103439        000000000 00000000000000000252300000000000184180000002501083DA                            C       0000000000000000000000
02000533187XXXXXX3027000000000 000012167373095562500000000017847292303231046432100WEB       AIEP                0000000000 20230323104704        000000000 00000000000000000012258300000000007350000000121708DA                            D       0000000000000000000000
02000548742XXXXXX3602000000000 000012167352041183800000000017809642303231048132100WEB       AIEP                0000000000 20230323104834        000000000 00000000000000000018095400000000013210000000179382DA                            C       0000000000000000000000
02000434956XXXXXX3802000000000 000012167530057158500000000020536302303231053262100WEB       AIEP                0000000000 20230323105349        000000000 00000000000000000034958600000000025520000000346549DA                            C       0000000000000000000000
02000434559XXXXXX3753000000000 000012167812030158200000000020392972303231055102100WEB       AIEP                0000000000 20230323105541        000000000 00000000000000000017614000000000010570000000174882DA                            D       0000000000000000000000
02000434559XXXXXX4710000000000 000012167846071592100000000017570032303231102052100WEB       AIEP                0000000000 20230323110238        000000000 00000000000000000017133300000000010280000000170110DA                            D       0000000000000000000000
02000520387XXXXXX8841000000000 000012168085017623000000000016150372303231108472100WEB       AIEP                0000000000 20230323110921        000000000 00000000000000000212256000000000154950000002104121DA                            C       0000000000000000000000
02000434559XXXXXX3296000000000 000012168048071291800000000021186352303231108002100WEB       AIEP                0000000000 20230323110815        000000000 00000000000000000014300000000000008580000000141979DA                            D       0000000000000000000000
02000434559XXXXXX2039000000000 000012168495060980700000000019366632303231118472100WEB       AIEP                0000000000 20230323112212        000000000 00000000000000000001400000000000000840000000013900DA                            D       0000000000000000000000
02000434559XXXXXX4978000000000 000012168569031286100000000020318262303231122012100WEB       AIEP                0000000000 20230323112229        000000000 00000000000000000026870900000000016120000000266790DA                            D       0000000000000000000000
02000451368XXXXXX1609000000000 000012168616075692300000000018418462303231126372100WEB       AIEP                0000000000 20230323112653        000000000 00000000000000000019438000000000011660000000192992DA                            D       0000000000000000000000
02000549070XXXXXX4168000000000 000012169030007057300000000021204702303231138382100WEB       AIEP                0000000000 20230323113900        000000000 00000000000000000021323000000000015570000000211378DA                            C       0000000000000000000000
02000475774XXXXXX5375000000000 000012169084072880100000000020227062303231133252100WEB       AIEP                0000000000 20230323114054        000000000 00000000000000000012377300000000007430000000122889DA                            D       0000000000000000000000
02000434559XXXXXX2573000000000 000012169110097973300000000021770232303231141092100WEB       AIEP                0000000000 20230323114131        000000000 00000000000000000017133300000000010280000000170110DA                            D       0000000000000000000000
02000559779XXXXXX9467000000000 000012169908023075800000000020963142303231206212100WEB       AIEP                0000000000 20230323120631        000000000 00000000000000000011269100000000006760000000111886DA                            D       0000000000000000000000
02000434561XXXXXX5847000000000 000012170106092103500000000020211422303231211542100WEB       AIEP                0000000000 20230323121233        000000000 00000000000000000019164900000000011500000000190281DA                            D       0000000000000000000000
02000417760XXXXXX7327000000000 000012170175010438300000000013474662303231213552100WEB       AIEP                0000000000 20230323121455        000000000 00000000000000000023100000000000016860000000228993DA                            C       0000000000000000000000
02000440612XXXXXX0309000000000 000012170308037501800000000020922722303231218482100WEB       AIEP                0000000000 20230323121901        000000000 00000000000000000013486200000000008090000000133899DA                            D       0000000000000000000000
02000533187XXXXXX0848000000000 000012170933003945600000000019941192303231237562100WEB       AIEP                0000000000 20230323123817        000000000 00000000000000000020175000000000012110000000200310DA                            D       0000000000000000000000
02000434559XXXXXX4595000000000 000012170996087536700000000021063762303231238072100WEB       AIEP                0000000000 20230323123841        000000000 00000000000000000018776300000000011270000000186422DA                            D       0000000000000000000000
02000440612XXXXXX5922000000000 000012171099087968700000000019205082303231242202100WEB       AIEP                0000000000 20230323124245        000000000 00000000000000000018466600000000011080000000183347DA                            D       0000000000000000000000
02000434559XXXXXX2410000000000 000012172131032970600000000012827122303231307282100WEB       AIEP                0000000000 20230323130851        000000000 00000000000000000020117700000000012070000000199741DA                            D       0000000000000000000000
02000475775XXXXXX7029000000000 000012172512003211900000000018230712303231325312100WEB       AIEP                0000000000 20230323132550        000000000 00000000000000000017823400000000010690000000176961DA                            D       0000000000000000000000
02000434559XXXXXX3858000000000 000012172540021178200000000016935032303231310342100WEB       AIEP                0000000000 20230323131109        000000000 00000000000000000028800000000000017280000000285944DA                            D       0000000000000000000000
02000533187XXXXXX9847000000000 000012172632046330500000000014592232303231329332100WEB       AIEP                0000000000 20230323132956        000000000 00000000000000000016775000000000010070000000166552DA                            D       0000000000000000000000
02000434559XXXXXX2205000000000 000012172700017311200000000019030142303231331322100WEB       AIEP                0000000000 20230323133151        000000000 00000000000000000016633300000000009980000000165145DA                            D       0000000000000000000000
02000409767XXXXXX5383000000000 000012173122083143000000000021584052303231343432100WEB       AIEP                0000000000 20230323134358        000000000 00000000000000000019220800000000011530000000190836DA                            D       0000000000000000000000
02000434559XXXXXX7667000000000 000012173762093439800000000020792662303231405202100WEB       AIEP                0000000000 20230323140523        000000000 00000000000000000017317700000000010390000000171941DA                            D       0000000000000000000000
02000434561XXXXXX9023000000000 000012173932007417300000000019667312303231409352100WEB       AIEP                0000000000 20230323141015        000000000 00000000000000000043083500000000025850000000427759DA                            D       0000000000000000000000
02000434559XXXXXX3335000000000 000012174108025409000000000021518542303231411332100WEB       AIEP                0000000000 20230323141149        000000000 00000000000000000018195000000000010920000000180651DA                            D       0000000000000000000000
02000475774XXXXXX2744000000000 000012174146061361500000000019435252303231415142100WEB       AIEP                0000000000 20230323141540        000000000 00000000000000000047716000000000028630000000473753DA                            D       0000000000000000000000
02000456460XXXXXX7744000000000 000012174583099373300000000021059842303231424442100WEB       AIEP                0000000000 20230323142514        000000000 00000000000000000017300000000000012630000000171497DA                            C       0000000000000000000000
02000434560XXXXXX8440000000000 000012174683072024200000000019812512303231431492100WEB       AIEP                0000000000 20230323143200        000000000 00000000000000000017883300000000010730000000177556DA                            D       0000000000000000000000
02000434559XXXXXX1985000000000 000012175052006441200000000017144242303231439262100WEB       AIEP                0000000000 20230323143939        000000000 00000000000000000012258300000000007350000000121708DA                            D       0000000000000000000000
02000434559XXXXXX7862000000000 000012175319059289300000000021355112303231449182100WEB       AIEP                0000000000 20230323144939        000000000 00000000000000000022151000000000013290000000219928DA                            D       0000000000000000000000
02000525384XXXXXX6294000000000 000012176034038061600000000016023772303231516432100WEB       AIEP                0000000000 20230323151704        000000000 00000000000000000021010000000000012610000000208600DA                            D       0000000000000000000000
02000533187XXXXXX5334000000000 000012177288077743600000000021765432303231556252100WEB       AIEP                0000000000 20230323155641        000000000 00000000000000000014466600000000008680000000143633DA                            D       0000000000000000000000
02000434559XXXXXX9502000000000 000012177354063716600000000021145062303231557212100WEB       AIEP                0000000000 20230323155741        000000000 00000000000000000031804700000000019080000000315776DA                            D       0000000000000000000000
02000434560XXXXXX0931000000000 000012177668008221700000000020767632303231614392100WEB       AIEP                0000000000 20230323161457        000000000 00000000000000000011560800000000006940000000114783DA                            D       0000000000000000000000
02000434559XXXXXX0262000000000 000012178432020093100000000019875692303231636442100WEB       AIEP                0000000000 20230323163725        000000000 00000000000000000018839000000000011300000000187045DA                            D       0000000000000000000000
02000434559XXXXXX6763000000000 000012178437018701700000000021537112303231637252100WEB       AIEP                0000000000 20230323163738        000000000 00000000000000000018608000000000011160000000184751DA                            D       0000000000000000000000
02000434559XXXXXX2389000000000 000012178849092784700000000021310572303231651562100WEB       AIEP                0000000000 20230323165207        000000000 00000000000000000019591600000000011750000000194517DA                            D       0000000000000000000000
02000451134XXXXXX0023000000000 000012179154001544600000000019826342303231652252100WEB       AIEP                0000000000 20230323165241        000000000 00000000000000000017800000000000010680000000176729DA                            D       0000000000000000000000
02000434559XXXXXX1814000000000 000012179670073382600000000021665342303231718562100WEB       AIEP                0000000000 20230323171859        000000000 00000000000000000019537500000000011720000000193980DA                            D       0000000000000000000000
02000434559XXXXXX6989000000000 000012179919081582100000000020438892303231722522100WEB       AIEP                0000000000 20230323172741        000000000 00000000000000000019423500000000011650000000192848DA                            D       0000000000000000000000
02000434559XXXXXX7915000000000 000012181081002295900000000021222982303231808552100WEB       AIEP                0000000000 20230323180912        000000000 00000000000000000023255000000000013950000000230890DA                            D       0000000000000000000000
02000434559XXXXXX0592000000000 000012181797030534100000000021410992303231837272100WEB       AIEP                0000000000 20230323183750        000000000 00000000000000000031040000000000018620000000308184DA                            D       0000000000000000000000
02000446867XXXXXX7409000000000 000012181845056479200000000020497202303231839032100WEB       AIEP                0000000000 20230323183948        000000000 00000000000000000023654100000000017270000000234486DA                            C       0000000000000000000000
02000434559XXXXXX5080000000000 000012182067065583200000000025610572303231848212100WEB       AIEP                0000000000 20230323184825        000000000 00000000000000000025966600000000015580000000257812DA                            D       0000000000000000000000
02000434559XXXXXX2375000000000 000012182955034687700000000021543512303231922082100WEB       AIEP                0000000000 20230323192222        000000000 00000000000000000012433300000000007460000000123445DA                            D       0000000000000000000000
02000434559XXXXXX5740000000000 000012183025086934700000000021083882303231922522100WEB       AIEP                0000000000 20230323192452        000000000 00000000000000000022650000000000013590000000224883DA                            D       0000000000000000000000
02000434559XXXXXX0671000000000 000012183554092656200000000021310392303231946532100WEB       AIEP                0000000000 20230323194706        000000000 00000000000000000022380000000000013430000000222202DA                            D       0000000000000000000000
02000533187XXXXXX4178000000000 000012183667039802100000000019160642303231951452100WEB       AIEP                0000000000 20230323195200        000000000 00000000000000000019651300000000011790000000195110DA                            D       0000000000000000000000
02000434559XXXXXX0148000000000 000012183778035127100000000016167782303231957472100WEB       AIEP                0000000000 20230323195754        000000000 00000000000000000010916600000000006550000000108387DA                            D       0000000000000000000000
02000434559XXXXXX7329000000000 000012183779016148700000000021294922303231955062100WEB       AIEP                0000000000 20230323195520        000000000 00000000000000000013708000000000008220000000136101DA                            D       0000000000000000000000
02000533187XXXXXX7592000000000 000012183955026826400000000019332612303231957412100WEB       AIEP                0000000000 20230323195849        000000000 00000000000000000039100000000000023460000000388208DA                            D       0000000000000000000000
02000434560XXXXXX3853000000000 000012184186092959400000000011469212303232010432100WEB       AIEP                0000000000 20230323201057        000000000 00000000000000000017050000000000010230000000169283DA                            D       0000000000000000000000
02000533187XXXXXX2872000000000 000012184540035475500000000020618932303232026222100WEB       AIEP                0000000000 20230323202752        000000000 00000000000000000017900900000000010740000000177731DA                            D       0000000000000000000000
02000434559XXXXXX5670000000000 000012184955024590500000000017039342303232042512100WEB       AIEP                0000000000 20230323204255        000000000 00000000000000000016254100000000009750000000161380DA                            D       0000000000000000000000
02000434559XXXXXX5921000000000 000012185205036703600000000021072702303232043522100WEB       AIEP                0000000000 20230323205036        000000000 00000000000000000022380000000000013430000000222202DA                            D       0000000000000000000000
02000522468XXXXXX2878000000000 000012185397069596900000000021041302303232056372100WEB       AIEP                0000000000 20230323205658        000000000 00000000000000000026199000000000019130000000259714DA                            C       0000000000000000000000
02000434559XXXXXX7546000000000 000012156342007449300000000020569312303222101132100WEB       AIEP                0000000000 20230322210116        000000000 00000000000000000022887000000000013730000000227236DA                            D       0000000000000000000000
02000434559XXXXXX7957000000000 000012156471053136300000000020488022303222105212100WEB       AIEP                0000000000 20230322210601        000000000 00000000000000000029520500000000017710000000293097DA                            D       0000000000000000000000
02000475774XXXXXX4411000000000 000012156581086710500000000020819412303222110382100WEB       AIEP                0000000000 20230322211056        000000000 00000000000000000029152200000000017490000000289441DA                            D       0000000000000000000000
02000548742XXXXXX2748000000000 000012156726034955800000000026437022303222116022100WEB       AIEP                0000000000 20230322211623        000000000 00000000000000000016800000000000012260000000166541DA                            C       0000000000000000000000
02000434559XXXXXX4114000000000 000012156899075417800000000013504922303222121192100WEB       AIEP                0000000000 20230322212222        000000000 00000000000000000012960200000000007780000000128677DA                            D       0000000000000000000000
02000434561XXXXXX9906000000000 000012157062030993800000000020538802303222125472100WEB       AIEP                0000000000 20230322212705        000000000 00000000000000000028838100000000017300000000286322DA                            D       0000000000000000000000
02000549070XXXXXX2601000000000 000012157318015984000000000018267142303222136002100WEB       AIEP                0000000000 20230322213623        000000000 00000000000000000034045800000000024850000000337500DA                            C       0000000000000000000000
02000522468XXXXXX4280000000000 000012157460011596000000000020250382303222141012100WEB       AIEP                0000000000 20230322214103        000000000 00000000000000000011808200000000008620000000117056DA                            C       0000000000000000000000
02000525384XXXXXX7970000000000 000012157421019459400000000021865902303222139382100WEB       AIEP                0000000000 20230322213957        000000000 00000000000000000019854100000000011910000000197123DA                            D       0000000000000000000000
02000548742XXXXXX6311000000000 000012157598098431400000000021235822303222144482100WEB       AIEP                0000000000 20230322214511        000000000 00000000000000000019712000000000014390000000195408DA                            C       0000000000000000000000
02000434561XXXXXX4116000000000 000012157641033160400000000021137682303222146092100WEB       AIEP                0000000000 20230322214624        000000000 00000000000000000016966600000000010180000000168455DA                            D       0000000000000000000000
02000451368XXXXXX5908000000000 000012157560079802800000000021848022303222143322100WEB       AIEP                0000000000 20230322214359        000000000 00000000000000000017400000000000010440000000172758DA                            D       0000000000000000000000
02000475775XXXXXX1825000000000 000012158240071804100000000020630572303222205372100WEB       AIEP                0000000000 20230322220613        000000000 00000000000000000019883300000000011930000000197413DA                            D       0000000000000000000000
02000475775XXXXXX1825000000000 000012158420077886000000000020630572303222211382100WEB       AIEP                0000000000 20230322221157        000000000 00000000000000000019883300000000011930000000197413DA                            D       0000000000000000000000
02000434559XXXXXX8642000000000 000012158582074858300000000021460852303222208232100WEB       AIEP                0000000000 20230322220840        000000000 00000000000000000026464800000000015880000000262758DA                            D       0000000000000000000000
02000451134XXXXXX0010000000000 000012158563091908400000000021231682303222216472100WEB       AIEP                0000000000 20230322221706        000000000 00000000000000000012902800000000007740000000128107DA                            D       0000000000000000000000
02000524101XXXXXX1830000000000 000012158650086312200000000026356562303222220062100WEB       AIEP                0000000000 20230322222026        000000000 00000000000000000019967400000000011980000000198248DA                            D       0000000000000000000000
02000434561XXXXXX1404000000000 000012158774071455200000000016879722303222224042100WEB       AIEP                0000000000 20230322222517        000000000 00000000000000000019110000000000011470000000189736DA                            D       0000000000000000000000
02000434559XXXXXX9487000000000 000012158866010684900000000020167142303222222002100WEB       AIEP                0000000000 20230322222235        000000000 00000000000000000019862500000000011920000000197207DA                            D       0000000000000000000000
02000434559XXXXXX9080000000000 000012159605019040300000000021552602303222248142100WEB       AIEP                0000000000 20230322224840        000000000 00000000000000000018966600000000011380000000188312DA                            D       0000000000000000000000
02000434561XXXXXX3110000000000 000012159747023102300000000018319232303222251152100WEB       AIEP                0000000000 20230322225151        000000000 00000000000000000016893700000000010140000000167731DA                            D       0000000000000000000000
02000434559XXXXXX2835000000000 000012159897030026600000000021866762303222300222100WEB       AIEP                0000000000 20230322230145        000000000 00000000000000000015300000000000009180000000151908DA                            D       0000000000000000000000
02000434559XXXXXX6234000000000 000012160057093950900000000024974792303222308282100WEB       AIEP                0000000000 20230322230840        000000000 00000000000000000019115000000000011470000000189785DA                            D       0000000000000000000000
02000434559XXXXXX1361000000000 000012160151079972800000000021551422303222309512100WEB       AIEP                0000000000 20230322231018        000000000 00000000000000000021383300000000012830000000212306DA                            D       0000000000000000000000
02000434559XXXXXX8602000000000 000012160219041095700000000020061462303222314012100WEB       AIEP                0000000000 20230322231412        000000000 00000000000000000033338200000000020000000000331002DA                            D       0000000000000000000000
02000434559XXXXXX4985000000000 000012160533018399200000000021544002303222328542100WEB       AIEP                0000000000 20230322232927        000000000 00000000000000000017800000000000010680000000176729DA                            D       0000000000000000000000
02000434560XXXXXX0276000000000 000012160781040600300000000020064402303222334522100WEB       AIEP                0000000000 20230322233523        000000000 00000000000000000016300000000000009780000000161836DA                            D       0000000000000000000000
02000533187XXXXXX2791000000000 000012160887014780900000000016493102303222345252100WEB       AIEP                0000000000 20230322234603        000000000 00000000000000000017916600000000010750000000177887DA                            D       0000000000000000000000
02000434559XXXXXX5986000000000 000012160882051628000000000019139202303222341202100WEB       AIEP                0000000000 20230322234143        000000000 00000000000000000027578600000000016550000000273817DA                            D       0000000000000000000000
02000409767XXXXXX9830000000000 000012160897006693500000000016840532303222345562100WEB       AIEP                0000000000 20230322234624        000000000 00000000000000000016952000000000010170000000168310DA                            D       0000000000000000000000
02000434559XXXXXX2195000000000 000012161330096595700000000021699022303230006352100WEB       AIEP                0000000000 20230323000658        000000000 00000000000000000028933200000000017360000000287266DA                            D       0000000000000000000000
02000440698XXXXXX6292000000000 000012161440076725300000000015297212303230025032100WEB       AIEP                0000000000 20230323002527        000000000 00000000000000000018691800000000011220000000185583DA                            D       0000000000000000000000
02000434559XXXXXX1229000000000 000012162440085101900000000018760012303230536142100WEB       AIEP                0000000000 20230323053627        000000000 00000000000000000018718600000000011230000000185849DA                            D       0000000000000000000000
02000434560XXXXXX1374000000000 000012163718038263800000000021000652303230821462100WEB       AIEP                0000000000 20230323082204        000000000 00000000000000000019806000000000011880000000196646DA                            D       0000000000000000000000
02000475774XXXXXX9040000000000 000012164201084817200000000017937982303230853232100WEB       AIEP                0000000000 20230323085332        000000000 00000000000000000015626500000000009380000000155149DA                            D       0000000000000000000000
02000409767XXXXXX3073000000000 000012164265083346500000000020191822303230851232100WEB       AIEP                0000000000 20230323085215        000000000 00000000000000000010393900000000006240000000103197DA                            D       0000000000000000000000
02000434560XXXXXX5556000000000 000012166053014395700000000020957172303231001152100WEB       AIEP                0000000000 20230323100208        000000000 00000000000000000019675000000000011810000000195345DA                            D       0000000000000000000000
02000434559XXXXXX8114000000000 000012166114069130100000000021433382303231001432100WEB       AIEP                0000000000 20230323100223        000000000 00000000000000000016300000000000009780000000161836DA                            D       0000000000000000000000
02000475774XXXXXX6616000000000 000012166190020042400000000019633022303231006472100WEB       AIEP                0000000000 20230323100700        000000000 00000000000000000021300000000000012780000000211479DA                            D       0000000000000000000000
02000440612XXXXXX1472000000000 000012166599018499300000000019592622303231019162100WEB       AIEP                0000000000 20230323101939        000000000 00000000000000000010452200000000006270000000103776DA                            D       0000000000000000000000
02000409767XXXXXX6265000000000 000012167567062127400000000020352292303231053102100WEB       AIEP                0000000000 20230323105455        000000000 00000000000000000017165600000000010300000000170430DA                            D       0000000000000000000000
02000533187XXXXXX1085000000000 000012167631025533700000000020892952303231056302100WEB       AIEP                0000000000 20230323105711        000000000 00000000000000000018300000000000010980000000181693DA                            D       0000000000000000000000
02000434559XXXXXX9914000000000 000012167868027536000000000021336752303231102502100WEB       AIEP                0000000000 20230323110307        000000000 00000000000000000023255000000000013950000000230890DA                            D       0000000000000000000000
02000434559XXXXXX7158000000000 000012168020026299200000000021597762303231105452100WEB       AIEP                0000000000 20230323110601        000000000 00000000000000000019500000000000011700000000193608DA                            D       0000000000000000000000
02000434559XXXXXX9219000000000 000012168138084145500000000021762142303231110412100WEB       AIEP                0000000000 20230323111055        000000000 00000000000000000016300000000000009780000000161836DA                            D       0000000000000000000000
02000434559XXXXXX8196000000000 000012168319075324100000000020641522303231109212100WEB       AIEP                0000000000 20230323110942        000000000 00000000000000000018633700000000011180000000185007DA                            D       0000000000000000000000
02000533187XXXXXX2864000000000 000012168625079722700000000021380002303231126002100WEB       AIEP                0000000000 20230323112707        000000000 00000000000000000011908300000000007140000000118233DA                            D       0000000000000000000000
02000475774XXXXXX6583000000000 000012168721056429800000000021609972303231129412100WEB       AIEP                0000000000 20230323113000        000000000 00000000000000000045253200000000027150000000449301DA                            D       0000000000000000000000
02000440612XXXXXX0694000000000 000012169101028188800000000027507232303231140562100WEB       AIEP                0000000000 20230323114121        000000000 00000000000000000088979000000000053390000000883437DA                            D       0000000000000000000000
02000434559XXXXXX0363000000000 000012169949097323800000000020301612303231203032100WEB       AIEP                0000000000 20230323120347        000000000 00000000000000000014821200000000008890000000147154DA                            D       0000000000000000000000
02000434559XXXXXX1796000000000 000012170648052077000000000017364372303231228542100WEB       AIEP                0000000000 20230323122933        000000000 00000000000000000017216600000000010330000000170937DA                            D       0000000000000000000000
02000434559XXXXXX7565000000000 000012170856049226200000000019156422303231235462100WEB       AIEP                0000000000 20230323123600        000000000 00000000000000000012767400000000007660000000126762DA                            D       0000000000000000000000
02000434559XXXXXX6568000000000 000012171447088152900000000020024872303231249102100WEB       AIEP                0000000000 20230323125119        000000000 00000000000000000030740000000000018440000000305205DA                            D       0000000000000000000000
02000434559XXXXXX9339000000000 000012171576097530200000000021777772303231254092100WEB       AIEP                0000000000 20230323125439        000000000 00000000000000000016845800000000010110000000167255DA                            D       0000000000000000000000
02000440612XXXXXX1498000000000 000012171614004608300000000020250472303231255182100WEB       AIEP                0000000000 20230323125534        000000000 00000000000000000038633300000000023180000000383575DA                            D       0000000000000000000000
02000533187XXXXXX9238000000000 000012171715012037300000000014081912303231157252100WEB       AIEP                0000000000 20230323125836        000000000 00000000000000000014395800000000008640000000142930DA                            D       0000000000000000000000
02000434559XXXXXX5824000000000 000012172486015463800000000021872562303231323472100WEB       AIEP                0000000000 20230323132447        000000000 00000000000000000013758300000000008250000000136601DA                            D       0000000000000000000000
02000434559XXXXXX3707000000000 000012173249051823000000000020458512303231344202100WEB       AIEP                0000000000 20230323134439        000000000 00000000000000000017800000000000010680000000176729DA                            D       0000000000000000000000
02000434560XXXXXX3371000000000 000012173444008345800000000018523272303231349352100WEB       AIEP                0000000000 20230323134951        000000000 00000000000000000035906400000000021540000000356500DA                            D       0000000000000000000000
02000434559XXXXXX2373000000000 000012173421088157800000000020454492303231352572100WEB       AIEP                0000000000 20230323135326        000000000 00000000000000000020271600000000012160000000201269DA                            D       0000000000000000000000
02000434559XXXXXX3233000000000 000012173459077432400000000016481692303231354402100WEB       AIEP                0000000000 20230323135509        000000000 00000000000000000022278400000000013370000000221193DA                            D       0000000000000000000000
02000533187XXXXXX6839000000000 000012173710096702800000000020080512303231402542100WEB       AIEP                0000000000 20230323140329        000000000 00000000000000000016529100000000009920000000164111DA                            D       0000000000000000000000
02000434559XXXXXX6317000000000 000012174281077803700000000021611532303231414222100WEB       AIEP                0000000000 20230323141506        000000000 00000000000000000018287000000000010970000000181564DA                            D       0000000000000000000000
02000450881XXXXXX3312000000000 000012174518027067400000000020219932303231414462100WEB       AIEP                0000000000 20230323141505        000000000 00000000000000000019982800000000014590000000198092DA                            C       0000000000000000000000
02000475774XXXXXX4166000000000 000012174660054029800000000015586192303231430592100WEB       AIEP                0000000000 20230323143109        000000000 00000000000000000013135800000000007880000000130420DA                            D       0000000000000000000000
02000434559XXXXXX9036000000000 000012175106005200400000000018668212303231444132100WEB       AIEP                0000000000 20230323144451        000000000 00000000000000000011091600000000006650000000110124DA                            D       0000000000000000000000
02000542663XXXXXX1294000000000 000012175799036479700000000020717652303231508002100WEB       AIEP                0000000000 20230323150835        000000000 00000000000000000019335500000000014110000000191675DA                            C       0000000000000000000000
02000434559XXXXXX7234000000000 000012175871079576200000000021380382303231510552100WEB       AIEP                0000000000 20230323151114        000000000 00000000000000000025414400000000015250000000252329DA                            D       0000000000000000000000
02000440612XXXXXX6406000000000 000012176490026778900000000018531712303231530002100WEB       AIEP                0000000000 20230323153028        000000000 00000000000000000019466600000000011680000000193276DA                            D       0000000000000000000000
02000476832XXXXXX7697000000000 000012176586055117500000000016215382303231537012100WEB       AIEP                0000000000 20230323153711        000000000 00000000000000000016155000000000011790000000160147DA                            C       0000000000000000000000
02000440612XXXXXX1195000000000 000012176677009247600000000016172682303231541022100WEB       AIEP                0000000000 20230323154119        000000000 00000000000000000021105000000000012660000000209543DA                            D       0000000000000000000000
02000434559XXXXXX8533000000000 000012176792066211900000000017934322303231544562100WEB       AIEP                0000000000 20230323154531        000000000 00000000000000000019500000000000011700000000193608DA                            D       0000000000000000000000
02000475774XXXXXX3787000000000 000012177327058496500000000020168572303231556302100WEB       AIEP                0000000000 20230323155700        000000000 00000000000000000018383300000000011030000000182520DA                            D       0000000000000000000000
02000517608XXXXXX9551000000000 000012177609078701000000000021006272303231609292100WEB       AIEP                0000000000 20230323160952        000000000 00000000000000000013135800000000007880000000130420DA                            D       0000000000000000000000
02000533187XXXXXX6524000000000 000012177636035375000000000021321382303231613252100WEB       AIEP                0000000000 20230323161402        000000000 00000000000000000012316600000000007390000000122287DA                            D       0000000000000000000000
02000434559XXXXXX4081000000000 000012178429019895400000000021385582303231635362100WEB       AIEP                0000000000 20230323163558        000000000 00000000000000000020654100000000012390000000205066DA                            D       0000000000000000000000
02000533187XXXXXX3610000000000 000012178935031800800000000021517542303231653552100WEB       AIEP                0000000000 20230323165409        000000000 00000000000000000017716600000000010630000000175901DA                            D       0000000000000000000000
02000533187XXXXXX6588000000000 000012179491003001400000000021137942303231710362100WEB       AIEP                0000000000 20230323171216        000000000 00000000000000000041632000000000024980000000413347DA                            D       0000000000000000000000
02000434559XXXXXX5735000000000 000012179904072288800000000021204262303231726402100WEB       AIEP                0000000000 20230323172710        000000000 00000000000000000012316600000000007390000000122287DA                            D       0000000000000000000000
02000434559XXXXXX9748000000000 000012180000070666300000000014557392303231727162100WEB       AIEP                0000000000 20230323172747        000000000 00000000000000000034063100000000020440000000338199DA                            D       0000000000000000000000
02000434561XXXXXX2840000000000 000012180400083781700000000016810552303231740582100WEB       AIEP                0000000000 20230323174111        000000000 00000000000000000019800000000000011880000000196586DA                            D       0000000000000000000000
02000548742XXXXXX1330000000000 000012180394070404300000000020541442303231744332100WEB       AIEP                0000000000 20230323174513        000000000 00000000000000000018216600000000013300000000180584DA                            C       0000000000000000000000
02000451368XXXXXX4456000000000 000012180538014705800000000013678272303231750202100WEB       AIEP                0000000000 20230323175037        000000000 00000000000000000010452200000000006270000000103776DA                            D       0000000000000000000000
02000434559XXXXXX1791000000000 000012180587001561400000000019561892303231751332100WEB       AIEP                0000000000 20230323175155        000000000 00000000000000000028768500000000017260000000285631DA                            D       0000000000000000000000
02000533187XXXXXX5354000000000 000012181159073137700000000021046552303231813212100WEB       AIEP                0000000000 20230323181401        000000000 00000000000000000031603100000000018960000000313775DA                            D       0000000000000000000000
02000440612XXXXXX4317000000000 000012182009041201200000000019769412303231845422100WEB       AIEP                0000000000 20230323184557        000000000 00000000000000000015966600000000009580000000158526DA                            D       0000000000000000000000
02000410651XXXXXX3606000000000 000012182128068534100000000017528232303231850182100COMPRA INT AIEP     CL        0000000000 20230323185036        000000000 00000000000000000020017000000000032030000000196359DA                            D       0000000000000000000000
02000434559XXXXXX0068000000000 000012182355098832900000000025940542303231859592100WEB       AIEP                0000000000 20230323190001        000000000 00000000000000000016800000000000010080000000166800DA                            D       0000000000000000000000
02000412003XXXXXX7723000000000 000012182538031086600000000021758632303231906542100WEB       AIEP                0000000000 20230323190656        000000000 00000000000000000021466600000000012880000000213133DA                            D       0000000000000000000000
02000440612XXXXXX9261000000000 000012182647096872900000000020661922303231910052100WEB       AIEP                0000000000 20230323191031        000000000 00000000000000000026706800000000016020000000265161DA                            D       0000000000000000000000
02000434559XXXXXX7703000000000 000012182921064339700000000021519172303231909132100WEB       AIEP                0000000000 20230323192055        000000000 00000000000000000025324000000000015190000000251432DA                            D       0000000000000000000000
02000434559XXXXXX8608000000000 000012182968010884300000000016490482303231922402100WEB       AIEP                0000000000 20230323192305        000000000 00000000000000000012202200000000007320000000121151DA                            D       0000000000000000000000
02000434559XXXXXX5223000000000 000012183033099901800000000020424562303231924492100WEB       AIEP                0000000000 20230323192509        000000000 00000000000000000017551000000000010530000000174257DA                            D       0000000000000000000000
02000549070XXXXXX7498000000000 000012183091063818800000000021067942303231927152100WEB       AIEP                0000000000 20230323192756        000000000 00000000000000000112000400000000081760000001110275DA                            C       0000000000000000000000
02000434559XXXXXX5206000000000 000012183243071779000000000021549062303231917312100WEB       AIEP                0000000000 20230323192900        000000000 00000000000000000025324000000000015190000000251432DA                            D       0000000000000000000000
02000434561XXXXXX9381000000000 000012183284088386500000000019251862303231935012100WEB       AIEP                0000000000 20230323193515        000000000 00000000000000000016268900000000009760000000161527DA                            D       0000000000000000000000
02000559779XXXXXX2180000000000 000012183188082606100000000016135932303231931192100WEB       AIEP                0000000000 20230323193131        000000000 00000000000000000021300000000000012780000000211479DA                            D       0000000000000000000000
02000450881XXXXXX9651000000000 000012183367002792200000000025963292303231938332100WEB       AIEP                0000000000 20230323193850        000000000 00000000000000000019500000000000014240000000193306DA                            C       0000000000000000000000
02000533187XXXXXX1110000000000 000012183513045767700000000021355262303231944322100WEB       AIEP                0000000000 20230323194529        000000000 00000000000000000015525000000000009320000000154142DA                            D       0000000000000000000000
02000451368XXXXXX9610000000000 000012183548067807100000000017621672303231946142100WEB       AIEP                0000000000 20230323194656        000000000 00000000000000000000165600000000000100000000001644DA                            D       0000000000000000000000
02000415283XXXXXX7306000000000 000012183694066674100000000016814972303231953172100WEB       AIEP                0000000000 20230323195335        000000000 00000000000000000015876600000000011590000000157387DA                            C       0000000000000000000000
02000434559XXXXXX7655000000000 000012183738071763800000000024534112303231949372100WEB       AIEP                0000000000 20230323194952        000000000 00000000000000000012608300000000007560000000125183DA                            D       0000000000000000000000
02000525384XXXXXX4927000000000 000012183770075238700000000018121782303231957232100WEB       AIEP                0000000000 20230323195739        000000000 00000000000000000016716600000000010030000000165972DA                            D       0000000000000000000000
02000434559XXXXXX4562000000000 000012183910057885100000000021486892303231958332100WEB       AIEP                0000000000 20230323195901        000000000 00000000000000000019633300000000011780000000194931DA                            D       0000000000000000000000
02000533187XXXXXX7046000000000 000012183866047424400000000026885332303232001042100WEB       AIEP                0000000000 20230323200124        000000000 00000000000000000024404000000000014640000000242298DA                            D       0000000000000000000000
02000434559XXXXXX5385000000000 000012183925005266400000000021825242303232003022100WEB       AIEP                0000000000 20230323200318        000000000 00000000000000000024883300000000014930000000247056DA                            D       0000000000000000000000
02000434559XXXXXX3014000000000 000012184349093341300000000021325152303232019372100WEB       AIEP                0000000000 20230323201948        000000000 00000000000000000017459000000000010480000000173343DA                            D       0000000000000000000000
02000440698XXXXXX4761000000000 000012184604094585400000000020210552303232026002100WEB       AIEP                0000000000 20230323202733        000000000 00000000000000000029179100000000017510000000289708DA                            D       0000000000000000000000
02000434559XXXXXX2501000000000 000012184672042469200000000019884492303232033182100WEB       AIEP                0000000000 20230323203344        000000000 00000000000000000018758600000000011260000000186247DA                            D       0000000000000000000000
02000434559XXXXXX2509000000000 000012184851050368100000000020722452303232031142100WEB       AIEP                0000000000 20230323203520        000000000 00000000000000000017050000000000010230000000169283DA                            D       0000000000000000000000
02000450881XXXXXX2542000000000 000012184832070613700000000021015102303232038472100WEB       AIEP                0000000000 20230323203902        000000000 00000000000000000022800000000000016640000000226019DA                            C       0000000000000000000000
020589710XXXXXXXX5906000000000 000012184958038398200000000021448922303232042432100WEB       AIEP                0000000000 20230323204259        000000000 00000000000000000019966600000000011980000000198240DA                            D       0000000000000000000000
02000533187XXXXXX8007000000000 000012185128096588200000000020558702303232047582100WEB       AIEP                0000000000 20230323204820        000000000 00000000000000000017220400000000010330000000170974DA                            D       0000000000000000000000
02000434559XXXXXX6270000000000 000012185229071843100000000020913422303232047172100WEB       AIEP                0000000000 20230323204830        000000000 00000000000000000022966600000000013780000000228026DA                            D       0000000000000000000000
02000409767XXXXXX2198000000000 000012185277039588300000000021466312303232051222100WEB       AIEP                0000000000 20230323205243        000000000 00000000000000000016550000000000009930000000164318DA                            D       0000000000000000000000
02000434560XXXXXX2961000000000 000012185306018780700000000020676572303232053022100WEB       AIEP                0000000000 20230323205342        000000000 00000000000000000017604800000000010560000000174791DA                            D       0000000000000000000000
03000221000005036073700000000000000000000002210000049983036                                                                                                                                                        
